:020000040800F2
:10000000E80400200101000831100008A30D0008D9
:100010002D1000086D01000887190008000000007D
:10002000000000000000000000000000CB160008E7
:1000300071010008000000006D100008190100089F
:100040001B0100081B0100081B0100081B01000820
:100050001B0100081B0100081B0100081B01000810
:100060001B0100081B0100081B0100081B01000800
:100070001B0100081B0100081B0100081B010008F0
:100080001B0100081B0100081B0100081B010008E0
:100090001B0100081B0100081B0100081B010008D0
:1000A0001B0100081B0100081B0100081B010008C0
:1000B0001B0100081B0100081B0100081B010008B0
:1000C0001B0100081B0100081B0100081B010008A0
:1000D0001B0100081B0100081B0100081B01000890
:1000E0001B0100081B0100081B010008DFF80CD0F1
:1000F00000F02AF800480047A9190008E804002089
:100100000648804706480047FEE7FEE7FEE7FEE7B1
:10011000FEE7FEE7FEE7FEE7FEE7FEE7F51700086D
:10012000ED000008D2B201E000F8012B491EFBD21D
:1001300070470022F6E710B513460A4604461946F2
:10014000FFF7F0FF204610BD064C074D06E0E068C3
:1001500040F0010394E8070098471034AC42F6D30E
:10016000FFF7C8FFDC190008FC19000800BFFEE714
:100170007047704730B504460D4600222946204698
:1001800000F002F830BD0000F0B503460125002460
:100190001148407A01281CDC00200F4E767A0E4F61
:1001A000B8553846467A001D40F82630001F467A7A
:1001B000083082553E46707A461C7E72044604F131
:1001C000300008703A2048702F2088700020C870D6
:1001D00000252846F0BD0000DC0000202DE9F0419C
:1001E00002460B4600200021002400267FE0012764
:1001F000874007EA0301002978D0FF2901D8174674
:1002000000E0171D3D46FF2901D8870002E0A0F15C
:100210000807BF003E462F684FF00F0C0CFA06FC93
:1002200027EA0C074FF0040C0CFA06FC47EA0C070F
:100230002F60D7688F43D760304F4FEA900C57F844
:100240002C4087074FEA177C0F2707FA0CF73C4032
:100250002B4FBA4201D100270FE02A4FBA4201D1F9
:1002600001270AE0284FBA4201D1022705E0274FB3
:10027000BA4201D1032700E004274FEA807C4FEA0D
:100280001C7C07FA0CF7A74230D187074FEA177C8E
:100290000F2707FA0CF4194F4FEA900C57F82C70FF
:1002A000A743DFF858C04FEA90084CF82870184F61
:1002B0003F688F43DFF858C0CCF800700CF104079A
:1002C0003F688F430CF1040CCCF800700CF104076C
:1002D0003F688F430CF1040CCCF800700CF104075C
:1002E0003F688F430CF1040CCCF80070401C23FADB
:1002F00000F7002F7FF47BAFBDE8F08108000140DC
:1003000000080140000C01400010014000140140B1
:10031000000401402DE9F847034600240020002591
:100320008446002700226EE14FF0010808FA02F42B
:10033000D1F8008008EA0400A0427DD1DFF8D0A205
:10034000D1F80480A8EB0A09D0453AD014DCB8F102
:10035000030F50D009DCB8F1000F31D0B8F1010F14
:100360001CD0B8F1020F49D120E0B8F1110F18D01C
:10037000B8F1120F42D11EE0B9F5881F25D006DC76
:10038000B9F5803F20D0B9F5801F37D11AE0B9F513
:10039000001F18D0B9F5041F30D117E0D1F80CC0F8
:1003A0002DE0D1F80C8008F1040C28E0D1F80C8085
:1003B00008F1080C23E0D1F80C8008F10C0C1EE0C9
:1003C00000BF00BF00BF00BF00BF00BFD1F8088062
:1003D000B8F1000F02D14FF0040C0BE0D1F8088007
:1003E000B8F1010F03D14FF0080C1C6102E04FF08F
:1003F000080C5C6103E04FF0000C00E000BF00BFA0
:10040000FF2801D8984601E003F104084646FF287A
:1004100002D84FEA820803E0A2F108084FEA8808F0
:100420004746D6F800804FF00F0909FA07F928EA85
:1004300009080CFA07F900E088E048EA0908C6F85C
:100440000080D1F8048008F08058B8F1805F7DD139
:1004500000BFDFF8C081D8F8188048F00108DFF845
:10046000B491C9F81880C846D8F8188008F0010877
:10047000CDF8008000BF00BF4FEAB9384FEA9209BB
:1004800058F829504FEA82784FEA18794FF00F0850
:1004900008FA09F825EA0805DFF87C81434502D10E
:1004A0004FF0000816E0DFF87481434502D14FF0A9
:1004B00001080FE0DFF86881434502D14FF00208E0
:1004C00008E0DFF86081434502D14FF0030801E006
:1004D0004FF004084FEA82794FEA197908FA09F8CF
:1004E00048EA0505DFF840814FEA920948F82950AB
:1004F000D1F8048008F48038B8F5803F0AD1DFF8DD
:100500002C81D8F8008048EA0008DFF82091C9F86B
:10051000008009E0DFF81481D8F8008028EA00089C
:10052000DFF80891C9F80080D1F8048008F4003899
:10053000B8F5003F10D1DFF8F48008F10408D8F8CE
:10054000008048EA0008DFF8E49000E05AE009F192
:100550000409C9F800800DE0DFF8D08008F1040834
:10056000D8F8008028EA0008DFF8C09009F10409F3
:10057000C9F80080D1F8048008F48018B8F5801F0D
:100580000ED1DFF8A88008F10808D8F8008048EA02
:100590000008DFF8989009F10809C9F800800DE01B
:1005A000DFF8888008F10808D8F8008028EA0008F9
:1005B000DFF8789009F10809C9F80080D1F80480C3
:1005C00008F40018B8F5001F0ED1DFF8608008F1BC
:1005D0000C08D8F8008048EA0008DFF8509009F1CC
:1005E0000C09C9F800800DE0DFF8408008F10C0824
:1005F000D8F8008028EA0008DFF8309009F10C09EB
:10060000C9F80080521C102AFFF48EAEBDE8F887AE
:10061000000011100010024000080140000C0140D1
:100620000010014000140140080001400004014096
:1006300001480068704700002000002070B50446A3
:10064000002600250CB9012070BD94F83D0028B9A2
:10065000002084F83C00204600F0AEF8242084F806
:100660003D002068006820F001002168086000F06B
:100670009BF905464C496068884206D84B4885423C
:1006800001D2012007E0002005E04948854201D25F
:10069000012000E00020012800D1D5E74548B5FB46
:1006A000F0F62068466040496068884201D8701CB6
:1006B00007E04FF4967070434FF47A71B0FBF1F09D
:1006C000401C2168086238496068884214D8681E56
:1006D00061684900B0FBF1F0401CC0F30B00042836
:1006E00001D204203DE0681E61684900B0FBF1F0D2
:1006F000401CC0F30B0034E0A06838B9681E616884
:1007000001EB4101B0FBF1F0401C0AE0681E61689A
:1007100001EBC10202EB0111B0FBF1F0401C40F40F
:100720008040C0F30B0008B901201AE0A06848B966
:10073000681E616801EB4101B0FBF1F0401CC0F3A1
:100740000B000CE0681E616801EBC10202EB0111B5
:10075000B0FBF1F0401CC0F30B0040F4804040F4CB
:1007600000402168C861D4E9070108432168086096
:10077000D4E90310084321688860D4E905010843DF
:100780002168C8602068006840F0010021680860A6
:1007900000202064202084F83D000020206384F89D
:1007A0003E0000BF50E70000A086010080841E00CC
:1007B00000093D0040420F0010B586B004460020FD
:1007C000029003900490059016492068884226D133
:1007D00000BF1548806940F0080013498861084649
:1007E000806900F00800019000BF00BF4FF4406036
:1007F0000290122003900320059002A90B48FFF7F6
:1008000089FD00BF0848C06940F480000649C861FE
:100810000846C06900F48000019000BF00BF06B028
:1008200010BD00000058004000100240000C0140C4
:1008300010B50848006840F0100006490860032021
:1008400000F098F8002000F007F800F02BF80020E6
:1008500010BD00000020024070B504460E4800782C
:100860004FF47A71B1FBF0F00C490968B1FBF0F577
:10087000284600F07CFA08B1012070BD102C07D288
:1008800000222146501E00F037F80548046001E0C0
:100890000120F2E70020F0E7280000202C000020D3
:1008A0002400002008B500BF1148806940F0010015
:1008B0000F4988610846806900F00100009000BF80
:1008C00000BF00BF0846C06940F08050C8610846BC
:1008D000C06900F08050009000BF00BF00BF054914
:1008E000486820F0E06040F00070486000BF08BD3C
:1008F00000100240000001402DE9F05F80460D46E7
:100900001646002700F096FB074639462A4633462E
:1009100001F00700C0F1070ABAF1040F02D94FF045
:10092000040A01E0C0F1070AD14600F1040ABAF155
:10093000070F02D24FF0000A01E0A0F1030AD446EB
:100940004FF0010A0AFA09FAAAF1010A0AEA020AB0
:100950000AFA0CFA4FF0010B0BFA0CFBABF1010B8E
:100960000BEA030B4AEA0B042146404600F06AFBFF
:10097000BDE8F09F00BF00F00702064B19684FF674
:10098000FF031940044B0B4343EA0221014B19605A
:1009900000BF70470CED00E00000FA050148006858
:1009A000704700002C00002000B5FFF7F7FF044956
:1009B0004968C1F30221034A515CC84000BD0000F0
:1009C00000100240D419000810B504460CB90120EB
:1009D00010BD022084F851002068006820F040001B
:1009E00021680860204600F04DF80020606584F81A
:1009F000510000BF84F8500000BF00BFE8E710B509
:100A000004460CB9012010BD0021A16294F85100E8
:100A100010B9204600F04EF8022084F851002068FA
:100A2000006820F0400021680860D4E90101084313
:100A3000E16808432169084361690843218B01F497
:100A400000710843E1690843216A0843A16A084329
:100A5000216808600421A06901EA1040616A084326
:100A6000216848602168E06A08612068C06920F454
:100A700000602168C86100206065012084F8510091
:100A80000020C0E710B5044607492068884209D114
:100A90000648806920F48050044988613821044860
:100AA000FFF79CFB10BD0000003001400010024029
:100AB000000C014010B586B004460020029003905F
:100AC000049005901E492068884236D100BF1D4819
:100AD000806940F480501B4988610846806900F4B1
:100AE0008050019000BF00BF00BF0846806940F001
:100AF000080088610846806900F00800019000BF86
:100B000000BF28200290022003900320059002A934
:100B10000D48FFF7FFFB1020029000200390049087
:100B200002A90948FFF7F6FB00BF0849486840F0F2
:100B3000E06040F00100486000BF06B010BD00005A
:100B40000030014000100240000C01400000014054
:100B50002DE9FE4F04460D4616461F46DDF830804F
:100B60004FF0000A0020029081464FF0010B0190E7
:100B700000BF94F85000012802D10220BDE8FE8F8A
:100B8000012084F8500000BFFFF752FD814694F821
:100B900051A060680290BAF1010F0BD00298B0F535
:100BA000827F04D1A06810B9BAF1040F02D00220EC
:100BB0000190D2E00DB106B117B901200190CCE04F
:100BC00094F85100012802D1052084F8510000203A
:100BD0006065A663E787A7872563E786A786206405
:100BE00060642068006800F04000402805D020685C
:100BF000006840F0400021680860E068B0F5006FD0
:100C000043D1606810B1E08E012806D128882168A0
:100C1000C860AD1CE08E401EE0862FE0BBF1000FE7
:100C200010D0E08E70B12068806800F002000228C9
:100C300008D128882168C860AD1CE08E401EE0867F
:100C40004FF0000BE08F68B12068806800F0010071
:100C500040B12068C0683080B61CE08F401EE0873D
:100C60004FF0010B08F1010040B1FFF7E1FCA0EBF0
:100C70000900404502D3032001906EE0E08E002879
:100C8000CCD1E08F0028C9D142E0606810B1E08E7D
:100C9000012806D12878216808736D1CE08E401E5B
:100CA000E0862FE0BBF1000F10D0E08E70B120681D
:100CB000806800F00200022808D115F8010B2168B5
:100CC0000873E08E401EE0864FF0000BE08F68B1A5
:100CD0002068806800F0010040B12068C06806F814
:100CE000010BE08F401EE0874FF0010B08F101007F
:100CF00040B1FFF79DFCA0EB0900404502D3032063
:100D000001902AE0E08E0028CCD1E08F0028C9D1E4
:100D10004346012202212046CDF8009000F080FCDD
:100D200010B10320019018E04A464146204600F0E9
:100D300063FC20B101200190202060650DE0A068D7
:100D400050B900BF002000902068C0680090206863
:100D50008068009000BF00BF00BF012084F85100F0
:100D600000BF002084F8500000BF019806E770B56E
:100D700004462546681EB0F1807F01D301200FE0B4
:100D8000681E4FF0E02148610F214FF0FF3000F066
:100D900059F900204FF0E021886107200861002008
:100DA00070BD00BFFEE7000008B505498969014331
:100DB000034A9161114689690140009100BF08BD55
:100DC000001002402DE9F04102460B461868C0F3BE
:100DD0000F2595FAA5F0B0FA80F47CE00120A04040
:100DE0002840002876D0082C04D240F2011000FAE6
:100DF00004F106E0A4F108004FF00116864046F029
:100E00008061586802EB116691FAA1FCBCFA8CFC77
:100E10004FEA8C084FF00F0C0CFA08FC376827EAF1
:100E20000C0791FAA1FCBCFA8CFC4FEA8C0C00FA7E
:100E30000CFC47EA0C07376000BF1869D66826EA41
:100E400011260F0A97FAA7F7B7FA87F700FA07F7FC
:100E50003E43D66000BF5868012802D05868092870
:100E600038D1986802EB116691FAA1FCBCFA8CFCAF
:100E70004FEA8C084FF0030C0CFA08FC376827EA9D
:100E80000C0791FAA1FCBCFA8CFC4FEA8C0C00FA1E
:100E90000CFC47EA0C07376000BFD86802EB11660C
:100EA00091FAA1FCBCFA8CFC4FEA8C084FF0040CC0
:100EB0000CFA08FC376827EA0C0791FAA1FCBCFA87
:100EC0008CFC4FEA8C0C00FA0CFC47EA0C073760EC
:100ED00000BF00BF641C25FA04F000287FF47EAF39
:100EE0000120BDE8F0814FF47A71B0FBF1F2521E9F
:100EF0004FF0E0235A6100229A6105221A6100BF77
:100F00007047000001490860704700002C00002075
:100F100010B503490348FFF72DF90349087010BDC8
:100F2000020000200C0000200100002000B585B068
:100F300014216846FFF7FDF82020FFF735FF082051
:100F4000FFF732FF0420FFF72FFF1348C0F30F21F4
:100F5000124A516100BF1248C0F30F21114A1161BA
:100F600000BF0D4800900120019003200290002056
:100F7000039069460948FFF725FF094800900120C2
:100F80000190032002900020039069460548FFF776
:100F900019FF05B000BD000080008004000801407A
:100FA000C3C00304000C014010B50B480B49086096
:100FB0000B484860002109488160C1604FF48041BE
:100FC0000161002141618161C1610162FFF736FB6E
:100FD00008B1FFF7CEF810BD0058004030000020E7
:100FE000801A060010B50F480F4908604FF4827050
:100FF000486000210C488160C1600221016101212B
:101000004161490281613821C1610021016241626F
:1010100081620A21C162FFF7F2FC08B1FFF7A9F86B
:1010200010BD0000003001408400002000BFFEE73A
:101030007047000002480068C0F3022070470000BB
:101040000CED00E010B5002807DA0A07140E054A77
:1010500000F00F031B1FD45403E00A07130E024ACB
:10106000135410BD18ED00E000E400E070470000EC
:1010700010B50548C0F30F21044A116100BFFF20DD
:1010800000F08AF910BD000080008004000C0140CF
:1010900070B5054601220021092000F018FA044627
:1010A00024B91021284600F05BF90446FFF7E0FF61
:1010B0000CB1012070BD0020FCE770B505464FF66D
:1010C000FF7401E0601E84B2FF2000F065F9A842C1
:1010D00001D0002CF6D10CB9FF2070BD0020FCE738
:1010E0007FB56846FFF7D4FF10B1002004B070BD93
:1010F0009DF8000000F0C000402809D19DF80900CB
:101100009DF8081000EB0120401C84B2A50220E0ED
:101110009DF8050000F00F009DF80A1000EBD110BB
:101120009DF8091001F0030100EB4100861C9DF8B9
:10113000080080119DF8071000EB81009DF8061053
:1011400001F0030100EB8120441CA6F1090004FA20
:1011500000F52846CAE70000F8B50024002600255F
:1011600000BF04E0FF2000F017F9681C85B20A2DCB
:10117000F8DB00BF95220021084600F0A8F90446DC
:10118000701C86B2012C01D0C82EF3DBC82E01DB07
:101190000120F8BD002053490870012C4AD1872254
:1011A0004FF4D571082000F092F9012847D10025AD
:1011B00006E0FF2000F0F0F80DF80500681C85B28D
:1011C000042DF6DB9DF80200012879D19DF803007B
:1011D000AA2875D14FF6FE7600BF012200213720E4
:1011E00000F075F901229107292000F070F90446FA
:1011F00024B1301EA6F101018EB2EED1002E5FD0D7
:10120000012200213A2000F062F9002858D100257F
:1012100006E0FF2000F0C0F80DF80500681C85B25C
:10122000042DF6DB9DF8000000F0400018B1062008
:101230002C49087044E004202A49087040E001224B
:101240000021372000F043F901220021292000F07D
:101250003EF90446012C17DC0220224908704FF6A3
:10126000FE7600BF01220021372000F030F9012274
:101270000021292000F02BF90446BCB1301EA6F154
:1012800001018EB2EED111E00120164908704FF62F
:10129000FE7600BF01220021104600F018F9044636
:1012A00024B1301EA6F101018EB2F3D12EB101227C
:1012B0005102102000F00BF910B10020094908700C
:1012C000FFF7D6FE0848FFF77FFB00F077F80548E8
:1012D000007808B100205CE70CB1204659E7AA204D
:1012E00057E7000000000020840000202DE9F041B5
:1012F00006460F46154619480078062800D07F029A
:10130000012D0CD101223946112000F0E0F80446ED
:10131000FCB96902304600F023F8044619E00122C6
:101320003946122000F0D3F8044600BF4FF4007194
:10133000304600F015F8044606F50076681EC0B287
:10134000051E01D0002CF1D0012200210C2000F05C
:10135000BEF8FFF78DFE2046BDE8F08100000020BA
:1013600070B504460D46FE20FFF7A7FE08B1012028
:1013700070BD04E0FF2000F00FF82070641C281EF0
:10138000A5F101018DB2F5D1FF2000F005F8FF2095
:1013900000F002F80020EBE701B582B000200190D8
:1013A000FF20012301AA02A900900348FFF7D0FB08
:1013B0009DF804000EBD00008400002010B5104808
:1013C000FFF702FB0F480E4908604FF48270486037
:1013D00000210B488160C16002210161012141614E
:1013E000490281610821C16100210162416281627B
:1013F0000A21C162FFF703FB08B1FEF7BAFE10BD78
:10140000840000200030014010B51048FFF7DCFADE
:101410000F480E4908604FF48270486000210B4865
:101420008160C16002210161012141614902816144
:101430003821C16100210162416281620A21C162D9
:10144000FFF7DDFA08B1FEF794FE10BD840000201E
:101450000030014010B50748C0F30F21064A516122
:1014600000BF00F070F808B9002010BDFFF700FEC3
:101470000120FAE780008004000C014070B50646A8
:101480000D4600F060F808B1012070BD2846FFF756
:1014900083FFFD2D19D0002404E0305DFFF77CFFB1
:1014A000601C84B2B4F5007FF7DBFF20FFF774FF08
:1014B000FF20FFF771FFFF20FFF76EFF044604F0E7
:1014C0001F00052801D00220DFE70020DDE72DE91D
:1014D000F04105460C4617464FF00008FFF7C8FDDF
:1014E000FFF7B8FF10B1FF20BDE8F08145F04000E4
:1014F000FFF752FF200EFFF74FFFC4F30740FFF73F
:101500004BFFC4F30720FFF747FFE0B2FFF744FFAC
:101510003846FFF741FF0C2D02D1FF20FFF73CFFBB
:101520004FF01F0800BFFF20FFF736FF064606F00A
:10153000800030B1B8F10000A8F1010101F0FF080E
:10154000F1D13046D0E710B5002400BFFF20FFF7EF
:1015500023FFFF2801D1002010BD641C4FF6FF704F
:101560008442F3D30120F7E72DE9F04106460F4608
:10157000154620480078062800D07F02012D0CD1A6
:10158000012239461820FFF7A2FF04466CBBFE215A
:101590003046FFF773FF044627E01648007801281D
:1015A00009D0012200213720FFF791FF01222946AF
:1015B0001720FFF78CFF012239461920FFF787FF1C
:1015C000044694B900BFFC213046FFF757FF04469C
:1015D00006F50076681EC0B2051E01D0002CF2D0C0
:1015E000FD210020FFF74AFF0446FFF741FD20469A
:1015F000BDE8F08100000020F8B504460D4616460F
:101600002B46002280212046009600F009F828B1E0
:10161000606D40F0200060650320F8BD0020FCE70D
:101620002DE9F04104460E4617461D46DDF81880A8
:101630003FE0681CE0B32DB1FEF7FAFFA0EB080015
:10164000A84236D32068406820F0E0002168486056
:101650006068B0F5827F0DD1A068B0F5004F03D06F
:10166000A068B0F5806F05D12068006820F04000C8
:1016700021680860A06AB0F5005F0ED100BF206845
:1016800000684DF6FF710840216808602068006816
:1016900040F400502168086000BF012084F8510028
:1016A00000BF002084F8500000BF0320BDE8F08197
:1016B000FFE7206880683040B04201D1012000E09F
:1016C0000020B842B5D10020F0E7704710B50220E5
:1016D0004549096821F007010143434A116000BFF1
:1016E00000BF1046006800F00700022801D0FEF796
:1016F00040FD00BF3D48006840F480303B49086031
:1017000000BF00BF00BF39480068C0F34040002858
:10171000F8D000BF3548006840F400203349086025
:1017200000BF4FF480300101304A526822F47C122D
:1017300000F440330B431A432C4B5A6000BF00BFE8
:101740001846006840F080701946086000BF00BF6E
:1017500000BF26480068C0F340600028F8D0002091
:101760002249496821F0F0010143204A516000BF3D
:1017700010151146496821F4E0610143516000BF32
:1017800000201146496821F460510143516000BFB7
:1017900002201146496821F003010143516000BF56
:1017A00000BF00BF1148406800F00C000828F8D1C5
:1017B0000F48FFF798FB0420042808D14FF0E021E0
:1017C000096941F004014FF0E022116107E04FF098
:1017D000E021096921F004014FF0E022116100BF0E
:1017E0000348FFF78FFB10BD0020024000100240AD
:1017F00000A24A041148006840F001000F49086047
:10180000084640680E4908400C4948600846006890
:101810000C490840094908600846006820F4802007
:1018200008600846406820F4FE0048604FF41F003E
:101830008860C80304490860704700000010024037
:101840000000FFF8FFFFF6FE08ED00E010B50446CB
:1018500001200B490870FFF77FFC30B90848007879
:1018600020F001000649087006E0FFF7CDFDFF20DB
:10187000FFF792FDFFF7A2FD0148007810BD0000C0
:10188000080000202DE9F04107460D4614460126C8
:101890001A48007800F0010010B10320BDE8F08183
:1018A00035B1012D17D0022D1AD0032D21D11CE006
:1018B0001348C0F30F21134A516100BFFFF743FEE5
:1018C00008B9002600E001260D48C0F30F210D4A9B
:1018D000116100BF0FE0FFF703FC206000260AE063
:1018E0004FF400702080002605E0082020600026CC
:1018F00001E0042600BF00BF3046CFE7080000200B
:1019000080008004000C01402DE9F04107460C46A0
:1019100015461E46F2B229462046FFF7E7FC10B9ED
:101920000020BDE8F0810120FBE7000010B504466F
:1019300001200B490870FFF706FE30B9084800780F
:1019400020F001000649087006E0FFF75DFDFF206A
:10195000FFF722FDFFF732FD0148007810BD0000BF
:10196000080000202DE9F04107460C4615461E46AA
:10197000F2B229462046FFF7F7FD10B90020BDE876
:10198000F0810120FBE700BFFEE702E008C8121F5C
:1019900008C1002AFAD170477047002001E001C158
:1019A000121F002AFBD17047FEF742FFFFF78EFEA1
:1019B000FFF7BCFAFFF716FBFFF7AAFAFFF7F4FAF6
:1019C00000BFFEE700000000000000000102030469
:1019D000060708090000000001020304FC190008C2
:1019E00000000020300000008A1900082C1A0008AE
:1019F00030000020B80400009A1900080000000020
:101A000000000000010000004D1800082D1900081A
:101A10000919000865190008851800080000000071
:0C1A2000100000000100000000A24A04B9
:04000005080000ED02
:00000001FF
