:020000040800F2
:10000000880900200101000851210008131A000886
:100010004D210008A3060008A72A000800000000E0
:10002000000000000000000000000000EB270008B6
:10003000A7060008000000008D2100081901000833
:100040001B0100081B0100081B0100081B01000820
:100050001B0100081B0100081B0100081B01000810
:100060001B0100081B0100081B0100081B01000800
:100070001B0100081B0100081B0100081B010008F0
:100080001B0100081B0100081B0100081B010008E0
:100090001B0100081B0100081B0100081B010008D0
:1000A0001B0100081B0100081B0100081B010008C0
:1000B0001B0100081B0100081B0100081B010008B0
:1000C0001B0100081B0100081B0100081B010008A0
:1000D0001B0100081B0100081B0100081B01000890
:1000E0001B0100081B0100081B010008DFF80CD0F1
:1000F00000F0A4FA004800472948000888090020B9
:100100000648804706480047FEE7FEE7FEE7FEE7B1
:10011000FEE7FEE7FEE7FEE7FEE7FEE7152900083B
:10012000ED000008202A04DB203A21FA02F0002129
:10013000704721FA02F3D040C2F1200291400843F7
:1001400019467047D2B201E000F8012B491EFBD2DC
:1001500070470022F6E710B513460A4604461946D2
:10016000FFF7F0FF204610BD2DE9FE4F81EA0304A2
:1001700004F0004421F0004100944FF0000B23F004
:10018000004350EA01045ED052EA03045BD0C3F39B
:100190000A54C1F30A552C44A4F2F3340194A0FB91
:1001A0000254C1F3130141F48011C3F3130343F468
:1001B000801301FB024400FB034E840A970A44EAC1
:1001C000815447EA8357A4FB076802958D0A05FB13
:1001D00007854FEA932C04FB0C542705029D4FEA38
:1001E000065847EA1637B5EB08056EEB070C870E85
:1001F000920E47EA811742EA8312A7FB0201B6EB8F
:100200000B0164EB00042B0D43EA0C335E1844EB46
:100210001C50DA465146E7FB0201C5F313044FEACE
:100220000B3343EA14534FEA0432019C43EA0603BA
:10023000A4F10C040294009CCDE900B400F0D8F8BD
:1002400003B0BDE8F08F00200146F9E72DE9F04D3D
:1002500081EA030404F0004B21F0004514464FF0FE
:10026000000A23F0004150EA050220D054EA0102BE
:100270001DD0C5F30A570246C5F31303C1F313009B
:10028000C1F30A5640F4801543F48013A7EB060827
:10029000101BD64608F2FD3873EB050002D308F1B7
:1002A000010801E092185B41B8F1000F03DA002069
:1002B0000146BDE8F08D00204FF4801106468446CB
:1002C0000EE0171B73EB050705D3121B63EB050349
:1002D00006434CEA010C49084FEA300092185B4192
:1002E00050EA0107EDD152EA030012D082EA04007D
:1002F00083EA0501084305D0101BAB4106D2012259
:10030000002306E000224FF0004302E06FF00102FC
:1003100053101AEB06004CEB085110EB0A0041EBAE
:100320000B01BDE8F04D00F054B80EB540F233417A
:1003300002910021CDE900110A460B4600F058F861
:1003400003B000BD30B50B46014600202022012439
:1003500009E021FA02F59D4205D303FA02F5491B93
:1003600004FA02F52844151EA2F10102F1DC30BDA9
:100370002DE9F05F0546002092469B4688460646DA
:10038000814640241BE02846414647462246FFF767
:10039000C9FE53465A46C01A914110D31146184619
:1003A000224600F05DF92D1A67EB01084F46224600
:1003B0000120002100F054F917EB00094E41201EE6
:1003C000A4F10104DFDC484631462A464346BDE835
:1003D000F09F10B5141E73F1000408DA401C41F1BF
:1003E000000192185B411A4301D120F0010010BDB9
:1003F0002DE9F04D92469B4611B1B1FA81F202E02F
:10040000B0FA80F22032904600F02AF904460F46F6
:1004100040EA0A0041EA0B0153465A46084313D00A
:10042000114653EA010019D0C8F140025046FFF7C7
:1004300079FE05460E4650465946424600F010F9F0
:10044000084305D0012004E020463946BDE8F08D80
:100450000020054346EAE0762C4337430A986305BB
:10046000E40AA0EB08000022FD0A44EA47540A30DF
:1004700002D500200146E9E7010510196941DDE9CF
:10048000084500196941BDE8F04DA2E72DE9FE4F8E
:10049000804681EA0300C00F0C46009021F0004125
:1004A00023F00045B8EB0200A94105D240462146A1
:1004B00090461C460B46024623F00040104347D0AE
:1004C000270DC7F30A00C3F30A510290401A0190A6
:1004D00040286BDAC3F3130040F4801B0098924667
:1004E00020B10023D2EB030A63EB0B0B01985946B2
:1004F000C0F14002504600F0B3F806460D465046A3
:100500005946019A00F0BBF810EB08006141002445
:1005100087EA115284EAE7731A4340D0009A62B323
:10052000019A012A4FEA075215DC001B61EB020118
:100530004FF0004202EA0752CDE90042001C41F5AB
:10054000801132462B46FFF753FF03B0BDE8F08F12
:1005500040462146F9E7001B61EB0201001C41F512
:10056000801300185B412018A2F5001747EB030128
:1005700040EAD570B6196D4111E06D084FEA3606B4
:1005800045EAC0754FEA0752001B61EB0201001CEF
:1005900041F5801149084FEA3000001951413246B7
:1005A0002B4603B0BDE8F04FFFF713BF00980122C0
:1005B00040000023D0EB020263EBE0730098214679
:1005C0004FEAE074B8EB000061EB0401E9E783F067
:1005D00000435BE781F0004158E7C1F30A52C1F3E1
:1005E000130140F2FF3341F480119A4202DA0020F5
:1005F0000146704740F233439A42A2F2334202DC92
:100600005242FFF78FBD00F02BB8000030B5041E3A
:1006100071F1000404DB4FF00044404264EB01013F
:10062000141E73F1000405DB1C464FF000435242D8
:1006300063EB0403994208BF904230BD064C074D5E
:1006400006E0E06840F0010394E8070098471034A2
:10065000AC42F6D3FFF74EFDA44D0008C44D000890
:10066000202A04DB203A00FA02F100207047914072
:10067000C2F1200320FA03F3194390407047202A67
:1006800006DBCB17203A41FA02F043EAE07306E0BA
:1006900041FA02F3D040C2F12002914008431946CA
:1006A000704700BFFEE77047704730B504460D46FF
:1006B00000222946204600F001F830BDF0B503467F
:1006C000012500241148407A01281CDC00200F4E2F
:1006D000767A0E4FB8553846467A001D40F82630D7
:1006E000001F467A083082553E46707A461C7E725C
:1006F000044604F1300008703A2048702F208870BA
:100700000020C87000252846F0BD000078050020B4
:1007100070B50546002435B1012D0FD0022D18D03B
:10072000032D2CD120E0002000F0AAF8C0F30B0428
:10073000012000F0A5F840EA044421E0022000F086
:100740009FF8C0F30B04032000F09AF840EA044439
:1007500016E0042000F094F8C0F30B04052000F02C
:100760008FF840EA04440BE0062000F089F8C0F35B
:100770000B04072000F084F840EA044400E000BFC6
:1007800000BF24F07044204670BD00002DE9F04108
:1007900080464046FFF7C9FD064632460B460748ED
:1007A0000749FFF753FD04460D4622462B462046D7
:1007B0002946FFF7D9FCBDE8F0810000DBF97E6A2D
:1007C000B8A8AB4170B545F2494443F2550500BFA6
:1007D0007E2000F055F8A042FAD100BF7F2000F043
:1007E0004FF8A842FAD1FB223421082000F068F823
:1007F000FB223421092000F063F8FB2234210A2077
:1008000000F05EF81B220021102000F059F81B2296
:100810000021112000F054F81B220021122000F0CA
:100820004FF802222021142000F04AF80222202151
:10083000152000F045F802222021162000F040F893
:10084000002278211E2000F03BF8002278211F2092
:1008500000F036F800227821202000F031F8002244
:100860001146192000F02CF80D22C2211B2000F0A7
:1008700027F8012214211A2000F022F870BD000090
:100880007FB50446002500200390FF20022103AA23
:100890000123CDE90021029022465421074800F0AF
:1008A00043FB08B100F02AF89DF80D009DF80C10EC
:1008B00040EA0125284604B070BD00005800002021
:1008C0007FB504460D4616468DF80C508DF80D6028
:1008D000FF20022103AA0123CDE900210290224634
:1008E0005421054800F0C4FC20B100F007F80120B5
:1008F00004B070BD0020FBE75800002010B503488D
:1009000000F036FA01F0E0FB10BD000058000020B6
:100910002DE9F04102460B4600200021002400266C
:100920007FE00127874007EA0301002978D0FF29EB
:1009300001D8174600E0171D3D46FF2901D8870062
:1009400002E0A0F10807BF003E462F684FF00F0CF1
:100950000CFA06FC27EA0C074FF0040C0CFA06FC14
:1009600047EA0C072F60D7688F43D760304F4FEAB4
:10097000900C57F82C4087074FEA177C0F2707FA8F
:100980000CF73C402B4FBA4201D100270FE02A4F11
:10099000BA4201D101270AE0284FBA4201D1022709
:1009A00005E0274FBA4201D1032700E004274FEAB0
:1009B000807C4FEA1C7C07FA0CF7A74230D18707EE
:1009C0004FEA177C0F2707FA0CF4194F4FEA900CE7
:1009D00057F82C70A743DFF858C04FEA90084CF83E
:1009E0002870184F3F688F43DFF858C0CCF800706C
:1009F0000CF104073F688F430CF1040CCCF8007035
:100A00000CF104073F688F430CF1040CCCF8007024
:100A10000CF104073F688F430CF1040CCCF8007014
:100A2000401C23FA00F7002F7FF47BAFBDE8F08174
:100A30000800014000080140000C01400010014086
:100A400000140140000401402DE9F847034600244A
:100A5000002000258446002700226EE14FF00108A7
:100A600008FA02F4D1F8008008EA0400A0427DD11F
:100A7000DFF8D0A2D1F80480A8EB0A09D0453AD01B
:100A800014DCB8F1030F50D009DCB8F1000F31D0FD
:100A9000B8F1010F1CD0B8F1020F49D120E0B8F134
:100AA000110F18D0B8F1120F42D11EE0B9F5881F0E
:100AB00025D006DCB9F5803F20D0B9F5801F37D1AD
:100AC0001AE0B9F5001F18D0B9F5041F30D117E0AE
:100AD000D1F80CC02DE0D1F80C8008F1040C28E00E
:100AE000D1F80C8008F1080C23E0D1F80C8008F153
:100AF0000C0C1EE000BF00BF00BF00BF00BF00BF66
:100B0000D1F80880B8F1000F02D14FF0040C0BE0CF
:100B1000D1F80880B8F1010F03D14FF0080C1C6127
:100B200002E04FF0080C5C6103E04FF0000C00E0C5
:100B300000BF00BFFF2801D8984601E003F1040878
:100B40004646FF2802D84FEA820803E0A2F10808CF
:100B50004FEA88084746D6F800804FF00F0909FA97
:100B600007F928EA09080CFA07F900E088E048EAE2
:100B70000908C6F80080D1F8048008F08058B8F160
:100B8000805F7DD100BFDFF8C081D8F8188048F0C1
:100B90000108DFF8B491C9F81880C846D8F8188061
:100BA00008F00108CDF8008000BF00BF4FEAB93857
:100BB0004FEA920958F829504FEA82784FEA18799B
:100BC0004FF00F0808FA09F825EA0805DFF87C81DC
:100BD000434502D14FF0000816E0DFF87481434529
:100BE00002D14FF001080FE0DFF86881434502D1E0
:100BF0004FF0020808E0DFF86081434502D14FF072
:100C0000030801E04FF004084FEA82794FEA1979AE
:100C100008FA09F848EA0505DFF840814FEA920929
:100C200048F82950D1F8048008F48038B8F5803F9E
:100C30000AD1DFF82C81D8F8008048EA0008DFF8F4
:100C40002091C9F8008009E0DFF81481D8F800800D
:100C500028EA0008DFF80891C9F80080D1F804807C
:100C600008F40038B8F5003F10D1DFF8F48008F13F
:100C70000408D8F8008048EA0008DFF8E49000E0B3
:100C80005AE009F10409C9F800800DE0DFF8D080CE
:100C900008F10408D8F8008028EA0008DFF8C090BE
:100CA00009F10409C9F80080D1F8048008F480181B
:100CB000B8F5801F0ED1DFF8A88008F10808D8F831
:100CC000008048EA0008DFF8989009F10809C9F89F
:100CD00000800DE0DFF8888008F10808D8F800806F
:100CE00028EA0008DFF8789009F10809C9F80080BF
:100CF000D1F8048008F40018B8F5001F0ED1DFF811
:100D0000608008F10C08D8F8008048EA0008DFF895
:100D1000509009F10C09C9F800800DE0DFF840801F
:100D200008F10C08D8F8008028EA0008DFF83090B5
:100D300009F10C09C9F80080521C102AFFF48EAE8C
:100D4000BDE8F887000011100010024000080140C3
:100D5000000C014000100140001401400800014057
:100D60000004014001480068704700003000002086
:100D700010B504460CB9012010BD242084F83D00B4
:100D80002068006820F0010021680860204600F01B
:100D900033FB0020206484F83D00206384F83E008B
:100DA00000BF84F83C0000BF00BFE5E770B5044613
:100DB000002600250CB9012070BD94F83D0028B92B
:100DC000002084F83C00204600F02EFB242084F80C
:100DD0003D002068006820F001002168086000F0F4
:100DE0001BFC05464C496068884206D84B48854242
:100DF00001D2012007E0002005E04948854201D2E8
:100E0000012000E00020012800D1D5E74548B5FBCE
:100E1000F0F62068466040496068884201D8701C3E
:100E200007E04FF4967070434FF47A71B0FBF1F025
:100E3000401C2168086238496068884214D8681EDE
:100E400061684900B0FBF1F0401CC0F30B000428BE
:100E500001D204203DE0681E61684900B0FBF1F05A
:100E6000401CC0F30B0034E0A06838B9681E61680C
:100E700001EB4101B0FBF1F0401C0AE0681E616823
:100E800001EBC10202EB0111B0FBF1F0401C40F498
:100E90008040C0F30B0008B901201AE0A06848B9EF
:100EA000681E616801EB4101B0FBF1F0401CC0F32A
:100EB0000B000CE0681E616801EBC10202EB01113E
:100EC000B0FBF1F0401CC0F30B0040F4804040F454
:100ED00000402168C861D4E907010843216808601F
:100EE000D4E90310084321688860D4E90501084368
:100EF0002168C8602068006840F00100216808602F
:100F000000202064202084F83D000020206384F825
:100F10003E0000BF50E70000A086010080841E0054
:100F200000093D0040420F002DE9FC5F04460F46DA
:100F300090469946DDE90CAB0E9E0025FFF712FFA7
:100F4000054694F83D0020287ED119230122C54989
:100F50002046009500F0C1FE10B10220BDE8FC9FC4
:100F600000BF94F83C00012801D10220F6E70120DF
:100F700084F83C0000BF2068006800F0010028B938
:100F80002068006840F0010021680860206800685F
:100F900020F4006021680860222084F83D00402091
:100FA00084F83E0000202064C4F824A0A4F82AB0ED
:100FB000AD48E062608D20854B464246394620466A
:100FC000CDE9006500F042FD80B1206C042806D117
:100FD00000BF002084F83C0000BF0120BEE700BF36
:100FE000002084F83C0000BF0320B7E7208D88B9BB
:100FF00000BF00200190206840690190206880694E
:10100000019000BF00BF2068006840F400702168B4
:1010100008604CE0208D01281BD12068006820F476
:1010200080602168086072B600BF002001902068CF
:101030004069019020688069019000BF00BF20686E
:10104000006840F4007000E009E12168086062B6C1
:101050002DE0208D022819D12068006840F400603E
:101060002168086072B600BF0020019020684069C6
:10107000019020688069019000BF00BF206800686F
:1010800020F480602168086062B610E02068006883
:1010900040F480602168086000BF00200190206853
:1010A0004069019020688069019000BF00BFC7E0DF
:1010B000208D032875D8208D01281AD12A46314663
:1010C000204600F09EFE30B1206C202801D1032084
:1010D00044E7012042E720680069C1B2626A501CFF
:1010E00060621170208D401E2085608D401E6085DD
:1010F000A6E0208D02282CD1334600225B492046F1
:10110000009500F0EAFD08B1032027E772B62068D9
:10111000006840F400702168086020680069C1B26E
:10112000626A501C60621170208D401E2085608DA7
:10113000401E608562B620680069C1B2626A501CB8
:1011400060621170208D401E2085608D401E60857C
:1011500076E03346002245492046009500F0BDFD6B
:1011600008B10320FAE62068006820F48060216856
:10117000086072B620680069C1B2626A501C606281
:101180001170208D401E2085608D401E6085334685
:10119000002236492046009500F09FFD10B1032043
:1011A000DCE621E02068006840F4007021680860F7
:1011B00020680069C1B2626A501C60621170208DA3
:1011C000401E2085608D401E608562B620680069E3
:1011D000C1B2626A501C60621170208D401E208571
:1011E000608D401E60852BE02A463146204600F087
:1011F00008FE30B1206C202801D10320AEE601208A
:10120000ACE620680069C1B2626A501C606211706D
:10121000208D401E2085608D401E608520684069BD
:10122000C0F3800060B120680069C1B2626A501CDE
:1012300060621170208D401E2085608D401E60858B
:10124000208D00287FF434AF202084F83D0000205A
:1012500084F83E0000BF84F83C0000BF7EE6022018
:101260007CE60000020010000000FFFF0400010007
:101270002DE9FC5F04460F4690469946DDE90CAB2C
:101280000E9E0025FFF76EFD054694F83D002028D0
:101290007ED11923012256492046009500F01DFDFC
:1012A00010B10220BDE8FC9F00BF94F83C0001286B
:1012B00001D10220F6E7012084F83C0000BF20683D
:1012C000006800F0010028B92068006840F00100C3
:1012D000216808602068006820F4006021680860C8
:1012E000212084F83D00402084F83E000020206446
:1012F000C4F824A0A4F82AB03E48E062608D20859E
:101300004B46424639462046CDE9006500F04AFC8E
:1013100080B1206C042806D100BF002084F83C0076
:1013200000BF0120BEE700BF002084F83C0000BFE2
:101330000320B7E733E02A463146204600F098FD07
:1013400060B1206C042807D12068006840F4007068
:10135000216808600120A5E70320A3E7616A481C13
:101360006062087821680861208D401E2085608DAC
:10137000401E608520684069C0F3800078B1208DF0
:1013800068B1616A481C606208782168086100E001
:101390002CE0208D401E2085608D401E6085208DB4
:1013A0000028C8D12A463146204600F06BFC60B1C7
:1013B000206C042807D12068006840F40070216880
:1013C000086001206EE703206CE72068006840F4A5
:1013D000007021680860202084F83D00002084F817
:1013E0003E0000BF84F83C0000BF5BE7022059E7E5
:1013F000020010000000FFFF10B5044607492068F6
:1014000088420AD10648C06920F480000449C861B6
:101410004FF440610348FFF77BFA10BD00580040CD
:1014200000100240000C014010B586B004460020B8
:10143000029003900490059016492068884226D1B6
:1014400000BF1548806940F00800134988610846CC
:10145000806900F00800019000BF00BF4FF44060B9
:101460000290122003900320059002A90B48FFF779
:10147000EBFA00BF0848C06940F480000649C86123
:101480000846C06900F48000019000BF00BF06B0AC
:1014900010BD00000058004000100240000C014048
:1014A00010B50848006840F01000064908600320A5
:1014B00000F098F8002000F007F800F02BF800206A
:1014C00010BD00000020024070B504460E480078B0
:1014D0004FF47A71B1FBF0F00C490968B1FBF0F5FB
:1014E000284600F07CFA08B1012070BD102C07D20C
:1014F00000222146501E00F037F80548046001E044
:101500000120F2E70020F0E7380000203C00002036
:101510003400002008B500BF1148806940F0010088
:101520000F4988610846806900F00100009000BF03
:1015300000BF00BF0846C06940F08050C86108463F
:10154000C06900F08050009000BF00BF00BF054997
:10155000486820F0E06040F00070486000BF08BDBF
:1015600000100240000001402DE9F05F80460D466A
:101570001646002700F0EEFD074639462A46334658
:1015800001F00700C0F1070ABAF1040F02D94FF0C9
:10159000040A01E0C0F1070AD14600F1040ABAF1D9
:1015A000070F02D24FF0000A01E0A0F1030AD4466F
:1015B0004FF0010A0AFA09FAAAF1010A0AEA020A34
:1015C0000AFA0CFA4FF0010B0BFA0CFBABF1010B12
:1015D0000BEA030B4AEA0B042146404600F0C2FD29
:1015E000BDE8F09F00BF00F00702064B19684FF6F8
:1015F000FF031940044B0B4343EA0221014B1960DE
:1016000000BF70470CED00E00000FA0501480068DB
:10161000704700003C00002000B5FFF7F7FF0449C9
:101620004968C1F30221034A515CC84000BD000073
:1016300000100240E64C000810B504460CB9012029
:1016400010BD022084F851002068006820F040009E
:1016500021680860204600F04DF80020606584F89D
:10166000510000BF84F8500000BF00BFE8E710B58C
:1016700004460CB9012010BD0021A16294F851006C
:1016800010B9204600F04EF8022084F8510020687E
:10169000006820F0400021680860D4E90101084397
:1016A000E16808432169084361690843218B01F41B
:1016B00000710843E1690843216A0843A16A0843AD
:1016C000216808600421A06901EA1040616A0843AA
:1016D000216848602168E06A08612068C06920F4D8
:1016E00000602168C86100206065012084F8510015
:1016F0000020C0E710B5044607492068884209D198
:101700000648806920F480500449886138210448E3
:10171000FFF7FEF810BD000000300140001002404D
:10172000000C014010B586B00446002002900390E2
:10173000049005901E492068884236D100BF1D489C
:10174000806940F480501B4988610846806900F434
:101750008050019000BF00BF00BF0846806940F084
:10176000080088610846806900F00800019000BF09
:1017700000BF28200290022003900320059002A9B8
:101780000D48FFF761F910200290002003900490AB
:1017900002A90948FFF758F900BF0849486840F016
:1017A000E06040F00100486000BF06B010BD0000DE
:1017B0000030014000100240000C014000000140D8
:1017C0002DE9FE4F04460D4616461F46DDF83080D3
:1017D0004FF0000A0020029081464FF0010B01906B
:1017E00000BF94F85000012802D10220BDE8FE8F0E
:1017F000012084F8500000BFFFF7B4FA814694F846
:1018000051A060680290BAF1010F0BD00298B0F5B8
:10181000827F04D1A06810B9BAF1040F02D002206F
:101820000190D2E00DB106B117B901200190CCE0D2
:1018300094F85100012802D1052084F851000020BD
:101840006065A663E787A7872563E786A786206488
:1018500060642068006800F04000402805D02068DF
:10186000006840F0400021680860E068B0F5006F53
:1018700043D1606810B1E08E012806D12888216824
:10188000C860AD1CE08E401EE0862FE0BBF1000F6B
:1018900010D0E08E70B12068806800F0020002284D
:1018A00008D128882168C860AD1CE08E401EE08603
:1018B0004FF0000BE08F68B12068806800F00100F5
:1018C00040B12068C0683080B61CE08F401EE087C1
:1018D0004FF0010B08F1010040B1FFF743FAA0EB14
:1018E0000900404502D3032001906EE0E08E0028FD
:1018F000CCD1E08F0028C9D142E0606810B1E08E01
:10190000012806D12878216808736D1CE08E401EDE
:10191000E0862FE0BBF1000F10D0E08E70B12068A0
:10192000806800F00200022808D115F8010B216838
:101930000873E08E401EE0864FF0000BE08F68B128
:101940002068806800F0010040B12068C06806F897
:10195000010BE08F401EE0874FF0010B08F1010002
:1019600040B1FFF7FFF9A0EB0900404502D3032087
:1019700001902AE0E08E0028CCD1E08F0028C9D168
:101980004346012202212046CDF8009000F0D8FE07
:1019900010B10320019018E04A464146204600F06D
:1019A000BBFE20B101200190202060650DE0A06801
:1019B00050B900BF002000902068C06800902068E7
:1019C0008068009000BF00BF00BF012084F8510074
:1019D00000BF002084F8500000BF019806E770B5F2
:1019E00004462546681EB0F1807F01D301200FE038
:1019F000681E4FF0E02148610F214FF0FF3000F0EA
:101A0000B1FB00204FF0E021886107200861002031
:101A100070BD00BFFEE7014608684069C0F3802042
:101A200088B16FF480600A68506104200864002067
:101A30000863202081F83D0000BF002081F83C00B1
:101A400000BF012070470020FCE700002DE9F843AB
:101A500004460F4615469946DDE908862068006869
:101A600040F48060216808602068006840F480705D
:101A700021680860434600224FF00111204600967D
:101A800000F02BF910B10320BDE8F88307F0FE0049
:101A900021680861334642464149204600F05BF91F
:101AA00030B1206C042801D10120EDE70320EBE7E1
:101AB00000BF002000902068406900902068806985
:101AC000009000BF00BF32464146204600F0D0F9EA
:101AD00060B1206C042807D12068006840F40070D1
:101AE000216808600120CFE70320CDE7B9F1010F9D
:101AF00003D1E8B22168086119E0C5F30720216825
:101B0000086132464146204600F0B2F960B1206CCF
:101B1000042807D12068006840F40070216808603C
:101B20000120B1E70320AFE7E8B22168086132463F
:101B30004146204600F09CF960B1206C042807D192
:101B40002068006840F400702168086001209BE76D
:101B5000032099E72068006840F4807021680860DD
:101B6000434600224FF001112046009600F0B5F8E0
:101B700008B1032088E7F8B240F00100216808614D
:101B8000334642460649204600F0E5F830B1206C65
:101B9000042801D1012077E7032075E7002073E7CF
:101BA000020001002DE9F84304468846154699468F
:101BB000DDE908672068006840F4807021680860EB
:101BC000334600224FF001112046009700F085F8BF
:101BD00010B10320BDE8F88308F0FE002168086119
:101BE0003B4632462649204600F0B5F830B1206C1D
:101BF000042801D10120EDE70320EBE700BF00201E
:101C0000009020684069009020688069009000BFC3
:101C100000BF3A463146204600F02AF960B1206CF8
:101C2000042807D12068006840F40070216808602B
:101C30000120CFE70320CDE7B9F1010F03D1E8B2CE
:101C40002168086119E0C5F30720216808613A4658
:101C50003146204600F00CF960B1206C042807D111
:101C60002068006840F40070216808600120B1E736
:101C70000320AFE7E8B2216808610020AAE700006E
:101C80000200010070B504460D4616461DE02046D0
:101C9000FFF7C1FE08B1012070BD681CA8B125B1D5
:101CA000FFF760F8801BA8420FD9206C40F020009D
:101CB000206400202063202084F83D0000BF002025
:101CC00084F83C0000BF0320E6E720684069C0F3C9
:101CD00080000028DBD00020DEE72DE9F04104463B
:101CE0000D4617461E46DDF8188017E0701CA8B197
:101CF0002EB1FFF737F8A0EB0800B0420ED9002054
:101D00002063202084F83D00002084F83E0000BFBE
:101D100084F83C0000BF0320BDE8F081C5F3074014
:101D200001280AD120684069A9B20840A9B28842B6
:101D300001D101200BE0002009E020688069A9B2F0
:101D40000840A9B2884201D1012000E00020B84239
:101D5000CCD00020E0E72DE9F04104460D461646C0
:101D60001F4631E020684069C0F38020C0B1206880
:101D7000006840F40070216808606FF4806021689A
:101D800048610420206400202063202084F83D0066
:101D900000BF002084F83C0000BF0120BDE8F081B6
:101DA000701C88B126B1FEF7DDFFC01BB0420BD915
:101DB00000202063202084F83D0000BF002084F82C
:101DC0003C0000BF0320E9E7C5F3074001280AD122
:101DD00020684069A9B20840A9B2884201D1012017
:101DE0000BE0002009E020688069A9B20840A9B290
:101DF000884201D1012000E000200028B2D000205C
:101E0000CCE770B504460D46164629E020684069C7
:101E1000C0F3001080B16FF010002168486100200D
:101E200020642063202084F83D0000BF002084F857
:101E30003C0000BF012070BD25B1FEF793FF801B61
:101E4000A8420DD9206C40F020002064202084F8A6
:101E50003D0000BF002084F83C0000BF0320EAE7FB
:101E600020684069C0F380100028CFD00020E2E74E
:101E700070B504460D4616461DE02046FFF7CBFD23
:101E800008B1012070BD681CA8B125B1FEF76AFF3A
:101E9000801BA8420FD9206C40F020002064002055
:101EA0002063202084F83D0000BF002084F83C001F
:101EB00000BF0320E6E720684069C0F3C010002897
:101EC000DBD00020DEE7000008B505498969014341
:101ED000034A9161114689690140009100BF08BD24
:101EE000001002402DE9F04102460B461868C0F38D
:101EF0000F2595FAA5F0B0FA80F47CE00120A0400F
:101F00002840002876D0082C04D240F2011000FAB4
:101F100004F106E0A4F108004FF00116864046F0F7
:101F20008061586802EB116691FAA1FCBCFA8CFC46
:101F30004FEA8C084FF00F0C0CFA08FC376827EAC0
:101F40000C0791FAA1FCBCFA8CFC4FEA8C0C00FA4D
:101F50000CFC47EA0C07376000BF1869D66826EA10
:101F600011260F0A97FAA7F7B7FA87F700FA07F7CB
:101F70003E43D66000BF5868012802D0586809283F
:101F800038D1986802EB116691FAA1FCBCFA8CFC7E
:101F90004FEA8C084FF0030C0CFA08FC376827EA6C
:101FA0000C0791FAA1FCBCFA8CFC4FEA8C0C00FAED
:101FB0000CFC47EA0C07376000BFD86802EB1166DB
:101FC00091FAA1FCBCFA8CFC4FEA8C084FF0040C8F
:101FD0000CFA08FC376827EA0C0791FAA1FCBCFA56
:101FE0008CFC4FEA8C0C00FA0CFC47EA0C073760BB
:101FF00000BF00BF641C25FA04F000287FF47EAF08
:102000000120BDE8F0814FF47A71B0FBF1F2521E6D
:102010004FF0E0235A6100229A6105221A6100BF45
:102020007047000001490860704700003C00002034
:1020300010B503490348FEF738FB0349087010BD8B
:10204000110000201C0000201000002000B585B009
:1020500014216846FEF77DF82020FFF735FF0820A1
:10206000FFF732FF0420FFF72FFF1348C0F30F21C3
:10207000124A516100BF1248C0F30F21114A116189
:1020800000BF0D4800900120019003200290002025
:10209000039069460948FFF725FF09480090012091
:1020A0000190032002900020039069460548FFF745
:1020B00019FF05B000BD0000800080040008014049
:1020C000C3C00304000C014010B50B480B49086065
:1020D0000B484860002109488160C1604FF480418D
:1020E0000161002141618161C1610162FEF75EFE13
:1020F00008B1FEF7D9FA10BD005800405800002082
:10210000801A060010B50F480F4908604FF482701E
:10211000486000210C488160C160022101610121F9
:102120004161490281613821C1610021016241623E
:1021300081620A21C162FFF79AFA08B1FEF7B4FA88
:1021400010BD000000300140AC00002000BFFEE7E1
:102150007047000002480068C0F30220704700008A
:102160000CED00E010B5002807DA0A07140E054A46
:1021700000F00F031B1FD45403E00A07130E024A9A
:10218000135410BD18ED00E000E400E070470000BB
:1021900010B50548C0F30F21044A116100BFFF20AC
:1021A00000F08AF910BD000080008004000C01409E
:1021B00070B5054601220021092000F018FA0446F6
:1021C00024B91021284600F05BF90446FFF7E0FF30
:1021D0000CB1012070BD0020FCE770B505464FF63C
:1021E000FF7401E0601E84B2FF2000F065F9A84290
:1021F00001D0002CF6D10CB9FF2070BD0020FCE707
:102200007FB56846FFF7D4FF10B1002004B070BD61
:102210009DF8000000F0C000402809D19DF8090099
:102220009DF8081000EB0120401C84B2A50220E0BC
:102230009DF8050000F00F009DF80A1000EBD1108A
:102240009DF8091001F0030100EB4100861C9DF888
:10225000080080119DF8071000EB81009DF8061022
:1022600001F0030100EB8120441CA6F1090004FAEF
:1022700000F52846CAE70000F8B50024002600252E
:1022800000BF04E0FF2000F017F9681C85B20A2D9A
:10229000F8DB00BF95220021084600F0A8F90446AB
:1022A000701C86B2012C01D0C82EF3DBC82E01DBD6
:1022B0000120F8BD002053490870012C4AD1872223
:1022C0004FF4D571082000F092F9012847D100257C
:1022D00006E0FF2000F0F0F80DF80500681C85B25C
:1022E000042DF6DB9DF80200012879D19DF803004A
:1022F000AA2875D14FF6FE7600BF012200213720B3
:1023000000F075F901229107292000F070F90446C8
:1023100024B1301EA6F101018EB2EED1002E5FD0A5
:10232000012200213A2000F062F9002858D100254E
:1023300006E0FF2000F0C0F80DF80500681C85B22B
:10234000042DF6DB9DF8000000F0400018B10620D7
:102350002C49087044E004202A49087040E001221A
:102360000021372000F043F901220021292000F04C
:102370003EF90446012C17DC0220224908704FF672
:10238000FE7600BF01220021372000F030F9012243
:102390000021292000F02BF90446BCB1301EA6F123
:1023A00001018EB2EED111E00120164908704FF6FE
:1023B000FE7600BF01220021104600F018F9044605
:1023C00024B1301EA6F101018EB2F3D12EB101224B
:1023D0005102102000F00BF910B1002009490870DB
:1023E000FFF7D6FE0848FFF727F900F077F8054811
:1023F000007808B100205CE70CB1204659E7AA201C
:1024000057E7000000000020AC0000202DE9F0415B
:1024100006460F46154619480078062800D07F0268
:10242000012D0CD101223946112000F0E0F80446BC
:10243000FCB96902304600F023F8044619E0012295
:102440003946122000F0D3F8044600BF4FF4007163
:10245000304600F015F8044606F50076681EC0B256
:10246000051E01D0002CF1D0012200210C2000F02B
:10247000BEF8FFF78DFE2046BDE8F0810000002089
:1024800070B504460D46FE20FFF7A7FE08B10120F7
:1024900070BD04E0FF2000F00FF82070641C281EBF
:1024A000A5F101018DB2F5D1FF2000F005F8FF2064
:1024B00000F002F80020EBE701B582B000200190A7
:1024C000FF20012301AA02A900900348FFF778F931
:1024D0009DF804000EBD0000AC00002010B51048AF
:1024E000FFF7AAF80F480E4908604FF48270486061
:1024F00000210B488160C16002210161012141611D
:10250000490281610821C161002101624162816249
:102510000A21C162FFF7ABF808B1FEF7C5F810BD9C
:10252000AC0000200030014010B51048FFF784F8DF
:102530000F480E4908604FF48270486000210B4834
:102540008160C16002210161012141614902816113
:102550003821C16100210162416281620A21C162A8
:10256000FFF785F808B1FEF79FF810BDAC0000201A
:102570000030014010B50748C0F30F21064A5161F1
:1025800000BF00F070F808B9002010BDFFF700FE92
:102590000120FAE780008004000C014070B5064677
:1025A0000D4600F060F808B1012070BD2846FFF725
:1025B00083FFFD2D19D0002404E0305DFFF77CFF80
:1025C000601C84B2B4F5007FF7DBFF20FFF774FFD7
:1025D000FF20FFF771FFFF20FFF76EFF044604F0B6
:1025E0001F00052801D00220DFE70020DDE72DE9EC
:1025F000F04105460C4617464FF00008FFF7C8FDAE
:10260000FFF7B8FF10B1FF20BDE8F08145F04000B2
:10261000FFF752FF200EFFF74FFFC4F30740FFF70D
:102620004BFFC4F30720FFF747FFE0B2FFF744FF7B
:102630003846FFF741FF0C2D02D1FF20FFF73CFF8A
:102640004FF01F0800BFFF20FFF736FF064606F0D9
:10265000800030B1B8F10000A8F1010101F0FF08DD
:10266000F1D13046D0E710B5002400BFFF20FFF7BE
:1026700023FFFF2801D1002010BD641C4FF6FF701E
:102680008442F3D30120F7E72DE9F04106460F46D7
:10269000154620480078062800D07F02012D0CD175
:1026A000012239461820FFF7A2FF04466CBBFE2129
:1026B0003046FFF773FF044627E0164800780128EC
:1026C00009D0012200213720FFF791FF012229467E
:1026D0001720FFF78CFF012239461920FFF787FFEB
:1026E000044694B900BFFC213046FFF757FF04466B
:1026F00006F50076681EC0B2051E01D0002CF2D08F
:10270000FD210020FFF74AFF0446FFF741FD204668
:10271000BDE8F08100000020F8B504460D461646DD
:102720002B46002280212046009600F009F828B1AF
:10273000606D40F0200060650320F8BD0020FCE7DC
:102740002DE9F04104460E4617461D46DDF8188077
:102750003FE0681CE0B32DB1FEF704FBA0EB0800DE
:10276000A84236D32068406820F0E0002168486025
:102770006068B0F5827F0DD1A068B0F5004F03D03E
:10278000A068B0F5806F05D12068006820F0400097
:1027900021680860A06AB0F5005F0ED100BF206814
:1027A00000684DF6FF7108402168086020680068E5
:1027B00040F400502168086000BF012084F85100F7
:1027C00000BF002084F8500000BF0320BDE8F08166
:1027D000FFE7206880683040B04201D1012000E06E
:1027E0000020B842B5D10020F0E7704710B50220B4
:1027F0004549096821F007010143434A116000BFC0
:1028000000BF1046006800F00700022801D0FDF765
:102810004BFF00BF3D48006840F480303B490860F2
:1028200000BF00BF00BF39480068C0F34040002827
:10283000F8D000BF3548006840F4002033490860F4
:1028400000BF4FF480300101304A526822F47C12FC
:1028500000F440330B431A432C4B5A6000BF00BFB7
:102860001846006840F080701946086000BF00BF3D
:1028700000BF26480068C0F340600028F8D0002060
:102880002249496821F0F0010143204A516000BF0C
:1028900010151146496821F4E0610143516000BF01
:1028A00000201146496821F460510143516000BF86
:1028B00002201146496821F003010143516000BF25
:1028C00000BF00BF1148406800F00C000828F8D194
:1028D0000F48FFF798FB0420042808D14FF0E021AF
:1028E000096941F004014FF0E022116107E04FF067
:1028F000E021096921F004014FF0E022116100BFDD
:102900000348FFF78FFB10BD00200240001002407B
:1029100000A24A041148006840F001000F49086015
:10292000084640680E4908400C494860084600685F
:102930000C490840094908600846006820F48020D6
:1029400008600846406820F4FE0048604FF41F000D
:102950008860C80304490860704700000010024006
:102960000000FFF8FFFFF6FE08ED00E010B504469A
:1029700001200B490870FFF77FFC30B90848007848
:1029800020F001000649087006E0FFF7CDFDFF20AA
:10299000FFF792FDFFF7A2FD0148007810BD00008F
:1029A000180000202DE9F04107460D461446012687
:1029B0001A48007800F0010010B10320BDE8F08152
:1029C00035B1012D17D0022D1AD0032D21D11CE0D5
:1029D0001348C0F30F21134A516100BFFFF743FEB4
:1029E00008B9002600E001260D48C0F30F210D4A6A
:1029F000116100BF0FE0FFF703FC206000260AE032
:102A00004FF400702080002605E00820206000269A
:102A100001E0042600BF00BF3046CFE718000020C9
:102A200080008004000C01402DE9F04107460C466F
:102A300015461E46F2B229462046FFF7E7FC10B9BC
:102A40000020BDE8F0810120FBE7000010B504463E
:102A500001200B490870FFF706FE30B908480078DE
:102A600020F001000649087006E0FFF75DFDFF2039
:102A7000FFF722FDFFF732FD0148007810BD00008E
:102A8000180000202DE9F04107460C4615461E4669
:102A9000F2B229462046FFF7F7FD10B90020BDE845
:102AA000F0810120FBE700BFFEE700000FB4084BF8
:102AB00010B504A902AA039800F0DEF8044602A9A2
:102AC000002000F070FC204610BC5DF814FB0000F4
:102AD000A733000802E008C8121F08C1002AFAD173
:102AE00070477047002001E001C1121F002AFBD18E
:102AF000704700002DE9FF5F82B00021DDE904305E
:102B0000020DDDF840B0034318D044F61050A2F295
:102B1000FF3242431514119801281FD0A5EB0B007A
:102B2000401C5FEA000A4FF000064E4FDFF8389174
:102B3000B046504615D5CAF1000413E0119801249F
:102B40004AA3012801D16FEA0B010298119AC0E94A
:102B50000031C0E9024206B0BDE8F09FCBF10000B1
:102B6000DFE704460021404A491842EB0450CDE912
:102B7000001012E0E00707D032463B464046494687
:102B8000FDF7F2FA8046894632463B461046194622
:102B9000FDF7EAFA06460F466410002CEAD1DDE99B
:102BA0000401DDE90023BAF1000F06DAFDF7DCFAD3
:102BB00042464B46FDF7D8FA05E0FDF747FB424693
:102BC0004B46FDF743FB04460E460022284BFDF71B
:102BD0001DFD03D84FF0FF30014607E00022254BD2
:102BE00020463146FDF752FCFDF7F7FC102409E0C2
:102BF000002C0ADB0A220023FDF7BAFB039B3032CC
:102C00001A55641E50EA0102F2D1641C039AC4F101
:102C100011031444119A012A03D0012208430DD153
:102C20000AE0084304D000204FF0110B119072E726
:102C3000A3EB0B056D1E0DE05B4504DD4FF00002BC
:102C400005F1010504E003DA4FF00002A5F10105EA
:102C5000002AECD002981199C0E90231C0E9004580
:102C600079E70000000014400000F03F3000000051
:102C70000000F0430000E03F2DE9FF4F95B09B4678
:102C80008946064600250FE2252877D100242746ED
:102C9000F84A0121059400E0044316F8013F203B67
:102CA00001FA03F01042F7D130782A2811D06FF0E2
:102CB0002F033078A0F13002092A16D8059A44F083
:102CC000020402EB820203EB42021044761C0590E0
:102CD000EFE759F8042B0592002A03DA504244F436
:102CE0000054059044F00204761C30782E2816D14A
:102CF00016F8010F44F004042A280DD06FF02F02BB
:102D00003078A0F13003092B09D807EB870302EBD9
:102D10004303C718761CF3E759F8047B761C307818
:102D20006C280FD006DC4C2817D068280DD06A28F4
:102D300014D104E0742810D07A280FD10DE044F4A7
:102D400000140AE044F4801401E044F44014727862
:102D5000824202D104F58014761C761C30786628F5
:102D60000BD013DC582877D009DC002875D0452813
:102D7000F6D04628F4D047281AD19DE118E0632800
:102D800035D0642879D0652812D195E1702873D0A8
:102D900008DC6728F1D069286FD06E280DD06F2825
:102DA00006D1B5E073282CD0752875D0782874D05A
:102DB0005A46179990476D1C75E1C4F302500228DA
:102DC00009D003280DD0D9F8001004280DD00D60CB
:102DD00009F1040967E1D9F80010EA17C1E90052C6
:102DE000F6E7D9F800100D80F2E70D70F0E719F85A
:102DF000041B8DF8001000208DF80100EA46012028
:102E000003E059F804AB4FF0FF3061074FF00001C9
:102E100002D40DE008F101018846B9420FDA80457D
:102E2000F8DB1AF808100029F4D108E008F10101D4
:102E300088468142FADB1AF808100029F6D1059875
:102E40005B46A0EB080721463846179A00F094FA33
:102E5000284400EB080507E04DE029E10DE01AF8F1
:102E6000010B5A4617999047B8F10108F7D25B4613
:102E700021463846179A13E142E00A220092C4F331
:102E800002524FF0000A022A08D059F804CB032A54
:102E90004FEAEC710AD00DE029E02AE009F10701C0
:102EA00021F00702F2E802C1914609E00FFA8CFC1A
:102EB0004FEAEC71042A03D14FFA8CFC4FEAEC7113
:102EC000002907DA0A460021DCF1000C61EB02015F
:102ED0002D2202E0220504D52B228DF804200122A8
:102EE00003E0E20701D02022F7E7904659E00A21EB
:102EF00002E010220DE010214FF0000A00910BE0DB
:102F000010224FF0000A44F004040827009203E066
:102F100008224FF0000A0092C4F30252022A05D0A0
:102F200059F804CB0021032A08D009E009F1070170
:102F300021F00702F2E802C1914605E01FFA8CFC7D
:102F4000042A01D10CF0FF0C4FF00008220728D50D
:102F5000702806D0009B83F0100353EA0A0305D0C3
:102F60000EE040228DF80420012208E05CEA010214
:102F700006D030228DF804208DF8050002229046FC
:102F8000009B83F0080353EA0A030AD15CEA0102BA
:102F900001D1620705D530228DF804204FF00108D9
:102FA0007F1E582804D034A003900EA802900DE094
:102FB00036A0F9E753466046009AFDF7D9F98446F2
:102FC0000398825C0298401E029002705CEA010045
:102FD000F0D1029806A9081A00F1200A600702D56C
:102FE00024F4803400E00127574502DDA7EB0A00F6
:102FF00000E0002000EB0A01009005984144401ACF
:103000000590E00306D45B462146179A059800F028
:10301000B3F90544002706E001A85A46C05D179998
:1030200090476D1C7F1C4745F6DBE0030CD55B46E3
:103030002146179A059800F09FF9054404E03020D6
:103040005A46179990476D1C0099481E0090002918
:10305000F5DC08E0029802995A460078491C029172
:10306000179990476D1CBAF10001AAF1010AF1DC31
:1030700065E100000928010030313233343536373C
:1030800038396162636465660000000030313233B4
:103090003435363738394142434445460000000054
:1030A00000F058F90544761C307800287FF4ECAD28
:1030B00019B02846BDE8F08F620700D4062709F151
:1030C000070222F0070CFCE80223E14603F0004867
:1030D0005FEA080C02D00FF2702C0DE05FEA045C8E
:1030E00002D50FF2682C07E05FEAC47C02D00FF231
:1030F000602C01E0AFF2700C4FF0FF3823F000437A
:10310000CDF850C065280CD006DC452809D04628EB
:103110001DD047283DD13DE0662818D067287ED1D4
:1031200038E00021112F01DB112000E0781CCDE9EF
:10313000000106A90EA8FFF7DDFCDDE90F010E9ADC
:1031400003910021009207F1010A04914DE04FF034
:1031500000400097CDE9011006A90EA8FFF7CAFCB0
:10316000DDE90F0203920E9B11990022DDF80CA0FD
:103170000093049211B9791C00EB010AB7EB0A0025
:1031800004D4C0F1FF3007F1010A0490AAEB070054
:10319000019044E0012F00DA01270021112F01DD09
:1031A000112000E03846CDE9000106A90EA8FFF77E
:1031B000A1FCDDE90F010E9A039100210491009218
:1031C000BA4621070CD40399514500DA8A46BAF170
:1031D000010F05DD009AAAF10101515C302908D0E8
:1031E000B84202DA10F1040F06DA0121CDE901102C
:1031F00015E0AAF10101E9E7002805DC0499014482
:103200000491AAEB000102E0411C514500DD8A4611
:103210000499401A401C01904FF000400290200792
:1032200004D40198504501DBCDF8048000208DF8CE
:103230004F0002980DF14F07B0F1004F25D02B2021
:103240000E9002984FF0020800280CDA40420290DB
:103250002D200E9007E00A210298FDF773F8303117
:10326000029007F8011DB8F10001A8F10108F2DC95
:1032700002980028EFD1791E0E980870307800F07F
:10328000200040F0450007F8020D12A8C01B00F115
:1032900007081498007800B1012000EB0A0101989A
:1032A00001EBE07105984144401A401E0590E0038F
:1032B00006D45B462146179A059800F05DF8054450
:1032C0001498007818B15A46179990476D1CE0037E
:1032D00024D55B462146179A059800F04DF8054421
:1032E0001CE00498002807DBDDE90301884203DDC8
:1032F0000098405C179901E0179930205A46904792
:10330000049805F10105401C04900198401E0190AD
:1033100004D12E205A46179990476D1CBAF100012E
:10332000AAF1010ADDDC05E017F8010B5A461799EE
:1033300090476D1CB8F10001A8F10108F4DC5B4670
:103340002146179A0598ABE62D0000002B000000DF
:10335000200000002DE9F041044600251E461746D6
:10336000880404D405E039462020B0476D1C641E53
:10337000F9D52846BDE8F0812DE9F0410446002545
:103380001E469046C80301D5302700E02027880458
:1033900004D505E041463846B0476D1C641EF9D59A
:1033A0002846BDE8F0810A68531C0B601070704716
:1033B00070B504460D46002084F80402401EC4F88F
:1033C0002C022946204601F0B7FA08B1032070BD4F
:1033D00094F8FE1140F2FF10005D41EA00204AF629
:1033E0005521884201D00220F1E73920005D010615
:1033F0003820005D41EA00413720005D41EA0020AD
:1034000094F83610084320F07F400E49884201D1DD
:103410000020DCE75520005D01065420005D41EAF4
:1034200000415320005D41EA002094F85210084307
:1034300020F07F400349884201D10020C7E70120E6
:10344000C5E7000046415400024600E0521C1078D7
:1034500010B110788842F9D11078704730B5024623
:103460000B4600200446014624E001EB41001E4DBE
:1034700055F82000E0B101EB410055F82000D2F8EA
:103480000052A84215D101EB4100174D05EB800019
:103490004068D2F80852A8420BD101EB4100124D0E
:1034A00005EB80000089B2F80652A84201D103E082
:1034B0000124491C0229D8D300BF022906D10CB926
:1034C000022B01D1002030BD1220FCE743B901EBF3
:1034D0004100054D05EB80004089B0F5807F01D1AA
:1034E0001020F0E70020EEE76005002010B501464F
:1034F00000200DE000EB4002074B53F822208A42E7
:1035000005D1002200EB4003034C44F82320401C6B
:103510000228EFD310BD00006005002070B50346FF
:103520000D46D3F82402021D680AD3F8006296F80B
:103530000262B0FBF6F400BF02CA09B9002070BDF8
:103540008C4200D202E0641A121DF5E700BF106839
:103550002044F4E70246891ED2F81402801E8842F5
:1035600001D80020704792F80232D2F8280201FBFD
:103570000300F7E72DE9F04704468946B9F1000F4B
:1035800008D1D4F80C721FB1D4F81402B84216D87E
:10359000012714E04946204601F022F80646022E93
:1035A00002D20120BDE8F087701C08B93046F9E767
:1035B000D4F81402B04201D93046F3E74F463D46F5
:1035C00000BF6D1CD4F81402A84204D80225BD42E5
:1035D00001D90020E6E72946204601F001F8064619
:1035E00006B909E0701C08B1012E01D13046D9E7B7
:1035F000BD42E6D10020D5E700BF6FF070422946FA
:10360000204601F0B5F98046B8F1000F08D1B9F1B4
:10361000000F05D02A464946204601F0A9F9804608
:10362000B8F1000F11D1C4F80C52D4F81002401CAC
:1036300098B1D4F81002401EC4F8100294F80502A4
:1036400040F0010084F8050207E0B8F1010F02D153
:103650004FF0FF3000E0012005462846A2E70000B9
:103660002DE9F35F8A46DAF8007000E07F1C3878B5
:103670002F28FBD038785C28F8D00098D0F8186252
:103680000B222021304601F04DF90025A946AB461A
:103690004FF0080800BF58460BF1010B3C5C202C92
:1036A00003DD2F2C01D05C2C00D136E02E2C01D074
:1036B000C1450ED3B8F1080F01D12E2C02D006203F
:1036C000BDE8FC9F4FF008094FF00B08A806050E57
:1036D000E1E7802C05DB45F00305A4F180002349D8
:1036E0000C5C214622A0FFF7AFFE08B10620E7E7F9
:1036F000412C04DB5A2C02DC45F0020508E0612C69
:1037000006DB7A2C04DC45F00105A4F12000C4B2EC
:10371000484609F101093454BDE700BF07EB0B002F
:10372000CAF80000202C01DC042000E00020044640
:10373000B9F1000F01D10620C2E73078E52801D1A8
:1037400005203070B8F1080F01D1A806050E05F06C
:103750000300012801D144F0100405F00C000428F6
:1037600001D144F00804F4720020A9E7F54C0008E8
:10377000222A2B2C3A3B3C3D3E3F5B5D7C7F000088
:1037800030B50246531E1A46022B1BD202EB4203EF
:103790000D4C04EB83035989B1F5807F00D10021E2
:1037A00009B14B1E99B202EB4203074C04EB8303B1
:1037B000598129B9002302EB4204034D45F8243016
:1037C000002000E0022030BD600500202DE9F0411E
:1037D00004460E460021204600F02CF905460DBB9C
:1037E000002700BFD4F81012D4F8000201F0A4F8AA
:1037F000054605B115E0D4F814020078E52803D099
:10380000D4F81402007820B9781C0746B04201D1E0
:1038100007E000270121204600F03CF80546002D76
:10382000E0D000BF042D00D107252846BDE8F08177
:103830002DE9F04104460021204600F0FBF8054642
:1038400015B12846BDE8F08100BFD4F81012D4F8B5
:10385000000201F071F8054605B118E0D4F81462D1
:1038600037780FB9042512E0F07A00F0080038B973
:103870000B223046D4F8181201F034F800B906E0F3
:103880000021204600F006F80546002DDDD000BFDF
:103890002846D7E72DE9F04104468846B4F80602E9
:1038A000461CB0B210B1D4F8100210B90420BDE823
:1038B000F08106F00F0000287ED1D4F81002401CE1
:1038C000C4F81002D4F80C0238B9D4F80002B0F8E9
:1038D0000802B0427FD80420E9E7D4F8000290F84B
:1038E0000202401E00EA1610002874D1D4F80C120F
:1038F000D4F8000200F074FE0546012D01D8022024
:10390000D5E7681C08B90120D1E7D4F80002D0F847
:103910001402A84256D8B8F1000F01D10420C6E71E
:10392000D4F80C12D4F80002FFF724FE05460DB9B6
:103930000720BCE7012D01D10220B8E7681C08B9B7
:103940000120B4E7D4F8000201F074F908B10120B5
:10395000ADE74FF400720021D4F8000200F0E2FF5E
:103960002946D4F80002FFF7F5FDD4F80012C1F89B
:103970002C02002715E00120D4F8001281F804027F
:10398000D4F8000201F056F908B101208FE7D4F80D
:103990000002D0F82C02401CD4F80012C1F82C020E
:1039A0007F1CD4F8000290F80202B842E3D8D4F8A1
:1039B0000002D0F82C0200E00DE0C01BD4F8001289
:1039C000C1F82C02C4F80C522946D4F80002FFF7C3
:1039D000C1FDC4F81002A4F8066206F00F00D4F886
:1039E000001201EB4010C4F8140200205FE770B52C
:1039F000044601212046FFF7E9FE0546C5B9D4F883
:103A00001012D4F8000200F097FF054685B9202275
:103A10000021D4F8140200F085FF0B2204F5057094
:103A200003C800F072FF0120D4F8001281F80402EC
:103A3000284670BD2DE9F04104460E46A4F8066202
:103A4000D4F80852012D05D0D4F80002D0F81402A1
:103A5000A84202D80220BDE8F0814DB9D4F8000296
:103A600090F80002032803D1D4F80002D0F82452C1
:103A700065B9D4F80002B0F80802B04201D80220BB
:103A8000E9E7D4F80002D0F8247224E0D4F8000268
:103A900090F802024FEA001815E02946D4F8000217
:103AA00000F09EFD0546681C08B90120D3E7022DF1
:103AB00005D3D4F80002D0F81402A84201D802209D
:103AC000C9E7A6EB08064645E7D22946D4F8000226
:103AD000FFF740FD0746C4F80C520FB90220BAE7C1
:103AE00007EB1610C4F8100206F00F00D4F800120D
:103AF00001EB4010C4F814020020ACE770B5044696
:103B000000250848005D58B901200649085501F113
:103B10000802105D0A1D52F82420116888470546E6
:103B2000284670BD780500202DE9F04104460D4679
:103B300016460649085D091F51F8241032460B69E4
:103B40002946984707463846BDE8F08180050020A1
:103B50002DE9F04104460D4616461F460749085D0B
:103B6000091F51F824103B463246D1F808C02946B7
:103B7000E04780464046BDE8F08100008005002017
:103B800070B50446044A105D121F52F82420516893
:103B900088470546284670BD800500202DE9F04184
:103BA00004460D4616461F460749085D091F51F891
:103BB00024103B463246D1F80CC02946E0478046E7
:103BC0004046BDE8F081000080050020002100E0B3
:103BD000491C022906D201EB4100054A52F8200097
:103BE0000028F5D1022901D0012070470020FCE710
:103BF0006005002070B50546284600F024F904460B
:103C00006CB9284601F046F8044644B9D5F82802B4
:103C1000FFF7B6FD044614B90020C5F8000220469F
:103C200070BD0000F7B582B016460398019001A858
:103C300000F04FFD0546002D02DA0B2005B0F0BD67
:103C4000104850F825402CB12046FFF74FFC0020CB
:103C500084F80002029818B10020029981F800024D
:103C60000849029841F82500029808B1012E01D0B8
:103C70000020E3E7002203A902A800F075FA074636
:103C80003846DBE7400000202DE9F743ADF50C7D19
:103C90000546164625B909200DF50F7DBDE8F083D0
:103CA0000020C5F8000206F01F0626F001028DA9CB
:103CB00084A800F059FA0746002F73D101A88A9012
:103CC00004A88D9900F03EFC0746899C6FB90CB999
:103CD00006270AE026F0010008B1012000E00020DC
:103CE000014604A8FFF7BAFB074606F01C000028AF
:103CF00059D077B1042F08D1FFF768FF18B104A895
:103D0000FFF775FE00E01220074646F00806899C82
:103D100009E0E07A00F0110008B1072703E006F09F
:103D2000040000B10827002F4CD106F0080000283D
:103D300048D000F0CCFC804684F80E804FEA182171
:103D4000E1734FEA184121744FEA18616174002051
:103D5000E072207700216177A177E177214684988E
:103D600000F050FD81460021204600F0E1FE0120D8
:103D7000849981F80402B9F1000F23D08498D0F817
:103D80002C824946849800F096FE0746D7B9A9F1DF
:103D900001008499C1F80C024146849800F0CCFDE2
:103DA00007460FE04DE06FB9E07A00F0100008B16F
:103DB000042707E006F0020020B1E07A00F00100DD
:103DC00000B10727DFB906F0080008B146F0200669
:103DD0008498D0F82C02C5F81C02C5F8204226F0C1
:103DE000010008B1012000E00020014604A800F015
:103DF00095FCC5F82802D5F8280200B9022707BBB0
:103E000005F50075AE710020E8712146849800F038
:103E1000F9FC2861E07F0106A07F41EA0041607F54
:103E200041EA0020217F0843E8600020A860A861E3
:103E30006862849828602868B0F80602A880A5F512
:103E40000075384628E72DE9F0410446204600F089
:103E500021FF0746002F59D194F8060200F02000F8
:103E6000002853D094F8060200F0400098B1D4F82E
:103E7000001291F8010201232146D4F81822FFF71D
:103E80008DFE10B10120BDE8F08194F8060220F00B
:103E9000400084F80602D4F81C12D4F8000200F0A6
:103EA0004BFD0746002F31D104F50074256AE87AEE
:103EB00040F02000E872207B2877A089010A69770A
:103EC000E068010CA977E068010EE97728462169CE
:103ED00000F02EFE00F0FBFB0646AE75310AE975D8
:103EE000310C2976310E69760020A8740021E9741E
:103EF000A07920F02000A0710120216881F804023F
:103F00002068A4F5007400F01BFE07463846BAE7A7
:103F10002DE9FF4F83B0044615469B460498019057
:103F20000020CBF80000204600F0B4FE029002987A
:103F300018B1029807B0BDE8F08F94F8070210B1ED
:103F400094F80702F6E794F8060200F0020008B9B8
:103F50000720EFE7D4F808022844D4F80812884272
:103F600000D20025EAE0B4F80802C0F308000028F7
:103F70007DD1D4F8000290F80202401ED4F8081255
:103F800000EA512000F0FF0ABAF1000F32D1D4F854
:103F9000080248B9D4F81072BFB90021D4F8000261
:103FA000FFF7E8FA074610E0D4F8240230B12046C3
:103FB000D4F80812FFF7B2FA074606E0D4F8141254
:103FC000D4F80002FFF7D6FA074607B9B9E0012F87
:103FD00003D1022084F80702ACE7781C18B901204D
:103FE00084F80702A6E7C4F81472D4F8100208B9DE
:103FF000C4F8107294F8060200F04000A0B1D4F8A2
:10400000001291F8010201232146D4F81822FFF78B
:10401000C5FD18B1012084F807028BE794F8060269
:1040200020F0400084F80602D4F81412D4F80002FC
:10403000FFF790FA06461EB9022084F8070279E7D6
:1040400056444FEA5529B9F1000F36D00AEB090062
:10405000D4F8001291F80212884205D9D4F800026F
:1040600090F80202A0EB0A09D4F8001200E03DE04B
:1040700091F801024B4632460199FFF78FFD18B1C6
:10408000012084F8070255E7D4F81802801B484540
:1040900010D2D4F81802801B019A02EB40214FF491
:1040A0000072204600F031FC94F8060220F0400037
:1040B00084F806024FEA492831E0D4F81802B042E9
:1040C00012D004F5027003C888420DD2D4F8001251
:1040D00091F80102012332462146FFF739FD18B15C
:1040E000012084F8070225E7C4F81862B4F8080232
:1040F000C0F30800C0F50078A84500D9A846B4F878
:104100000812C1F3080108194246019900F0FDFBAD
:1041100094F8060240F0400084F8060200BF0198BF
:1041200040440190D4F808024044C4F80802DBF887
:1041300000004044CBF80000A5EB0805002D7FF4FB
:1041400012AF00BF04F5027003C8884203D9D4F847
:104150000802C4F80C0294F8060240F0200084F82B
:1041600006020020E6E600002DE9F74F8AB00021A4
:104170000A9801600B9800F0ACFA099009980028A1
:1041800003DA0B200DB0BDE8F08FEA49099851F829
:1041900020400CB90C20F5E70A98046094F800025E
:1041A00080B194F80102FFF7EBFC814609F00100B1
:1041B00040B90C9820B109F0040008B10A20E1E7E9
:1041C0000020DFE7002084F80002099884F801024B
:1041D00094F80102FFF792FC814609F0010008B152
:1041E0000320CFE70C9820B109F0040008B10A20A1
:1041F000C8E7002739462046FFF7DAF80546012DC3
:1042000001D09DBB32E000261AE004F5DF7000EB20
:10421000061898F8040070B198F80B00010698F899
:104220000A0041EA004198F8090041EA002098F8A4
:104230000810084300E0002002A941F82600761C7F
:10424000042EE2D3002606B1761E00BF02A850F865
:10425000267027B139462046FFF7AAF800E0022071
:1042600005461DB1701C06460428EFD3032D01D16D
:10427000012087E70DB10D2084E7E17A207B41EA38
:104280000020B0F5007F01D00D207BE7A17DE07D0F
:1042900041EA002ABAF1000F0ED12720005D010685
:1042A0002620005D41EA00412520005D41EA002012
:1042B00094F8241040EA010AC4F818A2207C84F87B
:1042C000030294F80302012805D094F8030202289F
:1042D00001D00D2056E794F803020AFB00FA607B38
:1042E00084F8020294F8020220B194F80202411EFE
:1042F000084008B10D2045E7617CA07C41EA002020
:10430000A4F8080294F8080200F00F0008B10D208C
:1043100038E7E17C207D41EA00200890089870B9D8
:104320002320005D01062220005D41EA004121209A
:10433000005D41EA002094F8201008430890A17B1A
:10434000E07B41EA00200190019808B90D2019E7AF
:1043500001985044B4F8081200EB11100790DDE901
:104360000701814201D20D200CE7DDE90710401A58
:1043700094F80212B0FBF1FBBBF1000F01D10D204C
:1043800000E7012540F6F670834500D302254FF67D
:10439000F670834500D303250BF10200C4F8140224
:1043A000C4F81C7201983844C4F8200207983844B5
:1043B000C4F82802032D19D1B4F8080208B10D2061
:1043C000E0E62F20005D01062E20005D41EA00415D
:1043D0002D20005D41EA002094F82C100843C4F819
:1043E0002402D4F81402800006901AE0B4F80802FF
:1043F00008B90D20C6E6D4F820025044C4F82402BF
:10440000022D03D1D4F81402400009E094F81402FC
:1044100000F00100D4F8141201EB410100EB51004F
:104420000690D4F81812069800F2FF10B1EB502F46
:1044300001D20D20A6E64FF0FF30C4F81002C4F8F8
:104440000C02802084F80502032D63D194F830100B
:104450003120005D41EA002001285BD1791C204613
:1044600000F06AFAE8BB002084F8050294F8FE1117
:1044700040F2FF10005D41EA00204AF655218842D3
:1044800048D1E0780006A17840EA0140617840EA2E
:10449000012021780843284988423BD140F2E710A7
:1044A000005D01064FF4F370005D41EA004140F207
:1044B000E510005D41EA002094F8E41108431F492B
:1044C000884227D140F2EB10005D01064FF4F570F1
:1044D000005D41EA004140F2E910005D41EA002040
:1044E00000E017E094F8E8110843C4F8100240F225
:1044F000EF10005D01064FF4F770005D41EA0041E6
:1045000040F2ED10005D41EA002094F8EC11084300
:10451000C4F80C0284F8005209480088401C80B29C
:1045200007490880A4F806022046FEF7DFFF0020B6
:1045300028E6000040000020525261417272416141
:10454000440000202DE9F3410446019800782F280B
:1045500003D0019800785C2802D10198401C01909A
:104560000020C4F8080201980078202808D2002111
:104570002046FFF75FFA05460020C4F814022CE03D
:1045800000BF01A92046FFF76BF8054605B123E0FF
:104590002046FFF74DF90546D4F81802C67A3DB11A
:1045A000042D04D100BF06F0040000B9052513E076
:1045B00006F0040000B10FE0D4F81472F87A00F0AD
:1045C000100008B9052507E03946D4F8000200F0CC
:1045D00019F9C4F80802D4E700BF2846BDE8FC81F9
:1045E0002DE9F04705460C46022C03D3D5F81402FA
:1045F000A04202D84FF0010966E04FF0FF3995F86C
:104600000002012804D002282CD0032858D13CE015
:10461000274607EB5707D5F8200200EB572128461D
:1046200000F08AF900B14EE038467F1CC0F3080064
:1046300015F80080D5F8200200EB5721284600F03D
:104640007BF900B13FE0C7F30800285C48EA002886
:1046500004F0010010B14FEA181001E0C8F30B009C
:10466000814630E0D5F8200200EB1421284600F006
:1046700063F900B127E040F2FF1000EA4400461958
:104680003078717840EA01291DE0D5F8200200EB6E
:10469000D411284600F050F900B114E040F2FF10A8
:1046A00000EA84004619F0780006B17840EA01403B
:1046B000717840EA01203178084320F0704902E027
:1046C0004FF0010900BF00BF4846BDE8F087002059
:1046D000704770B502464FF0FF301568DDB11168C4
:1046E00000E0491C0D78212D02D30D783A2DF8D128
:1046F0000D783A2D0ED1146814F8015BA5F1300342
:104700000A2B06D28C4204D11BB918464D1C2946EF
:10471000156070BD002000BFFBE7000030B5024609
:104720000B4600211EE001EB4100354C54F82000FF
:10473000D2F80042A04214D101EB4100304C04EB0E
:1047400080004068D2F80842A0420AD101EB410043
:104750002B4C04EB80000089B2F80642A04200D145
:1047600002E0491C0229DED300BF02292AD1002120
:1047700000E0491C022906D201EB4100204C54F80C
:1047800020000028F5D1022901D1002030BD01EB25
:1047900041041B4DD2F8000245F8240001EB41040E
:1047A00005EB8404D2F808026060B2F8060201EB5F
:1047B000410405EB84042081002001EB410405EB5A
:1047C0008404608143B101EB41000D4C04EB800097
:1047D000408908B10020D9E713B14FF4807006E09A
:1047E00001EB4100064C04EB80004089401C01EBCA
:1047F0004104034D05EB84046081481CC6E70000BA
:104800006005002010B502468C7ECB7E44EA032072
:1048100092F80032032B05D10C7D4B7D44EA032333
:1048200040EA034010BD0000FCF73AFEFDF7DEFF52
:10483000FDF70CFCFDF766FCFDF7FAFBFDF744FC09
:10484000FBF7C0FF01221B491B48FFF7EBF91B498F
:1048500008700846007808B100BFFEE728E00A2289
:1048600017A11A48FFF710FA144908700846007893
:1048700008B100BFFEE70020FBF74AFF0646FBF742
:1048800085FF044622460B4611A11448FEF70EF997
:10489000134B102211490D48FFF73AFB07490870E6
:1048A0000846007808B100BFFEE70848FFF7A2F904
:1048B000D5E70000110000200401002004000020C2
:1048C0005265636F72642E747874000034030020A4
:1048D0002531302E3130660D0A00000048000020DE
:1048E00008000020F0B503461C460D46002000BF1E
:1048F000161EA2F1010207D014F8017B15F801CBB6
:10490000A7EB0C06301EF3D0F0BD70B503460C4685
:1049100003E014F8015B03F8015B151EA2F101022C
:10492000F7D170BD30B5034601E003F8011B141E3A
:10493000A2F10102F9D130BD70B504460D46002642
:10494000D4F82C02A84211D0204600F073F9064694
:1049500066B994F8010201232A462146FFF7F8F8C8
:1049600010B14FF0FF350126C4F82C52304670BD0F
:104970002DE9F04705460E461746022E03D3D5F81B
:104980001402B04202D84FF0020891E095F80002FC
:10499000012804D0022844D003287DD159E0B14633
:1049A00009EB5909D5F8200200EB59212846FFF7F9
:1049B000C3FF8046B8F1000F00D078E0484609F107
:1049C0000109C0F30800441906F0010020B1F9B252
:1049D000207861F31F1000E038462070012085F830
:1049E0000402D5F8200200EB59212846FFF7A4FF66
:1049F0008046B8F1000F00D059E0C9F3080044190F
:104A000006F0010010B1C7F3071005E0207800F0B0
:104A1000F000C7F3032108432070012085F8040249
:104A200045E0D5F8200200EB16212846FFF784FF69
:104A30008046B8F1000F00D039E040F2FF1000EAE4
:104A4000460044192770380A6070012085F8040276
:104A50002DE0D5F8200200EBD6112846FFF76CFFB9
:104A60008046B8F1000F00D021E040F2FF1000EACC
:104A700086004419E0780006A17840EA0140617898
:104A800040EA01202178084300F070400743277076
:104A9000380A6070380C00E006E0A070380EE07054
:104AA000012085F8040202E04FF0020800BF00BFB9
:104AB0004046BDE8F0872DE9F04104460E46022E3F
:104AC00003D3D4F81402B04201D802272DE0002706
:104AD00026E031462046FFF783FD054605B923E071
:104AE000012D01D102271FE0681C08B901271BE036
:104AF000002231462046FFF73BFF074607B113E08F
:104B0000D4F81002401C50B1D4F81002401CC4F874
:104B1000100294F8050240F0010084F805022E46C8
:104B2000D4F81402B042D4D800BF3846BDE8F081B2
:104B300081760B0AC3760A0C02750B0E437570471B
:104B400070B50446204600F075F80546002D6FD17B
:104B500094F80002032863D194F8050201285FD17C
:104B6000420200212046FFF7DDFE552084F8FE01B9
:104B7000AA2140F2FF100155522020706070612080
:104B8000A0704120E070722084F8E401722140F2AC
:104B9000E51001554121401C01556121401C015582
:104BA00094F8100284F8E801B4F81002C0F3072169
:104BB00040F2E9100155D4F81002C0F307414FF458
:104BC000F5700155D4F81002010E40F2EB100155BA
:104BD00094F80C0284F8EC01B4F80C02C0F307213D
:104BE00040F2ED100155D4F80C02C0F307414FF428
:104BF000F7700155D4F80C02010E40F2EF10015588
:104C0000D4F81C02401CC4F82C0294F801020123C1
:104C10002146D4F82C22FEF7C1FF002084F80502BB
:104C200094F8010200221146FEF77EFF00B1012533
:104C3000284670BD2DE9F0410446002794F804028F
:104C400028B3D4F82C5294F8010201232A462146B5
:104C5000FEF7A4FF08B1012719E0002084F8040240
:104C6000D4F82002281AD4F8181288420FD294F8E7
:104C700003620AE0D4F81802054494F80102012303
:104C80002A462146FEF78AFF761E022EF2D23846C9
:104C9000BDE8F08170B505462C46C4B1D4F80002D9
:104CA000A8B1D4F8000290F8000280B1D4F8000254
:104CB000B0F80602B4F80412884208D1D4F8001201
:104CC00091F80102FEF75CFF00F0010008B1092035
:104CD00070BD0020FCE700000000000000000102A1
:104CE0000304060708090000000001020304081C71
:104CF0003044586C80809A90B68EB78F80D2D3D4CF
:104D0000D8D7DE8E8F909292E299E3EAEB59999A86
:104D10009D9C9D9E9FB5D6E0E9A5A5A6A7A8A9AA9A
:104D2000ABAC21AEAFB0B1B2B3B4B5B6B7B8B9BAE7
:104D3000BBBCBDBEBFC0C1C2C3C4C5C7C7C8C9CA4A
:104D4000CBCCCDCECFD0D1D2D3D4D5D6D7D8D9DA3B
:104D5000DBDCDDDEDFE0E1E2E3E5E5E6E7E7E9EA2B
:104D6000EBEDEDEEEFF0F1F2F3F4F5F6F7F8F9FA1A
:104D7000FBFCFDFEFF00000400020001800040007B
:104D80002000100008000400020000000080004025
:104D9000002000100008004000200010000800045F
:104DA00000020000C44D0008000000204800000080
:104DB000D42A00080C4E00084800002040090000DA
:104DC000E42A0008000000000000000000000000CD
:104DD00000000000000000000000000001000000D2
:104DE0006D2900084D2A0008292A0008852A000894
:104DF000A5290008000000001000000001000000CC
:0C4E000000A24A040000000000000000B6
:04000005080000ED02
:00000001FF
