:020000040800F2
:10000000E804002001010008690C0008DD0900086F
:10001000650C00086D010008550E00080000000086
:10002000000000000000000000000000A70C000815
:100030007101000800000000A50C0008190100086B
:100040001B0100081B0100081B0100081B01000820
:100050001B0100081B0100081B0100081B01000810
:100060001B0100081B0100081B0100081B01000800
:100070001B0100081B0100081B0100081B010008F0
:100080001B0100081B0100081B0100081B010008E0
:100090001B0100081B0100081B0100081B010008D0
:1000A0001B0100081B0100081B0100081B010008C0
:1000B0001B0100081B0100081B0100081B010008B0
:1000C0001B0100081B0100081B0100081B010008A0
:1000D0001B0100081B0100081B0100081B01000890
:1000E0001B0100081B0100081B010008DFF80CD0F1
:1000F00000F02AF800480047770E0008E8040020C6
:100100000648804706480047FEE7FEE7FEE7FEE7B1
:10011000FEE7FEE7FEE7FEE7FEE7FEE7D10D00089B
:10012000ED000008D2B201E000F8012B491EFBD21D
:1001300070470022F6E710B513460A4604461946F2
:10014000FFF7F0FF204610BD064C074D06E0E068C3
:1001500040F0010394E8070098471034AC42F6D30E
:10016000FFF7C8FFAC0E0008CC0E000800BFFEE78A
:100170007047704730B504460D4600222946204698
:1001800000F002F830BD0000F0B503460125002460
:100190001148407A01281CDC00200F4E767A0E4F61
:1001A000B8553846467A001D40F82630001F467A7A
:1001B000083082553E46707A461C7E72044604F131
:1001C000300008703A2048702F2088700020C870D6
:1001D00000252846F0BD0000D80000202DE9F84792
:1001E00003460024002000258446002700226EE1FB
:1001F0004FF0010808FA02F4D1F8008008EA040080
:10020000A0427DD1DFF8D0A2D1F80480A8EB0A0982
:10021000D0453AD014DCB8F1030F50D009DCB8F166
:10022000000F31D0B8F1010F1CD0B8F1020F49D145
:1002300020E0B8F1110F18D0B8F1120F42D11EE032
:10024000B9F5881F25D006DCB9F5803F20D0B9F577
:10025000801F37D11AE0B9F5001F18D0B9F5041F77
:1002600030D117E0D1F80CC02DE0D1F80C8008F1A6
:10027000040C28E0D1F80C8008F1080C23E0D1F838
:100280000C8008F10C0C1EE000BF00BF00BF00BFD7
:1002900000BF00BFD1F80880B8F1000F02D14FF0C5
:1002A000040C0BE0D1F80880B8F1010F03D14FF036
:1002B000080C1C6102E04FF0080C5C6103E04FF099
:1002C000000C00E000BF00BFFF2801D8984601E005
:1002D00003F104084646FF2802D84FEA820803E0EB
:1002E000A2F108084FEA88084746D6F800804FF088
:1002F0000F0909FA07F928EA09080CFA07F900E0DA
:1003000088E048EA0908C6F80080D1F8048008F0BF
:100310008058B8F1805F7DD100BFDFF8C081D8F888
:10032000188048F00108DFF8B491C9F81880C84671
:10033000D8F8188008F00108CDF8008000BF00BF91
:100340004FEAB9384FEA920958F829504FEA8278B3
:100350004FEA18794FF00F0808FA09F825EA08055E
:10036000DFF87C81434502D14FF0000816E0DFF84A
:100370007481434502D14FF001080FE0DFF8688136
:10038000434502D14FF0020808E0DFF860814345A1
:1003900002D14FF0030801E04FF004084FEA8279E0
:1003A0004FEA197908FA09F848EA0505DFF84081AB
:1003B0004FEA920948F82950D1F8048008F48038AF
:1003C000B8F5803F0AD1DFF82C81D8F8008048EAE0
:1003D0000008DFF82091C9F8008009E0DFF81481F7
:1003E000D8F8008028EA0008DFF80891C9F80080F2
:1003F000D1F8048008F40038B8F5003F10D1DFF8D8
:10040000F48008F10408D8F8008048EA0008DFF812
:10041000E49000E05AE009F10409C9F800800DE019
:10042000DFF8D08008F10408D8F8008028EA000836
:10043000DFF8C09009F10409C9F80080D1F8048000
:1004400008F48018B8F5801F0ED1DFF8A88008F1F5
:100450000808D8F8008048EA0008DFF8989009F109
:100460000809C9F800800DE0DFF8888008F1080865
:10047000D8F8008028EA0008DFF8789009F1080928
:10048000C9F80080D1F8048008F40018B8F5001FFE
:100490000ED1DFF8608008F10C08D8F8008048EA37
:1004A0000008DFF8509009F10C09C9F800800DE050
:1004B000DFF8408008F10C08D8F8008028EA00082E
:1004C000DFF8309009F10C09C9F80080521C102A9D
:1004D000FFF48EAEBDE8F887000011100010024056
:1004E00000080140000C01400010014000140140D0
:1004F000080001400004014070B5044600260025B4
:100500000CB9012070BD94F83D0028B9002084F892
:100510003C00204600F0AEF8242084F83D0020681E
:10052000006820F001002168086000F09BF9054692
:100530004C496068884206D84B48854201D2012068
:1005400007E0002005E04948854201D2012000E093
:100550000020012800D1D5E74548B5FBF0F620681A
:10056000466040496068884201D8701C07E04FF43B
:10057000967070434FF47A71B0FBF1F0401C216823
:10058000086238496068884214D8681E616849006A
:10059000B0FBF1F0401CC0F30B00042801D2042092
:1005A0003DE0681E61684900B0FBF1F0401CC0F3FB
:1005B0000B0034E0A06838B9681E616801EB4101A6
:1005C000B0FBF1F0401C0AE0681E616801EBC1025B
:1005D00002EB0111B0FBF1F0401C40F48040C0F38D
:1005E0000B0008B901201AE0A06848B9681E6168CC
:1005F00001EB4101B0FBF1F0401CC0F30B000CE03B
:10060000681E616801EBC10202EB0111B0FBF1F061
:10061000401CC0F30B0040F4804040F400402168CF
:10062000C861D4E90701084321680860D4E90310D0
:10063000084321688860D4E9050108432168C8603F
:100640002068006840F001002168086000202064F4
:10065000202084F83D000020206384F83E0000BF85
:1006600050E70000A086010080841E0000093D00C4
:1006700040420F0010B586B004460020029003905F
:100680000490059016492068884226D100BF15487D
:10069000806940F00800134988610846806900F0CD
:1006A0000800019000BF00BF4FF44060029012208C
:1006B00003900320059002A90B48FFF78FFD00BFB0
:1006C0000848C06940F480000649C8610846C0690E
:1006D00000F48000019000BF00BF06B010BD000014
:1006E0000058004000100240000C014010B50848BE
:1006F000006840F0100006490860032000F098F8F8
:10070000002000F007F800F02BF8002010BD0000DA
:100710000020024070B504460E4800784FF47A710C
:10072000B1FBF0F00C490968B1FBF0F5284600F088
:100730003BF908B1012070BD102C07D200222146E0
:10074000501E00F037F80548046001E00120F2E790
:100750000020F0E7240000202800002020000020D6
:1007600008B500BF1148806940F001000F49886159
:100770000846806900F00100009000BF00BF00BF84
:100780000846C06940F08050C8610846C06900F062
:100790008050009000BF00BF00BF0549486820F0AE
:1007A000E06040F00070486000BF08BD00100240EB
:1007B000000001402DE9F05F80460D4616460027F7
:1007C00000F054FA074639462A46334601F007003E
:1007D000C0F1070ABAF1040F02D94FF0040A01E090
:1007E000C0F1070AD14600F1040ABAF1070F02D29C
:1007F0004FF0000A01E0A0F1030AD4464FF0010ACD
:100800000AFA09FAAAF1010A0AEA020A0AFA0CFA31
:100810004FF0010B0BFA0CFBABF1010B0BEA030BD6
:100820004AEA0B042146404600F028FABDE8F09F52
:1008300000BF00F00702064B19684FF6FF0319408E
:10084000044B0B4343EA0221014B196000BF704780
:100850000CED00E00000FA05014800687047000058
:100860002800002000B5FFF7F7FF04494968C1F3ED
:100870000221034A515CC84000BD00000010024044
:10088000A20E000810B504460CB9012010BD0021CD
:10089000A16294F8510010B9204600F037F8022008
:1008A00084F851002068006820F04000216808604A
:1008B000D4E901010843E1680843216908436169FB
:1008C0000843218B01F400710843E1690843216A60
:1008D0000843A16A0843216808600421A06901EA6D
:1008E0001040616A0843216848602168E06A086135
:1008F0002068C06920F400602168C861002060653C
:10090000012084F851000020C0E7000010B586B037
:100910000446002002900390049005901E49206830
:10092000884236D100BF1D48806940F480501B4981
:1009300088610846806900F48050019000BF00BFC4
:1009400000BF0846806940F0080088610846806959
:1009500000F00800019000BF00BF28200290022094
:1009600003900320059002A90D48FFF737FC1020E3
:10097000029000200390049002A90948FFF72EFC82
:1009800000BF0849486840F0E06040F0010048605E
:1009900000BF06B010BD0000003001400010024052
:1009A000000C01400000014070B504462546681E59
:1009B000B0F1807F01D301200FE0681E4FF0E021ED
:1009C00048610F214FF0FF3000F058F900204FF040
:1009D000E021886107200861002070BD00BFFEE7AC
:1009E00008B5054989690143034A9161114689693E
:1009F0000140009100BF08BD001002402DE9F04108
:100A000002460B461868C0F30F2595FAA5F0B0FA18
:100A100080F47CE00120A0402840002876D0082CFB
:100A200004D240F2011000FA04F106E0A4F108003B
:100A30004FF00116864046F08061586802EB11665F
:100A400091FAA1FCBCFA8CFC4FEA8C084FF00F0C19
:100A50000CFA08FC376827EA0C0791FAA1FCBCFAEB
:100A60008CFC4FEA8C0C00FA0CFC47EA0C07376050
:100A700000BF1869D66826EA11260F0A97FAA7F769
:100A8000B7FA87F700FA07F73E43D66000BF586809
:100A9000012802D05868092838D1986802EB1166FD
:100AA00091FAA1FCBCFA8CFC4FEA8C084FF0030CC5
:100AB0000CFA08FC376827EA0C0791FAA1FCBCFA8B
:100AC0008CFC4FEA8C0C00FA0CFC47EA0C073760F0
:100AD00000BFD86802EB116691FAA1FCBCFA8CFC4D
:100AE0004FEA8C084FF0040C0CFA08FC376827EA30
:100AF0000C0791FAA1FCBCFA8CFC4FEA8C0C00FAB2
:100B00000CFC47EA0C07376000BF00BF641C25FAE5
:100B100004F000287FF47EAF0120BDE8F0814FF49F
:100B20007A71B0FBF1F2521E4FF0E0235A610022BD
:100B30009A6105221A6100BF7047000001490860F0
:100B4000704700002800002010B503490348FFF754
:100B500011FB0349087010BD0100002008000020AF
:100B60000000002000B585B014216846FFF7E1FAC7
:100B70002020FFF735FF0820FFF732FF0420FFF7A2
:100B80002FFF1348C0F30F21124A516100BF1248D2
:100B9000C0F30F21114A116100BF0D4800900120E0
:100BA0000190032002900020039069460948FFF756
:100BB00025FF0948009001200190032002900020A9
:100BC000039069460548FFF719FF05B000BD000016
:100BD0008000800400080140C3C00304000C0140F1
:100BE00010B50B480B4908600B48486000210948C4
:100BF0008160C1604FF480410161002141618161E8
:100C0000C1610162FFF778FC08B1FFF7B2FA10BDCD
:100C1000005800402C000020801A060010B50F4834
:100C20000F4908604FF48270486000210C488160D1
:100C3000C1600221016101214161490281613821C4
:100C4000C16100210162416281620A21C162FFF734
:100C500019FE08B1FFF78DFA10BD00000030014009
:100C60008000002000BFFEE77047000002480068D7
:100C7000C0F30220704700000CED00E010B5002822
:100C800007DA0A07140E054A00F00F031B1FD4549D
:100C900003E00A07130E024A135410BD18ED00E0DA
:100CA00000E400E07047704710B50220454909682C
:100CB00021F007010143434A116000BF00BF104605
:100CC000006800F00700022801D0FFF752FA00BFC9
:100CD0003D48006840F480303B49086000BF00BFD9
:100CE00000BF39480068C0F340400028F8D000BF7A
:100CF0003548006840F400203349086000BF4FF4D5
:100D000080300101304A526822F47C1200F44033F2
:100D10000B431A432C4B5A6000BF00BF18460068B3
:100D200040F080701946086000BF00BF00BF264831
:100D30000068C0F340600028F8D0002022494968CC
:100D400021F0F0010143204A516000BF1015114607
:100D5000496821F4E0610143516000BF0020114661
:100D6000496821F460510143516000BF02201146DF
:100D7000496821F003010143516000BF00BF00BF7B
:100D80001148406800F00C000828F8D10F48FFF720
:100D9000C6FE0420042808D14FF0E021096941F083
:100DA00004014FF0E022116107E04FF0E0210969F2
:100DB00021F004014FF0E022116100BF0348FFF76A
:100DC000BDFE10BD002002400010024000A24A04F7
:100DD0001148006840F001000F490860084640686B
:100DE0000E4908400C494860084600680C49084014
:100DF000094908600846006820F480200860084619
:100E0000406820F4FE0048604FF41F008860C8036B
:100E10000449086070470000001002400000FFF81D
:100E2000FFFFF6FE08ED00E00248012101700078A6
:100E30007047000005000020012070470020704727
:100E40000248012101700078704700000500002071
:100E50000020704700BFFEE702E008C8121F08C16B
:100E6000002AFAD170477047002001E001C1121F2B
:100E7000002AFBD17047FFF739FCFFF715FFFFF79A
:100E800071FEFFF7CBFEFFF75FFEFFF7A9FE00BF85
:100E9000FEE7000000000000000001020304060756
:100EA000080900000000010203040000CC0E000845
:100EB000000000202C000000580E0008F80E00086A
:100EC0002C000020BC040000680E00080000000098
:100ED00000010000290E0008410E00083D0E000828
:100EE000510E0008390E000800000000100000003C
:080EF0000100000000A24A0409
:04000005080000ED02
:00000001FF
