:020000040800F2
:10000000E804002001010008511800086D110008E3
:100010004D1800086D010008D91B00080000000001
:100020000000000000000000000000008F18000821
:1000300071010008000000008D1800081901000877
:100040001B0100081B0100081B0100081B01000820
:100050001B0100081B0100081B0100081B01000810
:100060001B0100081B0100081B0100081B01000800
:100070001B0100081B0100081B0100081B010008F0
:100080001B0100081B0100081B0100081B010008E0
:100090001B0100081B0100081B0100081B010008D0
:1000A0001B0100081B0100081B0100081B010008C0
:1000B0001B0100081B0100081B0100081B010008B0
:1000C0001B0100081B0100081B0100081B010008A0
:1000D0001B0100081B0100081B0100081B01000890
:1000E0001B0100081B0100081B010008DFF80CD0F1
:1000F00000F02AF800480047FB1B0008E804002035
:100100000648804706480047FEE7FEE7FEE7FEE7B1
:10011000FEE7FEE7FEE7FEE7FEE7FEE7B9190008A7
:10012000ED000008D2B201E000F8012B491EFBD21D
:1001300070470022F6E710B513460A4604461946F2
:10014000FFF7F0FF204610BD064C074D06E0E068C3
:1001500040F0010394E8070098471034AC42F6D30E
:10016000FFF7C8FF341C0008541C000800BFFEE75E
:100170007047704710B57E2000F056F8044645F2EF
:10018000494084424BD1FB223421082000F064F81E
:10019000FB223421092000F05FF8FB2234210A20E1
:1001A00000F05AF81B220021102000F055F81B2205
:1001B0000021112000F050F81B220021122000F035
:1001C0004BF802222021142000F046F802222021C0
:1001D000152000F041F802222021162000F03CF802
:1001E000002278211E2000F037F8002278211F20FD
:1001F00000F032F800227821202000F02DF80022B3
:100200001146192000F028F80D22C2211B2000F011
:1002100023F8012214211A2000F01EF801E0012029
:1002200010BD0020FCE700007CB50546FF2002233E
:1002300001AA54210090074800F034FB08B100F0F7
:1002400097FF9DF805009DF8041040EA014084B234
:1002500020467CBD100000207CB506460C461546A5
:100260008DF804408DF80550FF20022301AA542187
:100270000090054800F0B4FC18B100F079FF0120AF
:100280007CBD0020FCE70000100000202DE9F041BB
:1002900002460B4600200021002400267FE00127B3
:1002A000874007EA0301002978D0FF2901D81746C3
:1002B00000E0171D3D46FF2901D8870002E0A0F1AC
:1002C0000807BF003E462F684FF00F0C0CFA06FCE3
:1002D00027EA0C074FF0040C0CFA06FC47EA0C075F
:1002E0002F60D7688F43D760304F4FEA900C57F894
:1002F0002C4087074FEA177C0F2707FA0CF73C4082
:100300002B4FBA4201D100270FE02A4FBA4201D148
:1003100001270AE0284FBA4201D1022705E0274F02
:10032000BA4201D1032700E004274FEA807C4FEA5C
:100330001C7C07FA0CF7A74230D187074FEA177CDD
:100340000F2707FA0CF4194F4FEA900C57F82C704E
:10035000A743DFF858C04FEA90084CF82870184FB0
:100360003F688F43DFF858C0CCF800700CF10407E9
:100370003F688F430CF1040CCCF800700CF10407BB
:100380003F688F430CF1040CCCF800700CF10407AB
:100390003F688F430CF1040CCCF80070401C23FA2A
:1003A00000F7002F7FF47BAFBDE8F081080001402B
:1003B00000080140000C0140001001400014014001
:1003C000000401402DE9F8470346002400200025E1
:1003D0008446002700226EE14FF0010808FA02F47B
:1003E000D1F8008008EA0400A0427DD1DFF8D0A255
:1003F000D1F80480A8EB0A09D0453AD014DCB8F152
:10040000030F50D009DCB8F1000F31D0B8F1010F63
:100410001CD0B8F1020F49D120E0B8F1110F18D06B
:10042000B8F1120F42D11EE0B9F5881F25D006DCC5
:10043000B9F5803F20D0B9F5801F37D11AE0B9F562
:10044000001F18D0B9F5041F30D117E0D1F80CC047
:100450002DE0D1F80C8008F1040C28E0D1F80C80D4
:1004600008F1080C23E0D1F80C8008F10C0C1EE018
:1004700000BF00BF00BF00BF00BF00BFD1F80880B1
:10048000B8F1000F02D14FF0040C0BE0D1F8088056
:10049000B8F1010F03D14FF0080C1C6102E04FF0DE
:1004A000080C5C6103E04FF0000C00E000BF00BFEF
:1004B000FF2801D8984601E003F104084646FF28CA
:1004C00002D84FEA820803E0A2F108084FEA880840
:1004D0004746D6F800804FF00F0909FA07F928EAD5
:1004E00009080CFA07F900E088E048EA0908C6F8AC
:1004F0000080D1F8048008F08058B8F1805F7DD189
:1005000000BFDFF8C081D8F8188048F00108DFF894
:10051000B491C9F81880C846D8F8188008F00108C6
:10052000CDF8008000BF00BF4FEAB9384FEA92090A
:1005300058F829504FEA82784FEA18794FF00F089F
:1005400008FA09F825EA0805DFF87C81434502D15D
:100550004FF0000816E0DFF87481434502D14FF0F8
:1005600001080FE0DFF86881434502D14FF002082F
:1005700008E0DFF86081434502D14FF0030801E055
:100580004FF004084FEA82794FEA197908FA09F81E
:1005900048EA0505DFF840814FEA920948F82950FA
:1005A000D1F8048008F48038B8F5803F0AD1DFF82C
:1005B0002C81D8F8008048EA0008DFF82091C9F8BB
:1005C000008009E0DFF81481D8F8008028EA0008EC
:1005D000DFF80891C9F80080D1F8048008F40038E9
:1005E000B8F5003F10D1DFF8F48008F10408D8F81E
:1005F000008048EA0008DFF8E49000E05AE009F1E2
:100600000409C9F800800DE0DFF8D08008F1040883
:10061000D8F8008028EA0008DFF8C09009F1040942
:10062000C9F80080D1F8048008F48018B8F5801F5C
:100630000ED1DFF8A88008F10808D8F8008048EA51
:100640000008DFF8989009F10809C9F800800DE06A
:10065000DFF8888008F10808D8F8008028EA000848
:10066000DFF8789009F10809C9F80080D1F8048012
:1006700008F40018B8F5001F0ED1DFF8608008F10B
:100680000C08D8F8008048EA0008DFF8509009F11B
:100690000C09C9F800800DE0DFF8408008F10C0873
:1006A000D8F8008028EA0008DFF8309009F10C093A
:1006B000C9F80080521C102AFFF48EAEBDE8F887FE
:1006C000000011100010024000080140000C014021
:1006D00000100140001401400800014000040140E6
:1006E00001480068704700000000002010B5044673
:1006F0000CB9012010BD242084F83D00206800685A
:1007000020F0010021680860204600F033FB002043
:10071000206484F83D00206384F83E0000BF84F824
:100720003C0000BF00BFE5E770B504460026002589
:100730000CB9012070BD94F83D0028B9002084F860
:100740003C00204600F02EFB242084F83D00206869
:10075000006820F001002168086000F01BFC0546DD
:100760004C496068884206D84B48854201D2012036
:1007700007E0002005E04948854201D2012000E061
:100780000020012800D1D5E74548B5FBF0F62068E8
:10079000466040496068884201D8701C07E04FF409
:1007A000967070434FF47A71B0FBF1F0401C2168F1
:1007B000086238496068884214D8681E6168490038
:1007C000B0FBF1F0401CC0F30B00042801D2042060
:1007D0003DE0681E61684900B0FBF1F0401CC0F3C9
:1007E0000B0034E0A06838B9681E616801EB410174
:1007F000B0FBF1F0401C0AE0681E616801EBC10229
:1008000002EB0111B0FBF1F0401C40F48040C0F35A
:100810000B0008B901201AE0A06848B9681E616899
:1008200001EB4101B0FBF1F0401CC0F30B000CE008
:10083000681E616801EBC10202EB0111B0FBF1F02F
:10084000401CC0F30B0040F4804040F4004021689D
:10085000C861D4E90701084321680860D4E903109E
:10086000084321688860D4E9050108432168C8600D
:100870002068006840F001002168086000202064C2
:10088000202084F83D000020206384F83E0000BF53
:1008900050E70000A086010080841E0000093D0092
:1008A00040420F002DE9F843044689461746984612
:1008B000089E0025FFF714FF054694F83D00202808
:1008C0007ED119230122C3492046009500F097FDEF
:1008D00010B10220BDE8F88300BF94F83C00012865
:1008E00001D10220F6E7012084F83C0000BF206817
:1008F000006800F0010028B92068006840F001009D
:10090000216808602068006820F4006021680860A1
:10091000222084F83D00102084F83E00002020644E
:100920006762A4F82A80AC48E062608D20852B467F
:1009300032464946204600F03FFC80B1206C042836
:1009400006D100BF002084F83C0000BF0120C1E7B1
:1009500000BF002084F83C0000BF0320BAE7208DD0
:1009600088B900BF0020009020684069009020688E
:100970008069009000BF00BF2068006840F40070EC
:10098000216808604BE0208D01281AD1206800689A
:1009900020F480602168086072B600BF00200090DB
:1009A00020684069009020688069009000BF00BF07
:1009B0002068006840F400702168086062B62EE08C
:1009C00005E1208D022819D12068006840F40060FC
:1009D0002168086072B600BF00200090206840695E
:1009E000009020688069009000BF00BF2068006808
:1009F00020F480602168086062B610E0206800681A
:100A000040F480602168086000BF002000902068EA
:100A10004069009020688069009000BF00BFC7E077
:100A2000208D032875D8208D01281AD12A463146F9
:100A3000204600F078FD30B1206C202801D1032041
:100A400048E7012046E720680069C1B2626A501C8D
:100A500060621170208D401E2085608D401E608573
:100A6000A6E0208D02282CD1334600225B49204687
:100A7000009500F0C4FC08B103202BE772B6206893
:100A8000006840F400702168086020680069C1B205
:100A9000626A501C60621170208D401E2085608D3E
:100AA000401E608562B620680069C1B2626A501C4F
:100AB00060621170208D401E2085608D401E608513
:100AC00076E03346002245492046009500F097FC29
:100AD00008B10320FEE62068006820F480602168E9
:100AE000086072B620680069C1B2626A501C606218
:100AF0001170208D401E2085608D401E608533461C
:100B0000002236492046009500F079FC10B1032000
:100B1000E0E621E02068006840F400702168086089
:100B200020680069C1B2626A501C60621170208D39
:100B3000401E2085608D401E608562B62068006979
:100B4000C1B2626A501C60621170208D401E208507
:100B5000608D401E60852BE02A463146204600F01D
:100B6000E2FC30B1206C202801D10320B2E6012044
:100B7000B0E620680069C1B2626A501C6062117000
:100B8000208D401E2085608D401E60852068406954
:100B9000C0F3800060B120680069C1B2626A501C75
:100BA00060621170208D401E2085608D401E608522
:100BB000208D00287FF434AF202084F83D000020F1
:100BC00084F83E0000BF84F83C0000BF82E60220AB
:100BD00080E60000020010000000FFFF040001009A
:100BE0002DE9F8430446894616461F46DDF8208065
:100BF0000025FFF775FD054694F83D0020287DD1BE
:100C00001923012259492046009500F0F8FB10B144
:100C10000220BDE8F88300BF94F83C00012801D110
:100C20000220F6E7012084F83C0000BF206800683D
:100C300000F0010028B92068006840F00100216838
:100C400008602068006820F40060216808602120A6
:100C500084F83D00102084F83E0000202064666285
:100C600067854348E062608D20852B4642464946B1
:100C7000204600F039FB80B1206C042806D100BF6B
:100C8000002084F83C0000BF0120C2E700BF002024
:100C900084F83C0000BF0320BBE700BF00200090A9
:100CA00020684069009020688069009000BF00BF04
:100CB00046E02A464146204600F06CFC60B1206CBC
:100CC000042807D12068006840F40070216808609B
:100CD00001209EE703209CE7616A481C6062087857
:100CE00021680861608D401E6085208D401E208532
:100CF00020684069C0F3800078B100E034E0208DC6
:100D000058B1616A481C6062087821680861608D8A
:100D1000401E6085208D401E20852A464146204683
:100D200000F042FB60B1206C042807D12068006805
:100D300040F400702168086001206AE7032068E73A
:100D4000208D0028B5D12068006840F4007021682B
:100D50000860202084F83D00002084F83E0000BF99
:100D600084F83C0000BF54E7022052E70200100064
:100D70000000FFFF10B504460749206888420AD1E9
:100D80000648C06920F480000449C8614FF44061FE
:100D90000348FFF77BFA10BD0058004000100240E6
:100DA000000C014010B586B004460020029003906C
:100DB0000490059016492068884226D100BF154846
:100DC000806940F00800134988610846806900F096
:100DD0000800019000BF00BF4FF440600290122055
:100DE00003900320059002A90B48FFF7EBFA00BF20
:100DF0000848C06940F480000649C8610846C069D7
:100E000000F48000019000BF00BF06B010BD0000DC
:100E10000058004000100240000C014010B5084886
:100E2000006840F0100006490860032000F098F8C0
:100E3000002000F007F800F02BF8002010BD0000A3
:100E40000020024070B504460E4800784FF47A71D5
:100E5000B1FBF0F00C490968B1FBF0F5284600F051
:100E6000B9F808B1012070BD102C07D2002221462C
:100E7000501E00F037F80548046001E00120F2E759
:100E80000020F0E7080000200C00002004000020F3
:100E900008B500BF1148806940F001000F49886122
:100EA0000846806900F00100009000BF00BF00BF4D
:100EB0000846C06940F08050C8610846C06900F02B
:100EC0008050009000BF00BF00BF0549486820F077
:100ED000E06040F00070486000BF08BD00100240B4
:100EE000000001402DE9F05F80460D4616460027C0
:100EF00000F0B0FC074639462A46334601F00700A9
:100F0000C0F1070ABAF1040F02D94FF0040A01E058
:100F1000C0F1070AD14600F1040ABAF1070F02D264
:100F20004FF0000A01E0A0F1030AD4464FF0010A95
:100F30000AFA09FAAAF1010A0AEA020A0AFA0CFAFA
:100F40004FF0010B0BFA0CFBABF1010B0BEA030B9F
:100F50004AEA0B042146404600F084FCBDE8F09FBD
:100F600000BF00F00702064B19684FF6FF03194057
:100F7000044B0B4343EA0221014B196000BF704749
:100F80000CED00E00000FA05014800687047000021
:100F90000C00002000B5FFF7F7FF04494968C1F3D2
:100FA0000221034A515CC84000BD0000001002400D
:100FB0002A1C000800B5FFF7E7FF04494968C1F3A0
:100FC000C221034A515CC84000BD0000001002402D
:100FD0002A1C000870B504462546681EB0F1807FC3
:100FE00001D301200FE0681E4FF0E02148610F217E
:100FF0004FF0FF3000F036FC00204FF0E021886118
:1010000007200861002070BD10B504460CB901200E
:1010100010BDA06900B100E000BF94F8390028B904
:10102000002084F83800204600F028F8242084F8B6
:1010300039002068C06820F400502168C86020464C
:1010400000F0E6FC2068006920F490402168086107
:101050002068406920F02A00216848612068C06843
:1010600040F400502168C8600020E063202084F82C
:10107000390084F83A000020CAE7000010B586B0B5
:1010800004460020029003900490059033492068A4
:1010900088422FD100BF3248806940F480403049F7
:1010A00088610846806900F48040019000BF00BF5D
:1010B00000BF0846806940F00400886108468069E6
:1010C00000F00400019000BF00BF4815029002200C
:1010D00003900320059002A92248FFF773F94FF40B
:1010E0008060029000200390049002A91D48FFF741
:1010F00069F931E01C49206888422DD100BF1848A9
:10110000C06940F400301649C8610846C06900F45F
:101110000030019000BF00BF00BF0846806940F06A
:10112000040088610846806900F00400019000BF57
:1011300000BF04200290022003900320059002A922
:101140000848FFF73FF90820029000200390049020
:1011500002A90448FFF736F906B010BD0038014077
:1011600000100240000801400044004000BFFEE7BC
:1011700010B50348FFF7BAFA00F012FB10BD0000EB
:1011800010000020014608684069C0F3802088B143
:101190006FF480600A6850610420086400200863CE
:1011A000202081F83D0000BF002081F83C0000BFF6
:1011B000012070470020FCE72DE9F84304460D4666
:1011C00090461E46E76A2068006840F48060216807
:1011D0000860042F04D0012F02D017F5803F06D1FC
:1011E0002068006840F480702168086008E0206B87
:1011F000112805D12068006840F4807021680860DB
:10120000434600224FF001112046009600F0F7F807
:1012100010B10320BDE8F8832069B0F5804F05D1F7
:10122000E8B240F001002168086149E005F440702F
:10123000F02141EAE010216808613346424629491D
:10124000204600F01AF930B1206C042801D10120A9
:10125000E0E70320DEE7E8B2216808613346424652
:101260002049891F204600F008F930B1206C04287D
:1012700001D10120CEE70320CCE700BF0020009081
:1012800020684069009020688069009000BF00BF1E
:101290002068006840F4807021680860434600229E
:1012A0004FF001112046009600F0A9F808B1032084
:1012B000B0E705F44070F12141EAE01021680861CF
:1012C000334642460749891F204600F0D6F830B120
:1012D000206C042801D101209CE703209AE700201C
:1012E00098E70000080001002DE9F84304460D4688
:1012F00017469846E66A042E04D0012E02D016F551
:10130000803F06D12068006840F480702168086042
:1013100008E0206B122805D12068006840F4807036
:10132000216808603B4600224FF001112046CDF8AD
:10133000008000F064F810B10320BDE8F883206954
:10134000B0F5804F04D105F0FE002168086117E078
:1013500005F44070F02141EAE0102168086143463D
:101360003A461049204600F088F830B1206C042835
:1013700001D10120E1E70320DFE7E8B2216808613D
:1013800043463A460749891F204600F076F830B1B7
:10139000206C042801D10120CFE70320CDE70020F5
:1013A000CBE700000800010070B504460D46164664
:1013B0001DE02046FFF7E6FE08B1012070BD681C65
:1013C000A8B125B1FFF78CF9801BA8420FD9206C7A
:1013D00040F02000206400202063202084F83D009D
:1013E00000BF002084F83C0000BF0320E6E720682F
:1013F0004069C0F380000028DBD00020DEE72DE943
:10140000F04104460D4617461E46DDF8188017E0E9
:10141000701CA8B12EB1FFF763F9A0EB0800B04231
:101420000ED900202063202084F83D00002084F89D
:101430003E0000BF84F83C0000BF0320BDE8F081FF
:10144000C5F3074001280AD120684069A9B20840C5
:10145000A9B2884201D101200BE0002009E02068F8
:101460008069A9B20840A9B2884201D1012000E0F8
:101470000020B842CCD00020E0E72DE9F04104463E
:101480000D4616461F4631E020684069C0F38020B3
:10149000C0B12068006840F40070216808606FF4F3
:1014A000806021684861042020640020206320209F
:1014B00084F83D0000BF002084F83C0000BF0120FC
:1014C000BDE8F081701C88B126B1FFF709F9C01B97
:1014D000B0420BD900202063202084F83D0000BFDB
:1014E000002084F83C0000BF0320E9E7C5F3074073
:1014F00001280AD120684069A9B20840A9B28842EF
:1015000001D101200BE0002009E020688069A9B228
:101510000840A9B2884201D1012000E00020002843
:10152000B2D00020CCE770B504460D46164629E03F
:1015300020684069C0F3001080B16FF0100021688E
:101540004861002020642063202084F83D0000BF13
:10155000002084F83C0000BF012070BD25B1FFF7DA
:10156000BFF8801BA8420DD9206C40F020002064F9
:10157000202084F83D0000BF002084F83C0000BF1C
:101580000320EAE720684069C0F380100028CFD02C
:101590000020E2E770B504460D4616461DE02046E1
:1015A000FFF7F0FD08B1012070BD681CA8B125B19E
:1015B000FFF796F8801BA8420FD9206C40F020005E
:1015C000206400202063202084F83D0000BF00201C
:1015D00084F83C0000BF0320E6E720684069C0F3C0
:1015E000C0100028DBD00020DEE7000008B5054968
:1015F00089690143034A916111468969014000915B
:1016000000BF08BD001002402DE9F04102460B4624
:101610001868C0F30F2595FAA5F0B0FA80F47CE0C5
:101620000120A0402840002876D0082C04D240F2A7
:10163000011000FA04F106E0A4F108004FF00116D1
:10164000864046F08061586802EB116691FAA1FC71
:10165000BCFA8CFC4FEA8C084FF00F0C0CFA08FC1B
:10166000376827EA0C0791FAA1FCBCFA8CFC4FEA18
:101670008C0C00FA0CFC47EA0C07376000BF1869B5
:10168000D66826EA11260F0A97FAA7F7B7FA87F75E
:1016900000FA07F73E43D66000BF5868012802D021
:1016A0005868092838D1986802EB116691FAA1FCB4
:1016B000BCFA8CFC4FEA8C084FF0030C0CFA08FCC7
:1016C000376827EA0C0791FAA1FCBCFA8CFC4FEAB8
:1016D0008C0C00FA0CFC47EA0C07376000BFD86896
:1016E00002EB116691FAA1FCBCFA8CFC4FEA8C0863
:1016F0004FF0040C0CFA08FC376827EA0C0791FA43
:10170000A1FCBCFA8CFC4FEA8C0C00FA0CFC47EAFA
:101710000C07376000BF00BF641C25FA04F00028E6
:101720007FF47EAF0120BDE8F0814FF47A71B0FB09
:10173000F1F2521E4FF0E0235A6100229A61052215
:101740001A6100BF7047000001490860704700003F
:101750000C00002000B585B014216846FEF7E9FCB6
:101760002020FFF743FF0420FFF740FF0820FFF78A
:101770003DFF0948C0F30F21084A116100BF0090E6
:10178000012001900320029000200390694610463A
:10179000FFF73AFF05B000BDC3C00304000C0140D1
:1017A00010B50B480B4908600B48486000210948F8
:1017B0008160C1604FF4804101610021416181611C
:1017C000C1610162FEF7B0FF08B1FEF7D2FC10BDA7
:1017D0000058004010000020801A060010B50B4889
:1017E0000B4908604FF4E1304860002108488160EF
:1017F000C16001610C21416100218161C161FFF77C
:1018000003FC08B1FEF7B5FC10BD00000038014034
:101810006400002010B50B480B4908604FF41650C7
:101820004860002108488160C16001610C2141616C
:1018300000218161C161FFF7E7FB08B1FEF799FC68
:1018400010BD000000440040A400002000BFFEE7DF
:101850007047000002480068C0F302207047000093
:101860000CED00E010B5002807DA0A07140E054A4F
:1018700000F00F031B1FD45403E00A07130E024AA3
:10188000135410BD18ED00E000E400E0704770470D
:1018900010B502204549096821F007010143434A78
:1018A000116000BF00BF1046006800F0070002286A
:1018B00001D0FEF75EFC00BF3D48006840F4803078
:1018C0003B49086000BF00BF00BF39480068C0F353
:1018D00040400028F8D000BF3548006840F40020A0
:1018E0003349086000BF4FF480300101304A52682C
:1018F00022F47C1200F440330B431A432C4B5A6001
:1019000000BF00BF1846006840F0807019460860AC
:1019100000BF00BF00BF26480068C0F34060002839
:10192000F8D000202249496821F0F0010143204A03
:10193000516000BF10151146496821F4E061014370
:10194000516000BF00201146496821F460510143F5
:10195000516000BF02201146496821F00301014394
:10196000516000BF00BF00BF1148406800F00C008C
:101970000828F8D10F48FFF7D8FE0420042808D122
:101980004FF0E021096941F004014FF0E0221161BC
:1019900007E04FF0E021096921F004014FF0E02257
:1019A000116100BF0348FFF7CFFE10BD00200240C9
:1019B0000010024000A24A041148006840F00100F3
:1019C0000F490860084640680E4908400C494860C5
:1019D000084600680C490840094908600846006844
:1019E00020F4802008600846406820F4FE0048602B
:1019F0004FF41F008860C803044908607047000066
:101A0000001002400000FFF8FFFFF6FE08ED00E0C6
:101A10002DE9F041044600252068006920F440507B
:101A2000E1680843216808612169A0680843616989
:101A3000084305432068C06841F20C61884328438D
:101A40002168C8602068406920F44070A16908439B
:101A5000216848615F49206888425CD1FFF7AAFA93
:101A600000EBC00101EB001061688900B0FBF1F6EA
:101A7000FFF7A0FA00EBC00101EB001061688900DC
:101A8000B0FBF1F06421B0FBF1F000EBC00101EB21
:101A90000010A6EB8000322101EB00106421B0FBA6
:101AA000F1F000F0F006FFF785FA00EBC00101EB62
:101AB000001061688900B0FBF1F06421B0FBF1F027
:101AC00006EB0016FFF776FA00EBC00101EB001001
:101AD00061688900B0FBF1F7FFF76CFA00EBC00119
:101AE00001EB001061688900B0FBF1F06421B0FBEC
:101AF000F1F000EBC00101EB0010A7EB80003221F8
:101B000001EB00106421B0FBF1F000F00F00304455
:101B1000216888605BE0FFF73DFA00EBC00101EB54
:101B2000001061688900B0FBF1F6FFF733FA00EBB3
:101B3000C00101EB001061688900B0FBF1F0642185
:101B4000B0FBF1F000EBC00101EB0010A6EB800050
:101B5000322101EB00106421B0FBF1F000F0F0063F
:101B6000FFF718FA00EBC00101EB00106168890073
:101B7000B0FBF1F06421B0FBF1F006EB0016FFF7CB
:101B800009FA00EBC00101EB001061688900B0FBAD
:101B9000F1F7FFF7FFF900EBC00101EB00106168FE
:101BA0008900B0FBF1F06421B0FBF1F000EBC00163
:101BB00001EB0010A7EB8000322101EB0010642143
:101BC000B0FBF1F000F00F00304421688860BDE800
:101BD000F08100000038014000BFFEE702E008C8C5
:101BE000121F08C1002AFAD170477047002001E097
:101BF00001C1121F002AFBD17047FFF70FF9FFF751
:101C000047FEFFF7A7FDFFF705FEFFF7E7FDFFF72C
:101C1000C7FDFEF7AFFA00BFFEE7000000000000BE
:101C20000000010203040607080900000000010289
:101C300003040000541C00080000002010000000F5
:101C4000DC1B0008641C000810000020D804000001
:101C5000EC1B000800000000100000000100000064
:041C600000A24A0490
:04000005080000ED02
:00000001FF
