:020000040800F2
:100000002031002099010008C71F0008931A00083A
:10001000C51F0008A1020008D12900080000000047
:1000200000000000000000000000000001010008C6
:10003000B10200080000000045010008B1260008D8
:10004000B3010008B3010008B3010008B3010008C0
:10005000B3010008B3010008B3010008B3010008B0
:10006000B3010008B3010008B3010008A5020008AD
:10007000B3010008B3010008B3010008B301000890
:10008000B3010008B3010008B3010008B301000880
:10009000B3010008B3010008B3010008B301000870
:1000A000B3010008B3010008B3010008B301000860
:1000B000B3010008B301000885270008B301000858
:1000C000B3010008B3010008B3010008B301000840
:1000D000B3010008B3010008B3010008B301000830
:1000E000B3020008B3010008B3010008DFF80CD028
:1000F00000F09EF800480047392C0008203100200D
:10010000224B19680868B0E8F00F80F30988BFF344
:100110006F8F4FF0000080F311884EF00D0E704786
:100120000000000006480068006880F3088862B696
:1001300061B6BFF34F8FBFF36F8F00DF00BF00BF0B
:1001400008ED00E0EFF30980BFF36F8F0F4B1A68E3
:1001500020E9F00F106008B54FF0500080F31188CF
:10016000BFF34F8FBFF36F8F03F086FB4FF000009C
:1001700080F31188BDE8084019680868B0E8F00FFE
:1001800080F30988BFF36F8F704700BF2C000020F9
:10019000EFF3058070470000064880470648004797
:1001A000FEE7FEE7FEE7FEE7FEE7FEE7FEE7FEE727
:1001B000FEE7FEE73D270008ED00000840EA0103E6
:1001C0009B0703D009E008C9121F08C0042AFAD20D
:1001D00003E011F8013B00F8013B521EF9D27047D1
:1001E000D2B201E000F8012B491EFBD27047002279
:1001F000F6E710B513460A4604461946FFF7F0FF26
:10020000204610BD30B50B460146002020220124B7
:1002100009E021FA02F59D4205D303FA02F5491BD4
:1002200004FA02F52844151EA2F10102F1DC30BDEA
:10023000064C074D06E0E06840F0010394E8070033
:1002400098471034AC42F6D3FFF754FFF04A000849
:10025000104B000870B5044600688168C943C9079F
:100260001CD1816821F00101816000F0ADFB0546E1
:100270000FE000BF00F0A8FB401B022809D9A06ACC
:1002800040F01000A062E06A40F00100E06201204E
:1002900070BD20688068C043C007EBD0002070BDEF
:1002A000FEE70000014800F0A1B90000C0000020F6
:1002B00070474FF4806000F093BA7047F8B500249F
:1002C000009490F824202546012A12D0012280F8BB
:1002D00024204A681F23072A0DD20668776B521E16
:1002E00002EB820293409F430B6893401F43776366
:1002F00019E00220F8BD06680D2A0AD2376BD21F1A
:1003000002EB820293409F430B6893401F43376385
:1003100009E0F76A0D3A02EB820293409F430B68B3
:1003200093401F43F7620A68072306680A2A0AD324
:10033000F7680A3A02EB420293409F438B6893406E
:100340001F43F76008E0376902EB420293409F4386
:100350008B6893401F4337610A68102A01D0112A25
:1003600020D1124B02689A4217D193681B0219D40C
:10037000936843F4000393600968102912D10C4973
:100380000C4A0968B1FBF2F101EB8101490000E080
:10039000491E00910029FBD104E0816A41F020014F
:1003A0008162012480F824502046F8BD00240140D9
:1003B0002800002040420F002DE9F0414FF00007D7
:1003C00004003D467ED0A06A002628B9E66284F883
:1003D0002460204600F07EF82046FFF73BFFA16A2C
:1003E000C90600D420B1A06A40F01000A06269E004
:1003F000A16A21F4885141F00201A1626268E169B9
:10040000E3680A4347EA43010A43A1684FF480774F
:10041000B94209D0012907D05FF00001D4F814C017
:10042000BCF1010F02D00AE03946F7E7F3B1A36A45
:1004300043F02003A362E36A43F00103E36223680D
:10044000D3F804C02CF4694C4CEA010CC3F804C086
:1004500021688B68DFF870C003EA0C0313438B60DC
:10046000A168B9420BD0012909D00CE0DFF85CC0CB
:10047000A3690CEB43330B4343F40061DFE7218AAC
:100480000D05A5F580152168CB6A23F470032B4375
:10049000CB62216889680E4B1940914208D1E6620F
:1004A000A16A21F0020141F00101A162BDE8F081E1
:1004B000A06A20F0020040F01000A062E06A40F064
:1004C0000100E0620120F1E7FDF7E1FF00E0FFFF3E
:1004D000FE0E1FFF70B586B00025064600950195FB
:1004E0000295039500681A4988422ED119498869F6
:1004F00040F400708861886900F400700490886995
:1005000040F0040088618869694600F004000490A6
:100510001E200090032001900F4800F06DF9104C50
:100520000E48C4E900058020C4E902508000206123
:10053000800060612020C4E90605204600F000F933
:1005400008B1FFF7BAFE3462666206B070BD000003
:100550000024014000100240000801400800024051
:10056000C000002070B504790023012C09D00124BB
:100570000471022545710568AE6846F00106AE605B
:1005800007E0022070BD00BF066851F823503560B7
:100590005B1C9342F8D3447100210171006800682C
:1005A00070BD10B5040002D0607910B106E00120E2
:1005B00010BD00202071204600F004F80120607179
:1005C000002010BD08B500680649884208D10648D9
:1005D000416941F040014161406900F040000090F4
:1005E00008BD000000300240001002402DE9F05F1D
:1005F000C16B0C6801680B68D0F840C0042202FA95
:100600000CF2494DDFF824A1494E4A4FDFF828B1DA
:10061000DFF828E122422CD05A072AD50A68920630
:1006200003D40A6822F004020A600168A94201D1D9
:10063000042219E0514501D1402215E0B14202D116
:100640004FF4806210E0B94202D14FF480420BE0D7
:10065000594502D14FF4802206E0714502D14FF492
:10066000800201E04FF080622F4908394A60C16A78
:100670003BE04FF0020808FA0CF818EA040F4FF0BC
:1006800000094FF0010235D05FEA837832D50B685C
:100690009B0605D40B6823F00A030B6080F8212029
:1006A0000168A94201D1022219E0514501D120225D
:1006B00015E0B14202D14FF4007210E0B94202D10C
:1006C0004FF400520BE0594502D14FF4003206E0DE
:1006D000714502D14FF4001201E04FF0007212494F
:1006E00008394A6080F82090816A00291AD0BDE854
:1006F000F05F0847082505FA0CF5254212D01B07C4
:1007000010D50B6823F00E030B6090F84010C36BFC
:1007100002FA01F15960826380F8212080F820906C
:10072000016BE2E7BDE8F09F080002401C000240B8
:100730003000024044000240580002406C00024079
:1007400030B528B308C8134914221944B1FBF2F19B
:100750008900C16310498163022141771A6843F619
:10076000F0718A43D0E900142143D0E902452C43BB
:10077000214304692143446921438469214311438E
:10078000196000214163012242770177084630BD9C
:10079000012030BDF8FFFDBF0000024070B50446E7
:1007A00000F012F90546601C02D0044800780444A9
:1007B00000F00AF9401BA042FAD370BD1C000020D3
:1007C00000B589B04FF48061044800F0F3F80128C7
:1007D00002D1684601F0F8FB09B000BD000C0140F1
:1007E000044910B50A68024202D00860FFF7E8FF2A
:1007F00010BD0000140401402DE9F84FDFF890A16E
:1008000000220AF1040B144601274FF00F090BF1E7
:10081000040E00BF0B6807FA04F52B40AB4274D1FD
:10082000DFF870C14E68A6EB0C0866452BD00DDCD6
:10083000032E34D005DC36B3012E19D0022E2FD171
:100840001BE0112E16D0122E2AD119E0B8F5881F00
:1008500019D006DCB8F5803F15D0B8F5801F1FD140
:1008600011E0B8F5001F0ED0B8F5041F18D10AE04A
:10087000CA6815E0CA68121D12E0CA6808320FE0A3
:10088000CA680C320CE08A682AB1012A4FF00802CB
:1008900003D0456104E0042202E0056100E000228B
:1008A000FF2B01D8064601E000F104064FEA84055B
:1008B00001D9A5F12005D6F800C009FA05F82CEAFF
:1008C000080C02FA05F54CEA050CC6F800C04D68A4
:1008D000ED0057D5304DAE6946F00106AE61AD6909
:1008E00024F0030605F0010500952C4D06EB050CE0
:1008F000DCF80850A6074FEA167809FA08F6B5435F
:10090000274EB04202D1002610E03BE0254EB04217
:1009100001D101260AE0244EB04201D1022605E0B1
:10092000224EB04201D1032600E0042606FA08F662
:100930002E43CCF808604D68DAF80060ED035546A8
:1009400001D51E4300E09E432E604D68DBF8006039
:10095000AD035D4601D51E4300E09E432E604D6809
:10096000DEF80060ED02754601D51E4300E09E43AF
:100970002E604D68AD020E4D2E6801D51E4300E07D
:100980009E432E60641C102CFFF444AFBDE8F88F2A
:10099000000401400000111000100240000001405E
:1009A00000080140000C014000100140001401400B
:1009B0000C0401408068084000D0012070470AB153
:1009C000016170470904FBE7014880687047000037
:1009D0001C00002070B504001BD094F83D000025D9
:1009E00020B984F83C50204600F032F9242084F8E5
:1009F0003D002068016821F00101016000F058FB12
:100A0000404A6168914201D83F4900E03F4988422D
:100A100001D2012070BD3E492368B0FBF1F159605D
:100A20006368934206D94FF4967359434FF47A732F
:100A3000B1FBF3F12368491C19626168914210D837
:100A40004900401EB0FBF1F2521CC2F30B02042A13
:100A500001D2042022E0B0FBF1F0401CC0F30B00F7
:100A60001CE0A368CBB301EBC10202EB0116421EEE
:100A7000B2FBF6F2521C42F48042120536D06BB340
:100A800001EBC10202EB0111401EB0FBF1F0401C72
:100A9000C0F30B0040F4804040F400402168C8617E
:100AA000D4E90701084321680860D4E9031008432A
:100AB00021688860D4E9050108432168C86020687E
:100AC000016841F0010101602564202084F83D00A7
:100AD000256384F83E50002070BD00E008E001EB83
:100AE0004106421EB2FBF6F2521CC6E70120D5E7D2
:100AF00001EB4101401EB0FBF1F0401CC0F30B00C4
:100B0000CAE70000A086010080841E0000093D00A5
:100B100040420F002DE9FF4F83B09A46DDE911876F
:100B200093460446DDF84090FFF74EFF064694F8E2
:100B30003D0020287DD119230122434920460096FB
:100B400001F033F800287CD194F83C00012878D0DB
:100B5000012084F83C0020680168C90703D10168BE
:100B600041F0010101602068016821F40061016029
:100B7000212084F83D00402084F83E0000252564B3
:100B8000C4F82490A4F82A803048E062608D208563
:100B9000CDE9007653465A462046049900F08EFF70
:100BA00080B3206C84F83C50042848D008E03246DA
:100BB0003946204601F06EF830B1206C042839D057
:100BC000032007B0BDE8F08F606A411C61622168B4
:100BD00000780861208D401E80B22085618D491EFD
:100BE000618521684A69D24352070BD468B1606AB3
:100BF000421C626200780861208D401E2085608D55
:100C0000401E6085208D0028D1D1324639462046CD
:100C100000F0A4FF0028D0D154F83D0B016841F446
:100C200000710160202004F81E09E5776577002037
:100C3000C7E706E02068016841F400710160012007
:100C4000BFE70220BDE70000020010000000FFFF28
:100C500010B586B0002100910191029103910068C6
:100C60000F4988421AD10F4CA06940F00800A061DA
:100C7000A069694600F008000490C020009012208E
:100C80000190032003900848FFF7B6FDE06940F4A7
:100C90000010E061E06900F40010049006B010BD9F
:100CA0000054004000100240000C014002488168DE
:100CB00002781144816070471C000020074810B57D
:100CC000016841F010010160032000F093F800205A
:100CD00000F006F800F03EF8002010BD00200240B1
:100CE00000B5014687B000221E2000F063F81E20E8
:100CF00000F054F81348C16941F00401C161C069B2
:100D000005A900F004000690684600F0B1F900F073
:100D1000CFF90D494000B0FBF1F10D480B4A491ED7
:100D20000260416040F2E7320021C0E903218160A6
:100D300000F000FD10B1012007B000BD044800F034
:100D400015FDF9E70010024040420F000008004086
:100D5000F00100200F4808B5816941F0010181616F
:100D6000816901F001010091C16941F08051C161C7
:100D7000C069002200F0805000900F21901E00F00A
:100D800019F80548416821F0E06141F000714160C7
:100D900008BD0000001002400000014000F01F02EA
:100DA000012191404009800000F1E020C0F80011CD
:100DB00070470000F0B40E4B1B680C46C3F30223CF
:100DC000C3F10705042D00D90425191D072901D2F7
:100DD000002300E0DB1E012606FA05F1491E214032
:100DE00099409E40761E16403143F0BC01F0F0B9A8
:100DF0000CED00E0064900F0070208684FF6FF031B
:100E0000184040EA0220034A10430860704700007F
:100E10000CED00E00000FA052DE9F84305460078E6
:100E2000354CC00754D0E0690026C00008D4E06902
:100E300040F08050E061E069012600F080500090B1
:100E40002E480168C90512D40168804641F48071BA
:100E50000160FFF7B9FD074605E000BFFFF7B4FDED
:100E6000C01B642823D8D8F80000C005F6D5206A36
:100E700010F4407021D0A98801F4407181421CD047
:100E8000206A1F49012220F440700A6000220A6093
:100E90002062C00711D0FFF797FD074641F288385E
:100EA00008E000BFFFF790FDC11B414502D90320B8
:100EB000BDE8F883206A8007F4D5206A696820F4C9
:100EC0004070084320621EB1E06920F08050E0616C
:100ED0002878800705D56068A96820F44040084359
:100EE00060602878C00605D56068E96820F4800055
:100EF000084360600020DBE7001002400070004003
:100F0000400442422DE9F047DFF8548105460E4681
:100F1000D8F8000000F00700B0420CD2D8F800105A
:100F200021F007013143C8F80010D8F8000000F0A4
:100F30000700B0426FD128684A4C810712D540079C
:100F400003D5606840F4E06060602878000703D54E
:100F5000606840F4605060606068A96820F0F0004C
:100F6000084360602878C00744D06868012816D01C
:100F70002168022816D0890700294CDA616821F01F
:100F8000030101436160FFF71FFD6968074641F2F5
:100F9000883001290ED00229814618D026E0216828
:100FA0008903E9E78901E7E7FFF70EFDC11B494522
:100FB00001D918E081466068C0F381000128F3D1AF
:100FC00018E000BFFFF700FDC11B49450BD8606862
:100FD000C0F381000228F5D10CE000BFFFF7F4FC5C
:100FE000C11B494502D90320BDE8F087606810F0B5
:100FF0000C0FF3D1D8F80010404601F00701B142C0
:101000000BD9016821F0070131430160006800F04D
:101010000700B04201D00120E6E72878400705D557
:101020006068E96820F4E0600843606028780007A1
:1010300006D56068296920F4605040EAC10060600C
:1010400000F056F86168084AC1F30311515CC840CA
:10105000064908600020FFF743FE0020C4E70000B7
:101060000020024000100240A84A0008280000208A
:101070000F2202600C4A536803F003034360536875
:1010800003F0F0038360536803F4E063C3605268C5
:101090004FF4E06303EAD20202610448006800F002
:1010A0000700086070470000001002400020024066
:1010B0000448054900684968044AC1F30221515CAB
:1010C000C84070472800002000100240B84A0008BD
:1010D0000448054900684968044AC1F3C221515CCB
:1010E000C84070472800002000100240B84A00089D
:1010F00012A185B00FC98DE80F0014A0144A006832
:1011000004905168134801F00C03042B10D0082BF5
:101110000ED1C1F38343C9031DF803000AD55168FA
:1011200004AAC1F34041515C0A4A5043B0FBF1F0BC
:1011300005B0704708494843FAE700000203040578
:10114000060708090A0B0C0D0E0F10100102000013
:101150000010024000127A0000093D002DE9F84F0E
:1011600004460078B94DC00748D06868C0F38100D4
:10117000012807D06868C0F38100022809D1686897
:10118000C00306D52868800338D5606800286FD072
:1011900034E06068B0F5803F0BD010B1B0F5A02FFF
:1011A00011D0286820F480302860286820F480203E
:1011B00002E0286840F480302860606888B1FFF75A
:1011C00003FC064609E0286840F480202860F0E728
:1011D000FFF7FAFB801B642875D828688003F7D5D1
:1011E0000CE0FFF7F1FB064605E000BFFFF7ECFB64
:1011F000801B6428F0D828688003F7D42078944EA8
:1012000080074FF001094FF000083BD5686810F0E7
:101210000C0F07D06868C0F38100022809D1686804
:10122000C00306D42868800714D5206901281FD17F
:1012300010E02069B0B1C6F80090FFF7C5FB074683
:1012400005E000BFFFF7C0FBC01B0228C4D8286818
:101250008007F7D52868616920F0F80040EAC100EE
:1012600028600FE0C6F80080FFF7AEFB074606E0F7
:10127000E9E000BFFFF7A8FBC01B022823D82868BD
:101280008007F7D4207800072CD57248A169D9B11E
:10129000C0F80090FFF798FB074604E0FFF794FBC7
:1012A000C01B02280FD8686A8007F7D56A484FF438
:1012B000FA510068B0FBF1F0009000BF0098411EA9
:1012C0000091FAD20EE080E0C0F80080FFF77CFBCE
:1012D000074604E0FFF778FBC01B022875D8686A50
:1012E0008007F7D42078400760D5E8690027C00060
:1012F00008D4E86940F08050E861E869012700F00F
:101300008050009055480168C90513D40168834690
:1013100041F480710160FFF757FB824606E000BF91
:10132000FFF752FBA0EB0A0064284ED8DBF8000060
:10133000C005F5D5E06801280AD008B1052813D00A
:10134000286A20F001002862286A20F0040002E0E8
:10135000286A40F001002862E06841F2883B98B1B9
:10136000FFF732FB82460BE0286A40F00400286257
:10137000EEE700BFFFF728FBA0EB0A0159455AD85A
:10138000286A8007F6D50CE0FFF71EFB824605E0D1
:10139000FFF71AFBA0EB0A0159454CD8286A8007D1
:1013A000F6D41FB1E86920F08050E861E06988B3A5
:1013B0006968C1F38101022945D00228C6F860801E
:1013C00004D0FFF701FB044638E034E0FFF7FCFAF5
:1013D000074604E0FFF7F8FAC01B02282BD828685C
:1013E0008001F7D4206AB0F5803F05D16868A16814
:1013F00020F4003008436860D4E9080108436968B4
:1014000021F4741108436860C6F86090FFF7DCFAB5
:10141000044606E015E000BFFFF7D6FA001B0228DD
:1014200009D828688001F7D50BE000BFFFF7CCFA98
:10143000001B022802D90320BDE8F88F286880012C
:10144000F4D40020F8E70120F6E700000010024085
:101450000000424280044242280000200070004008
:1014600070B5040005D00025A56294F8510010B1B4
:1014700004E0012070BD204600F034F8022084F81A
:1014800051002068016821F040010160D4E90101A8
:101490000843D4E903121143084361690843218BCF
:1014A00001F400710843E1690843216A0843A16A15
:1014B000084321680860A069042101EA1040616ABC
:1014C0000843216848602168E06A08612068C169B2
:1014D00021F40061C1616565012084F8510000209C
:1014E00070BD000030B585B00024009401940294D2
:1014F000039400681549884225D11548C16941F413
:101500008041C161C16901F480410491816941F068
:101510000801816180690F4D00F0080004904FF4CC
:101520002040009002200190032003906946284645
:10153000FFF762F94FF48040CDE900046946284680
:101540000294FFF759F905B030BD000000380040A3
:1015500000100240000C01402DE9F84F044690F8BD
:10156000500000260A9F9A4693460D464FF0010808
:1015700001280ED0012084F85000FFF725FA81469B
:1015800094F85100616801280CD0B1F5827F07D131
:1015900002E00220BDE8F88FA16809B9042801D053
:1015A0000226BDE055B1BBF1000F07D0BAF1000F24
:1015B00004D094F85100012802D004E00126AFE0E5
:1015C000052084F8510000206065C4F838B0A4F804
:1015D0003EA0A4F83CA02563A4F836A0A4F834A04B
:1015E0002064606420680168490603D4016841F002
:1015F00040010160E068B0F5006F606804D0E8B3B6
:10160000E08E01283BD06AE010B1E08E01282ED197
:10161000216835F8020BC860E08E401EE08626E0A7
:10162000B8F1000F0DD0E08E58B1206881688907AD
:1016300007D535F8021BC160E08E401EE0864FF0F2
:101640000008E08F58B120688168C90707D0C068DA
:101650002BF8020BE08F401EE0874FF00108781C4A
:1016600005D0FFF7B1F9A0EB0900B84246D2E08EF1
:101670000028D5D1E08F0028D2D136E0FFE72168DD
:1016800015F8010B0873E08E401EE08627E000BFCE
:10169000B8F1000F0DD0E08E58B12068816889073D
:1016A00007D515F8011B0173E08E401EE0864FF050
:1016B0000008E08F58B120688168C90707D0C0686A
:1016C0000BF8010BE08F401EE0874FF00108781CFB
:1016D00005D0FFF779F9A0EB0900B8420ED2E08EF1
:1016E0000028D5D1E08F0028D2D13B46012202212B
:1016F0002046CDF8009000F096FE08B103260FE0DA
:101700004A463946204600F07EFE18B101262020C8
:10171000606505E0A06818B92068C168806800901D
:10172000012084F85100002084F85000304631E751
:101730007047704710B5040003D094F83D0010B115
:1017400007E0012010BD002084F83C00204600F096
:101750000CF8022084F83D00211D206801F018F8E3
:10176000012084F83D00002010BD70470168CA6860
:1017700042F00102CA600068016841F001010160A5
:1017800000207047704770B50446006801694FF04B
:101790000005C943890715D4C168C943890711D415
:1017A000E91E0161012020772068806980072046BA
:1017B00002D0FFF7E7FF04E000F098F8204600F0C1
:1017C00096F8257720680169C943490717D4C1688D
:1017D000C943490713D46FF0040101610220207747
:1017E0002068806910F4407F204602D0FFF7CAFFCE
:1017F00004E000F07BF8204600F079F825772068B7
:101800000169C943090716D4C168C943090712D43D
:101810006FF008010161042020772068C06980070B
:10182000204602D0FFF7AEFF04E000F05FF820464C
:1018300000F05DF8257720680169C943C90617D40F
:10184000C168C943C90613D46FF0100101610820B3
:1018500020772068C06910F4407F204602D0FFF74F
:1018600091FF04E000F042F8204600F040F82577B0
:1018700020680169C943C90708D1C168C943C907BC
:1018800004D1891E0161204600F032F82068016908
:10189000C943090609D4C168C943090605D46FF0D4
:1018A000800101612046FFF743FF20680169C943B9
:1018B000490609D4C168C943490605D46FF04001FF
:1018C0000161204600F01EF820680169C9438906BD
:1018D0000BD4C168C943890607D46FF020010161A8
:1018E0002046BDE87040FFF724BF70BD70477047C9
:1018F00000680349884201D1FFF7D8B9704700005A
:1019000000080040704770B5040004D094F8390016
:10191000002510B106E0012070BD84F83850204643
:1019200000F022F8242084F839002068C16821F4EE
:101930000051C160204600F061FF2068016921F478
:10194000904101612068416921F02A0141612068CC
:10195000C16841F40051C160E563202084F839007A
:1019600084F83A00002070BD30B585B000240094A2
:1019700001940294039400681449884224D11448C5
:10198000816941F480418161816901F48041049160
:10199000816941F00401816180690E4D00F004000D
:1019A00004904FF4007000900220019003200390F7
:1019B00069462846FEF720FF2815CDE90004694650
:1019C00028460294FEF718FF05B030BD00380140EC
:1019D00000100240000801402DE9F843044690F849
:1019E00039001F4616460D46202850D1A5B19EB19C
:1019F00094F8380001284AD0012084F838004FF0CC
:101A00000008C4F83C80212084F83900FEF7DCFF90
:101A1000A6848146E68426E00120BDE8F883E08CB8
:101A2000401EE084A0684B46B0F5805F4FF0000296
:101A30004FF080012046009703D000F097FFE8B9EF
:101A40000DE000F093FFC8B928882168C0F30800B2
:101A50004860206908B16D1C05E0AD1C03E02168F9
:101A600015F8010B4860E08C0028D8D14B460022C5
:101A700040212046009700F079FF08B10320CCE711
:101A8000202084F8390084F838800020C5E702203F
:101A9000C3E7FEE701684A69D24352050CD46FF4EC
:101AA00080624A6104210164002140F8301F202235
:101AB0004273017301207047002070472DE9F843FD
:101AC000044600680D46DDE9089701689846164609
:101AD00041F4807101604B4600224FF00111204615
:101AE000009700F062F8E8B9216805F0FE0008618F
:101AF0003B464A461849204600F088F828B1206C39
:101B000004280FD10120BDE8F8832068416980696D
:101B100000903A464946204600F0BCF820B1206CBF
:101B2000042813D00320EEE7F5B2B8F1010F09D075
:101B30002168300A08613A464946204600F0AAF872
:101B40000028ECD1206805610020DCE720680168EE
:101B500041F400710160D5E70200010070B516463E
:101B60000D4604461AE02046FFF794FF08B1012015
:101B700070BD681C12D025B1FEF726FF801BA8425D
:101B80000CD954F8400F40F0200044F81009002010
:101B90002060202161732073032070BD206840699C
:101BA000C0434007DFD4002070BD2DE9F0471E463A
:101BB00090460D460446C1F30747DDF8209012E039
:101BC000701C10D02EB1FEF7FFFEA0EB0900B04252
:101BD00009D9002044F8300F20216173A0732073CD
:101BE0000320BDE8F0872068012F0AD0806925EA2C
:101BF00000000004000C06D000214145E0D0002088
:101C0000EFE74069F3E70121F7E700002DE9F0472E
:101C10009A4691460D46044600264FF02008C1F32F
:101C200007472AE020684069C043400512D4206875
:101C3000016841F40071016021686FF480604861BF
:101C400004202064266384F83D8084F83C600120F1
:101C5000BDE8F087B9F1FF3F0FD0B9F1000F05D013
:101C6000FEF7B2FEA0EB0A01494506D944F8306FF1
:101C700084F80D8026730320EAE72068012F07D03F
:101C8000D0F8180025EA00000004000CE0D0C9E7F5
:101C90004069F7E770B516460D4604461AE020463F
:101CA000FFF7F8FE08B1012070BD681C12D025B105
:101CB000FEF78AFE801BA8420CD954F8400F40F072
:101CC000200044F810090020206020216173207357
:101CD000032070BD20684069C0430006DFD40020A7
:101CE00070BD00003EB500212048009101911E4AC0
:101CF00002910260921501254161C0E90225042488
:101D00004FF460220461C2614160FEF755FB08B1E7
:101D1000FEF7D3FA06200095CDE901506946134835
:101D2000FEF7CCFA08B1FEF7C8FA02200090019045
:101D300069460E48FEF7C2FA08B1FEF7BEFA032064
:101D40000090019069460948FEF7B8FA08B1FEF71D
:101D5000B4FA0094694605480194FEF7AFFA0028EA
:101D600001D0FEF7AAFA3EBD0024014090000020F9
:101D7000074910B5054808600846FEF712FC002820
:101D800003D0BDE81040FEF798BA10BD0030024005
:101D900000000020054808B5416941F0010141619A
:101DA000406900F00100009008BD000000100240F2
:101DB00010B596B00020149014A800F0C1FF174C85
:101DC0001422174920616846FEF7F8F90021684699
:101DD00001F016F8124920601422143105A8FEF70C
:101DE000EDF9002105A801F00BF80D4960601422FF
:101DF00028310AA8FEF7E2F900210AA801F000F84C
:101E00000749A06014223C310FA8FEF7D7F9002142
:101E10000FA800F0F5FFE06016B010BD080000202C
:101E2000584A00082DE9F04385B000243148009459
:101E3000019402940394816941F0100181618169E8
:101E400001F010010491816941F0200181618169F3
:101E500001F020010491816941F0040181618169EF
:101E600001F004010491816941F0080181618069F8
:101E7000DFF8848000F008004FF400550490002241
:101E800029464046FEF79BFDDFF870904FF4C0579F
:101E9000002239464846FEF792FD009503260125AB
:101EA0000396CDE9015469464046FEF7A5FCCDE90D
:101EB0000054694648460295FEF79EFC0220CDE993
:101EC0000004029069464846FEF796FCA80200907E
:101ED0000B48CDE9010469464846FEF78DFC0097A2
:101EE0000396CDE9015469464846FEF785FC05B0E6
:101EF000BDE8F0830010024000100140000C0140DA
:101F0000000011100D4810B50B4901600C494160EB
:101F100000214FF480428160C0E903124161816178
:101F2000C1610162FEF756FD002803D0BDE81040F4
:101F3000FEF7C3B910BD00000054004004010020AA
:101F4000801A0600104810B50E4901604FF48271E6
:101F5000416000218160C1604FF400720161C0E9FD
:101F600005122022C0E90721416281620A21C16273
:101F7000FFF776FA002803D0BDE81040FEF79DB9C0
:101F800010BD000000380040580100200C4810B57A
:101F90000A4901604FF4E1314160002181600C2267
:101FA000C160C0E904128161C161FFF7ACFC002887
:101FB00003D0BDE81040FEF780B910BD00380140E5
:101FC000B0010020FEE7704770B50546072000F01D
:101FD00063F80446400609D5602000F05DF802462B
:101FE000202813D0FF21E22000F0D0F8E00605D52C
:101FF000E00703D0FF21E12000F0C8F800F00CF862
:102000002146BDE87040272000F0C0B82946612075
:1020100000F018F8EAE7000070B5094D4FF480545D
:10202000002221462846FEF7CAFC0F21202000F09E
:10203000ADF821462846BDE870400122FEF7BFBC3E
:10204000000C01402DE9F047DFF8449015460F469B
:1020500004464FF40068002241464846FEF7AFFCB4
:1020600021460C4800F02AFA0646002406E0FF212B
:10207000084800F023FA3855641CE4B2AC42F6D3A9
:10208000012241464846FEF79AFC3046BDE8F087FB
:10209000000C01405801002070B50C4E04464FF46E
:1020A0000065002229463046FEF789FC2146084893
:1020B00000F004FAFF21064800F000FA044601226D
:1020C00029463046FEF77BFC204670BD000C0140DF
:1020D000580100207047000070B5094D4FF480543E
:1020E000002221462846FEF76AFC0E21202000F03F
:1020F0004DF821462846BDE870400122FEF75FBC3E
:10210000000C014070B50A4E04464FF48055002281
:1021100029463046FEF753FC20222146A02000F03D
:1021200009F829463046BDE870400122FEF747BC59
:10213000000C01402DE9F047DFF8489016460D46A7
:1021400004464FF40068002241464846FEF737FC3B
:1021500021460D4800F0B2F90746002407E000BF11
:1021600015F8011B084800F0A9F9641CE4B2B44258
:10217000F6D3012241464846FEF721FC3846BDE829
:10218000F0870000000C0140580100202DE9F041CB
:102190000D4E0F4604464FF4006500222946304696
:1021A000FEF70DFC2146094800F088F9044639463F
:1021B000064800F083F9012229463046FEF7FFFB6E
:1021C0002046BDE8F0810000000C014058010020CD
:1021D0000907090E002806DA00F00F0000F1E020E0
:1021E00080F8141D704700F1E02080F8001470475B
:1021F00070B50024002104F1B00000F0FEF80021C9
:10220000084600F0FAF80021102000F0F6F800254A
:102210000121002000F0F1F86D1CEDB2802DF7D304
:10222000641CE4B2082CE5D370BD10B54FF44870BF
:10223000FEF7B4FA0021AE2000F0DFF800210846D6
:1022400000F0DBF80021102000F0D7F8002140203A
:1022500000F0D3F80021B02000F0CFF80021812059
:1022600000F0CBF80021FF2000F0C7F80021A120EA
:1022700000F0C3F80021A62000F0BFF80021A8203C
:1022800000F0BBF800213F2000F0B7F80021C82083
:1022900000F0B3F80021D32000F0AFF80021084689
:1022A00000F0ABF80021D52000F0A7F80021802035
:1022B00000F0A3F80021D82000F09FF800210520AD
:1022C00000F09BF80021D92000F097F80021F120C0
:1022D00000F093F80021DA2000F08FF8002112209E
:1022E00000F08BF80021DB2000F087F8002130207F
:1022F00000F083F800218D2000F07FF800211420E9
:1023000000F07BF80021BDE81040AF2000F075B868
:1023100010B50A460446002102F1B00000F06DF845
:10232000102040EA1410002100F067F804F00F00BC
:10233000BDE81040002100F060B800002DE9F04138
:10234000203A00240D468046D6B27F2803D90020CB
:102350008D1C8046EDB2102B294610D0FFF7D8FF18
:10236000164906EB460001EB40050121285D00F00F
:1023700044F8641CE4B2062CF7D3BDE8F081FFF703
:10238000C7FF0F4F04EB06100121385C00F035F851
:10239000641CE4B2082CF5D36D1CE9B24046FFF78B
:1023A000B7FF002404EB061038440121007A00F046
:1023B00024F8641CE4B2082CF4D3DEE740420008A1
:1023C000684400082DE9F041984617460E46044639
:1023D00000250DE0434631462046FFF7AFFF0834A5
:1023E000E4B2782C02D90024B61CF6B26D1CEDB212
:1023F0007A5D002AEED1BDE8F081C0B209B100F0EB
:1024000007BB00F0E7BA38B50B460092044600223D
:10241000802100F008F8002804D0606D40F0200012
:102420006065032038BD2DE9F0411D4617460E4674
:102430000446DDF8188035E0681C33D02DB1FEF776
:10244000C3FAA0EB0800A8422CD32068416821F011
:10245000E00141606068B0F5827F0BD1A068B0F503
:10246000004F02D0B0F5806F04D12068016821F0E0
:1024700040010160A06AB0F5005F0AD120680168E0
:102480004DF6FF72114001602068016841F400516F
:102490000160012084F85100002084F850000320DE
:1024A000BDE8F0812068806836EA000004D0002092
:1024B000B842C1D10020F3E70120F9E73EB5FF247F
:1024C0008DF80810012301AA02A90094FFF744F82F
:1024D00008B18DF804409DF804003EBD0A4D4FF44C
:1024E00000544FF47A76002221462846FEF767FA18
:1024F0000320FEF753F9012221462846FEF75FFA32
:10250000304600F011FCEEE70010014088B00020DA
:10251000054601908DF80800274C07900390049021
:102520000590461E0690A06800F09CFC0028FAD199
:102530003146206900F030FC01A8FFF7CBFD20698F
:1025400000F002FC9DF80800402813D00025314619
:10255000206900F021FC01A8FFF7BCFD206900F014
:10256000F3FB9DF8080040280BD06D1CEDB2062D42
:10257000EDD306E005B10025012207A90F48FDF7BC
:10258000F1FF9DF804200EA103A800F06FFA0C23C0
:1025900003AA03210020FFF715FF606800F048FC44
:1025A0000028FAD1A06800F05DFC0028FAD10120D3
:1025B00000F0BAFBBCE7000008000020000000208B
:1025C00052783A256400000090B000258DF8245020
:1025D0008DF820500E950A950B950C9520210AA890
:1025E0000D95FDF704FE2E4C6E1E00BF9DF80000F9
:1025F0000122401CC0B28DF800000E900EA929489F
:10260000FDF7B0FF8DF801003146206900F0C4FBF2
:10261000FFF762FD6846FFF775FD206900F094FB47
:102620009DF8240020281ED09DF8200006281AD2EC
:102630008DF8205012E03146206900F0ADFB68466D
:10264000FFF760FD206900F07FFB9DF82400202843
:102650000ED09DF82000401C8DF820009DF8200031
:102660000628E8D304E09DF8200008B18DF820503A
:102670003146206900F090FBFFF7CEFC206900F0A6
:1026800063FBA06800F0D4FB0028FAD1606800F07A
:10269000E9FB0028FAD1012000F046FBA6E7000084
:1026A00008000020000000200A2000F03DFBFBE7AE
:1026B00010B5502080F31188BFF34F8FBFF36F8F99
:1026C00001F02EFC18B104494FF080500860002042
:1026D00080F3118810BD000004ED00E030B593B028
:1026E00028216846FDF783FD14210AA8FDF77FFD28
:1026F000002401200F9410941194010412948DE889
:10270000130004904FF4E010CDE90810022507955E
:102710006846FEF723FD0F20CDE90A056802CDE9E2
:102720000C4002210AA80E94FEF7ECFBA8031190BE
:102730000F950FA8FEF770FB13B030BD0D48016870
:1027400041F00101016041680B4A1140416001689C
:102750000A4A11400160016821F48021016041684A
:1027600021F4FE0141604FF41F0181600449C00360
:1027700008607047001002400000FFF8FFFFF6FEFF
:1027800008ED00E00148FEF7FEBF0000F001002068
:10279000F0B50268164B174C174D4FF08047984222
:1027A00005D0B84203D0A04201D0A84203D122F004
:1027B00070064A683243984205D0B84203D0A0421E
:1027C00001D0A84203D122F44074CA68224322F007
:1027D00080044A69224302608A68C2620A6882628F
:1027E000984201D10969016301214161F0BD0000F6
:1027F000002C014000040040000800402DE9F04199
:10280000044600680169E26821F440511143016106
:102810002169A0680843616908432168CA6841F2D8
:102820000C639A430243CA6020684169A26921F49B
:102830004071114341614C49206864253226884229
:102840003CD1FEF745FC00EBC00101EB00106168D4
:102850008900B0FBF1F7FEF73BFC00EBC00101EB98
:1028600000106168B0468900B0FBF1F0B0FBF5F0F4
:102870006FF01801484307EB800106EB0110B0FB35
:10288000F5F000F0F006FEF723FC00EBC00101EBD1
:10289000001061688900B0FBF1F0B0FBF5F006EBC9
:1028A0000016FEF715FC00EBC00101EB001061689B
:1028B0008900B0FBF1F7FEF70BFC3BE0FEF7F8FBFD
:1028C00000EBC00101EB001061688900B0FBF1F77B
:1028D000FEF7EEFB00EBC00101EB00106168B046B3
:1028E0008900B0FBF1F0B0FBF5F06FF01801484340
:1028F00007EB800106EB0110B0FBF5F000F0F006ED
:10290000FEF7D6FB00EBC00101EB00106168890007
:10291000B0FBF1F0B0FBF5F006EB0016FEF7C8FBDC
:1029200000EBC00101EB001061688900B0FBF1F71A
:10293000FEF7BEFB00EBC00101EB001061688900EF
:10294000B0FBF1F0B0FBF5F06FF01801484307EB76
:10295000800108EB0110B0FBF5F0216800F00F00DA
:1029600030448860BDE8F081003801402DE9F04135
:10297000984617460E460446069D1DE0681C1BD06F
:102980002DB1FEF721F8A0EB0800A84214D9206869
:10299000C16821F4D071C1602068416921F0010152
:1029A0004161202084F8390084F83A00002084F83E
:1029B00038000320BDE8F0812068006836EA000096
:1029C00004D00020B842D9D00020F3E70120F9E775
:1029D000FEE7000001B584B0012104A84FF6FF72A4
:1029E0008DE807000B46002278210548FEF792F893
:1029F000002802D003A000F029F805B000BD0000B7
:102A000004010020493243204572720D0A00000083
:102A100001B584B0012104A84FF6FF728DE80700CC
:102A20000B46402278210548FEF774F8002802D0B2
:102A300003A000F00BF805B000BD00000401002069
:102A4000493243204572720D0A0000000FB4054B55
:102A500010B503A9044A029800F02CF810BC5DF8E8
:102A600014FB0000152C00088C0000200FB4084B4C
:102A700010B504A902AA039800F01CF8044602A9A4
:102A8000002000F0C1F8204610BC5DF814FB0000E7
:102A9000092C000802E008C8121F08C1002AFAD158
:102AA00070477047002001E001C1121F002AFBD1CE
:102AB000704700002DE9FF4F89B09B460446002572
:102AC00006E025280BD05A460B999047641C6D1CD4
:102AD00020780028F5D10DB02846BDE8F08F0027FA
:102AE000B8460122474900E0074314F8013F203B64
:102AF00002FA03F00842F7D120782E2819D114F8F1
:102B0000010F47F004072A280ED06FF02F0220781B
:102B1000A0F1300109290CD808EB880102EB410132
:102B200000EB0108641CF2E70A98641C50F8048B5F
:102B30000A9020780028CED0642808D0692806D0D2
:102B400075281ED05A460B9990476D1C58E00A997B
:102B50004FF00A0901C90A91002802DA40422D21EA
:102B600002E0390504D52B218DF82010012103E066
:102B7000F90704D02021F7E78A4608AE0DE00021CE
:102B8000FAE70A994FF00A0901C90A91F7E749469D
:102B9000FDF738FB303106F8011D0028F7D1ADEB09
:102BA000060000F12009780701D44FF00108C8455C
:102BB00002DDA8EB090000E000208046002706E0C7
:102BC00008A85A46C05D0B9990476D1C7F1C57455D
:102BD000F6DB04E030205A460B9990476D1CB8F1A3
:102BE0000001A8F10108F5DC05E016F8010B5A46D2
:102BF0000B9990476D1CB9F10001A9F10109F4DCB2
:102C0000641C65E7092801000A68531C0B601070FA
:102C10007047000013B5FF23012269460248FEF702
:102C2000DBFE00981CBD0000B0010020EFF3058022
:102C3000002800D001207047FEF740F8FFF74EFD56
:102C4000FFF7F0F8FFF7A6F8FFF77CF9FFF74AF86F
:102C5000FFF758F9FFF78CF8FFF798F900220521E4
:102C60000B20FEF7A7F80B20FEF798F800220621AC
:102C70002820FEF79FF82820FEF790F8FFF7D5FAF6
:102C8000FFF7B6FA00210C231AA20846FFF79AFBB9
:102C90000C231DA201210020FFF794FB0C2315A299
:102CA00002210020FFF78EFB0C2317A20321002036
:102CB000FFF788FB0C230FA204210020FFF782FB03
:102CC0000C2311A205210020FFF77CFB0C2309A295
:102CD00006210020FFF776FB0C230BA20721002022
:102CE000FFF770FBFFF784FAFFF762F800F023F8B4
:102CF000FEE700002D2D2D2D2D2D2D2D2D2D2D2DD3
:102D00002D2D2D2D000000002B2B2B2B2B2B2B2BB7
:102D10002B2B2B2B2B2B2B2B0000000001460020F4
:102D2000842900D0C81C704710B500B9012000F0FC
:102D300039FC002010BD10B500F00AFD002010BDC8
:102D4000012000F001BE000038B5002405460094C3
:102D5000FFF76CFF90B16946284600F0D5FF0128C7
:102D600001D0FF2038BD009888B10A494FF080504B
:102D70000860BFF34F8FBFF36F8F08E000231A4640
:102D80001946284600F010FF012800D0FF242046F5
:102D900038BD000004ED00E038B505004FF000003C
:102DA00000900FD00024481C0ED001B10C46FFF754
:102DB0003DFFB8B16A460021284600F0F3FF012824
:102DC00018D104E0802038BD4FF0FF34EFE70098C1
:102DD00090B10A494FF080500860BFF34F8FBFF3A6
:102DE0006F8F09E0002322461946284600F0E2FDD5
:102DF000012801D0FF2038BD002038BD04ED00E0DF
:102E00003EB504460D46B0F90800FFF787FF02A95A
:102E1000CDE90001208A2B4682B2D4E9001001F0EE
:102E200045F8012801D000203EBD02983EBD0000BB
:102E300010B50446FFF7FAFE002820460BD001F03B
:102E4000BBF9012809D1064900070860BFF34F8F7D
:102E5000BFF36F8F01E000F02BFC002010BD0000DD
:102E600004ED00E010B500F0A7FC002010BD00004C
:102E70002DE9F041184C0F460546E6682068001D14
:102E800000F0B0FA38B9206890F82C100120884082
:102E9000216981432161681C07D137B12168BDE8F0
:102EA000F0410E48091D00F0D5BA20683544B542FE
:102EB0004560216805D2A06BBDE8F041091D00F016
:102EC000B1BA606B091D00F0ADFAA06A854200D26C
:102ED000A562BDE8F08100002C0000200C0300205A
:102EE0002DE9F041054600F0C1FA2E4CA068401CC7
:102EF000A06020682C4F10B1606940B32DE02560C0
:102F0000A068012829D1002606EB860007EB800087
:102F100000F07AFA761C072EF6D323488C3000F0A6
:102F200073FA2148A03000F06FFA1F48B43000F067
:102F30006BFA1D48C83000F067FA1B48DC3000F01F
:102F400063FA19488C3060631430A06305E0206890
:102F5000E96AC06A884200D82560606A401C6062E5
:102F6000E96A0120226988401043206101EB810059
:102F700007EB8000291D00F06DFA00F097FA6069F8
:102F800000280CD02068E96AC06A884207D2074945
:102F90004FF080500860BFF34F8FBFF36F8FBDE8D5
:102FA000F08100002C0000203002002004ED00E041
:102FB00070B5114E114C17E000F056FC3068B8B1F6
:102FC00001F098F800F052FAF068C568281D00F08A
:102FD00009FAA068401EA0606068401E606000F0B2
:102FE00065FA284600F055F860680028E4D170BD05
:102FF00001F080F8F8E70000F80200202C00002023
:1030000030B4026C0B46002A0BD0C1681144C16079
:103010004468A14201D30168C16030BC1846FDF785
:10302000CDB830BC70472DE9F041856B174604469A
:103030000026026C82B1C7B1E068FDF7BFF8E16815
:10304000206C091AE1602268914202D26168081A74
:10305000E060022F16D017E02068A8B9606800F081
:10306000C3FF0646002060600EE0A068FDF7A6F8EA
:10307000216CA0680844A0606168884204D320687D
:10308000A06001E005B16D1E6D1CA5633046BDE872
:10309000F08110B50446006B00F01CFA2046BDE834
:1030A000104000F017BA000010484FF420514207BA
:1030B00006D0C01D0D4920F00700411AC1F520516E
:1030C0000B4A00230144C2E900030839103A21F0F9
:1030D000070111604B600B600B1AC0E9001393608D
:1030E0004FF000405360D060704700002003002084
:1030F00078000020FFF75CFFFCE72DE9F0479946D8
:10310000DDE9097480466FF00303206B03EB820254
:103110001044089D20F00706700707D0502080F368
:103120001188BFF34F8FBFF36F8FFEE723180A5C40
:1031300083F834200A5C12B1401C1028F6D300201A
:1031400084F84300072D00D30625E562C4E9115039
:10315000201D00F064F904F1180000F060F924610A
:10316000C5F107006462A0614A464146304600F05E
:1031700027F92060002F00D03C60BDE8F0870000F8
:1031800030B5114900E011460A688242FBD34B6812
:103190005C18844203D1406818444860084643687C
:1031A0001C18944209D1084C103C2468A24209D052
:1031B00052681A4442600A6812680260814200D074
:1031C000086030BD0460F9E77800002010B50446BF
:1031D00000F04CF9A06B28B15FF0000400F066F934
:1031E000204610BD0124F9E70648416B096829B162
:1031F000416BC968C9684968816270474FF0FF3107
:10320000FAE700002C00002008484068401C4FF0FE
:10321000500080F3118804D0BFF34F8FBFF36F8F3E
:10322000FEE7BFF34F8FBFF36F8FFEE780000020F4
:10323000002150B10A4B42699A420FD1806AA3F132
:10324000280290420AD040B108E0502080F3118853
:10325000BFF34F8FBFF36F8FFEE701210846704722
:103260000C0300202DE9F041044600F0FFF894F92A
:10327000455004F1240609E0606A48B1304600F088
:10328000FFFE08B100F0B4F96D1E6DB2002DF3DC45
:103290004FF0FF3684F8456000F008F900F0E6F8DA
:1032A00094F9445004F1100709E0206948B1384608
:1032B00000F0E6FE08B100F09BF96D1E6DB2002D26
:1032C000F3DC84F84460BDE8F04100F0EFB80000A2
:1032D0002DE9F0410546002700F0C6FA314E30686E
:1032E00008B9FFF7E1FEF06805424BD1C5B30835D8
:1032F00068070ED005F00700C0F108000544680714
:1033000007D0502080F31188BFF34F8FBFF36F8F2A
:10331000FEE72DB37068854234D82248103001464C
:103320000C6801E020460C466168A94202D221687F
:103330000029F7D131688C4224D0076821680160E8
:1033400060680837411B10290FD96019420708D05F
:10335000502080F31188BFF34F8FBFF36F8FFEE7CC
:1033600010E041606560FFF70BFF61687068401A0C
:103370007060B268904200D2B060F06801430020F3
:10338000C4E9000100F0B6FE780707D0502080F3B2
:103390001188BFF34F8FBFF36F8FFEE73846BDE84C
:1033A000F0810000680000200449086818B108682E
:1033B000826C521C82640868704700002C00002058
:1033C00010B5031F4FF080741C601B1F21F001011A
:1033D0001960191F024B0B60143940380A6010BD88
:1033E00009320008D0E9013201699A60D0E901236D
:1033F0005A604A68824201D182684A6000220261B2
:103400000868401E0860704700F108014FF0FF3265
:10341000C0E90112C1600161002101607047002113
:103420000161704730B50B685A1C02D000F10802E8
:1034300002E0026904E02246546825689D42FAD9F8
:1034400053684B6099608A60516008610168491C4B
:10345000016030BD42684A6093688B609368596030
:10346000916008610168491C01607047502080F339
:103470001188BFF34F8FBFF36F8F0A494868401C14
:10348000486001280CD10848006810F0FF0F07D0F1
:10349000502080F31188BFF34F8FBFF36F8FFEE78B
:1034A000704700008000002004ED00E008494868F3
:1034B00028B1401E486001D180F311887047502028
:1034C00080F31188BFF34F8FBFF36F8FFEE70000CB
:1034D0008000002070B5002827D0144DA0F108040A
:1034E0006168E868014207D1502080F31188BFF37A
:1034F0004F8FBFF36F8FFEE722683AB1502080F301
:103500001188BFF34F8FBFF36F8FFEE78143616078
:1035100000F0AAF960686968084468602046FFF70F
:103520002FFEBDE8704000F0E5BD70BD68000020D2
:1035300006484FF47A710068B0FBF1F14FF0E020DB
:10354000491E4161072101617047000028000020E9
:1035500010B5FCF71DFE114910280ED300F1E02034
:1035600090F8F0030A78904207D2502080F3118837
:10357000BFF34F8FBFF36F8FFEE70948006889687C
:1035800000F4E060884207D9502080F31188BFF32F
:103590004F8FBFF36F8FFEE710BD0000800000204B
:1035A0000CED00E010B5020014D00F48006B38B1EC
:1035B000502080F31188BFF34F8FBFF36F8FFEE76A
:1035C00000F052F900211046FFF752FC00F092FD86
:1035D000002807D105494FF080500860BFF34F8F96
:1035E000BFF36F8F10BD00002C00002004ED00E041
:1035F00001490120C86170472C00002010B50C461D
:1036000050B1094909681831FFF70CFF2046BDE8A1
:1036100010400121FFF72CBC502080F31188BFF32C
:103620004F8FBFF36F8FFEE72C00002070B50400B2
:1036300039D01D4DE06A2968C96A884233D2A06931
:10364000002804DB2868C06AC0F10700A061E16AB5
:10365000164E01EB8101606906EB810188421FD1A2
:10366000201DFFF7BFFE012150B9E06A00EB800288
:1036700056F8222022B92A6901FA00F082432A6111
:103680002868C06AE0622A6981401143296100EB21
:10369000800006EB8000211DBDE87040FFF7DABE18
:1036A0002868C06AE06270BD2C0000203002002053
:1036B00070B504002BD01A4D286884422FD0FFF734
:1036C000D5FE2046FFF7B4FDE8B1201DFFF78AFEC6
:1036D000E06A01212A69814011432961114900EB07
:1036E000800001EB8000211DFFF7B4FEE06A29682D
:1036F000C96A884207D30C494FF080500860BFF375
:103700004F8FBFF36F8FBDE87040FFF7CFBE5020E3
:1037100080F31188BFF34F8FBFF36F8FFEE770BD4B
:103720002C0000203002002004ED00E028B1074901
:103730000A6A0260C96841607047502080F31188AE
:10374000BFF34F8FBFF36F8FFEE700002C00002008
:103750001CB515480024CDE900402346402213A1A2
:10376000144800F0A3FB012809D0401C1AD15020B6
:1037700080F31188BFF34F8FBFF36F8FFEE75020A8
:1037800080F31188BFF34F8FBFF36F8F06484FF060
:10379000FF312C38816201214161C460BDE81C40C9
:1037A00000F098B81CBD00005800002049444C456A
:1037B00000000000F530000870B50446FFF756FE23
:1037C000264D04B92C68201DFFF70CFE58B9E06A9D
:1037D000234A00EB800152F8211021B901218140D8
:1037E000286988432861A06A18B104F11800FFF71E
:1037F000F9FD1B48211DDC30FFF72CFEFFF756FEBC
:10380000686928B1FFF732FEFFF7EEFCFFF74EFEC6
:103810002868844213D1686990B1286B38B1502070
:1038200080F31188BFF34F8FBFF36F8FFEE70D4911
:103830004FF080500860BFF34F8FBFF36F8F70BDA4
:103840000748A968DC300068884202D1002028605F
:1038500070BDBDE8704000F00FB800002C000020E3
:103860003002002004ED00E00248016B491C0163B6
:10387000704700002C0000201448016B11B1012199
:10388000C16170470021C1610169B1FA81F1C1F1E3
:103890001F0101EB81020E4951F822306BB101EB9F
:1038A000820101F108034A6852684A609A4201D1D4
:1038B00052684A60D16801607047502080F31188D7
:1038C000BFF34F8FBFF36F8FFEE700002C00002087
:1038D000300200201CB5194908780190FF200870BB
:1038E00008788DF800009DF80000154A00F050009F
:1038F00010700720906005E09DF800305B008DF8A7
:103900000030401E9DF800301B06F5D4000200F484
:10391000E0609060019808700A48016841F4700105
:103920000160016841F070410160FFF701FE002075
:103930005060FCF7F7FB00201CBD000000E400E035
:103940008000002020ED00E010B50246002101209B
:1039500000F00CF8041E07D00021416001600B4606
:103960000A46C16000F020F9204610BD70B50E4631
:10397000050013D0D6B105FB06F04830FFF7A8FCD0
:10398000040009D004F1480120468EB10160C0E96D
:103990000F56012100F0C4F8204670BD502080F37E
:1039A0001188BFF34F8FBFF36F8FFEE70020E4E76E
:1039B0000060ECE72DE9FF4F002683B09B468A4666
:1039C000040003D0BAF1000F08D011E0502080F3BA
:1039D0001188BFF34F8FBFF36F8FFEE7206C38B1B4
:1039E000502080F31188BFF34F8FBFF36F8FFEE736
:1039F00000F088FADFF824814FF000094FF080577B
:103A000048B9059838B1502080F31188BFF34F8F23
:103A1000BFF36F8FFEE7FFF729FDA56B45B3514656
:103A20002046E668FFF7ECFABBF1000F13D0E66022
:103A3000606A50B104F1240000F022FB28B1C8F8FC
:103A40000070BFF34F8FBFF36F8FFFF72FFD012083
:103A500007B0BDE8F08F6D1EA563206810B9FFF7B1
:103A6000A3FC606020690028EFD004F11000E3E7B8
:103A7000059808B11EB106E0FFF718FD27E068467B
:103A8000FFF754FE0126FFF711FDFFF7EDFEFFF7EC
:103A9000EDFC94F94400401C01D184F8449094F961
:103AA0004500401C01D184F84590FFF7FFFC05A9B3
:103AB000684600F0C5F9002820460AD0FFF7D2FB7F
:103AC00000F018FB2046FFF781FB0028A3D0002060
:103AD000BEE7FFF77BFBD8B1206830B9FFF7C6FC23
:103AE0006068FFF7A3FDFFF7E1FC04F124000599EE
:103AF000FFF784FD2046FFF7B5FB00F0FBFA002836
:103B000089D1C8F80070BFF34F8FBFF36F8F82E782
:103B10002046FFF7A7FB00F0EDFA7CE704ED00E09C
:103B200070B50D46040025D0FFF7A0FCD4E90F20A6
:103B3000216802FB001161600021A1632168A1607E
:103B40000A46D4E90F01401E00FB0121E160214635
:103B50004FF0FF3001F8440F487004F110008DB1B0
:103B6000FFF752FC04F12400FFF74EFCFFF79EFC28
:103B7000012070BD502080F31188BFF34F8FBFF339
:103B80006F8FFEE721690029F0D000F079FA002854
:103B9000ECD004494FF080500860BFF34F8FBFF363
:103BA0006F8FE3E704ED00E02DE9FF4782B01D468B
:103BB0008A464FF00008040003D0BAF1000F08D085
:103BC00011E0502080F31188BFF34F8FBFF36F8F48
:103BD000FEE7206C38B1502080F31188BFF34F8F7F
:103BE000BFF36F8FFEE7022D0AD1E06B012807D0EB
:103BF000502080F31188BFF34F8FBFF36F8FFEE724
:103C000000F080F93F4F4FF000094FF0805648B95F
:103C1000049838B1502080F31188BFF34F8FBFF361
:103C20006F8FFEE7FFF722FCA06BE16B884207D3A2
:103C3000022D05D00498D0B1B8F1000F1AD01EE0C3
:103C40002A4651462046FFF7EEF9616A19B104F1A0
:103C5000240000F015FA20B13E60BFF34F8FBFF390
:103C60006F8FFFF723FC012006B0BDE8F087FFF758
:103C70001DFC22E06846FFF759FD4FF00108FFF7F1
:103C800015FCFFF7F1FDFFF7F1FB94F94400401C30
:103C900001D184F8449094F94500401C01D184F886
:103CA0004590FFF703FC04A9684600F0C9F830B15D
:103CB0002046FFF7D7FA00F01DFA0020D4E7FFF7FF
:103CC000D5FBA06BE16B884213D1FFF7EFFB04F14A
:103CD00010000499FFF792FC2046FFF7C3FA00F0AA
:103CE00009FA00289ED13E60BFF34F8FBFF36F8F5C
:103CF00098E7FFF7DBFB2046FFF7B4FA00F0FAF98C
:103D000090E7000004ED00E070B50E46040009D015
:103D1000206C78B1502080F31188BFF34F8FBFF330
:103D20006F8FFEE7502080F31188BFF34F8FBFF3F2
:103D30006F8FFEE7206848B9606838B1502080F383
:103D40001188BFF34F8FBFF36F8FFEE7FFF700FCC3
:103D50005020EFF3118580F31188BFF34F8FBFF32D
:103D60006F8FA16BE06B884218D994F94500491C0C
:103D7000A163411C04D0401C84F8450001200EE0E2
:103D8000606A0028FAD004F1240000F079F90028D4
:103D9000F4D0002EF2D001203060EFE7002085F350
:103DA000118870BD2DE9F04790468946040003D084
:103DB000B9F1000F08D011E0502080F31188BFF353
:103DC0004F8FBFF36F8FFEE7206C38B1502080F328
:103DD0001188BFF34F8FBFF36F8FFEE7FFF7B8FB7C
:103DE0005020EFF3118680F31188BFF34F8FBFF39C
:103DF0006F8FA76BF7B194F9445049462046FFF7FF
:103E0000FFF87F1EA763681C04D06D1C84F8445023
:103E1000012010E020690028FAD004F1100000F021
:103E20002FF90028F4D0B8F1000FF1D00121C8F823
:103E30000010EDE7002086F31188BDE8F087000050
:103E400070B50D46040019D005B3FFF70FFB164AF5
:103E5000D1682868431C0FD02368126A934202D0AD
:103E600062688A421AD96268891A814216D2401A57
:103E700028602046FFF75AFC002410E0502080F311
:103E80001188BFF34F8FBFF36F8FFEE7502080F391
:103E90001188BFF34F8FBFF36F8FFEE70124FFF749
:103EA00005FB204670BD00002C0000202DE9FF5FBF
:103EB0008346DDE90E87994616468A469000FFF74D
:103EC00007FA05001AD04C20FFF702FA040012D0BE
:103ED00025630021CDE90241CDE900874B463246FA
:103EE00051465846FFF709F92046FEF7F9FF012031
:103EF00004B0BDE8F09F2846FFF7ECFA4FF0FF3022
:103F0000F6E700000548416919B1006B18B10020BF
:103F10007047012070470220704700002C000020ED
:103F20002DE9F0412E4C0027206B40B1A069401CC8
:103F3000A061E06900B101273846BDE8F081E6687C
:103F4000761CE66013D1606B006838B1502080F3B6
:103F50001188BFF34F8FBFF36F8FFEE7606BA16BCC
:103F60006163A063206A401C2062FFF73DF9A06AEC
:103F7000DFF87080864209D3606B006880B1606BA7
:103F8000C068C568686886420DD2A0622068C06AB1
:103F900000EB800158F821000128CAD90127C8E7A1
:103FA0004FF0FF30F1E7281DFFF71CFAA86A18B19F
:103FB00005F11800FFF716FAE86A0121226981402D
:103FC0001143216100EB800108EB8100291DFFF7FF
:103FD00041FAE86A2168C96A8842CDD30127CBE754
:103FE0002C0000203002002070B504004FF00001CA
:103FF00040D0214D2868844207D0502080F311889A
:10400000BFF34F8FBFF36F8FFEE7A06C38B1401E38
:10401000A064636CE26A9A422CD040B12AE050203E
:1040200080F31188BFF34F8FBFF36F8FFEE7201D22
:10403000FFF7D8F9114A012150B9E06A00EB80037B
:1040400052F8233023B92B6901FA00F083432B6126
:10405000606CE062C0F10700A061E06A2B698140FA
:104060001943296100EB800002EB8000211DFFF75E
:10407000F1F90121084670BD2C000020300200201B
:104080002DE9F041C068C468ACB104F118000746DE
:10409000FFF7A8F9154D286B0126A0B13946144841
:1040A000FFF7D8F9E06A2968C96A88421CD901205B
:1040B000EE61BDE8F081502080F31188BFF34F8F8F
:1040C000BFF36F8FFEE7201DFFF78CF9E16A2A69C5
:1040D00006FA01F01043286101EB81000449B4396C
:1040E00001EB8000211DDBE70020E2E72C0000202F
:1040F000E40200202DE9F0472C4D00242746286BD0
:1041000038B1FFF7B3F9286B401E2863286B40B124
:1041100046E0502080F31188BFF34F8FBFF36F8FBD
:10412000FEE7A968224E0120D1B3A6F1B40980466A
:104130003068E8B1F068C46804F11800FFF752F97C
:10414000201DFFF74FF9E06A2A6908FA00F11143D0
:10415000296100EB800109EB8100211DFFF77AF94D
:10416000E06A2968C96A8842E2D3C5F81C80DFE7A3
:104170000CB1FFF739F8AC6944B14646FFF7D0FE01
:1041800000B1EE61641EF9D10020A861E86938B180
:104190000849012738070860BFF34F8FBFF36F8FBF
:1041A000FFF784F93846BDE8F08700002C000020B6
:1041B000E402002004ED00E02DE9F04100270400B6
:1041C00015D0FFF7C5F95020EFF3118580F3118862
:1041D000BFF34F8FBFF36F8F2046FFF729F830B33F
:1041E000154E306B58B104F1180114481DE05020F1
:1041F00080F31188BFF34F8FBFF36F8FFEE7E06A44
:104200003168C96A884200D30127201DFFF7EAF808
:10421000E16A0120326988401043306101EB81007E
:104220000649B43901EB8000211DFFF713F985F32E
:1042300011883846BDE8F0812C000020E4020020FF
:104240000000000000000000002F00000000070038
:10425000070000147F147F1400242A7F2A120062B2
:10426000640813230036495522500000050300005E
:1042700000001C224100000041221C000014083EE6
:1042800008140008083E0808000000A060000008AC
:104290000808080800006060000000201008040200
:1042A000003E5149453E0000427F400000426151BE
:1042B0004946002141454B31001814127F10002758
:1042C00045454539003C4A4949300001710905031B
:1042D00000364949493600064949291E000036364C
:1042E00000000000563600000008142241000014AF
:1042F000141414140000412214080002015109068C
:1043000000324959513E007C1211127C007F49490C
:104310004936003E41414122007F4141221C007F3D
:1043200049494941007F09090901003E4149497A4B
:10433000007F0808087F0000417F410000204041C5
:104340003F01007F08142241007F40404040007F31
:10435000020C027F007F0408107F003E4141413E75
:10436000007F09090906003E4151215E007F0919BD
:1043700029460046494949310001017F0101003FBA
:104380004040403F001F2040201F003F4038403F3A
:10439000006314081463000708700807006151499E
:1043A000454300007F41410000552A552A55000031
:1043B00041417F00000402010204004040404040AF
:1043C000000001020400002054545478007F484447
:1043D000443800384444442000384444487F00387E
:1043E0005454541800087E0901020018A4A4A47CA7
:1043F000007F080404780000447D40000040808471
:104400007D00007F102844000000417F4000007CB8
:1044100004180478007C08040478003844444438C4
:1044200000FC242424180018242418FC007C080410
:10443000040800485454542000043F444020003CE9
:104440004040207C001C2040201C003C4030403C70
:10445000004428102844001CA0A0A07C0044645400
:104460004C44141414141414000000000000000044
:104470000000000000000000000000F80000000044
:10448000000000333000000000100C06100C060085
:10449000000000000000000040C07840C0784000EC
:1044A000043F04043F040400007088FC083000004E
:1044B000001820FF211E0000F008F000E0180000A6
:1044C00000211C031E211E0000F00888700000005F
:1044D0001E2123241927211010160E0000000000B1
:1044E0000000000000000000000000E018040200CE
:1044F000000000071820400000020418E00000003F
:104500000040201807000000404080F0804040003C
:104510000202010F01020200000000F00000000092
:104520000101011F01010100000000000000000066
:1045300080B07000000000000000000000000000DB
:104540000001010101010101000000000000000064
:1045500000303000000000000000000080601804FF
:10456000006018060100000000E010080810E000DC
:10457000000F102020100F00001010F800000000A5
:104580000020203F202000000070080808887000EC
:10459000003028242221300000300888884830006C
:1045A0000018202020110E000000C02010F800008C
:1045B00000070424243F240000F808888808080025
:1045C0000019212020110E0000E01088881800003A
:1045D000000F112020110E0000380808C83808000C
:1045E0000000003F0000000000708808088870008C
:1045F000001C222121221C0000E010080810E0000D
:104600000000312222110F00000000C0C000000095
:1046100000000030300000000000008000000000BA
:1046200000008060000000000000804020100800B2
:10463000000102040810200040404040404040007B
:104640000404040404040400000810204080000056
:104650000020100804020100007048080808F0005B
:104660000000003036010000C030C828E810E0002B
:104670000718272423140B000000C038E0000000B6
:10468000203C23020227382008F888888870000020
:10469000203F202020110E00C030080808083800F4
:1046A000071820202010080008F808080810E0006B
:1046B000203F202020100F0008F88888E80810000C
:1046C000203F20202320180008F88888E8081000E0
:1046D000203F200003000000C03008080838000018
:1046E00007182020221E020008F808000008F80819
:1046F000203F210101213F20000808F808080000A0
:104700000020203F2020000000000808F8080800D2
:10471000C08080807F00000008F888C0281808004A
:10472000203F20012638200008F808000000000083
:10473000203F20202020300008F8F800F8F808007A
:10474000203F003F003F200008F830C00008F80874
:10475000203F200007183F00E01008080810E00084
:104760000F10202020100F0008F808080808F0009B
:10477000203F210101010000E01008080810E000BE
:104780000F18242438504F0008F888888888700053
:10479000203F2000030C30200070880808083800F3
:1047A0000038202121221C00180808F808081800E9
:1047B0000000203F2000000008F808000008F8086A
:1047C000001F202020201F000878880000C838081B
:1047D000000007380E010000F80800F80008F80093
:1047E000033C0700073C030008186880806818082D
:1047F00020302C03032C30200838C800C8380800AB
:104800000000203F2000000010080808C8380800F9
:104810002038262120201800000000FE020202009D
:104820000000007F40404000000C30C0000000004D
:10483000000000010638C00000020202FE00000075
:10484000004040407F00000000000402020204001B
:104850000000000000000000000000000000000058
:104860008080808080808080000202040000000040
:104870000000000000000000000080808080000038
:104880000019242222223F2008F800808000000026
:10489000003F112020110E000000008080800000E9
:1048A000000E112020201100000000808088F800F8
:1048B000000E112020103F2000008080808000002A
:1048C000001F222222221300008080F0888888188E
:1048D0000020203F20200000000080808080800099
:1048E000006B94949493600008F80080808000002E
:1048F000203F210000203F20008098980000000009
:104900000020203F20200000000000809898000038
:1049100000C08080807F000008F800008080800058
:10492000203F24022D302000000808F8000000007D
:104930000020203F20200000808080808080800038
:10494000203F20003F20003F8080008080800000CA
:10495000203F210000203F20000080808080000058
:10496000001F202020201F00808000808000000089
:1049700080FFA12020110E000000008080808000B8
:10498000000E112020A0FF808080800080808000A9
:1049900020203F21200001000000808080808000D6
:1049A0000033242424241900008080E0808000004B
:1049B0000000001F20200000808000000080800098
:1049C000001F202020103F208080800000808080F9
:1049D00000010E3008060100808000800080808089
:1049E0000F300C030C300F000080800080808000AE
:1049F0000020312E0E3120008080800000808080D9
:104A000080818E7018060100008080808080800088
:104A10000021302C2221300000000000807C0202A6
:104A200000000000003F404000000000FF000000C8
:104A300000000000FF0000000002027C8000000077
:104A40000040403F00000000000601010202040493
:104A50000000000000000000CC4A0008DD2400082F
:104A6000000000000000000040000000E44A0008D0
:104A7000C92500080200000000000000000200003C
:104A8000D84A00080D2500080200000000000000C0
:104A900000020000C04A0008A9260008FDFF00002F
:104AA00000000000400000000000000000000000C6
:104AB00001020304060708090000000001020304C4
:104AC0004F4C45445F5461736B0000004465666160
:104AD000756C745461736B004E52465F527854612A
:104AE000736B00004E52465F54785461736B000044
:104AF000104B00080000002090000000942A0008DD
:104B0000A04B00089000002090300000A42A00086C
:104B10000000000000000000000000000000000095
:104B20000000000000000000000000000100000084
:104B3000100000000000000000A24A040000000075
:104B40000000000000000000000000000000000065
:104B50000000000000000000000000000000000055
:104B60000000000000000000000000000000000045
:104B70000000000000000000000000000000000035
:104B80000000000000000000000000000000000025
:104B900000000000AAAAAAAA00000000000000006D
:04000005080000ED02
:00000001FF
