:020000040800F2
:10000000C80A00209D010008AD1300081D12000859
:10001000A9130008CD020008E51B0008000000003D
:10002000000000000000000000000000EF130008C6
:10003000D102000800000000ED130008F1130008D1
:10004000B7010008B7010008B7010008B7010008B0
:10005000B7010008B7010008B7010008B7010008A0
:10006000B7010008B7010008B7010008B701000890
:10007000B7010008B7010008B7010008B701000880
:10008000B7010008B7010008B7010008B701000870
:10009000B7010008B7010008B7010008B701000860
:1000A000B7010008B7010008B7010008B701000850
:1000B000B7010008B7010008B7010008B701000840
:1000C000B7010008B7010008B7010008B701000830
:1000D000B7010008B7010008B7010008B701000820
:1000E000B7010008B7010008B7010008B701000810
:1000F000B7010008B7010008B7010008B701000800
:10010000B7010008B7010008B7010008B7010008EF
:10011000B7010008B7010008B7010008B7010008DF
:10012000B7010008B7010008B7010008B7010008CF
:10013000B7010008B7010008B7010008B7010008BF
:10014000B7010008B7010008B7010008B7010008AF
:10015000B7010008B7010008B7010008B70100089F
:10016000B7010008B7010008B7010008B70100088F
:10017000B7010008B7010008B7010008000000003F
:10018000B7010008B7010008DFF80CD000F08CF8C8
:1001900000480047071C0008C80A0020064880479E
:1001A00006480047FEE7FEE7FEE7FEE7FEE7FEE75C
:1001B000FEE7FEE7FEE7FEE7B1140008890100084C
:1001C0002DE9F05F0546002092469B46884606468C
:1001D000814640241BE0284641464746224600F01F
:1001E00053F853465A46C01A914110D31146184647
:1001F000224600F03AF82D1A67EB01084F462246D6
:100200000120002100F031F817EB00094E41201EBB
:10021000A4F10104DFDC484631462A464346BDE8E6
:10022000F09F40EA01039B0703D009E008C9121FB1
:1002300008C0042AFAD203E011F8013B00F8013BA0
:10024000521EF9D27047D2B201E000F8012B491ECC
:10025000FBD270470022F6E710B513460A46044663
:100260001946FFF7F0FF204610BD202A04DB203A94
:1002700000FA02F1002070479140C2F1200320FAF9
:1002800003F3194390407047202A04DB203A21FAF7
:1002900002F00021704721FA02F3D040C2F120029F
:1002A0009140084319467047064C074D06E0E06848
:1002B00040F0010394E8070098471034AC42F6D3AD
:1002C000FFF766FF401C0008601C000800BFFEE747
:1002D0007047704730B504460D4600222946204637
:1002E00000F002F830BD0000F0B5034601250024FF
:1002F0001148407A01281CDA00200F4E767A0E4F02
:10030000B8553846467A001D40F82630001F467A18
:10031000083082553E46707A461C7E72044604F1CF
:10032000300008703A2048702F2088700020C87074
:1003300000252846F0BD0000B804002070B5044632
:1003400000F016F906462546681C10B104480078EE
:10035000054400BF00F00CF9801BA842FAD370BD21
:1003600028000020F8B502460B4600250024002096
:100370000021DCE0012606FA01F51E6806EA050404
:10038000AC4273D15E68022E02D05E68122E13D189
:10039000CF0802F1200656F827004E07F70E0F2669
:1003A000BE40B0434F07FF0E1E69BE403043CF082A
:1003B00002F1200646F8270010684F000326BE40D1
:1003C000B0431E7906F003064F00BE403043106074
:1003D0005E68012E08D05E68022E05D05E68112E80
:1003E00002D05E68122E13D190684F000326BE40E3
:1003F000B0434F00DE68BE40304390605068012635
:100400008E40B0431E79C6F300168E4030435060D4
:10041000D0684F000326BE40B0434F009E68BE40E8
:100420003043D0605E6806F08056B6F1805F7DD1C3
:1004300000BF00260096404E366846F480463E4F88
:100440003E603E46366806F48046009600BF00BF18
:100450003A4E8F0856F827008E07370F0F26BE40FA
:10046000B043374EB24202D1002624E05EE0354E62
:10047000B24201D101261EE0334EB24201D1022622
:1004800019E0324EB24201D1032614E0304EB2429E
:1004900001D104260FE02F4EB24201D105260AE019
:1004A0002D4EB24201D1062605E02C4EB24201D1BA
:1004B000072600E008268F073F0FBE4030431F4E3F
:1004C0008F0846F82700264E3068A0435E6806F481
:1004D0008036B6F5803F00D12043214E3060361D76
:1004E0003068A0435E6806F40036B6F5003F00D1E0
:1004F00020431B4E361D3060361D3068A0435E68B9
:1005000006F48016B6F5801F00D12043144E08363D
:100510003060361D3068A0435E6806F40016B6F5FC
:10052000001F00D120430E4E0C363060491C1029AC
:10053000FFF420AFF8BD0000443802400838014005
:10054000000002400004024000080240000C02408B
:10055000001002400014024000180240001C02403B
:10056000003C01400AB1816101E00B0483617047E6
:100570000148006870470000200000200348006820
:1005800003490978084401490860704720000020A9
:100590002800002010B50D48006840F400700B4999
:1005A00008600846006840F48060086008460068FB
:1005B00040F480700860032000F092F8002000F002
:1005C00007F800F02BF8002010BD0000003C0240AE
:1005D00070B504460E4800784FF47A71B1FBF0F024
:1005E0000C490968B1FBF0F5284600F07FFD08B121
:1005F000012070BD102C07D200222146501E00F0B1
:1006000031F80548046001E00120F2E70020F0E73E
:10061000280000202C0000202400002008B500BF86
:10062000002000900E48006840F480400C490860AB
:100630000846006800F48040009000BF00BF00BF83
:1006400000200090081F006840F08050091F0860DB
:100650000846006800F08050009000BF00BF08BD51
:10066000443802402DE9F05F80460D4616460027CB
:1006700000F0A0FE074639462A46334601F007003F
:10068000C0F1070ABAF1040F02D94FF0040A01E0E1
:10069000C0F1070AD14600F1040ABAF1070F02D2ED
:1006A0004FF0000A01E0A0F1030AD4464FF0010A1E
:1006B0000AFA09FAAAF1010A0AEA020A0AFA0CFA83
:1006C0004FF0010B0BFA0CFBABF1010B0BEA030B28
:1006D0004AEA0B042146404600F074FEBDE8F09F54
:1006E00000BF00F00702064B19684FF6FF031940E0
:1006F000044B0B4343EA0221014B196000BF7047D2
:100700000CED00E00000FA0530B58BB00446002582
:1007100014B901200BB030BD032084F8B903204682
:1007200000F094F8206801F0E7F9282204F11001A4
:100730006846FFF776FD94E80F0001F09FF800216E
:10074000206801F00FFA002530E00121C5EBC50259
:1007500004F1380000EB82004170C5EBC50204F1E2
:10076000380000F82250C5EBC50200EB8200C580BE
:100770000021C5EBC50204F1380000EB8200C17016
:10078000C5EBC50204F1380000EB82008160C5EBC7
:10079000C50204F1380000EB8200C160C5EBC50260
:1007A00004F1380000EB820041616D1C0F2DCCD3A9
:1007B000002536E00021C5EBC50204F5FC7000EB16
:1007C00082004170C5EBC50204F5FC7000F82250B0
:1007D000C5EBC50204F1380000EB8200C580C5EB13
:1007E000C50204F5FC7000EB8200C170C5EBC502C8
:1007F00004F5FC7000EB82008160C5EBC50204F5D6
:10080000FC7000EB8200C160C5EBC50204F5FC7012
:1008100000EB82004161206800F5827040F82510ED
:100820006D1C0F2DC6D3282204F110016846FFF776
:10083000F8FC94E80F0001F08FF8012084F8B90368
:10084000206801F079F8002064E7000010B586B058
:100850000446142101A8FFF7FDFC2068B0F1A04F69
:100860003AD100BF002000901C48006840F0010011
:100870001A4908600846006800F00100009000BFB7
:1008800000BF4FF4C050019002200290002003905E
:10089000032004900A20059001A91148FFF762FD8A
:1008A00000BF0E48001D006840F080000B49091D84
:1008B000086000BF0020009008481430006840F431
:1008C00080400649143108600846006800F4804002
:1008D000009000BF00BF00BF06B010BD303802401E
:1008E000000002407047000070B504460D460CB988
:1008F000012070BD5848006800F00F00A84209D2DE
:1009000055490D700846006800F00F00A84201D05C
:100910000120EEE7207800F0020002281DD12078A7
:1009200000F00400042805D14C48006840F4E05071
:100930004A490860207800F00800082805D1474897
:10094000006840F46040454908604448006820F071
:10095000F000A168084341490860207800F00100D8
:10096000A8B36068012807D13C4808380068C0F384
:100970004040B8B90120BCE76068022802D0606836
:10098000032807D1354808380068C0F3406048B9EB
:100990000120AEE7314808380068C0F3400008B9CC
:1009A0000120A6E72D48006820F003006168084395
:1009B0002A490860FFF7DCFD064609E0FFF7D8FD8D
:1009C000801B41F28831884202D9032091E707E079
:1009D0002248006800F00C006168B0EB810FEDD197
:1009E0001D48006800F00F00A84209D91A490D708F
:1009F0000846006800F00F00A84201D0012078E707
:100A0000207800F00400042807D11448006820F47E
:100A1000E050E168084311490860207800F00800C0
:100A2000082808D10D48006820F46040216940EA98
:100A3000C1000A49086000F043F808490968C1F399
:100A40000311074A515CC840064908600020FFF7BF
:100A5000BFFD00204DE70000003C02400838024086
:100A6000261C00082C00002001200149C8647047A2
:100A70000000474201480068704700002C00002039
:100A800000B5FFF7F7FF04490968C1F38221034A63
:100A9000515CC84000BD000008380240361C000808
:100AA00000B5FFF7E7FF04490968C1F34231034A83
:100AB000515CC84000BD000008380240361C0008E8
:100AC0002DE9F047002400250026A14625480068AE
:100AD00000F00C0020B1042805D008283AD105E028
:100AE000DFF8849039E0DFF8849036E01D48001F7D
:100AF000006800F03F041B48001F006800F48000FD
:100B000078B11A481749091F0968C1F38811A0FB79
:100B100001700146224600233846FFF751FB054687
:100B20000EE011480F49091F0968C1F38811A0FBA5
:100B300001700146224600233846FFF741FB054677
:100B40000848001F0068C0F30140401C4600B5FB88
:100B5000F6F902E0DFF8109000BF00BF4846BDE89C
:100B6000F0870000083802400024F40000127A00E8
:100B700010B50648006800F08000802805D1FFF716
:100B8000B1FE80200149891C087010BD0C3802405C
:100B9000F8B504460CB90120F8BD207800F001003A
:100BA000002874D0F948006800F00C0004280DD02B
:100BB000F648006800F00C00082813D1F348001F25
:100BC000006800F48000B0F5800F0BD1EF480838C2
:100BD0000068C0F34040002859D06068002856D112
:100BE0000120D9E700BF6068B0F5803F08D1E74831
:100BF0000838006840F48030E449083908601EE095
:100C00006068B0F5A02F0DD1E0480838006840F4C6
:100C10008020DE49083908600846006840F48030CA
:100C200008600CE0D9480838006820F48030D749C3
:100C3000083908600846006820F48020086000BF7A
:100C4000606890B1FFF794FC054606E0FFF790FC62
:100C5000401B642801D903209EE7CC48083800686F
:100C6000C0F340400028F1D011E0FFF781FC0546B9
:100C700006E0FFF77DFC401B642801D903208BE7C9
:100C8000C24808380068C0F340400028F1D12078FD
:100C900000F0020002285FD1BC48006800F00C00A0
:100CA00058B1BA48006800F00C0008281CD1B748B9
:100CB000001F006800F48000B0B9B448083800682C
:100CC000C0F3400020B1E068012801D0012063E7B3
:100CD000AE480838006820F0F800216940EAC100F9
:100CE000AA490839086037E0E06800B30120A84944
:100CF0000860FFF73DFC054606E0FFF739FC401BA6
:100D0000022801D9032047E7A04808380068C0F34B
:100D100040000028F1D09D480838006820F0F80015
:100D2000216940EAC10099490839086014E00020AF
:100D300097490860FFF71CFC054606E0FFF718FC22
:100D4000401B022801D9032026E790480838006894
:100D5000C0F340000028F1D1207800F008000828F6
:100D60002CD16069A8B101208A490860FFF700FC16
:100D7000054606E0FFF7FCFB401B022801D90320D3
:100D80000AE782486C300068C0F340000028F1D0C8
:100D900014E000207F490860FFF7EAFB054606E003
:100DA000FFF7E6FB401B022801D90320F4E6774851
:100DB0006C300068C0F340000028F1D1207800F0CA
:100DC0000400042870D1002670483830006800F014
:100DD000805090B900BF002000906C483830006807
:100DE00040F080506949383108600846006800F0DA
:100DF0008050009000BF00BF01266748006800F4E3
:100E00008070B0B96448006840F48070624908603E
:100E1000FFF7AEFB054606E0FFF7AAFB401B0228E2
:100E200001D90320B8E65C48006800F4807000280F
:100E3000F2D000BFA068012808D15448683000688B
:100E400040F001005149683108601DE0A0680528A4
:100E50000DD14E486830006840F004004B496831BD
:100E600008600846006840F0010008600CE0474850
:100E70006830006820F00100444968310860084685
:100E8000006820F00400086000BFA068A8B1FFF768
:100E90006FFB054609E0FFF76BFB401B41F2883111
:100EA000884202D9032077E626E038486830006897
:100EB000C0F340000028EED013E0FFF759FB0546D1
:100EC00008E0FFF755FB401B41F28831884201D909
:100ED000032061E62D4868300068C0F34000002818
:100EE000EFD1012E07D129483830006820F080501A
:100EF00026493831086000BFA069B8B323480068AC
:100F000000F00C0008285ED0A069022846D100201D
:100F10001F490866FFF72CFB054606E0FFF728FB94
:100F2000401B022801D9032036E61848083800681B
:100F3000C0F340600028F1D1D4E907010843616A99
:100F400040EA81110122A06AC2EB500041EA00414F
:100F50002C20005D41EA00600C49091F0860012057
:100F60000B490866FFF704FB054607E02DE0FFF795
:100F7000FFFA401B022801D903200DE60348083878
:100F80000068C0F340600028F1D01EE0083802403D
:100F900000004742800E47420070004000200C498C
:100FA0000866FFF7E5FA054606E0FFF7E1FA401BA1
:100FB000022801D90320EFE506480068C0F340602D
:100FC0000028F2D101E00120E6E50020E4E5000080
:100FD000000047420038024010B504460CB9012019
:100FE00010BD606A00B900BF0021A16294F85100F1
:100FF00028B9002084F85000204600F033F8022081
:1010000084F851002068006820F0400021680860E2
:10101000D4E901010843E168084321690843616993
:101020000843218B01F400710843E1690843216AF8
:101030000843A16A0843216808600421A06901EA05
:101040001040616A0843216848602068C06920F444
:1010500000602168C86100206065012084F85100AB
:101060000020BDE710B586B00446142101A8FFF7A3
:10107000F1F81B49206888422FD100BF0020009062
:101080001848006840F48050164908600846006817
:1010900000F48050009000BF00BF00BF002000900F
:1010A00010481438006840F002000E4914390860F6
:1010B0000846006800F00200009000BF00BF382022
:1010C000019002200290002003900320049005204C
:1010D000059001A90448FFF745F906B010BD0000CE
:1010E00000300140443802400004024070B504461C
:1010F0002546681EB0F1807F01D301200FE0681EF5
:101100004FF0E02148610F214FF0FF3000F05AF915
:1011100000204FF0E021886107200861002070BDA9
:1011200010B504460CB9012010BDA06900B100E063
:1011300000BF94F8390028B9002084F83800204610
:1011400000F028F8242084F839002068C06820F4D2
:1011500000502168C860204600F0DCF92068006972
:1011600020F49040216808612068406920F02A003E
:10117000216848612068C06840F400502168C86058
:101180000020E063202084F8390084F83A00002031
:10119000CAE7000010B586B00446142101A8FFF785
:1011A00059F81B49206888422FD100BF00200090C9
:1011B0001848006840F40030164908600846006886
:1011C00000F40030009000BF00BF00BF002000907E
:1011D00010481038006840F001000E4910390860CE
:1011E0000846006800F00100009000BF00BF0C201E
:1011F0000190022002900120039003200490072018
:10120000059001A90448FFF7ADF806B010BD000035
:1012100000440040403802400000024000BFFEE7AA
:1012200010B503490348FFF755F80349087010BD8E
:10123000010000200C0000200000002000B587B055
:10124000142102A8FFF706F800BF002001902648ED
:10125000006840F00400244908600846006800F077
:101260000400019000BF00BF00BF002001900846AD
:10127000006840F0800008600846006800F08000C8
:10128000019000BF00BF00BF002001900846006829
:1012900040F0010008600846006800F0010001907D
:1012A00000BF00BF00BF002001900846006840F06A
:1012B000020008600846006800F00200019000BFCC
:1012C00000BF002201210948FFF74CF901200290DC
:1012D0000390002004900320059002A90348FFF723
:1012E00041F807B000BD0000303802400004024061
:1012F00010B50E480E4908604FF482704860002116
:101300000B488160C160016141614FF400718161EE
:101310000021C1610162416281620A21C162FFF75D
:101320005BFE08B1FEF7D5FF10BD000000300140A4
:101330003000002010B50B480B4908604FF4E13035
:101340004860002108488160C16001610C21416151
:1013500000218161C161FFF7E3FE08B1FEF7B9FF2B
:1013600010BD0000004400408800002010B54FF080
:10137000A0400C4908600420486002210948C1606F
:10138000002101614161022181610021C16101628D
:101390004162C1620163FFF7B7F908B1FEF799FF37
:1013A00010BD0000C800002000BFFEE710B5FFF729
:1013B000DFFB10BD02480068C0F302207047000048
:1013C0000CED00E010B5002807DA0A07140E054AF4
:1013D00000F00F031B1FD45403E00A07130E024A48
:1013E000135410BD18ED00E000E400E070477047B2
:1013F00010B5FFF7C3F810BD00B593B0302107A8B2
:10140000FEF728FF142102A8FEF724FF00BF0020EA
:1014100001902548006840F0805023490860084644
:10142000006800F08050019000BF00BF00BF0020A6
:1014300001901E48006840F480401C49086008463E
:10144000006800F48040019000BF00BF01200790B9
:101450000004089002200D9041050E9104210F9187
:10146000A8211091022111910721129107A8FFF7DD
:101470008FFB08B1FEF72DFF0F2002900220039092
:10148000002004904FF4A05005904FF48050069037
:10149000052102A8FFF728FA08B1FEF71AFFFFF7A7
:1014A000E3FA13B000BD0000403802400070004075
:1014B0001448006840F4700012490860124800683F
:1014C00040F001001049086000200F490831086011
:1014D0000D4800680D4908400B4908600C48091D7B
:1014E0000860081F006820F48020091F08600020A1
:1014F00005490C3108604FF00060024980390860EE
:101500007047000088ED00E000380240FFFFF6FE63
:10151000103000242DE9F0410446002520680569BB
:1015200025F44055E0680543206805612068C568DA
:1015300049F20C6085432169A0680843616908434A
:10154000E169084305432068C5602068456925F4C2
:101550004075A069054320684561E069B0F5004F1A
:101560007ED1C4492068884203D0C349206888429C
:101570005DD1FFF795FA00EBC00101EB0010616847
:101580004900B0FBF1F06421B0FBF1F00601FFF778
:1015900087FA00EBC00101EB001061684900B0FB65
:1015A000F1F7FFF77DFA00EBC00101EB0010616875
:1015B0004900B0FBF1F06421B0FBF1F000EBC00199
:1015C00001EB0010A7EB8000322101EBC000642189
:1015D000B0FBF1F000F0F80006EB4006FFF760FA10
:1015E00000EBC00101EB001061684900B0FBF1F7AE
:1015F000FFF756FA00EBC00101EB001061684900EB
:10160000B0FBF1F06421B0FBF1F000EBC00101EBA5
:101610000010A7EB8000322101EBC0006421B0FB79
:10162000F1F000F0070030442168886020E1FFF706
:1016300027FA00EBC00101EB001061684900B0FB24
:10164000F1F06421B0FBF1F00601FFF719FA00EBAD
:10165000C00101EB001061684900B0FBF1F700E048
:1016600045E0FFF70DFA00EBC00101EB00106168E7
:101670004900B0FBF1F06421B0FBF1F000EBC001D8
:1016800001EB0010A7EB8000322101EBC0006421C8
:10169000B0FBF1F000F0F80006EB4006FFF7F0F9C0
:1016A00000EBC00101EB001061684900B0FBF1F7ED
:1016B000FFF7E6F900EBC00101EB0010616849009B
:1016C000B0FBF1F06421B0FBF1F000EBC00101EBE5
:1016D0000010A7EB8000322101EBC0006421B0FBB9
:1016E000F1F000F00700304421688860C0E06149F3
:1016F0002068884203D06049206888425CD1FFF7A7
:10170000CFF900EBC00101EB001061688900B0FB6C
:10171000F1F6FFF7C5F900EBC00101EB00106168BD
:101720008900B0FBF1F06421B0FBF1F000EBC001E7
:1017300001EB0010A6EB8000322101EB00106421C8
:10174000B0FBF1F000F0F006FFF7AAF900EBC001E2
:1017500001EB001061688900B0FBF1F06421B0FB7F
:10176000F1F006EB0016FFF79BF900EBC00101EB6F
:10177000001061688900B0FBF1F7FFF791F900EB09
:10178000C00101EB001061688900B0FBF1F0642139
:10179000B0FBF1F000EBC00101EB0010A7EB800003
:1017A000322101EB00106421B0FBF1F000F00F00DA
:1017B0003044216888605BE0FFF762F900EBC0010C
:1017C00001EB001061688900B0FBF1F6FFF758F9F2
:1017D00000EBC00101EB001061688900B0FBF1F083
:1017E0006421B0FBF1F000EBC00101EB0010A6EBAF
:1017F0008000322101EB00106421B0FBF1F000F019
:10180000F006FFF73DF900EBC00101EB0010616845
:101810008900B0FBF1F06421B0FBF1F006EB00169B
:10182000FFF72EF900EBC00101EB001061688900A1
:10183000B0FBF1F7FFF724F900EBC00101EB00105A
:1018400061688900B0FBF1F06421B0FBF1F000EBBE
:10185000C00101EB0010A7EB8000322101EB00106A
:101860006421B0FBF1F000F00F0030442168886083
:10187000BDE8F08100100140001401400FB410B524
:1018800004460898012816D1A06B20F48030A0638C
:10189000E06815490840E060E06820F44010E0602E
:1018A0000F98012803D1E06840F48010E0602046E2
:1018B00000F01CF809E0E06840F04000E0602046DD
:1018C00000F014F84FF48030A0630698012807D187
:1018D000A06840F00600A060A06840F02000A06072
:1018E000002010BC5DF814FBBFFFBDFF01460022C5
:1018F00000BF501C02460F4B984201D9032070478D
:10190000086900F000400028F3D00022086940F088
:101910000100086100BF501C0246064B984201D9E5
:101920000320ECE7086900F001000028F3D100BFB4
:10193000E5E70000400D030010B5044640F6040042
:10194000005940F0020140F6040001510320FEF767
:10195000F5FC002010BD00000FB430B50446002592
:101960000E9820B9A06B40F40010A06303E0A06BB8
:1019700040F40020A0630020C4F8000ED4F8000852
:10198000C4F80008099801280BD1069820B9002155
:10199000204600F0FFF808E00121204600F0FAF8A8
:1019A00003E00321204600F0F5F81021204600F066
:1019B000C1F8204600F0A8F800214FF40160015161
:1019C000001D0151491E001D01510021001D015142
:1019D000002524E004F5106000EB4510006800F0DD
:1019E0000040B0F1004F07D14FF0904104F5106076
:1019F00000EB4510016005E0002104F5106000EBEC
:101A000045100160002104F5106000EB45100161F4
:101A1000FF2104F5106000EB451081606D1C0498F7
:101A2000A842D7D8002524E004F5306000EB45102B
:101A3000006800F00040B0F1004F07D14FF0904136
:101A400004F5306000EB4510016005E0002104F56D
:101A5000306000EB45100160002104F5306000EBC0
:101A600045100161FF2104F5306000EB45108160F5
:101A70006D1C0498A842D7D84FF40160005920F497
:101A800080714FF401600151079801280BD116496C
:101A90004FF4036001510059144908434FF40361A6
:101AA0000851084605590020A0616FF08040606130
:101AB000079818B9A06940F01000A061A0690C490E
:101AC0000843A0610A9818B1A06940F00800A0611D
:101AD0000E98012803D1A06906490843A06100209F
:101AE00030BC5DF814FB0000000180000300010021
:101AF00000383C80040000400146886820F0010066
:101B00008860002070470000014600221020086114
:101B100000BF501C0246064B984201D90320704773
:101B2000086900F010001028F3D00020F7E700004B
:101B3000400D030010B502460023202040EA81102A
:101B4000106100BF581C0346054CA04201D9032078
:101B500010BD106900F020002028F3D00020F7E726
:101B6000400D030070B504460D46E06820F0C0400B
:101B7000E060012D04D1E06840F00050E06004E036
:101B80001DB9E06840F08040E0603220FEF7D6FBEF
:101B9000002070BD0246D2F800080843C2F80008D1
:101BA0000020704701460120024A1070104600785C
:101BB000704700000800002010B50346012010BD4A
:101BC00010B50446002010BD01460120024A1070E5
:101BD00010460078704700000800002010B5044649
:101BE000002010BD00BFFEE702E008C8121F08C1B8
:101BF000002AFAD170477047002001E001C1121F8E
:101C0000002AFBD17047FEF7C5FCFFF7F5FBFFF795
:101C100015FBFFF78FFBFFF76BFBFFF7A7FBFFF74A
:101C2000FFFA00BFFEE70000000000000000010214
:101C30000304060708090000000001020304000075
:101C4000601C00080000002030000000E81B0008B5
:101C5000901C000830000020980A0000F81B0008C3
:101C6000000000000000000001000000A51B0008AB
:101C7000C91B0008C11B0008DD1B0008B91B0008B8
:101C80000000000010000000010000000024F4002B
:040000050800018965
:00000001FF
