:020000040800F2
:1000000070300020990100082D3300086522000897
:10001000293300089B0200088D3C00080000000006
:1000200000000000000000000000000001010008C6
:100030009F02000800000000450100088936000802
:10004000B3010008B3010008B3010008B3010008C0
:10005000B3010008B3010008B3010008B3010008B0
:10006000B3010008B3010008B3010008B3010008A0
:10007000B3010008B3010008B3010008B301000890
:10008000B3010008B3010008B3010008B301000880
:10009000B3010008B3010008B3010008B301000870
:1000A000B3010008B3010008B3010008B301000860
:1000B000B3010008B30100082D380008B30100089F
:1000C000B3010008B3010008B3010008B301000840
:1000D000B3010008B3010008B3010008B301000830
:1000E000B3010008B3010008B3010008DFF80CD029
:1000F00000F096F800480047AF700008703000200C
:10010000224B19680868B0E8F00F80F30988BFF344
:100110006F8F4FF0000080F311884EF00D0E704786
:100120000000000006480068006880F3088862B696
:1001300061B6BFF34F8FBFF36F8F00DF00BF00BF0B
:1001400008ED00E0EFF30980BFF36F8F0F4B1A68E3
:1001500020E9F00F106008B54FF0500080F31188CF
:10016000BFF34F8FBFF36F8F07F0B4FF4FF0000066
:1001700080F31188BDE8084019680868B0E8F00FFE
:1001800080F30988BFF36F8F704700BF34000020F1
:10019000EFF3058070470000064880470648004797
:1001A000FEE7FEE7FEE7FEE7FEE7FEE7FEE7FEE727
:1001B000FEE7FEE7D5370008ED00000810B5431A4A
:1001C000934209D28318881803E010F8011D03F840
:1001D000011D521EF9D210BD40EA01039B0703D056
:1001E00009E008C9121F08C0042AFAD203E011F876
:1001F000013B00F8013B521EF9D210BDD2B201E022
:1002000000F8012B491EFBD270470022F6E710B51B
:1002100013460A4604461946FFF7F0FF204610BD74
:10022000064C074D06E0E06840F0010394E8070043
:1002300098471034AC42F6D3FFF75CFF709A000881
:10024000909A000870B58C1810F8015B15F0070340
:1002500001D110F8013B2A1106D110F8012B03E05F
:1002600010F8016B01F8016B5B1EF9D12B0705D467
:100270000023521E0DD401F8013BFAE710F8013BB0
:10028000CB1A921C03E013F8015B01F8015B521ECC
:10029000F9D5A142D8D3002070BD00BFFEE770475A
:1002A000704770B50C46054600F0FEF8A868216856
:1002B000C16261680163A1684163490707D5D0E95C
:1002C0000021C0E90012D0E90221C0E90212A1898F
:1002D00081842169002903D001DC4FF00001016213
:1002E00070BD2DE9F0411E4617468846054600F0D0
:1002F000DBF8AC686822414604F58670FFF75EFFC4
:100300002846B8472846B047286980688047A062D9
:10031000BDE8F08110B5044600F0C6F8A0681149A8
:10032000144AC0F8AC101049C0F8A8100F49C0F822
:10033000B0100F49C0F8B8100021C0F8BC10136805
:10034000C0F8B4300C4BC0E932315168C0F8C41069
:1003500030F8261F21F0030120F82A1B07494164C9
:1003600010BD0000ED640008ED650008B5640008EC
:100370003F610008000100200F620008656400086A
:1003800010B5044600F090F8A46810480821C4F89D
:10039000E4000F48C4F8E8000E48C4F8EC000E482A
:1003A000C4F8F0000D48C4F8A0000D48C4F8A4003B
:1003B000D4F8C800C4F8FC00D4F894202046904734
:1003C0001020A0630748606410BD0000755000084D
:1003D00099550008E903000819050008F9600008AC
:1003E000AF670008E8980008F8B5846815460F461E
:1003F00094F8260080074CD5D4F800312046984761
:100400000646D4F804312A46394620469847D4F89F
:10041000983005461BB100220121204698472069EB
:10042000B04201DD012000E00020A169B14201DA03
:10043000012100E0002108436169A94201DD012199
:1004400000E000210843E169A94201DA012100E04E
:10045000002108430AD060680022401E00902368F3
:10046000D4F8A870114620465B1EB847D4F8AC30CB
:100470002A46314620469847D4F8A010204688479F
:10048000D4F8983005466BB10122002120469847E8
:1004900008E0D4F8AC3020469847D4F8A0102046A5
:1004A000884705462846F8BD70B504468068002890
:1004B00012D14FF4BA75284600F0EEF92A46002111
:1004C000A06000F0E9FEA0680221C184012104645B
:1004D00001620249C0F8081170BD0000E104000883
:1004E00010B590B0044620220A496846FFF766FE20
:1004F00008492022203108A8FFF760FE606B5DF8F4
:100500002010C4F8001108A951F82000C4F8040113
:1005100010B010BDD48E00082DE9F84384689846C9
:10052000154694F826000F46800740D5D4F80031D0
:10053000204698470646D4F804312A4639462046D4
:10054000984705462069B04201DD012000E0002007
:10055000A169B14201DA012100E00021084361698B
:10056000A94201DD012100E000210843E169A9421F
:1005700001DA012100E0002108430AD0606800226E
:10058000401E00902368D4F8A870114620465B1ED8
:10059000B847D4F8AC302A46314620469847D4F8BC
:1005A000A42001B041462046BDE8F0431047D4F8EE
:1005B000AC30F2E72DE9F04FDFF828B191B04FF001
:1005C000FF35DBF80030B3F922100691DE69B3F98C
:1005D00024A0F469A189814206D8E289824203D32A
:1005E000471AD4F8008012E0D4E90181002970D0C4
:1005F0000A8882426DD84D8885426AD3801A82B2B9
:10060000486800EB8200B0F90070B0F90250781C25
:100610005FD0307EA27C014600FB02F9207CCDE950
:100620000710B3F92A60304602F014FAC0B20E90F7
:10063000DBF8001007FB0980A37C8A6B0127CDE95A
:100640000402CDE90273C869089AC17E807ECDE9B3
:100650000001DDE90603514601F022FE681C18D0B6
:1006600046F0020002F0F6F9DBF80000A37C05FB7F
:100670000981826BCDE90273CDE90412C069089A41
:10068000C17E807ECDE90001DDE90603514601F01F
:1006900007FEDBF800005D46C069417E007E8142B6
:1006A00014D9022E12D086F0040002F0D3F9286883
:1006B000C069027EC37E857E02FB03A1437E089A49
:1006C0000698534402FB050201F04CFF0E9802F01D
:1006D000C1F9DBF80000627C418C1144418411B007
:1006E000BDE8F08FB400002004480068C069C0690C
:1006F00009B1027C0A60407C70470000B400002011
:10070000022008807047C06982898A4202D8C28963
:100710008A4210D2806880B102888A420DD843880C
:100720008B420AD3406800EB8100A0EB8200B0F955
:100730000000002801DB0120704700207047000006
:100740002DE9F0410025154E154C18E02069C5EB48
:10075000051700EBC7007022001D3168FFF72EFD62
:100760002069002140F8371000EBC70000F10C01B0
:100770008161011D0A1DC0E90F126D1C4164A06852
:100780008542E3DB05F0BEFA2169C0EB001001EB06
:10079000C000001D3060BDE8F0810000B400002002
:1007A0000801002070B50F490D480860084600F0A8
:1007B0006BFD0C4C143CA068C0EB0010C500284633
:1007C00000F06AF82A460021206100F065FD4FF034
:1007D000FF30206000F03CFCBDE8704005F092BAAC
:1007E000356000081C01002010B5040009D000F09D
:1007F00071FA204603F018FF044600F007FC20467B
:1008000010BD002010BD38B5054600F063FA28463B
:10081000FFF7EAFF040009D000F096F82A4600210D
:10082000009000F039FD684600F0AAF800F0EEFBF9
:10083000204638BD024A106021F003005060704726
:100840003C29002010B5040016D000F043FA0B48F4
:10085000406B10F8341059B1022909D2042101EB80
:10086000C4014158486803F097FE204605F030FC6B
:10087000BDE8104000F0CABB10BD00007C2800207D
:10088000002805D0034AD16B016001B14860D063F4
:10089000704700007C2800202DE9F041044605F057
:1008A000D5FA2848E41C24F00305016C2D1DA9424B
:1008B00000D90D46C46B13E054F8042CAA420ED1A3
:1008C00084B1216809B162684A60616809B122682F
:1008D0000A60C26BA24231D12168C1632EE0246854
:1008E000002CE9D18046816BC0680F1857F8040CC2
:1008F0003E1A306838B1002005F0C8FC57F8040CE7
:100900003E1A3068D0B97068A84217DB3044441BE7
:100910003046241D05F0A0FCD8F80C10491BC8F87F
:100920000C10D8F814102944C8F814107068401B33
:1009300002D0314603F030FE44F8045C2046BDE8A6
:10094000F08100007C2800200549CA69521CCA6158
:10095000496B01EBC0010A78521C0A7000F028B8FC
:100960007C2800200549102805D94A68B0EB520FB1
:1009700002D3500800E01020886070473C29002016
:100980000A4902684B6B52F8082C03EBC202137839
:10099000022B03D3CB690BB15B1ECB611178491ECF
:1009A0001170002101600846704700007C2800207B
:1009B000002806D00349042202EBC000496B085806
:1009C000083070477C28002010B5C2B2CBB2D21AD2
:1009D00000D5524293B25B43C0F30722C1F3072410
:1009E000121B00D55242000C92B2A0EB114002FB48
:1009F000023200B2002801DA404200B280B200FBAD
:100A0000002010BD10B50021084600F00FF943F694
:100A1000FF725042BDE8104013460146AFF300801C
:100A20002DE9FC411C4615460E46074600F052F9DA
:100A3000042002F00FF880461248C068C16C006DB7
:100A40000F4406440D440444ADF80070ADF8045062
:100A5000ADF80260ADF80640684603F027FC07E0F9
:100A600023462A463146384601F07CFD03F0E0FB80
:100A70000028F5D1404601F0EDFF00F0C7FABDE8CF
:100A8000FC810000A80000202DE9F0411C4616461C
:100A90000D460746022B02DB0020BDE8F0811C203A
:100AA000FFF7FAFE0028F8D00DB105610AE0094A07
:100AB00052F8241009B905E011460A68002AFBD152
:100AC0000969016184618682002101604160C0E999
:100AD0000217E2E7CC00002070B51D46FFF7D4FFF7
:100AE000040009D000F00EF8E068006820B903485F
:100AF000006800EB85008465204670BDB4000020CE
:100B0000FFF7BEBE70B590B38269022A30DA1E4C80
:100B100054F8221019B944F8220032E019464B6803
:100B2000002BFBD106E0CB68C5681B682D68AB4283
:100B300003DD09680029F6D11AE0C1B1CB68C668A7
:100B40001B683668B3420CD1838A012B05D008E0BC
:100B50001946DB681B68AB4203DB0B68002BF7D13F
:100B600029B14B6833B118604A68426004E0FFE77E
:100B7000012070BD44F822004860884200D1002165
:100B80000160002070BD0000CC00002010B503E023
:100B90000468FFF7B7FF20460028F9D110BD000018
:100BA0000A4A816952F82130834202D1036842F82F
:100BB0002130416809B102680A60016809B14268E0
:100BC0004A6000210160416070470000CC000020B5
:100BD00000207047022801DB00207047054951F8CA
:100BE000200004E0C16809680029F6D000680028E8
:100BF000F8D17047CC000020034951F82000C168AB
:100C00008A6A082110470000CC000020024951F8F0
:100C10002000006900687047CC000020024951F8AC
:100C20002000006940687047CC00002070B50D4678
:100C3000044600F04FF8204605F082F804462846A6
:100C400005F086F8044300F0E1F9204670BD00008D
:100C50002DE9F0411948016821F0010101601848AF
:100C6000012585601749016000681749884200D056
:100C7000FEE700F0A7FA154E2E20307000F0E7F9DD
:100C8000134805F0A9F806F0C5F9074601F0C6FCBF
:100C900010B101F0CDFC38B901F0D0FC044601F0F0
:100CA000C3FC214601F0D0FE0021084600F054F9B3
:100CB00003F02CF975703846BDE8F081002000E0A3
:100CC00000300240C2A507F4CDB5E8B5A800002069
:100CD0004829002070B5184CE06820B100F0B3F945
:100CE0006168884204D000F0C9F900F0ACF9606096
:100CF000E068401CE06001281CD105F003F80546BF
:100D00002068854216D0002813DBFFF761FF0146FB
:100D10002068C0EB0012206900EBC2025167C5EBEE
:100D20000511064A00EBC100011D1160406FFFF77D
:100D30002DFF256070BD000008010020B4000020D8
:100D400038B504001CD0FFF7C5FF0E480068006EE0
:100D5000A04201D100F0BBF82046FFF7F5FD00905E
:100D6000406908B100F03CF900980068FFF7C8FE40
:100D70006846FFF705FE2046FFF764FD00F046F9E0
:100D800038BD0000B400002038B505004FF0000465
:100D900011D0FFF79FFF2846FFF7D6FD00900068AF
:100DA00000698068804702F03BF804466846FFF718
:100DB000E7FD00F02BF9204638BD38B504000ED011
:100DC000FFF788FF2046FFF7BFFD00F118040090F1
:100DD0006846FFF7D5FD00F019F9204638BD002020
:100DE00038BDF8B516460F46050012D0FFF7ACFD2A
:100DF000009044696846FFF7C3FD2846FFF7C4FF2B
:100E00000346082800DD2CB132463946284605F055
:100E100007FDF8BD32463946284605F0A1FEF8BD6B
:100E200010B5002821D009B30AB3B1F90040B2F9D6
:100E300000309C4200DA23460380B1F90240B2F947
:100E400002309C4200DA23464380B1F90440B2F9F3
:100E500004309C4200DD23468380B1F90610B2F9CC
:100E60000620914200DC1146C18010BD11460A687F
:100E700002604968416010BD00280BD003880B4414
:100E80000380838819448180418811444180C1884E
:100E90001144C1807047B0F90220B1F906309A427E
:100EA00013DCB1F90220B0F906309A420DDCB0F93A
:100EB0000020B1F904309A4207DCB1F90010B0F912
:100EC0000400814201DC012070470020704710B50A
:100ED000FFF700FF01F04EFD01F004FE02F0D8FE26
:100EE000BDE8104000F092B870B50B4D044628687C
:100EF000467CFFF7EFFE022C09D22046FFF76AFE80
:100F000028B128684474FFF7E2FF0448046000F049
:100F10007DF8304670BD0000B40000204C01002078
:100F200010B50446FFF7D6FE204601F043FDBDE8AC
:100F3000104000F06BB810B50446FFF7CBFE20461A
:100F400001F070FDBDE8104000F060B80149886014
:100F500070470000A800002070B50C460546FFF75A
:100F6000B9FE094822460580084804800848006800
:100F7000417C084850F82100C1680B6A294698470F
:100F8000BDE8704000F042B8D8000020DA00002030
:100F9000B4000020CC00002002480068002800D0E7
:100FA00000477047B401002002498A6802B988608E
:100FB000FFF7F2BFA40100202DE9F0411E46069C78
:100FC0001746884605463A46A8687F1C3346D0F83F
:100FD00004C041462846E047641EF4D1BDE8F081D4
:100FE00038B50546FFF776FE2846FFF7ADFC0090C2
:100FF0008189491E0CB284816846FFF7C1FC14B98F
:101000002846FFF71FFC00F001F838BD0348C1680F
:10101000491EC16001D100F03BB8704708010020B3
:1010200010B54FF480510548FFF704FC8020FFF70E
:1010300099FC0348FFF78AFF10BD0000C40100209F
:1010400008960008704710B506F02AF910BD7047E1
:101050001CB50020019001A806F090F80549086031
:10106000002000900121684606F0ECF80249086073
:101070001CBD0000000000200400002010B54FF04F
:10108000FF310248006806F0A7F810BD00000020FC
:1010900010B50248006806F077F810BD0000002087
:1010A00010B5082A0EDC0346012A18D0022A56D0B1
:1010B000042A76D010F8042B03F8012B491EF9D12D
:1010C000012010BD102A08DC4FEA000230F8043B72
:1010D00022F8023B491EF9D1F2E7002010BD10F8BA
:1010E000042BD207120E491E34D010F8044B491EAF
:1010F00004F0010442EA84122CD010F8044B491E7B
:1011000004F0010442EA441224D010F8044B491EB2
:1011100004F0010442EA04121CD010F8044B491EEA
:1011200004F0010442EAC40214D010F8044B491E32
:1011300004F0010442EA84020CD010F8044B491E6A
:1011400004F0010442EA440204D010F8044B04F015
:101150000104224303F8012B0029C0D1B0E710F8A5
:10116000042B9207120E491E15D010F8044B491E8D
:1011700004F0030442EA04120DD010F8044B491E97
:1011800004F0030442EA840205D010F8044B04F092
:1011900003042243491E03F8012B0029DFD18FE706
:1011A000FFE710F8042B1207120E491E05D010F8A5
:1011B000044B04F00F042243491E03F8012B0029BD
:1011C000EFD17DE70B4810B58169002910D10121CD
:1011D0008161FFF725FFFFF7E5FA01F0C5FC05493E
:1011E00005481C310860BDE81040084600F04CB8C6
:1011F00010BD0000A800002009600008B0F9003010
:10120000B1F90020934200DA0280B0F90230B1F95E
:101210000220934200DA4280B0F90430B1F9042090
:10122000934200DD8280B0F90620B1F906108A42AF
:1012300000DDC180704770B5B1F90040B2F90030EF
:101240009C4200DD23460380B1F90250B2F902400E
:10125000A54200DD2C464480B1F90460B2F9045087
:10126000AE4200DA35468580B1F90610B2F90620A3
:10127000914200DB1146C1809D4201DBA14201DAAF
:10128000002070BD012070BD02494A69426048617A
:1012900070470000A800002010B502E000F8011B14
:1012A000521E0AB18307F9D1930818D001EB01440B
:1012B00002F0030204EB042406E010C01B1F10C060
:1012C00040F8084B40F8044C042BF6DA01E010C05B
:1012D0005B1E002BFBD102E000F8011B521E002A0E
:1012E000FAD110BD10B5830702D520F8021B521E9B
:1012F000530811D001EB0144042B09DB10C01B1F64
:1013000010C0042B40F8084B40F8044CF6DA01E01A
:1013100010C05B1E002BFBD1D20700D0018010BD96
:1013200070B5044600F09EF906462546681C10B1CB
:1013300004480078054400BF00F094F9801BA842DF
:10134000FAD370BD2C0000202DE9F8470346002495
:10135000002000258446002700226EE14FF001089E
:1013600008FA02F4D1F8008008EA0400A0427DD116
:10137000DFF8D0A2D1F80480A8EB0A09D0453AD012
:1013800014DCB8F1030F50D009DCB8F1000F31D0F4
:10139000B8F1010F1CD0B8F1020F49D120E0B8F12B
:1013A000110F18D0B8F1120F42D11EE0B9F5881F05
:1013B00025D006DCB9F5803F20D0B9F5801F37D1A4
:1013C0001AE0B9F5001F18D0B9F5041F30D117E0A5
:1013D000D1F80CC02DE0D1F80C8008F1040C28E005
:1013E000D1F80C8008F1080C23E0D1F80C8008F14A
:1013F0000C0C1EE000BF00BF00BF00BF00BF00BF5D
:10140000D1F80880B8F1000F02D14FF0040C0BE0C6
:10141000D1F80880B8F1010F03D14FF0080C1C611E
:1014200002E04FF0080C5C6103E04FF0000C00E0BC
:1014300000BF00BFFF2801D8984601E003F104086F
:101440004646FF2802D84FEA820803E0A2F10808C6
:101450004FEA88084746D6F800804FF00F0909FA8E
:1014600007F928EA09080CFA07F900E088E048EAD9
:101470000908C6F80080D1F8048008F08058B8F157
:10148000805F7DD100BFDFF8C081D8F8188048F0B8
:101490000108DFF8B491C9F81880C846D8F8188058
:1014A00008F00108CDF8008000BF00BF4FEAB9384E
:1014B0004FEA920958F829504FEA82784FEA187992
:1014C0004FF00F0808FA09F825EA0805DFF87C81D3
:1014D000434502D14FF0000816E0DFF87481434520
:1014E00002D14FF001080FE0DFF86881434502D1D7
:1014F0004FF0020808E0DFF86081434502D14FF069
:10150000030801E04FF004084FEA82794FEA1979A5
:1015100008FA09F848EA0505DFF840814FEA920920
:1015200048F82950D1F8048008F48038B8F5803F95
:101530000AD1DFF82C81D8F8008048EA0008DFF8EB
:101540002091C9F8008009E0DFF81481D8F8008004
:1015500028EA0008DFF80891C9F80080D1F8048073
:1015600008F40038B8F5003F10D1DFF8F48008F136
:101570000408D8F8008048EA0008DFF8E49000E0AA
:101580005AE009F10409C9F800800DE0DFF8D080C5
:1015900008F10408D8F8008028EA0008DFF8C090B5
:1015A00009F10409C9F80080D1F8048008F4801812
:1015B000B8F5801F0ED1DFF8A88008F10808D8F828
:1015C000008048EA0008DFF8989009F10809C9F896
:1015D00000800DE0DFF8888008F10808D8F8008066
:1015E00028EA0008DFF8789009F10809C9F80080B6
:1015F000D1F8048008F40018B8F5001F0ED1DFF808
:10160000608008F10C08D8F8008048EA0008DFF88C
:10161000509009F10C09C9F800800DE0DFF8408016
:1016200008F10C08D8F8008028EA0008DFF83090AC
:1016300009F10C09C9F80080521C102AFFF48EAE83
:10164000BDE8F887000011100010024000080140BA
:10165000000C01400010014000140140080001404E
:101660000004014001480068704700002400002089
:1016700070B50446002600250CB9012070BD94F811
:101680003D0028B9002084F83C00204600F0AEF868
:10169000242084F83D002068006820F001002168C3
:1016A000086000F0FBF905464C496068884206D89E
:1016B0004B48854201D2012007E0002005E049485F
:1016C000854201D2012000E00020012800D1D5E7A9
:1016D0004548B5FBF0F6206846604049606888429E
:1016E00001D8701C07E04FF4967070434FF47A7184
:1016F000B0FBF1F0401C21680862384960688842FC
:1017000014D8681E61684900B0FBF1F0401CC0F3BA
:101710000B00042801D204203DE0681E61684900E6
:10172000B0FBF1F0401CC0F30B0034E0A06838B906
:10173000681E616801EB4101B0FBF1F0401C0AE05A
:10174000681E616801EBC10202EB0111B0FBF1F010
:10175000401C40F48040C0F30B0008B901201AE09F
:10176000A06848B9681E616801EB4101B0FBF1F067
:10177000401CC0F30B000CE0681E616801EBC10265
:1017800002EB0111B0FBF1F0401CC0F30B0040F480
:10179000804040F400402168C861D4E90701084353
:1017A00021680860D4E90310084321688860D4E9FF
:1017B000050108432168C8602068006840F0010006
:1017C0002168086000202064202084F83D0000206B
:1017D000206384F83E0000BF50E70000A0860100AF
:1017E00080841E0000093D0040420F0010B586B005
:1017F000044600200290039004900590164920684A
:10180000884226D100BF1548806940F0080013497E
:1018100088610846806900F00800019000BF00BFA1
:101820004FF440600290122003900320059002A91B
:101830000B48FFF789FD00BF0848C06940F48000ED
:101840000649C8610846C06900F48000019000BFE5
:1018500000BF06B010BD000000580040001002405C
:10186000000C014003480068034909780844014915
:1018700008607047240000202C00002010B50848A4
:10188000006840F0100006490860032000F0CAF824
:10189000002000F007F800F049F8002010BD00001B
:1018A0000020024070B588B00446002500260022C2
:1018B00021461E2000F077F81E2000F067F800BFD8
:1018C0001648C06940F004001449C8610846C06960
:1018D00000F00400019000BF00BF02A903A800F0BF
:1018E000B5F800F0DBF845000D48B5FBF0F0461EFA
:1018F0000C480D49086040F2E7310B48C160466072
:1019000000210161816000F0AEF920B9064800F0C5
:10191000DDF908B070BD0120FBE7000000100240B7
:1019200040420F0000080040F012002008B500BF40
:101930001448806940F001001249886108468069B6
:1019400000F00100009000BF00BF00BF0846C06962
:1019500040F08050C8610846C06900F08050009097
:1019600000BF00BF00220F21901E00F01CF800BF36
:101970000549486820F0E06040F00070486000BF12
:1019800008BD0000001002400000014000BF00F050
:101990001F02012191404209920002F1E022C2F8A7
:1019A000001100BF70472DE9F05F80460D461646D6
:1019B000002701F0BDFC074639462A46334601F0B0
:1019C0000700C0F1070ABAF1040F02D94FF0040A68
:1019D00001E0C0F1070AD14600F1040ABAF1070F8D
:1019E00002D24FF0000A01E0A0F1030AD4464FF002
:1019F000010A0AFA09FAAAF1010A0AEA020A0AFA2B
:101A00000CFA4FF0010B0BFA0CFBABF1010B0BEADC
:101A1000030B4AEA0B042146404601F091FCBDE865
:101A2000F09F000000BF00F00702064B19684FF658
:101A3000FF031940044B0B4343EA0221014B196099
:101A400000BF70470CED00E00000FA050F220260B5
:101A50000D4A526802F0030242600B4A526802F0DB
:101A6000F0028260084A526802F4E062C260064AEC
:101A7000526802F46052D2080261044A126802F00D
:101A800007020A6070470000001002400020024078
:101A900001480068704700003000002000B5FFF7E3
:101AA000F7FF04494968C1F30221034A515CC84069
:101AB00000BD000000100240788E000800B5FFF75E
:101AC000E7FF04494968C1F3C221034A515CC84099
:101AD00000BD000000100240788E000810B50446DA
:101AE0000CB9012010BD0021A16294F8510010B979
:101AF000204600F037F8022084F851002068006882
:101B000020F0400021680860D4E901010843E16841
:101B100008432169084361690843218B01F400717E
:101B20000843E1690843216A0843A16A0843216820
:101B300008600421A06901EA1040616A0843216835
:101B400048602168E06A08612068C06920F400608C
:101B50002168C86100206065012084F851000020E0
:101B6000C0E7000010B586B0044600200290039044
:101B7000049005901E492068884236D100BF1D4858
:101B8000806940F480501B4988610846806900F4F0
:101B90008050019000BF00BF00BF0846806940F040
:101BA000080088610846806900F00800019000BFC5
:101BB00000BF28200290022003900320059002A974
:101BC0000D48FFF7C1FB1020029000200390049005
:101BD00002A90948FFF7B8FB00BF0849486840F070
:101BE000E06040F00100486000BF06B010BD00009A
:101BF0000030014000100240000C01400000014094
:101C000070477047024600BF92F83C00012801D19E
:101C100002207047012082F83C0000BF022082F8B9
:101C20003D001068406820F070001368586010682C
:101C300040680B681843136858601068806820F08B
:101C4000800013689860106880684B6818431368B8
:101C50009860012082F83D0000BF002082F83C001F
:101C600000BF00BFD5E710B504460CB9012010BD78
:101C700094F83D0028B9002084F83C00204600F08C
:101C80000DF8022084F83D00211D206801F0D6FDEA
:101C9000012084F83D000020E9E7000008B5094A6A
:101CA000016891420DD100BF0749C96941F00201A5
:101CB000054AD1611146C96901F00201009100BFD6
:101CC00000BF08BD00040040001002400146086843
:101CD000C06840F001000A68D0600868006840F001
:101CE00001000A681060002070472DE9F0410446A9
:101CF0000D46002600BF94F83C00012802D10220C6
:101D0000BDE8F081012084F83C0000BF022084F887
:101D10003D002068866826F0770626F47F46206816
:101D20008660286850283BD00CDC202860D004DC7A
:101D3000002853D0102865D155E030285DD04028C8
:101D400060D141E0602835D070280DD0B0F5805FBB
:101D500003D0B0F5005F55D115E02068806820F011
:101D60000700216888604EE0D5E902136A682068A0
:101D700001F09EFD2068866826F0770646F077061B
:101D8000206886603FE0D5E902136A68206801F0A8
:101D90008FFD2068806840F480402168886032E0D0
:101DA000EA686968206801F061FE5021206801F04E
:101DB0008BFD28E0EA686968206801F06CFE60210C
:101DC000206801F081FD1EE0EA686968206801F082
:101DD0004DFE4021206801F077FD14E000212068CD
:101DE00001F072FD0FE01021206801F06DFD0AE0A6
:101DF0002021206801F068FD05E03021206801F015
:101E000063FD00E000BF00BF012084F83D0000BF7B
:101E1000002084F83C0000BF00BF71E7704710B598
:101E2000044620680069C0F34000D8B12068C0684B
:101E3000C0F34000B0B16FF00200216808610120DA
:101E400020772068806900F0030018B12046FFF772
:101E5000E5FF05E0204600F0D9F8204600F076F9CD
:101E60000020207720680069C0F38000D8B1206886
:101E7000C068C0F38000B0B16FF004002168086151
:101E8000022020772068806900F4407018B1204655
:101E9000FFF7C4FF05E0204600F0B8F8204600F048
:101EA00055F90020207720680069C0F3C000D8B140
:101EB0002068C068C0F3C000B0B16FF008002168AE
:101EC0000861042020772068C06900F0030018B181
:101ED0002046FFF7A3FF05E0204600F097F82046D4
:101EE00000F034F90020207720680069C0F300106A
:101EF000D8B12068C068C0F30010B0B16FF0100016
:101F000021680861082020772068C06900F44070CB
:101F100018B12046FFF782FF05E0204600F076F872
:101F2000204600F013F9002020772068006900F0B7
:101F3000010058B12068C06800F0010030B16FF0B6
:101F4000010021680861204600F002F9206800695C
:101F5000C0F3C01058B12068C068C0F3C01030B1E1
:101F60006FF08000216808612046FFF749FE206875
:101F70000069C0F3801058B12068C068C0F38010B9
:101F800030B16FF0400021680861204600F0ECF8A5
:101F900020680069C0F3401058B12068C068C0F3E1
:101FA000401030B16FF02000216808612046FFF733
:101FB00028FE10BD10B586B00446002002900390A4
:101FC000049005900E492068884216D100BF0D4844
:101FD000806940F004000B4988610846806900F080
:101FE0000400019000BF00BF8020029002200390F7
:101FF000059002A90448FFF7A7F906B010BD00003C
:10200000000400400010024000080140704770B515
:1020100004460D46164600BF94F83C00012801D145
:10202000022070BD012084F83C0000BF022084F82B
:102030003D0036B1042E1BD0082E31D00C2E5ED1BF
:1020400045E02946206801F049FC2068806940F09D
:102050000800216888612068806920F004002168F8
:10206000886120688069296908432168886147E0A0
:102070002946206801F064FC2068806940F4006013
:10208000216888612068806920F480602168886107
:1020900020688069296940EA0120216888612FE071
:1020A0002946206801F084FC2068C06940F00800DF
:1020B0002168C8612068C06920F004002168C861F7
:1020C0002068C069296908432168C86118E0294669
:1020D000206801F0A3FC2068C06940F4006021681A
:1020E000C8612068C06920F480602168C8612068E8
:1020F000C069296940EA01202168C86100E000BF89
:1021000000BF012084F83D0000BF002084F83C009F
:1021100000BF00BF85E710B504460CB9012010BD13
:1021200094F83D0028B9002084F83C00204600F0D7
:102130000CF8022084F83D00211D206801F07EFB90
:10214000012084F83D000020E9E770477047000057
:1021500010B5044603492068884201D1FFF782FB8D
:1021600010BD000000080040704710B504460CB9CF
:10217000012010BDA06900B100E000BF94F8390053
:1021800028B9002084F83800204600F027F82420E1
:1021900084F839002068C06820F400502168C860C5
:1021A000204601F08FFC2068006920F490402168EF
:1021B00008612068406920F02A0021684861206891
:1021C000C06840F400502168C8600020E06320200F
:1021D00084F8390084F83A000020CAE710B586B0C8
:1021E0000446002002900390049005901A4920684C
:1021F00088422ED100BF1948806940F480401749B9
:1022000088610846806900F48040019000BF00BFEB
:1022100000BF0846806940F0040088610846806974
:1022200000F00400019000BF00BF4815029002209A
:1022300003900320059002A90948FFF785F84FF4A1
:102240008060029000200390049002A90448FFF7E8
:102250007BF806B010BD00000038014000100240BD
:102260000008014000BFFEE700218172C1700170CB
:10227000417081704171017141728171C17101724E
:10228000704700000449054A0968497C52F821104A
:102290000969096808470000B4000020CC0000204C
:1022A0002DE9F04F05468DB07B48DDF860901A9C13
:1022B00000681E4617464FF0000A78B11B9B199A1A
:1022C000CDF808900593CDE90324DDE91623CDE987
:1022D0000023046833463A46284680E0DDE91602CA
:1022E00001EB060805EB070C1043A8F10108ACF15F
:1022F000010C012806D0C9F10800059000200291C8
:102300000990C6E065480268B2F90A30581A0028F8
:1023100006DD361A002E63DD1946199B00FB0344C7
:10232000B2F90E00A8EB0000002802DD361A002EDC
:1023300056DDB2F90C00ACEB0000002800DD3F1ABE
:10234000B2F908300020AB4235DD581B3F1A4B462E
:10235000B9F1080F26D006DC012B0BD0022B11D0CF
:10236000042B28D116E0102B1ED0182B1FD0202BA9
:1023700021D11CE020F0070304EBE0041D4400F031
:10238000070018E020F0030304EBA0041D4400F054
:10239000030010E020F0010304EB60041D4400F092
:1023A000010008E0044404E004EB400401E004EB15
:1023B000800405440020002F12DD1B9BDDF864C063
:1023C000CDE90403CDE90069CDE902C4527C34486B
:1023D0003B4650F82200C26854680A462946A04786
:1023E0000DB0BDE8F08F1799029808440C902B4966
:1023F000401E00900A68B2F90A30834241DCB2F90B
:102400000E10029881423CDB4FF0000BD84603953A
:102410000A9434E0BBF1000F05D10A984FF0080B85
:1024200010F801AB0A900599ABEB090B3AFA01F0F1
:102430000AFA09F101F0FF0A04D118490968097C78
:10244000890716D415490968C96B0A680B921B9A4B
:102450000AB152F82000086016990398009B4218B0
:10246000521E029900F07EF80C490B980968C96B5E
:1024700008600399169808F1010808440390B845CC
:10248000C8DB0998401C09900C98029019980444E4
:102490000998B042A7DBA3E7D4000020B4000020D5
:1024A000CC000020F0B40C4612490968B1F90A309A
:1024B000A3421CDCB1F90E30A34218DBB1F908309D
:1024C000834200DD1846B1F90C30934200DA1A4617
:1024D00082420CDB4B7C084951F8235013462246BC
:1024E000E9688E6801462846B446F0BC6047F0BCF7
:1024F00070470000B4000020CC0000200A461749B5
:1025000030B40968B1F90A30934225DCB1F90E30D4
:10251000934221DBB1F9083083421DDCB1F90C3064
:10252000834219DB0B7C0E4CDB0709D0497C54F845
:102530002130D968CC690146A44630BC18466047B2
:10254000CB6B497C1B6854F82140E1688D690146DA
:102550002046AC4630BC604730BC7047B400002019
:10256000CC00002038B5134C2468B4F908508542DB
:1025700000DD2846B4F90C50954200DA2A46824222
:1025800017DBB4F90A508D4200DD2946B4F90E502C
:102590009D4200DA2B468B420BDB0093647C064B9A
:1025A00053F82440E3681D6913460A460146204655
:1025B000A84738BDB4000020CC000020082103F05B
:1025C00012BB0000024809210068407C03F00BBBED
:1025D000B4000020092103F006BB70B500252C468D
:1025E0002046FEF7F7FA00B16D1C641C022CF7DBE5
:1025F000284670BD02480068407C00F003B8000027
:10260000B400002010B5FEF7E5FA002805D0C16837
:10261000CA6ABDE810400221104710BD0148006899
:102620007047000038010020012003F01FBB0000AC
:10263000014840687047000038010020022003F084
:1026400015BB00F001B800002DE9F041002809D0C9
:10265000876837B10D4E716819B10468B4F5807F91
:1026600002DD0020BDE8F0813068844200DD0446D0
:10267000002507E057F82500FFF704FE716841F8D0
:1026800025006D1CA542F5DB7068EBE728010020F2
:102690000449054A0968497C52F8211009694968CA
:1026A00008470000B4000020CC00002010B500F066
:1026B0001F01074A074BC0F34514C0F3C4201B5D3C
:1026C000105C515C00EB032000EB014010BD0000EA
:1026D0002C9600084C96000810B57849784800F010
:1026E00065FC6420FEF71CFE7449754800F06AFC26
:1026F0003220FEF715FE112000F01EFA7820FEF7BA
:102700000FFEB12000F018FA052000F0FDF93C2082
:1027100000F0FAF93C2000F0F7F9B22000F00CFAD2
:10272000052000F0F1F93C2000F0EEF93C2000F02B
:10273000EBF9B32000F000FA052000F0E5F93C20A9
:1027400000F0E2F93C2000F0DFF9052000F0DCF9B0
:102750003C2000F0D9F93C2000F0D6F9B42000F07C
:10276000EBF9032000F0D0F9C02000F0E5F92820B3
:1027700000F0CAF9082000F0C7F9042000F0C4F9FD
:10278000C12000F0D9F9C02000F0BEF9C22000F04D
:10279000D3F90D2000F0B8F9002000F0B5F9C320FE
:1027A00000F0CAF98D2000F0AFF92A2000F0ACF952
:1027B000C42000F0C1F98D2000F0A6F9EE2000F051
:1027C000A3F9C52000F0B8F91A2000F09DF93620D1
:1027D00000F0B2F9C02000F097F9E02000F0ACF969
:1027E000042000F091F9222000F08EF9072000F07B
:1027F0008BF90A2000F088F92E2000F085F93020AE
:1028000000F082F9252000F07FF92A2000F07CF901
:10281000282000F079F9262000F076F92E2000F02B
:1028200073F93A2000F070F9002000F06DF90120F2
:1028300000F06AF9032000F067F9132000F064F952
:10284000E12000F079F9042000F05EF9162000F094
:102850005BF9062000F058F90D2000F055F92D2005
:1028600000F052F9262000F04FF9232000F04CF937
:10287000272000F049F9272000F046F9252000F034
:1028800043F92D2000F040F93B2000F03DF90020F5
:1028900000F03AF9012000F037F9042000F034F993
:1028A000132000F031F93A2000F046F9052000F03D
:1028B0002BF9292000F040F910BD00004000400431
:1028C000000C014010B50A4C606860B920688000B7
:1028D000FDF7E2FF606040B104F1080105480860BF
:1028E0000846FEF7D1FC002010BD012010BD0000FD
:1028F00028010020496000082DE9F047FFF76DFE30
:1029000007460024DFF860802AE02046FEF762F9DF
:1029100028B3D8F8000090F8119044742046FFF7CF
:102920004DFE082817DC1148114950F824000069B1
:10293000884210D02046FFF74DFE0646002508E0ED
:10294000E8B2FFF7A5FE0246E9B2204600F088F89B
:102950006D1CB542F4DBD8F8001081F81190641CAE
:10296000BC42D2DBBDE8F087B4000020CC000020E0
:102970001C99000810B50D4C0D492068407C51F899
:10298000200048B1C16811B10968042901D000686C
:10299000F7E708B1FEF704F920680021016600F1AD
:1029A00008014161BDE8104000F02EB8B4000020DD
:1029B000CC0000200149096849680847240100202B
:1029C000044909680A7C520701D5C96B00E0896B8C
:1029D00008607047B40000207CB5094C05462068AB
:1029E000417C084850F82100C1680A6B694690474D
:1029F00020686A4629460830FEF71DFC7CBD0000B1
:102A0000B4000020CC0000200448016804484A7C3F
:102A1000083150F82200C268126B1047B400002041
:102A2000CC000020014909680968084724010020FA
:102A3000044909680A7C520701D5896B00E0C96B1B
:102A400008607047B4000020014AC2E900017047E5
:102A500038010020014909688968084724010020DD
:102A6000F8B515460E460124FEF7B4F8009058B1AB
:102A7000C0681021426A68469047030004D02A4685
:102A800031460098984700242046F8BDF8B5154611
:102A90000E460124FEF79EF8009058B1C0680B2145
:102AA000426A68469047030004D02A46314600989F
:102AB000984700242046F8BDF8B515460E46012477
:102AC000FEF788F8009058B1C0680A21426A68464B
:102AD0009047030004D02A463146009898470024C6
:102AE0002046F8BD10B5074C2068006BFFF7CAFB05
:102AF000FFF79EFF2068406BFFF7C4FBBDE8104066
:102B0000FFF75EBFB400002010B50446084909482D
:102B100000F04CFA40F20221064800F053FA204639
:102B200000F024FC0249034800F04CFA10BD0000FC
:102B300010001004000C014010B504460849094873
:102B400000F034FA40F20221064800F02FFA204645
:102B500000F00CFC0249034800F034FA10BD0000FC
:102B600010001004000C014010B5A0B014211BA8E7
:102B7000FDF74BFB682101A8FDF747FB00231A4630
:102B800012491348FDF7A8FF0446A0228021002027
:102B9000FFF77CFFA02280210020FFF78DFF05209A
:102BA0001D901BA92046FDF77CFB0A4801900A48AE
:102BB00002900A4804900A4808900A4B0A4A01A960
:102BC0002046FDF78EFB20B010BD0000888E000867
:102BD000A08E00082F3000080930000815300008CA
:102BE000FD2F000881030008150300082DE9F041BE
:102BF00006460C461746012C04D1FFF76DFD002058
:102C0000BDE8F0814FF0FF3500BF00BF2846F7E771
:102C10002DE9FF4F8DB01746674ADDF870901E9E74
:102C2000209812681D4600248AB11D9B1F98CDE98B
:102C30000293CDE90460DDE91A03CDE900031468CD
:102C40002B463A460D98A04711B0BDE8F08F0D9A7B
:102C500001EB050802EB070CDDE91A231A43A8F182
:102C60000108ACF1010C012A06D0C9F108004FF0AF
:102C7000000B029105909CE0504A1268B2F90A409C
:102C8000631A002B06DDED1A002DDDDD21461D9CAB
:102C900003FB0466B2F90E30A8EB0303002B02DD40
:102CA000ED1A002DD0DDB2F90C30ACEB0303002B94
:102CB00000DDFF1A0D9B1C1AB2F90830A3420DDD8E
:102CC000A3EB040C0CEB0003181A20F007000444DB
:102CD000A7EB0C0706EBE30603F00700002FB3DDBC
:102CE000DDF874C01F9BCDE902C6CDE90403CDE930
:102CF0000059527C32483B4650F82200C268556861
:102D00000A462146A8479FE71B99029808440C9061
:102D10002A49401E00900A68B2F90A30834242DC18
:102D2000B2F90E10029881423DDB4FF0000A0D9877
:102D30000A96D046039034E0BAF1000F05D10A9804
:102D40004FF0080A10F8014B0A900599AAEB090AFE
:102D500034FA01F004FA09F4E4B204D1174909681D
:102D6000097C890717D415490968C96B0A680B9251
:102D70001F9A0AB152F82000086003991A98009B24
:102D80000A18DDE90210521EFFF7ECFB0B490B9805
:102D90000968C96B086003991A9808F1010808448A
:102DA0000390B845C8DB0C9802901D980BF1010BFD
:102DB0000644AB45A8DB47E7D4000020B400002060
:102DC000CC000020002818D0410817D0810817D067
:102DD000C10817D0010917D0410917D0010A17D02F
:102DE000410A17D0010B15D0C10B13D0010C11D023
:102DF000810C11D0000E11D02020704701207047A7
:102E00000220704703207047042070470520704758
:102E10000820704710207047122070471820704714
:102E200000B50022FFF7CEFF012804D0811E06293D
:102E300003D808220BE0012209E0A0F109010729CB
:102E400001D8102203E011380F2800D820221046A4
:102E500000BD000008B5054989690143034A916135
:102E6000114689690140009100BF08BD0010024071
:102E70002DE9F04102460B461868C0F30F2595FA7C
:102E8000A5F0B0FA80F47CE00120A04028400028A2
:102E900076D0082C04D240F2011000FA04F106E0CA
:102EA000A4F108004FF00116864046F08061586892
:102EB00002EB116691FAA1FCBCFA8CFC4FEA8C087B
:102EC0004FF00F0C0CFA08FC376827EA0C0791FA50
:102ED000A1FCBCFA8CFC4FEA8C0C00FA0CFC47EA13
:102EE0000C07376000BF1869D66826EA11260F0A5A
:102EF00097FAA7F7B7FA87F700FA07F73E43D660C5
:102F000000BF5868012802D05868092838D198684D
:102F100002EB116691FAA1FCBCFA8CFC4FEA8C081A
:102F20004FF0030C0CFA08FC376827EA0C0791FAFB
:102F3000A1FCBCFA8CFC4FEA8C0C00FA0CFC47EAB2
:102F40000C07376000BFD86802EB116691FAA1FC4C
:102F5000BCFA8CFC4FEA8C084FF0040C0CFA08FC0D
:102F6000376827EA0C0791FAA1FCBCFA8CFC4FEAFF
:102F70008C0C00FA0CFC47EA0C07376000BF00BF5E
:102F8000641C25FA04F000287FF47EAF0120BDE820
:102F9000F08102469068C1F30F231840C1F30F235C
:102FA000984201D1012070470020FCE7C1F30F22B5
:102FB00042617047C1F30F2242617047C1F30F2293
:102FC00042617047C1F30F2202617047C1F30F22C3
:102FD000026170474FF47A71B0FBF1F2521E4FF06C
:102FE000E0235A6100229A6105221A6100BF7047EE
:102FF00001490860704700003000002000BF0A1E31
:10300000A1F10101FBD1704710B504462046FFF73E
:103010007BFD10BD70B504460D4603E014F8010BAE
:10302000FFF772FD281EA5F10105F7D170BD10B59F
:1030300004462046FFF780FD10BD000008B5402083
:10304000054949690143044A5161114649690140F2
:10305000009100BF00BF08BD0010024000B59DB048
:103060001422294918A8FDF7A9F8002118A804F08E
:10307000FFF82649086014222349143113A8FDF7EC
:103080009DF8002113A804F0F3F8214908601422E8
:103090001D4928310EA8FDF791F800210EA804F073
:1030A000E7F81C490860142217493C3109A8FDF7CC
:1030B00085F8002109A804F0DBF8174908601422FC
:1030C0001149503104A8FDF779F8002104A804F053
:1030D000CFF8124908600C49643103C9CDE90201F7
:1030E000002102A804F011F80D49086006496C316E
:1030F00003C9CDE900010021684604F006F809493A
:1031000008601DB000BD0000F48D0008080000201C
:103110000C000020100000201400002018000020E7
:103120001C0000202000002000B585B01421684656
:10313000FDF76BF82020FFF78DFE0420FFF78AFED5
:103140000820FFF787FE19491948FFF733FF19498F
:103150001948FFF72FFF1948C0F30F21144A1161D6
:1031600000BF174800900820019000200490694695
:103170001148FFF77DFE13480090012001900320C5
:1031800002900020039069460948FFF771FE094844
:1031900000900120019002200290002003906946D7
:1031A0000548FFF765FE05B000BD0000F202F0041F
:1031B000000C01408000800400080140C3C00304EB
:1031C00079601904F3C2F30410B50B480B49086089
:1031D0000B484860002109488160C1604FF480417C
:1031E0000161002141618161C1610162FEF740FA24
:1031F00008B1FDF755F810BD00580040C41100207B
:10320000801A060010B50F480F4908604FF482700D
:10321000486000210C488160C160022101610121E8
:103220004161490281613821C1610021016241622D
:1032300081620A21C162FEF751FC08B1FDF730F846
:1032400010BD0000003001401812002000B58DB004
:10325000002009900A900B900C90079008901C2178
:103260006846FCF7D2FF20482049086047204860A4
:1032700000211E4881600B21C16000210161816134
:10328000FEF7F1FC08B1FDF70BF84FF48050099000
:1032900009A91648FEF729FD08B1FDF701F8134802
:1032A000FEF739FF08B1FCF7FBFF002007900890FC
:1032B00007A90E48FEF7A6FC08B1FCF7F1FF602055
:1032C00000900B2001900020029004900422694697
:1032D0000648FEF79CFE08B1FCF7E2FF0348FEF744
:1032E00069FE0DB000BD0000000400407012002017
:1032F00010B50B480B4908604FF4E13048600021DD
:1033000008488160C16001610C2141610021816137
:10331000C161FEF72AFF08B1FCF7C2FF10BD000033
:1033200000380140B012002000BFFEE770470000E7
:1033300002480068C0F30220704700000CED00E076
:1033400010B5002807DA0A07140E054A00F00F032B
:103350001B1FD45403E00A07130E024A135410BD76
:1033600018ED00E000E400E07047704770B50446D7
:103370000025082517E004F0800020B10B490C4817
:10338000FFF720FE03E009490948FFF70FFE09494E
:103390000748FFF70BFE07490548FFF713FE6006D5
:1033A000040E681EC5B2002DE5DC70BD80008004EF
:1033B000000C01402000200410B504465349544835
:1033C000FFF7E7FD207044F240015148FFF7E1FDAF
:1033D000607042F220014E48FFF7DBFDA0704D49BE
:1033E0004B48FFF7D6FDE0704B494948FFF7D1FD48
:1033F00060710A2003F078FE2078012808D1434943
:103400004348FFF7C6FD2178884201D10120207092
:103410006078012809D144F240013D48FFF7B9FD29
:103420006178884201D101206070A078012809D11B
:1034300042F220013648FFF7ACFDA178884201D165
:103440000120A070E078012808D132493048FFF708
:10345000A0FDE178884201D10120E0706079012867
:1034600008D12D492A48FFF794FD6179884201D19E
:10347000012060712078012814D06078012811D0D3
:10348000A07801280ED0E07801280BD060790128BF
:1034900008D00020A07220706070E070A070607191
:1034A000207102E0A07A401CA0726079012826D128
:1034B0002078012805D10020207060710120A071C2
:1034C00023E06078012805D1002060706071012040
:1034D000E0711AE0A078012805D10020A070607189
:1034E0000120207211E0E078012805D10020E07071
:1034F00060710120607208E00120607105E0002029
:103500006071E0712072A071607210BD1000100433
:1035100000080140080008040100010400BF012068
:1035200003F0E2FDFBE7000000BF44F24001234846
:10353000FFF744FD642003F0D7FD44F240011F482B
:10354000FFF744FD48F280011C48FFF737FD642077
:1035500003F0CAFD48F280011848FFF737FD18490B
:103560001648FFF72BFD642003F0BEFD14491348F5
:10357000FFF72CFD13491148FFF720FD642003F0ED
:10358000B3FD10490D48FFF721FD0D490B48FFF72A
:1035900015FD642003F0A8FD09490848FFF716FD52
:1035A00048F280010548FFF709FD642003F09CFD07
:1035B00048F280010148FFF709FDB6E7000C014021
:1035C0000100010402000204FDF742FB0020FDF7A8
:1035D000A7FC4FF47F40FDF7AEFCFDF713FA00BFE8
:1035E000012003F081FDFBE70EB56846FEF73CFEC7
:1035F00000BF6846FFF7E0FE9DF80A0050282FDD67
:103600009DF8050018B102208DF8050028E09DF80E
:10361000000018B102208DF8000021E09DF80100A3
:1036200018B102208DF801001AE09DF8030018B1CE
:1036300002208DF8030013E09DF8020018B102206B
:103640008DF802000CE09DF8040048B102208DF8CE
:1036500004009DF804100A220648006803F05EFD8D
:10366000002269460448006803F058FD0A2003F070
:103670003BFDBEE7200000201C00002000BF012011
:1036800003F032FDFBE7000010B500BF502080F3CF
:103690001188BFF34F8FBFF36F8F00BF05F0CEF9D6
:1036A00018B14FF080500449086000BF002080F33B
:1036B000118800BF10BD000004ED00E010B502202D
:1036C0004149096821F0070101433F4A116000BFE9
:1036D00000BF1046006800F00700022801D0FCF788
:1036E000DFFD00BF3948006840F48030374908608A
:1036F00000BF00BF00BF35480068C0F3404000284D
:10370000F8D04FF480300101304A526822F47C1224
:1037100000F440330B431A432C4B5A6000BF00BFE8
:103720001846006840F080701946086000BF00BF6E
:1037300000BF26480068C0F340600028F8D0002091
:103740002249496821F0F0010143204A516000BF3D
:1037500010151146496821F4E0610143516000BF32
:1037600000201146496821F460510143516000BFB7
:1037700002201146496821F003010143516000BF56
:1037800000BF00BF1148406800F00C000828F8D1C5
:103790000F48FFF71FFC0420042808D14FF0E02158
:1037A000096941F004014FF0E022116107E04FF098
:1037B000E021096921F004014FF0E022116100BF0E
:1037C0000348FFF715FC10BD002002400010024026
:1037D00000A24A041148006840F001000F49086047
:1037E000084640680E4908400C4948600846006891
:1037F0000C490840094908600846006820F4802008
:1038000008600846406820F4FE0048604FF41F003E
:103810008860C80304490860704700000010024037
:103820000000FFF8FFFFF6FE08ED00E010B50248CB
:10383000FEF7F5FA10BD0000F01200200022026829
:10384000184B984208D0B0F1804F05D0164B9842E3
:1038500002D0164B984203D122F070024B681A43F3
:10386000104B984208D0B0F1804F05D00E4B9842D3
:1038700002D00E4B984203D122F44072CB681A4317
:1038800022F080024B691A4302608B68C3620B68A6
:103890008362044B984201D10B69036301234361A6
:1038A00070470000002C0140000400400008004068
:1038B00030B50C460021816821F47F4142EA03259E
:1038C00025432943816030BD0A460021816821F0EB
:1038D000700142F0070319438160704730B500243E
:1038E00000220023056A25F001050562026A43688B
:1038F000846924F0700424F003040D682C4322F042
:1039000002028D682A430D4DA84206D100BF22F065
:103910000802CD682A4322F00402084DA84207D1CC
:1039200023F4807323F400734D692B438D692B437B
:10393000436084614D684563026230BD002C0140E4
:1039400030B5002400220023056A25F01005056229
:10395000026A4368846924F4E04424F440740D68E6
:1039600044EA052422F020028D6842EA05120F4D38
:10397000A84207D100BF22F08002CD6842EA0512BA
:1039800022F04002094DA84209D123F4806323F4B8
:1039900000634D6943EA85038D6943EA850343600B
:1039A00084614D688563026230BD0000002C0140D7
:1039B00030B5002400220023056A25F480750562D5
:1039C000026A4368C46924F0700424F003040D689B
:1039D0002C4322F400728D6842EA05220E4DA84263
:1039E00007D100BF22F40062CD6842EA052222F42A
:1039F0008062094DA84209D123F4805323F4005377
:103A00004D6943EA05138D6943EA05134360C461B8
:103A10004D68C563026230BD002C014030B5002204
:103A200000230024056A25F480550562036A446872
:103A3000C26922F4E04222F440720D6842EA052293
:103A400023F400538D6843EA0533074DA84204D19F
:103A500024F480444D6944EA85144460C2614D6891
:103A60000564036230BD0000002C014030B50B46F8
:103A7000144600210022026A056A25F0010505624C
:103A8000816921F0F00141EA041122F00A021A438F
:103A90008161026230BD30B50B4614460021002220
:103AA000056A25F0100505628169026A21F47041FA
:103AB00041EA043122F0A00242EA0312816102626B
:103AC00030BD00002DE9F041044600252068006962
:103AD00020F44050E1680843216808612169A0682A
:103AE00008436169084305432068C06841F20C61DE
:103AF000884328432168C8602068406920F44070EA
:103B0000A1690843216848615F49206888425CD107
:103B1000FDF7D4FF00EBC00101EB001061688900E4
:103B2000B0FBF1F6FDF7CAFF00EBC00101EB00109E
:103B300061688900B0FBF1F06421B0FBF1F000EBAB
:103B4000C00101EB0010A6EB8000322101EB001058
:103B50006421B0FBF1F000F0F006FDF7AFFF00EBE1
:103B6000C00101EB001061688900B0FBF1F0642135
:103B7000B0FBF1F006EB0016FDF7A0FF00EBC00173
:103B800001EB001061688900B0FBF1F7FDF796FFCB
:103B900000EBC00101EB001061688900B0FBF1F09F
:103BA0006421B0FBF1F000EBC00101EB0010A7EBCA
:103BB0008000322101EB00106421B0FBF1F000F035
:103BC0000F003044216888605BE0FDF767FF00EB81
:103BD000C00101EB001061688900B0FBF1F6FDF750
:103BE0005DFF00EBC00101EB001061688900B0FBD4
:103BF000F1F06421B0FBF1F000EBC00101EB00102B
:103C0000A6EB8000322101EB00106421B0FBF1F043
:103C100000F0F006FDF742FF00EBC00101EB0010E1
:103C200061688900B0FBF1F06421B0FBF1F006EBB4
:103C30000016FDF733FF00EBC00101EB00106168D7
:103C40008900B0FBF1F7FDF729FF00EBC00101EBA4
:103C5000001061688900B0FBF1F06421B0FBF1F065
:103C600000EBC00101EB0010A7EB8000322101EB5B
:103C700000106421B0FBF1F000F00F003044216827
:103C80008860BDE8F08100000038014000BFFEE719
:103C900002490120096881F854007047B4000020EF
:103CA0002DE9F0418AB00446FDF714F8BCB3204674
:103CB000FCF74AFE0190D0E90012CDE90412876AB0
:103CC000056A01A8FCF75CFE204600F0D1FA060068
:103CD00025D0204600F00DF98046B80704D52A46C5
:103CE000414604A800F015FC2046FCF72DFE01908B
:103CF0004046FCF729FE06903046FCF725FE03906F
:103D000005620698019AC1691162C46101A8FCF7B5
:103D100037FE06A8FCF734FE03A8FCF731FEFDF7DA
:103D200075F90AB0BDE8F0812DE9FC5F9846DDE940
:103D30000C5491460E460746DDF83CB0FCF7CAFF2E
:103D4000DFF828A1DAF8180004434DB9BAF80200E8
:103D500048B347480AF144010068407C51F82050BC
:103D6000681C0ED0FDB12846FCF7EEFD0190B0F9BD
:103D70000010B0F902200F441644B9F1000F02D030
:103D800006E000250FE0B0F90430591A01F10109ED
:103D9000B8F1000F04D1B0F90600801A00F1010853
:103DA00001A8FCF7EDFD0BF12C00FCF72CFD5FEA00
:103DB000000B56D0BAF80200401CAAF80200584680
:103DC000FCF7C2FD0090078007EB09014680491E01
:103DD000818006EB0801491EC1800E990161254AC8
:103DE000816A2240114381626846FCF7C9FDDAF816
:103DF00010005E4650B1FCF7DBFD07463046FCF78D
:103E0000D7FD0146786948617E6101E0CAF810B0CB
:103E10002946584600F0C2FAA00602D5584600F0DE
:103E200051F9E00704D0DAF82410491CCAF824102C
:103E3000600602D55846FFF733FFA0070DD5584658
:103E4000FCF782FD0090816A41F0020181626846C0
:103E5000FCF796FD584600F003F90121584600F0A2
:103E600093FBFDF7D3F85846BDE8FC9F40010020C6
:103E7000B40000209F3F3F0010B50446C168D4E95C
:103E80000020172A0DD004DC0E2A0CD0142A07D1EA
:103E900004E0222A0CD0282A02D10CE000F0A3F979
:103EA0000020E06010BD2146BDE8104000F02CB9B4
:103EB0006FF07040F5E7BDE8104000F0D1B80000A9
:103EC000034804490068407C51F820007047000016
:103ED000B40000208401002010B5040007D0FCF7D6
:103EE000F9FE2046FCF764FDC469FDF78FF8204613
:103EF00010BD10B5040007D0FCF7ECFE2046FCF71F
:103F000057FD8469FDF782F8204610BD2DE9FF5F5B
:103F10002C4D6878002853D100272B482F616F6300
:103F20000068DFF8A8903C464764AF806F804FF090
:103F3000020A4FF0FF3B43F6FF7805F144062046A6
:103F4000FCF748FE98B1CDE90297CDE900BA00210F
:103F5000424643460846FFF7E7FE1A4A46F8240061
:103F60004C326FF0704142F8241000F079F8641C74
:103F7000022CE4DB164FDFF85C80DFF85C90002455
:103F800007EBC40000F0F8F808EBC40000F0F4F808
:103F900009EBC40000F0F0F8641C022CF0DB306880
:103FA00000F090F8FFF774FE0120064968703C317C
:103FB0000A48086004B00846BDE8F05FFDF764B940
:103FC000BDE8FF9F40010020B4000020896F000879
:103FD000402A0020502A0020602A00205D6000084E
:103FE00070B586B00D46060031D0FCF773FE304642
:103FF000FCF7AAFC0090846AA10723D5D0E9001041
:10400000CDE90110E00302D5304600F01DFA5DB1A4
:10401000286803906868049003A9009800F0B4F839
:1040200003A901A8FDF7EAF8314601A800F0B4F8A9
:1040300040B140F601000440012C0AD001A93046ED
:1040400000F0FEF96846FCF79BFCFCF7DFFF06B0CA
:1040500070BD0098026A816901A800F05AFAF1E780
:104060000021FFF7BDBFFEB515460E4604001CD06B
:10407000FCF76AFC0246009090F82800800711D5F2
:10408000314601A8FDF7D7F860B16846FCF778FC27
:104090002A4601A9204601F02DFF2046FFF71CFF0C
:1040A00004460CE06846FCF76BFCFEBD2A4601A9FD
:1040B0002046FFF7D8FF2046FCF77AFC046A002C64
:1040C000F4D1FEBD70B50446FCF704FE0C4D286823
:1040D000866C0CB90B490C698464204600F02CFAFC
:1040E000FEF792FC2046FCF763FC2968B0F900203B
:1040F000CA64B0F902000865FCF788FF304670BD5D
:10410000B40000204001002070B50C0005460DD021
:10411000FCF7E0FD2846FFF7ECFE18B12146A5604C
:1041200000F014FABDE87040FCF770BF70BD0000ED
:104130000EB50E48006890F8541009B10C4811E013
:10414000806CFCF701FC0090D0E90010CDE9011073
:104150006846FCF715FC0748816A11B101A800F018
:104160001BF801A802F0F2F80EBD0000B400002018
:10417000C02900204001002002490A68026008604E
:1041800070470000540100200B46B0F90220B0F93E
:1041900000101846FCF770BE38B50C4605462046A0
:1041A000FCF7D2FB0146009090F82800800703D46A
:1041B0006846FCF7E5FB12E02846FDF71FF800987B
:1041C000806920B104466846FCF7DAFBE7E76846F9
:1041D000FCF7D6FB204600F03FFB002801DA002068
:1041E00038BD012038BD38B50C4600280AD0002C57
:1041F00008D0FCF7A9FB2146009000F004F86846BF
:10420000FCF7BEFB38BD00224A800A808288038802
:10421000D21A8A80C2884088101AC880704710B5A8
:10422000FFF767FE002802D0FCF7C2FBC06910BD93
:104230000D4810B5006890F85400002806D00B4CCB
:104240006069012803DD401E6061002010BD206907
:10425000401C206101F076FA18B1FFF769FF0120D8
:1042600010BD6069EFE70000B4000020B82900200D
:1042700070B50546FFF7D3FF08E0AC4201D100243A
:1042800006E0FCF795FB006AA84201D00400F4D1D7
:10429000204670BD10B50446FCF78AFB80690028F3
:1042A000F9D12046BDE8104000F0D6BAF0B5384E3E
:1042B000074687B0306890F8541041B1354C6169B9
:1042C000491C6161012905DD012007B0F0BDFFF740
:1042D0002FFFF9E7806CFCF737FB2F4D4FF0FF31D4
:1042E00000902161297821B181680291C068039012
:1042F00007E090F8281089073CD5D0E90010CDE9F7
:1043000002101FB1394602A8FCF778FF3068406CF4
:1043100078B3009804903068406C0168059140685B
:104320000690A86A30B104A8FCF72AFBA86AFCF73B
:104330000BFB049005A90498FFF726FF05A902A826
:10434000FCF75CFF0DF11000FCF71AFBA96A19B12C
:1043500002A8FFF721FFB0B13068816C02A8FFF717
:104360001BFF80B1DDE90201C4E90001FFF760FF36
:10437000ABE706E06069401E60616846FCF700FB41
:1043800004E06846E0E76069401E606100209CE749
:10439000B4000020B829002040010020FEB50D0027
:1043A000044647D0FCF7D0FA0090002185610162F5
:1043B0002846FCF7C9FA00990290C56991F82810BF
:1043C00001F008062DB12846FCF7BEFA019036B17F
:1043D00015E0C4616846FCF7D3FA02A828E090F81B
:1043E000280000070BD5009805620298C461684652
:1043F000FCF7C6FA02A8FCF7C3FA01A818E002A865
:10440000FCF7BEFA01A8FCF7BBFA2846FCF7D0FA85
:1044100011E004620BE02846FCF7CAFA5EB990F896
:104420002810090707D501980462009805626846BC
:10443000FCF7A6FAFEBD0190056A002DEBD1E8E776
:10444000202201F057BD000038B5040022D0FCF74F
:104450007BFA009090F82810890718D5406A40B17F
:104460000D49C96AA14204D0FCF76AFC00990020FA
:1044700048622046FFF730FD044606E02046FFF77D
:10448000E3FF2046FCF794FA046A002CF6D1684654
:10449000FCF776FA38BD0000400100202DE9FF410D
:1044A0009846164607460D0031D00846FCF74CFAF0
:1044B0000090846A0246A00726D5394601A8FCF779
:1044C000BAFE08B340F601000440012C07D0424672
:1044D00001A9284601F00EFD0098C46912E0009879
:1044E0004346026A816901A8FFF7D8FFF4E7B442A6
:1044F0000AD0424601A92046FFF7B5FD2046FCF749
:1045000057FA046A002CF2D16846FCF739FABDE884
:10451000FF812023FFF7C2BFB0F90010B0F90420DB
:10452000914205DCB0F90210B0F90600814201DDCC
:10453000002070470120704710B5FFF7ABFE002840
:1045400003DBBDE81040FCF7CFBC10BD70B50D4CCF
:1045500006460D46206814280DDA3046FCF728FA86
:1045600001696E6041B12068401C20602846884780
:104570002068401E206070BD2846BDE87040FFF7EF
:104580007BBC0000C00100201FB5CDE900106946CA
:10459000FFF7DCFF1FBD00002DE9F041214D0C4667
:1045A0000646E968A86B0844A119401E814206D856
:1045B0000846096819B941680E4401F04DFEA86B20
:1045C000A0420AD254F8040C271A386828B978682F
:1045D0000644384601F040FE3C46304601F056FBAA
:1045E00010281CD205EBC0073246002120467B6C08
:1045F00002F00EF957F8440F083400B1446020600F
:10460000002060603C6028683044286095F82910DC
:1046100029B9E968081AA968814200D2A860304621
:10462000BDE8F0817C2800202DE9F041054601F02D
:104630000DFC2A48046CAC4202D8ED1C25F00304A2
:10464000804600680C34A04202D20020BDE8F08110
:1046500001F01EFD071EF9D0204601F017FB414670
:1046600030E000BF01EBC002526C52B3956845B315
:104670006B68A34206D2AA681AB395680DB36B683B
:10468000A342F8D3D8F84000191B0C301E468142D3
:1046900000D23446284601F0DFFD0421D8F834006A
:1046A00001EBC7010023455022463946284602F057
:1046B000AFF8A64203DD2919301BFFF76DFF38461E
:1046C000C4E7401C1028CDD3204601F0DFFD0028B0
:1046D000C2D0384601F0FCFCB7E700007C2800207F
:1046E00001207047F0B40E4C246814B1A446F0BC0D
:1046F00060470C4DDFF830C010C8521EE6B2AF5D07
:10470000C4F30726C4F307441CF806602C5D04EBD1
:10471000461404EBC7240C801944EDD1F0BC70475B
:10472000DC0000208C9600088C9700082DE9F047EB
:104730008146FDF747FF4FF0000807466FF07F44C2
:104740004546FDF757FF060018D000BF56F8251064
:10475000494502D12846BDE8F0876D1CBD42F5DB16
:104760005FF00005484656F82510FCF72DF9A042E9
:1047700001D20446A8466D1CBD42F3DB4046EAE781
:1047800010B5C1B2064A074BC0F30724C0F3074077
:104790001B5D105C515C00EB431000EBC12010BDB1
:1047A0008C9600088C9700082DE9F05F9A46DDE9A9
:1047B0000A8791460C4605468B46164635F8020B8D
:1047C00041468847B84701C4761EF7D15046BAF132
:1047D000200F06D2024649465846BDE8F05FFCF776
:1047E0005FBCBDE8F09F2DE9F05F9A46DDE90A87DE
:1047F00091460C4605468B46164615F8010B414678
:104800008847B84701C4761EF7D15046BAF1200F49
:1048100006D2024649465846BDE8F05FFCF740BC68
:10482000BDE8F09F41884FF4FC63C1F3C4020078F7
:1048300003EA51110A4300F0F80042EA00207047F1
:1048400081784278C9089208007841EA4211C0088C
:1048500041EAC020704700000146064A002000BF20
:1048600052F820308B4204D0401C0228F8DB4FF075
:10487000FF307047840100202DE9FF4F85B083464B
:10488000DDE91370129DD0E900A0DBF808900390D9
:1048900047484C191E4600684FF08008007C10F015
:1048A000030006D0012865D0022818D0032813D1B0
:1048B00060E0307828FA05F1084201D0039800E062
:1048C000504681B2484602F0EDFA6D1C082D01D128
:1048D0000025761C7F1EECD109B0BDE8F08F4FF0AB
:1048E000000ACDF808A0D9F86CB00194317828FA04
:1048F00005F0014202980BD020B90120CDE901401A
:10490000D9F86CB003982BF8020B0AF1010013E000
:10491000012812D1631E0020029007980090D9F858
:10492000A8C04846079A0199E04748465246D9F838
:104930006C1001F03FFF00208246641C6D1C082DA6
:1049400001D10025761C7F1ED0D1BAF1000FC3D053
:104950000798631E0090D9F8A8404846079A019925
:10496000A047D9F86C1009B048465246BDE8F04F50
:1049700001F020BF317828FA05F001420ED0D9F8B5
:10498000EC3021465846079A9847D9F82830D9F88C
:10499000F0C0434021465846079AE047641C6D1C0E
:1049A000082D01D10025761C7F1EE3D194E700007D
:1049B000B40000202DE9FF5F9046DDE90E924D4BDB
:1049C00099F80050C2F108048A465D5DDDE9107176
:1049D000D540494A139E1268127C12F0030226D079
:1049E000012A03D0022A37D0032A72D100698068D5
:1049F00080471FFA80FBBC4200D93C463F1BBAF1FE
:104A0000000F68D0E8070AD0DAF808004146039A98
:104A1000036850469847318881EA0B0131806D0860
:104A200008F10108641E06F10206EBD15EE0314A8E
:104A3000BC4200D93C463F1B05F001006D0831F82F
:104A4000200026F8020B641EF6D1002F50D019F872
:104A5000010F0824155CEBE788881FFA80FBBC4235
:104A600000D93C463F1BBAF1000F17D095B1E807BB
:104A700008D0DAF808004146039A03685046984780
:104A8000A6F800B008F10108641E06F1020612D073
:104A90006D08EBE706EB4406A0440CE04DB1E807D7
:104AA00001D0A6F800B0641E06F1020603D06D081E
:104AB000F4E706EB4406002F1AD019F8011F0D4841
:104AC0000824455CCBE719F8011F0A480824455C17
:104AD00091E70DE0FFE7E80703D0308880EA0B009C
:104AE00030806D08641E06F10206F4D1002FEAD171
:104AF000BDE8FF9F34990008B40000202DE9FF4F66
:104B000085B0D0F80890DDE9125714989B4600282C
:104B100039D041489BF800604C1900684FF0C0083C
:104B2000007C10F0030016D002282CD14FF0000AB0
:104B3000CDF80CA0D9F86C00CDE90140C5F1030017
:104B40004100C1F1060228FA02F03040C8402ED0E0
:104B50000399D9B120E0C5F103004100C1F106027B
:104B600028FA02F03040C840149931F8200081B290
:104B7000484602F097F96D1C042D02D11BF8016F15
:104B800000257F1EE7D109B0BDE8F08F0121019417
:104B90000391D9F86C100291149931F82000029910
:104BA00008800298801C02900AF1010014E003982A
:104BB000012812D1631E0020039007980090D9F8B5
:104BC000A8C04846079A0199E04748465246D9F896
:104BD0006C1001F0EFFD00208246641C6D1C042D5A
:104BE00002D11BF8016F00257F1EA7D1BAF1000F7B
:104BF000C9D00798631E0090D9F8A8404846079A84
:104C00000199A047D9F86C1009B048465246BDE852
:104C1000F04F01F0CFBD0000B40000202DE9FF5F90
:104C20008B460FA9DDF8388091E82104C0F104011A
:104C3000CCB298F80010400081402F48129F914656
:104C40000068CEB2007C10F0030004D001283AD0F6
:104C500002284FD114E0AC4200DDECB22D1BB109AB
:104C60003AF8210027F8020BB006060E641E14F075
:104C7000FF04F4D1002D3DD0042418F8016FEAE7B9
:104C8000AC4200DDECB22D1BB0090DD0B109BBF177
:104C9000000F3AF82100388006D0DBF808004946BA
:104CA000039A036858469847B006060E641EBF1C58
:104CB00009F1010914F0FF04E6D1002D1AD00424F3
:104CC00018F8016FDCE7AC4200DDECB22D1BB00937
:104CD00003D0388880F0FF003880B006060E641ECE
:104CE000BF1C14F0FF04F2D1002D03D0042418F8E7
:104CF000016FE8E7BDE8FF9FB40000202DE9FF4FFA
:104D000085B0D0F80890DDE9125714989B4600282A
:104D100039D041489BF800604C1900684FF0F0080A
:104D2000007C10F0030016D002282CD14FF0000AAE
:104D3000CDF80CA0D9F86C00CDE90140C5F1010017
:104D40008100C1F1040228FA02F03040C8402ED0A0
:104D50000399D9B120E0C5F101008100C1F104023D
:104D600028FA02F03040C840149931F8200081B28E
:104D7000484602F097F86D1C022D02D11BF8016F16
:104D800000257F1EE7D109B0BDE8F08F0121019415
:104D90000391D9F86C100291149931F8200002990E
:104DA00008800298801C02900AF1010014E0039828
:104DB000012812D1631E0020039007980090D9F8B3
:104DC000A8C04846079A0199E04748465246D9F894
:104DD0006C1001F0EFFC00208246641C6D1C022D5B
:104DE00002D11BF8016F00257F1EA7D1BAF1000F79
:104DF000C9D00798631E0090D9F8A8404846079A82
:104E00000199A047D9F86C1009B048465246BDE850
:104E1000F04F01F0CFBC0000B40000202DE9F05F9E
:104E200092460BAA894692E842010A9F9B468B0054
:104E30003A78C1F102009A40D5B24F4A0E9CC0B2F6
:104E40001268127C12F003021BD0012A7CD0022AC5
:104E50003AD1D9B328090DD02909B9F1000F38F892
:104E60002100208006D0D9F808005A465146036830
:104E700048469847A41C0AF1010A17F8015F761EFC
:104E80004CE039B12909761E38F8210024F8020BCC
:104E900017F8015F022E11DB701006F001062A09D7
:104EA000401E38F8221005F00F0224F8021B38F8D3
:104EB000221024F8021B17F8015FF0D1002E03D056
:104EC000290938F821002080BDE8F09F26E0280954
:104ED0000DD02909B9F1000F38F82100208006D043
:104EE000D9F808005A46514603684846984715F0D5
:104EF0000F000DD038F820006080B9F1000F07D006
:104F0000D9F808005A460AF1010103684846984753
:104F100017F8015F241D0AF1020AB61E022ED6DA26
:104F2000002ED1D02809CFD038F820002080B9F148
:104F3000000FC9D0D9F808005A46514603684846C0
:104F4000BDE8F05F1847FFE7B04200DDF0B2361A67
:104F5000A90903D0218881F0FF01218029070D0EC6
:104F6000401EA41C10F0FF00F2D1002EACD0022095
:104F700017F8015FE8E70000B40000202DE9FF4FBB
:104F800083B08568DDE9107B1E460C465FEA0B00A6
:104F900020D02E480068007C10F0030018D00228B2
:104FA00018D14FF00008D5F86C90C246CDF80440F7
:104FB00016F8010BE8B1BAF1000F0ED012E030780C
:104FC0003BF8200081B2284601F06CFF761C7F1E62
:104FD000002FF4DC07B0BDE8F08F0194D5F86C9099
:104FE0004FF0010A3BF8200029F8020B08F10100FC
:104FF00013E0BAF1010F11D1059800900246D5F8DF
:10500000A8C0631E4FF0000A28460199E0474246B7
:105010002846E96E01F0CEFB00208046641C7F1E0E
:10502000C6D1B8F1000FD5D00598631E0090024696
:10503000D5F8A84028460199A047E96E07B0424636
:105040002846BDE8F04F01F0B5BB0000B4000020D9
:105050002DE9F04387B089460EA991E8F0118168E7
:105060008DE8F011D1F8E4404946A04707B0BDE80B
:10507000F08300002DE9FF4F83B099460398DDE9E6
:105080001075DDE9136BD0F808809246012D05D02C
:10509000022D03D0042D01D0082D06D1314800681F
:1050A000007C00F0030002280ED00AEB0700401E2F
:1050B00000900498D8F8A84000EB0B0101EB09031D
:1050C000404652465B1EA047002446E0042D24D0F3
:1050D00004DC012D07D0022D3CD111E0082D29D090
:1050E000102D37D131E01598CDF800B0CDE9019001
:1050F000DDE9030104EB0A023346FFF7BDFB29E0BB
:105100001598CDF800B0CDE90190DDE9030104EB7D
:105110000A023346FFF7F2FC1CE01598CDF800B008
:10512000CDE90190DDE9030104EB0A023346FFF704
:10513000E5FD0FE0159804EB0A02CDE90090DDE9EA
:1051400003013346FFF71AFF04E04A463146404662
:1051500001F030FB1298641C0644BC42B6DB07B079
:10516000BDE8F08FB40000202DE9FF4F8FB0A448B8
:10517000DDE91F860068DDE91C970C46006EFBF731
:10518000E3FB0790406908B1FBF7DEFB0A90079844
:10519000C0680C9007A8FBF7F3FBA01910900A98C1
:1051A00058B197490968097C890706D110ACCDF838
:1051B000009094E80E00FBF7FFFEDDE9100101F01E
:1051C00079FE0446102F03D0182F5DDB002057E036
:1051D00000251EE0DDE910B02844DDF828A001908C
:1051E000129E5FEA080120460ED068B17200FAF7FD
:1051F000E5FFBAF1000F07D0DAF808003346594648
:1052000047685046019AB8471E990C988844044450
:105210006D1C4D45DEDBEAE00A980390DDE910B134
:105220000698DDF848A0084401905FEA0805264684
:1052300020D0FEB1039830B1806853465946476884
:10524000019A0398B8470F9928680969096888473F
:105250003080039828B180685946019A0368039802
:1052600098472D1DAAF10100B61C0BF1010B5FEA56
:10527000000AE8D10C981E99044406988844401C02
:1052800006904845C8DBB2E0082F02D02198C0B391
:1052900065E000205DE02198129F00280A980290A6
:1052A000DDE910A05844454600902BD02198049089
:1052B000534826460068007C10F0030002D0022804
:1052C00041D109E015F8011B04987F1E30F8210038
:1052D00026F8020BF6D136E0287858B1049931F857
:1052E00020003080029828B180685146009A0368F7
:1052F000029898476D1CB61C0AF1010A7F1EEBD17B
:1053000021E02AE03E4826460068007C10F00300B9
:1053100002D0022817D105E03A4641462046FAF766
:105320004DFF10E0287840B13080029828B18068A5
:105330005146009A0368029898476D1CB61C0AF102
:10534000010A7F1EEED10C981E99044488440BF18B
:105350000100834648459EDB49E02A48219000250C
:1053600043E03846012F04D002281CD0042F37D147
:1053700028E023480068006EFBF7E6FACDF80080CD
:105380000790219A12990594CDE90320CDE9016196
:1053900011980A992B18DDE90F02FFF70BFB07A8FC
:1053A000FBF7EEFA1CE021981299CDE90210CDE945
:1053B0000086119804942B18DDE90F020A99FFF773
:1053C0002DFC0DE021981299CDE90210CDE900865F
:1053D000119804942B18DDE90F020A99FFF71EFDBE
:1053E0001E986D1C80440C9804444D45B9DB0A9806
:1053F000002802D00AA8FBF7C3FA13B0BDE8F08F6B
:10540000B4000020A898000838B584680092D4F849
:10541000E840A04738BD08B5009200F03DF908BD4E
:1054200038B5846800930B46D4F8E840A04738BDEF
:105430002DE9FC47DFF8AC8081461E46D8F8000015
:1054400015468A46006EFBF77FFA0190406908B165
:10545000FBF77AFA00902946504601F02BFD0446EE
:105460000198C768D8F80000017CC90715D0D9F8A1
:1054700010008068804787B2009820B181682A4672
:105480000B685146984720886D1C78402080019811
:10549000B542C0680444EFDD19E0C06B01680098B4
:1054A00070B11FFA81F800982A4681680B6851464E
:1054B0009847A4F800806D1C3C44B542F3DD06E03B
:1054C000701B89B2401C21803C44401EFBD101A8C6
:1054D000FBF756FA0098002802D06846FBF750FA0E
:1054E000BDE8FC87B4000020017001207047000077
:1054F0002DE9F047234C0427E06AD8B1206907EB77
:10550000D0014518E800FFF78FF8060037D0616B2F
:1055100007EBC600B9460F5820690837C200384665
:10552000D4F82C80FAF74AFE6763E66249466A1EA1
:1055300020690EE01348C030D0E901100830B1FBFB
:10554000F0F5AD1CDEE7666B431C01EBC007401CA9
:10555000F3519042F7D3636B09EBC00000221A505D
:10556000206960626168281A084425616060B8F1AA
:10557000000001D0FBF766F90020BDE8F0870120AC
:10558000FBE700007C28002038B58468049D009566
:10559000D4F8E840A04738BD2DE9FF4F83B03D4F18
:1055A000039816468B4684683868DDF84080994633
:1055B000007CA3EB0B0AC20734D138E0D4F8C870E2
:1055C000E56E3FB1CDE900654B463246594603983A
:1055D000B8470DE05F4608E0D4F8EC303246394673
:1055E0000398984725F8020B7F1C4F45F4DDE56EC4
:1055F0000AF1010005E02988228D514025F8021B9F
:10560000401E0028F7D10096D4F8A8504B463246E9
:1056100059462046A8470AF101022046E16E01F0F2
:10562000C9F8761C4645C9DD07B0BDE8F08FA8EB88
:1056300006000AF10105401CCDF800804543D4F86E
:10564000A8C04B4632462046E04738680127D4F8C8
:1056500068A0C06B0088C0F3072900F0FF0816E0BF
:105660002E46F92D00D9F92657B10AF1010000277D
:10567000314603E000F8019B00F8018B491EF9D286
:10568000D4F8182171000AF101009047AD1B002DDC
:10569000E6D1C9E7B40000202DE9FF4FDFF8A0A054
:1056A0000C4685B0DAF80000DDF848801F46C16B73
:1056B000154609680391006EFBF746F901902946EB
:1056C000204601F0F7FB06460198391B01F1010B5A
:1056D000D0F80C90406950B3FBF736F9A8EB050100
:1056E000491C00915B462A4602902146FBF764FC68
:1056F00002A8FBF745F91AE0DAF80000007CC007C1
:105700000DD005985F46344600698068804780B2B6
:105710002188414024F8021B7F1EF9D105E003983F
:105720005A4681B23046FBF7DDFD4E446D1C4545BF
:10573000E2DD01A8FBF724F909B0BDE8F08F000015
:10574000B4000020FEB54F4CD4E90201CDE90001C0
:10575000206970B3A089401C00B2ADF800006189D7
:10576000ADF80210B4F90410884207DD2088ADF8C6
:105770000000E08910F10100ADF80200BDF902005F
:10578000B4F90610884274DC3F4D2868806CFBF742
:10579000DBF80290BDF90000B4F90010884220D176
:1057A000E088ADF80600A088ADF804002868806C99
:1057B0000FE0FFE72088ADF800006088DCE700BF5D
:1057C000FBF7F6F80646006A0022694600F0D5F8B5
:1057D000B0690028F4D1029800226946C06900F03F
:1057E000CCF8BDF80000ADF804002868806C0AE031
:1057F000FBF7DEF80646006A0022694600F046F82C
:105800000028EED1B0690028F2D102980022694642
:10581000C06900F03BF80028E3D1B4F90400BDF9F9
:105820000010ADF80400884207DADDE90001C4E9A0
:10583000020102A8FBF7A4F898E72868806C08E04A
:10584000FBF7B6F80546006A0022694600F05CF8EE
:10585000A8690028F4D1029800226946C06900F0C6
:1058600053F802A8FBF78CF8206944F620618842BF
:1058700001DD0020FEBDDDE90001C4E902010120D7
:10588000FEBD0000B8290020B4000020FEB5174678
:105890000E460546002433E02846FBF755F80090F5
:1058A000856A0146A80726D527B13A4601A8FBF725
:1058B000C2FC03E0D1E90001CDE9010101A93046B4
:1058C000FBF7E9FAB8B1E80702D00098C56910E023
:1058D000BDF80800401C308001240CE001AA3146CC
:1058E0002846FFF7D3FF00B101242846FBF760F8F4
:1058F000056A002DF2D10098056A6846FBF740F86A
:10590000002DC9D12046FEBDFEB516460D46044603
:1059100030E02046FBF718F80090846A0146A007A3
:1059200023D526B1324601A8FBF785FC03E0D1E977
:105930000001CDE9010101A92846FBF7ACFAA0B1AD
:10594000E00702D00098C4690DE0BDF80400401ED5
:10595000A8800AE001AA29462046FFF7D5FF204685
:10596000FBF726F8046A002CF4D10098046A684614
:10597000FBF706F8002CCCD1FEBDFEB516460D4651
:1059800004464AE02046FAF7DFFF0090846A0146A9
:10599000A0073DD526B1324601A8FBF74CFC03E039
:1059A000D1E90001CDE9010101A92846FBF773FA0D
:1059B00010B3E00702D00098C46927E000983EB118
:1059C000B0F90210B6F90200814203DD084601E099
:1059D000B0F90200B5F90210814207DABDF90600FC
:1059E000B5F90610401E05E0E88011E0BDF90A0097
:1059F000B5F906108842F7DB0AE001AA29462046DD
:105A0000FFF7BBFF2046FAF7D3FF046A002CF4D15E
:105A10000098046A6846FAF7B3FF002CB2D1FEBDC5
:105A200000787047012070478068012901D000206C
:105A30007047406C70470000012901D0002070477A
:105A400000487047E89800080D291CD008DC01299F
:105A500014D00A290CD00B290CD00C2906D10BE04C
:105A600016291AD0172913D0182918D000207047EA
:105A70000C4870470C4870470C48704700688068B5
:105A8000D0F8FC00704700688068D0F8F4007047D8
:105A900000688068D0F8F8007047054870470548EE
:105AA000704700006D5B0008595B0008C95A000888
:105AB000B9630008195B0008162901D0002070475F
:105AC00000487047E30D000870B50546FAF7ECFC96
:105AD0004FF4FA70AC68FAF7DFFEA066A16B20689D
