:020000040800F2
:1000000030150020990100084F1F00087B1B0008D5
:100010004D1F0008CB020008B528000800000000B2
:1000200000000000000000000000000001010008C6
:10003000CD020008000000004501000899250008D5
:10004000B3010008B3010008B3010008B3010008C0
:10005000B3010008B3010008B3010008B3010008B0
:10006000B3010008B3010008B3010008B3010008A0
:10007000B3010008B3010008B3010008B301000890
:10008000B3010008B3010008B3010008B301000880
:10009000B3010008B3010008B3010008B301000870
:1000A000B3010008B3010008B3010008B301000860
:1000B0000D260008B301000819260008B301000846
:1000C000B3010008B3010008B3010008B301000840
:1000D000B3010008B3010008B3010008B301000830
:1000E000B3010008B3010008B3010008DFF80CD029
:1000F00000F0CAF800480047792D000830150020AC
:10010000224B19680868B0E8F00F80F30988BFF344
:100110006F8F4FF0000080F311884EF00D0E704786
:100120000000000006480068006880F3088862B696
:1001300061B6BFF34F8FBFF36F8F00DF00BF00BF0B
:1001400008ED00E0EFF30980BFF36F8F0F4B1A68E3
:1001500020E9F00F106008B54FF0500080F31188CF
:10016000BFF34F8FBFF36F8F03F004FB4FF000001E
:1001700080F31188BDE8084019680868B0E8F00FFE
:1001800080F30988BFF36F8F704700BF28000020FD
:10019000EFF3058070470000064880470648004797
:1001A000FEE7FEE7FEE7FEE7FEE7FEE7FEE7FEE727
:1001B000FEE7FEE7C5250008ED000008202A04DB65
:1001C000203A21FA02F00021704721FA02F3D040D0
:1001D000C2F12002914008431946704740EA0103EA
:1001E0009B0703D009E008C9121F08C0042AFAD2ED
:1001F00003E011F8013B00F8013B521EF9D27047B1
:10020000D2B201E000F8012B491EFBD27047002258
:10021000F6E710B513460A4604461946FFF7F0FF05
:10022000204610BD2DE9F05F0546002092469B4612
:1002300088460646814640241BE0284641464746FC
:100240002246FFF7BBFF53465A46C01A914110D3CE
:1002500011461846224600F029F82D1A67EB0108CE
:100260004F4622460120002100F020F817EB00093C
:100270004E41201EA4F10104DFDC484631462A46E7
:100280004346BDE8F09F0000064C074D06E0E068DD
:1002900040F0010394E8070098471034AC42F6D3CD
:1002A000FFF728FF5047000870470008202A04DBAA
:1002B000203A00FA02F1002070479140C2F1200379
:1002C00020FA03F3194390407047FEE770477047E8
:1002D0000379012B04BF0220704730B44FF0010CAA
:1002E00080F804C00223437103689C6844F0010451
:1002F0009C609AB112F0010302D005680C682C6072
:1003000093420BD2056851F823402C6001EB830423
:10031000056864682C609B1C9342F3D380F805C089
:10032000002101710068006830BC7047002804BFDC
:100330000120704710B50446407920B90020207193
:10034000204600F005F801206071002010BD00007B
:10035000006881B0A0F18041B1F50C311CBF01B043
:1003600070470548416941F040014161406900F032
:100370004000009001B070470010024070B5044684
:1003800000F008F90546B4F1FF3F02D004480078B8
:10039000044400F0FFF8401BA042FAD370BD0000F7
:1003A000180000202DE9F84F714E4FF0000CDFF8D7
:1003B000BC9163464FF001080F2706F1040E00BF01
:1003C0000A6808FA03F42240A2427DD14D68A5F1E3
:1003D000805AAAF5881A4D4577D077DC032D08BFDF
:1003E0004FF0000C1BD00DDC002D6ED0012D08BF8E
:1003F000D1F80CC013D0022D04BFD1F80CC00CF101
:10040000080C0CE0112D04BFD1F80CC00CF1040C49
:1004100005D0122D04BFD1F80CC00CF10C0CB2F5B4
:10042000807F34BF0546051D4FEA830428BF203C6A
:10043000D5F800A007FA04FB2AEA0B0A0CFA04F428
:100440004AEA04042C604C6814F0805F64D0494C84
:10045000A56945F00105A561A46904F001040094B3
:1004600023F0030404F1804505F58035D5F808A094
:100470004FEA83744FEA147407FA04FB2AEA0B0A62
:10048000A0F1804BBBF5843B18D0A0F1804BBBF5AD
:10049000863B08BF4FF0010B10D0A0F1804BBBF59D
:1004A000883B08BF4FF0020B08D0A0F1804BBBF592
:1004B0008A3B0CBF4FF0030B4FF0040B0BFA04F414
:1004C00044EA0A04AC6002E026E03EE02AE04C6820
:1004D00014F4803F346814BF1443944334604C6870
:1004E00014F4003FDEF8004014BF14439443CEF8E8
:1004F00000404C6814F4801F1F4C256814BF15433E
:10050000954325604C6814F4001F1C4C256814BFEB
:100510002A4325EA020222605B1C102BFFF450AF35
:10052000BDE8F88FBAF5881F0FD007DCBAF5803F19
:1005300018BFBAF5801F7FF472AF06E0BAF5001F4E
:1005400018BFBAF5041F7FF46AAFD1F808C0BCF138
:10055000000F08BF4FF0040C3FF461AFBCF1010F76
:100560004FF0080C0CBF0461446158E70000111003
:100570000004014000100240080401400C04014046
:100580008068084018BF01207047002A08BF09048E
:100590000161704701488068704700001800002022
:1005A000002804BF0120704770B5044690F83D0054
:1005B000002520B984F83C50204600F09BF8242008
:1005C00084F83D002068016821F00101016000F01D
:1005D000A3FA444A6168914203D84349814203D84F
:1005E00004E04249814201D9012070BD404923689D
:1005F000B0FBF1F1596063689A4241F1000107D202
:100600004FF4967359434FF47A73B1FBF3F1491CDD
:100610002368196261688A420FD34900401EB0FB0B
:10062000F1F2521CC2F30B02042A31BF0420B0FBCA
:10063000F1F0401CC0F30B0022E0A268002A3ED07B
:1006400001EBC10303EB0113A0F1010CBCFBF3F3BD
:100650005B1C43F480431B051B0D08BF01200FD01A
:10066000AAB301EBC10202EB0111401EB0FBF1F095
:10067000401CC0F30B0040F4804000BF40F4004039
:100680002168C861D4E90701084321680860D4E9FA
:100690000310084321688860D4E9050108432168F4
:1006A000C8602068016841F00101016025642020D4
:1006B00084F83D00256384F83E50002070BD01EBB6
:1006C0004103A0F1010CBCFBF3F35B1CC3E7FFE7A4
:1006D00001EB4101401EB0FBF1F0401CC0F30B00E8
:1006E000CCE70000A086010080841E0000093D00C8
:1006F00040420F0010B586B0002100910191029197
:1007000003910068A0F18041B1F5B0411CBF06B073
:1007100010BD0F4CA06940F00800A061A0696946B7
:1007200000F0080004904FF4406000901220019007
:10073000032003900748FFF735FEE06940F480008E
:10074000E061E06900F48000049006B010BD000094
:1007500000100240000C01400248816802781144F8
:100760008160704718000020074810B5016841F00B
:1007700010010160032000F0A5F8002000F006F849
:1007800000F03EF8002010BD0020024000B50146F8
:1007900087B000221C2000F063F81C2000F054F801
:1007A0001448C16941F00101C161C06905A900F0A7
:1007B00001000690684600F08FF900F0ADF90E498F
:1007C0004000B0FBF1F0411E0C484FF08042026047
:1007D000416040F2E7320021C0E90321816000F06E
:1007E000B8FD00280ABF0548012000F0F1FD07B060
:1007F00000BD00000010024040420F000002002037
:100800000F4808B5816941F001018161816901F0FA
:1008100001010091C16941F08051C161C0690022AC
:1008200000F0805000900F21901E00F019F805484C
:10083000416821F0E06141F00071416008BD0000B5
:10084000001002400000014000F01F01012202FAE6
:1008500001F14009800000F1E020C0F8001170476C
:10086000174B10B41B68C3F30223C3F1070CBCF190
:10087000040F88BF4FF0040C1C1D072C34BF00234D
:10088000DB1E012404FA0CFCACF1010C0CEA0101A2
:10089000994004FA03F35B1E1A40114300284FEA03
:1008A0000111A1BF00F1E02080F8001410BC7047D6
:1008B00000F00F0000F1E02080F8141D10BC70471C
:1008C0000CED00E0074900F007000A684FF6FF034F
:1008D0001A4042EA002040F0FD7040F0806008605D
:1008E000704700000CED00E0704700002DE9F04378
:1008F0006E4F054685B03868884600F007004045D1
:100900000AD2386820F0070040EA080038603868EA
:1009100000F0070040457ED12868654C10F0020FBA
:1009200014D010F0040F03D0606840F4E060606001
:10093000287810F0080F03D0606840F460506060C1
:100940006068A96820F0F00008436060287810F023
:10095000010F50D06868012821D02168022823D0D7
:1009600011F0020F57D0616821F003010843606065
:10097000FFF710FE0646686841F28839012817D053
:100980000228606800F00C0023D008B3FFF702FED5
:10099000801B48452BD905B00320BDE8F0832168B2
:1009A00011F4003FDFD136E011F0007FDBD132E0FF
:1009B000606800F00C0004281DD000BFFFF7EAFDBE
:1009C000801B4845E7D8606800F00C000428F5D18A
:1009D00011E008280FD000BFFFF7DCFD801B484561
:1009E000D9D8606800F00C000828F5D103E06068F1
:1009F00010F00C0FCAD1386800F0070040450ED93E
:100A0000386820F0070040EA08003860386800F0D5
:100A10000700404503D005B00120BDE8F0832878E9
:100A200010F0040F05D06068E96820F4E060084326
:100A30006060287810F0080F06D06068296920F4FB
:100A4000605040EAC10060601A4B0FCB8DE80F0088
:100A50001948006804906168184801F00C02042AE3
:100A600014D0082A12D1C1F3834211F4803F1DF83B
:100A7000020004BF1249484308D0616804AAC1F3C8
:100A80004041515C0D4A5043B0FBF1F061680D4AA2
:100A9000C1F30311515CC8400B4908600020FFF707
:100AA00075FE05B00020BDE8F08300000020024084
:100AB00000100240B00B0008C00B000800127A00C2
:100AC00000093D00144700082400002001490120CE
:100AD000C8647047000042420F2202600C4A53680B
:100AE00003F003034360536803F0F003836053682B
:100AF00003F4E063C36052684FF4E06303EAD20298
:100B000002610448006800F00700086070470000B8
:100B1000001002400020024004480549006849686E
:100B2000044AC1F30221515CC840704724000020F0
:100B3000001002402447000804480549006849683D
:100B4000044AC1F3C221515CC84070472400002010
:100B5000001002402447000815A186B00FC98DE897
:100B60000F0017A0174A006804905168164801F05A
:100B70000C03042B04BF06B07047082B1CBF06B043
:100B80007047C1F3834311F4803F1DF8030001BF98
:100B90000E49484306B07047516804AAC1F340416A
:100BA000515C094A06B05043B0FBF1F070470000B9
:100BB00002030405060708090A0B0C0D0E0F10109E
:100BC000010200000010024000127A0000093D00FE
:100BD00010B5054CA06810F0800F08BF10BDFFF7DE
:100BE00083FE8020A07210BD001002402DE9F84F56
:100BF00004460078E04D10F0010F59D0686800F00D
:100C00000C00042808D0686800F00C0008280CD1FB
:100C1000686810F4803F08D0286810F4003F47D07F
:100C20006068002800F0A58142E06068B0F5803F70
:100C300004BF286840F480300AD010B1B0F5A02F6E
:100C400011D0286820F480302860286820F48020A3
:100C500028606068D0B1FFF79DFC0646286810F454
:100C6000003F08D024E0286840F4802028602868ED
:100C700040F48030ECE7FFF78DFC801B642800F225
:100C80003681286810F4003FF5D011E0FFF782FCB0
:100C90000646286810F4003F0AD000BFFFF77AFC30
:100CA000801B642800F22381286810F4003FF5D1EE
:100CB0002078B24E10F0020F4FF0010B4FF00008F9
:100CC00045D0686810F00C0F14D0686800F00C0074
:100CD000082804BF686810F4803F0BD0206918B35F
:100CE000C6F800B0FFF756FC0746286810F0020F60
:100CF00009D011E0286810F0020F1CBF20690128FC
:100D00000AD000F036B9FFF745FCC01B02287DD899
:100D1000286810F0020FF6D02868616920F0F8000A
:100D200040EAC100286012E0C6F80080FFF732FCFC
:100D30000746286810F0020F09D000BFFFF72AFC11
:100D4000C01B022862D8286810F0020FF6D1207864
:100D500010F0080F35D08A48A169F9B1C0F800B089
:100D6000FFF718FC0746686A10F0020F09D100BFB0
:100D7000FFF710FCC01B022848D8686A10F0020F69
:100D8000F6D080484FF4FA510068B0FBF1F00090C3
:100D900000BF0098411E0091FAD212E0C0F8008016
:100DA000FFF7F8FB0746686A10F0020F09D000BF92
:100DB000FFF7F0FBC01B022828D8686A10F0020F6A
:100DC000F6D1207810F0040F79D0E8694FF0000ACE
:100DD00010F0805F09D1E86940F08050E861E8696F
:100DE0004FF0010A00F080500090DFF89C91D9F894
:100DF000000010F4807F19D1D9F8000040F4807011
:100E0000C9F80000FFF7C6FB074600E06FE0D9F81D
:100E1000000010F4807F09D1FFF7BCFBC01B6428E1
:100E200065D8D9F8000010F4807FF5D0E06801287B
:100E300004BF286A40F0010009D008B1052813D08A
:100E4000286A20F001002862286A20F00400286245
:100E5000E06841F28837D0B1FFF79CFB8146286AF1
:100E600010F0020F08D023E0286A40F00400286246
:100E7000286A40F00100EAE7FFF78CFBA0EB0900CD
:100E8000B84234D8286A10F0020FF5D010E0FFF70E
:100E900081FB8146286A10F0020F09D0FFF77AFB28
:100EA000A0EB0900B84222D8286A10F0020FF5D151
:100EB000BAF1000F03D0E86920F08050E861E069E2
:100EC000F0B3696801F00C01082952D00228C6F875
:100ED00060800FD0FFF75EFB0446286810F0007FAB
:100EE00044D000BFFFF756FB001B02283AD903206D
:100EF000BDE8F88FFFF74EFB0746286810F0007F2B
:100F000009D000BFFFF746FBC01B0228EFD82868B6
:100F100010F0007FF6D1206AB0F5803F05D16868F7
:100F2000A16820F4003008436860D4E90801084350
:100F3000696821F4741108436860C6F860B000E085
:100F400014E0FFF727FB0446286810F0007F0DD15E
:100F5000FFF720FB001B0228C9D8286810F0007F8B
:100F6000F6D003E0286810F0007FBBD10020BDE878
:100F7000F88F0120BDE8F88F0010024000004242C7
:100F8000800442422400002000700040002804BF7A
:100F90000120704770B500250446856290F8510025
:100FA000002804BF204600F033F8022084F85100E6
:100FB0002068016821F040010160D4E90101084383
:100FC000D4E903121143084361690843218B01F4FA
:100FD00000710843E1690843216A0843A16A084394
:100FE00021680860A069042101EA1040616A084391
:100FF000216848602168E06A08612068C16921F4BD
:101000000061C1616565012084F85100002070BD58
:1010100030B585B0002400940194029403940068D4
:10102000A0F18041B1F598311CBF05B030BD134827
:10103000816941F480518161816901F48051049199
:10104000816941F00401816180690D4D00F0040067
:101050000490A02000900220019003200390694694
:101060002846FFF79FF94020CDE90004694628464D
:101070000294FFF797F905B030BD00000010024060
:10108000000801402DE9F84F044690F85000DDF8C3
:1010900028909B4616460D464FF0010A4FF0000877
:1010A000012804BF0220BDE8F88F012084F8500019
:1010B000FFF770FA074694F851006168012809D0DB
:1010C000B1F5827F03BFA168002904284FF0020810
:1010D00040F0D680002D1ABF002EBBF1000F4FF05C
:1010E000010800F0CD8094F85100012804BF0520CC
:1010F00084F8510000206065A663A4F83EB0A4F80F
:101100003CB02563A4F836B0A4F834B02064606421
:101110002068016811F0400F03D1016841F04001DF
:101120000160E068B0F5006F606805D000281CBF62
:10113000E08E01284DD081E000281CBFE08E012800
:1011400034D1216835F8020BC860E08EA0F10100AF
:10115000E0862BE0BAF1000F1CBFE08E00280DD016
:101160002068816811F0020F08D035F8021BC160B9
:10117000E08EA0F10100E0864FF0000AE08F68B138
:101180002068816811F0010F08D0C06826F8020BB2
:10119000E08FA0F10100E0874FF0010AB9F1FF3FB5
:1011A00004D0FFF7F7F9C01B48450FD2E08E0028A6
:1011B00004BFE08F0028CDD14B464FF001024FF025
:1011C00002012046009701F079F8E8B34FF00308D8
:1011D00056E0216815F8010B0873E08E401EE0868A
:1011E0002CE000BFBAF1000F1CBFE08E00280DD02C
:1011F0002068816811F0020F08D015F8011B0173F7
:10120000E08EA0F10100E0864FF0000AE08F68B1A7
:101210002068816811F0010F08D0C06806F8010B42
:10122000E08FA0F10100E0874FF0010AB9F1FF3F24
:1012300004D0FFF7AFF9C01B4845C7D2E08E0028A5
:1012400004BFE08F002800E001E0CBD1B4E74B46BB
:101250004FF000024FF080012046009701F02EF879
:1012600040B1606D40F02001616520204FF0010821
:10127000606505E0A06818B92068C16880680090C2
:10128000012084F85100002084F850004046BDE859
:10129000F88F7047704790F83C20012A04BF022065
:1012A0007047012280F83C20CA688B6822F44072A3
:1012B0001A434B6822F480621A430B6822F40062DE
:1012C0001A430B6922F480521A434B6922F40052EC
:1012D0001A43896922F480420A4322F400421143EE
:1012E00002685164002180F83C100846704790F86D
:1012F0003C20012A04BF0220704710B4012280F86C
:101300003C20022380F83D300368D3F804C02CF061
:10131000700CC3F804C00368D3F804C00C684CEA2E
:10132000040CC3F804C00368D3F808C02CF0800C88
:10133000C3F808C00368D3F808C049684CEA010143
:10134000996080F83D20002180F83C1010BC0846D0
:101350007047002804BF0120704710B5044690F87C
:101360003D0028B9002084F83C00204600F00CF82D
:10137000022084F83D00211D206801F053F901206E
:1013800084F83D00002010BD01681048A1F18042A2
:1013900081B0B2F5963210D0A1F18042B2F5006270
:1013A0001CBF01B07047C16941F00401C161C0694F
:1013B00000F00400009001B07047816941F40061C1
:1013C0008161806900F40060F4E7000000100240D1
:1013D0000168CA6842F00102CA600068016841F011
:1013E000010101600020704790F83C20012A0DBFE8
:1013F0000220012380F83C30704730B4022280F88C
:101400003D200268D2F808C02CF0770C2CF47F4CF9
:10141000C2F808C00A68502A41D00CDC202A77D0D4
:1014200004DC002A75D0102A74D0B1E0302A72D0C2
:10143000402A72D0ACE0602A4ED0702A0BD0B2F5B0
:10144000805F03D0B2F5005F17D0A1E001688A6821
:1014500022F007023EE00268D1F804C08C68C96837
:1014600095684CEA012125F47F4521432943916089
:1014700001688A6842F077022CE00268D1F804C063
:101480008C68C96895684CEA012125F47F452143A1
:101490002943916001688A6842F480421AE0026838
:1014A000D1F804C0C968146A156A25F001051562EF
:1014B000956924F00A0425F0F00545EA011144EA93
:1014C0000C0C9161C2F820C001688A6822F0700299
:1014D00042F057028A605BE00268D1F804C0CC6831
:1014E000116A21F0100111629569116A25F47045A5
:1014F00045EA043421F0A00141EA0C119461116223
:1015000001688A6822F0700242F067028A603FE058
:101510002FE01EE025E034E0FFE70268D1F804C0C8
:10152000CC68116A156A25F001051562956921F0EC
:101530000A0125F0F00545EA041441EA0C01946122
:10154000116201688A6822F0700242F047028A60E4
:101550001EE001688A6822F0700242F007028A6089
:1015600016E001688A6822F0700242F017028A6071
:101570000EE001688A6822F0700242F027028A6059
:1015800006E001688A6822F0700242F037028A6041
:1015900080F83D30002180F83C1030BC0846704790
:1015A000704770B50446006801694FF0000511F0FE
:1015B000020F1CBFC16811F0020F13D06FF00201BF
:1015C0000161012020772068806910F0030F204618
:1015D00002D0FFF7E5FF04E000F099F8204600F0A4
:1015E000BBF925772068016911F0040F1CBFC168A1
:1015F00011F0040F13D06FF0040101610220207775
:101600002068806910F4407F204602D0FFF7C8FFB1
:1016100004E000F07CF8204600F09EF92577206871
:10162000016911F0080F1CBFC16811F0080F13D039
:101630006FF008010161042020772068C06910F074
:10164000030F204602D0FFF7ABFF04E000F05FF885
:10165000204600F081F925772068016911F0100F0C
:101660001CBFC16811F0100F13D06FF010010161A1
:10167000082020772068C06910F4407F204602D0FF
:10168000FFF78EFF04E000F042F8204600F064F916
:1016900025772068016911F0010F1CBFC16811F0A6
:1016A000010F05D06FF001010161204600F055F9EE
:1016B0002068016911F0800F1CBFC16811F0800F14
:1016C00005D06FF0800101612046FFF7E2FD206840
:1016D000016911F0400F1CBFC16811F0400F05D027
:1016E0006FF040010161204600F03EF92068016979
:1016F00011F0200F1ABFC16811F0200F70BD6FF0FC
:10170000200101612046BDE87040FFF7C3BD70476E
:1017100090F83C30012B04BF02207047F0B4012444
:1017200080F83C40022380F83D307C4B3AB1042ADB
:101730003ED0082A7CD00C2A79D000F0E7B80268A5
:10174000D2F820C02CF0010CC2F820C0D2F820C082
:10175000556896690F6826F073063E438F682CF033
:10176000020C47EA0C0C9A420DD12CF00803D1F878
:101770000CC04CEA030323F0040C25F440734D69BC
:101780002B438D691D43556096614B685363C2F8C6
:1017900020C00268936943F008039361026893696B
:1017A00023F00403936102689369096919433BE0DC
:1017B0000268D2F820C02CF0100CC2F820C0D2F879
:1017C00020C0556896690F6826F4E64646EA072663
:1017D0008F682CF0200C4CEA071C9A420FD12CF099
:1017E0008003D1F80CC043EA0C1323F0400C25F41D
:1017F00040634D6943EA85038D6943EA8505556079
:1018000096614B689363C2F820C00268936943F401
:10181000006393610268936923F4806393610268B3
:101820009369096943EA012191616FE000E03AE0C0
:101830000268D2F820C02CF4807CC2F820C0D2F814
:1018400020C05568D6690F6826F073063E438F683E
:101850002CF4007C4CEA072C9A420FD12CF4006344
:10186000D1F80CC043EA0C2323F4806C25F44053D8
:101870004D6943EA05138D6943EA05155560D66144
:101880004B68D363C2F820C00268D36943F00803F1
:10189000D3610268D36923F00403D3610268D3697A
:1018A0000969194331E00268D2F820C02CF4805C49
:1018B000C2F820C0166AD2F804C0D5690F6825F4B2
:1018C000E64545EA07258F6826F4005646EA0736BE
:1018D0009A4205D12CF48043D1F814C043EA8C1C01
:1018E000C2F804C0D5614B68136416620268D369FC
:1018F00043F40063D3610268D36923F48063D36146
:101900000268D369096943EA0121D16180F83D4049
:10191000002180F83C10F0BC08467047002C0140C4
:10192000002804BF0120704710B5044690F83D0020
:1019300028B9002084F83C00204600F00CF8022072
:1019400084F83D00211D206800F06CFE012084F821
:101950003D00002010BD704770470068B0F1804F17
:1019600018BF7047FEF7F8BE7047002804BF01207B
:10197000704770B5044690F83900002520B984F806
:101980003850204600F022F8242084F839002068DE
:10199000C16821F40051C160204600F07FFE20683C
:1019A000016921F4904101612068416921F02A0117
:1019B00041612068C16841F40051C160E5632020A5
:1019C00084F8390084F83A00002070BD30B585B045
:1019D000002400940194029403940068A0F18041D3
:1019E000B1F59C311CBF05B030BD1648816941F48A
:1019F00080418161816901F480410491816941F0F4
:101A0000080181618069104D00F0080004904020B9
:101A10000090022001900320039069462846FEF7BB
:101A2000C1FC8020CDE90004694628460294FEF7F7
:101A3000B9FC0648416841F0040141F0E0614160B1
:101A400005B030BD00100240000C01400000014014
:101A50002DE9F84F044690F839001D4617460E460A
:101A600020287BD1002E12BF002F0120BDE8F88F67
:101A700094F8380001287DD0012084F838004FF018
:101A8000000AC4F83CA0212084F83900FEF782FD4A
:101A9000A7848046E784E08C4FF02009002854D0CA
:101AA000E08C401EE084A0684FF08007B0F5805FB6
:101AB0002068006827EA00001FD000283ED000BF41
:101AC000B5F1FF3F35D02DB1FEF764FDA0EB080165
:101AD000A9422ED92068C16821F4D071C160206864
:101AE000416921F00101416184F8399084F83A900C
:101AF00084F838A00320BDE8F88F78B1B5F1FF3F36
:101B000007D0002DE6D0FEF745FDA0EB0801A94265
:101B1000E0D82068006837EA0000EFD130882168FB
:101B2000C0F308004860206900280CBFB61C761C72
:101B300008E02068006837EA0000C1D1216816F883
:101B4000010B4860E08C0028AAD1434600224021C6
:101B50002046009500F07CFE002800E00AE01CBF53
:101B60000320BDE8F88F84F8399084F838A000206D
:101B7000BDE8F88F0220BDE8F88FFEE7074910B5F1
:101B8000054808600846FEF7D1FB002808BF10BDD5
:101B9000BDE81040FEF79BBB003002400000002073
:101BA00030B591B000200F900FA801F035F9164C18
:101BB000164DE06095E80F008DE80F00286904904D
:101BC0000021684601F088F9206005F114000DF14C
:101BD000140C0FC88CE80F00686A0990002105A852
:101BE00001F07AF9606005F128000DF1280C0FC8AA
:101BF0008CE80F00A86B0E9000210AA801F06CF988
:101C0000A06011B030BD000008000020D8460008D8
:101C10002DE9F04186B000242848009401940294F4
:101C20000394816941F010018161816901F0100123
:101C30000491816941F020018161816901F02001F5
:101C40000491816941F004018161816901F004011D
:101C50000491816941F0080181618069184F00F0A9
:101C60000800049000224FF400513846FEF78DFC26
:101C7000DFF85080002203214046FEF786FC7814EE
:101C80000126CDE90006032569463846CDE902451F
:101C9000FEF788FB1020CDE9000469460A4802944B
:101CA000FEF780FBCDE9005669464046CDE9024586
:101CB000FEF778FB06B0BDE8F0810000001002409E
:101CC00000100140000C0140000801400D4810B513
:101CD0000B4901600C49416000214FF48042816052
:101CE000C0E9031241618161C1610162FEF758FCE4
:101CF000002808BF10BDBDE81040FEF7E8BA00009C
:101D00000058004094000020801A0600104810B5CA
:101D10000E4901604FF48271416000218160C16011
:101D20004FF400720161C0E905122822C0E90721C1
:101D3000416281620A21C162FFF728F9002808BFC9
:101D400010BDBDE81040FEF7C2BA000000300140EF
:101D5000E800002070B59AB00024129414941594F1
:101D600016941794139400940194029403944B4D89
:101D70000494059406940794089409940A940B9487
:101D80000C94454E0D94C5E9006440F2CF70C5E94E
:101D900002402C616C612846AC61FFF7DAFA00283A
:101DA00018BFFEF794FA4FF48050129012A93B48E6
:101DB000FFF71AFB002818BFFEF789FA3748FFF72C
:101DC000AFFD002818BFFEF782FA169416A9334813
:101DD0001794FFF78CFA002818BFFEF778FA6020F6
:101DE000CDE9000404200294CDE9034005940022CB
:101DF00069462A480694FFF78BFC002818BFFEF7B7
:101E000066FA042269462548FFF782FC002818BFBD
:101E1000FEF75DFA082269462048FFF779FC0028A2
:101E200018BFFEF754FA0C2269461C48FFF770FCF5
:101E3000002818BFFEF74BFA0794089409944FF452
:101E400000500A94CDE90B4007A914480D94FFF700
:101E500022FA002818BFFEF73AFA0E940F94109455
:101E600011942868B0421CBF1AB070BD0C4881693B
:101E700041F00401816180690EA900F0040018900E
:101E80004FF470600E9002200F9011900548FEF7FD
:101E900089FA1AB070BD0000002C014040010020FA
:101EA000001002400008014010B586B00024184818
:101EB00000940194029403940494144905940160DD
:101EC0004721C0E9011440F2E731C0E903148461FD
:101ED000FFF73FFA002818BFFEF7F9F94FF48050DA
:101EE000009069460A48FFF77FFA002818BFFEF7FE
:101EF000EEF9049404A906480594FFF7F8F90028C0
:101F000018BFFEF7E4F906B010BD0000000800405D
:101F1000800100200C4810B50A4901604FF4E131FE
:101F20004160002181600C22C160C0E9041281611E
:101F3000C161FFF71AFD002808BF10BDBDE81040C1
:101F4000FEF7C5B900380140C0010020FEE7FEF7EA
:101F50003FBE000010B5164C002202212046FEF7BD
:101F600014FB0F21202000F075F90121212000F041
:101F700071F90121222000F06DF92821252000F0BF
:101F800069F90F21262000F065F92021312000F0A9
:101F900061F9052207492A2000F01CF901220221DB
:101FA0002046FEF7F2FABDE810400120FEF7E6B940
:101FB000000C0140D14600082DE9F041DFF8DC803B
:101FC000064684B00724002201214046FEF7DDFAD0
:101FD0008DF80840FF243248012301AA02A9009489
:101FE000FFF750F8002818BF8DF804402C48FF2157
:101FF0008DF80810012301AA02A90094FFF742F806
:10200000002818BF8DF804409DF8045001221146A5
:102010004046FEF7BAFA2946272000F01BF915F0D2
:10202000400F02BF012004B0BDE8F08161252027E8
:10203000002201214046FEF7A8FA19488DF8085001
:10204000012301AA02A90094FFF71CF8002818BF79
:102050008DF804400025FF218DF808101048012359
:1020600001AA02A90094FFF70DF8002818BF8DF807
:1020700004409DF804007055681CC5B2BD42EAD307
:10208000012211464046FEF780FAFF21E22000F0CF
:10209000E1F804B04020BDE8F0810000000C0140F0
:1020A000E800002010B5194C002202212046FEF75E
:1020B0006CFA05221649302000F08CF805221549EB
:1020C0002A2000F087F80121212000F0C3F8012127
:1020D000222000F0BFF8FF21242000F0BBF82821C7
:1020E000252000F0B7F80F21262000F0B3F80E21CC
:1020F000202000F0AFF8012202212046FEF745FA29
:10210000BDE810400120FEF739B90000000C014085
:10211000CC460008D146000830B52B4D044683B0AC
:10212000002202212846FEF730FA20222146A02074
:1021300000F050F8012202212846FEF726FA234C2F
:1021400010212046FEF71CFA0028F9D107240022AE
:1021500001212846FEF719FA8DF80840FF241C4893
:10216000012301AA02A90094FEF78CFF002818BFE2
:102170008DF804401648FF218DF80810012301AAAC
:1021800002A90094FEF77EFF002818BF8DF80440D6
:102190009DF80440012211462846FEF7F6F9214633
:1021A000272000F057F814F0100F06D0FF21E1208F
:1021B00000F050F803B0102030BD14F0200F14BF11
:1021C0002020FF2003B030BD000C0140000801407A
:1021D000E80000202DE9F043DFF8709017460D4627
:1021E000044683B0002201214846FEF7CEF9FF26BF
:1021F00017488DF80840012301AA02A90096FEF7AE
:1022000041FF002818BF8DF804609DF80480002469
:10221000002F12D915F8011B8DF808100C48012366
:1022200001AA02A90096FEF72DFF002818BF8DF81D
:102230000460601CC4B2BC42ECD301221146484683
:10224000FEF7A3F903B04046BDE8F083000C01405F
:10225000E8000020F0B5174E0C46054683B000227A
:1022600001213046FEF791F98DF80850FF251248FC
:10227000012301AA02A90095FEF704FF002818BF58
:102280008DF804509DF804700B488DF80840012328
:1022900001AA02A90095FEF7F5FE002818BF8DF8E7
:1022A0000450012211463046FEF76FF903B038465C
:1022B000F0BD0000000C0140E80000202DE9F041D5
:1022C00004460068DDF818801D46806816460F46F3
:1022D00031EA00000CBF01200020B04240D000BF16
:1022E000B5F1FF3F33D02DB1FEF754F9A0EB080054
:1022F000A8422CD32068416821F0E0014160606869
:10230000B0F5827F0BD1A068B0F5004F18BFB0F5D3
:10231000806F04D12068016821F040010160A06A4B
:10232000B0F5005F0AD1206801684DF6FF721140D8
:1023300001602068016841F400510160012084F8C7
:102340005100002084F850000320BDE8F08120688F
:10235000806837EA00000CBF01200020B042BFD1E6
:102360000020BDE8F0810000094C00224FF400512C
:102370002046FEF70AF90320FEF700F80122510378
:102380002046FEF702F94FF47A7000F038FDECE7D2
:102390000010014084B00020054602908DF8000036
:1023A000264C01904FF0FF31E06800F063FDFFF72D
:1023B000D1FD02A8FFF700FE8DF80000E06800F0F4
:1023C0002FFD9DF80000402818BF002516D000BF43
:1023D0004FF0FF31E06800F04DFD02A8FFF7ECFD83
:1023E0008DF80000E06800F01BFD9DF8000040281B
:1023F0000CD0681CC5B2032DEAD307E0002D18BF2E
:102400000025012201A90E48FDF762FF4FF0FF31C0
:10241000E06800F02FFDFFF745FEE06800F000FDEA
:10242000A06800F071FD0028FAD1606800F084FD1A
:102430000028FAD1012000F0E2FCB3E708000020F8
:102440000000002086B000268DF80C608DF8046036
:10245000384C02960496A06800F06EFD0028FAD170
:102460009DF808000122401CC0B28DF808000490BD
:1024700004A93148FDF72CFF05468DF809004FF0FF
:10248000FF31E06800F0F6FC02A8FFF745FE8DF88A
:102490000C00E06800F0C4FC9DF80C0020281CBF74
:1024A0009DF8040003282BD28DF804609DF80400E9
:1024B000032831D24FF0FF31E06800F0DBFC02A8C6
:1024C000FFF72AFE8DF80C009DF80C009DF808100F
:1024D0009DF80430EAB2009018A000F0EDF9E06831
:1024E00000F09EFC9DF80C00202815D09DF80400FB
:1024F000401C8DF804009DF804000328DAD30BE09B
:102500009DF8040028B11DA000F0D6F98DF80460F4
:1025100002E01EA000F0D0F9606800F0F5FC002891
:10252000FAD1A06800F008FD0028FAD1012000F0DF
:1025300066FC95E7080000200000002054785F70DA
:1025400061636B65743A256420202054785F4352A0
:10255000433A2532782020202054785F74696D65D5
:10256000733A25642020204E52465F54785374619C
:1025700074653A2532780D0A000000005478206610
:1025800061696C0D0A200D0A000000005478206F6C
:102590006B0D0A200D0A000010B5502080F3118841
:1025A000BFF34F8FBFF36F8F01F062FE18B1044984
:1025B0004FF080500860002080F3118810BD0000AB
:1025C00004ED00E00E48016841F00101016041683E
:1025D0000C4A11404160016821F4102121F0807102
:1025E0000160016821F480210160416821F4FE014D
:1025F00041604FF41F0181600349C00308607047C8
:10260000001002400000FFF808ED00E00148FEF76E
:10261000C8BF0000000200200148FEF7C2BF000052
:102620008001002030B40268194BDFF868C01A4CF2
:10263000984218BFB0F1804F03D0604518BFA04248
:1026400004D14D6822F0700245EA0202984218BF98
:10265000B0F1804F03D0604518BFA04205D1D1F83A
:102660000CC022F440724CEA0202D1F814C022F0ED
:1026700080024CEA020202608A68C2620A688262D0
:10268000984204BF096901630121416130BC704770
:10269000002C014000040040000800402DE9F041FA
:1026A000044600680169E26821F440511143016168
:1026B0002169A0680143606901432068C26822F46F
:1026C000037222F4A0521143C16020684169A269DB
:1026D00021F440711143416120685C4D3226A0F124
:1026E0008041B1F59C3158D0FEF716FA00EBC001DD
:1026F00001EB001061688900B0FBF1F7FEF70CFAFE
:1027000000EBC00101EB001061688900B0FBF1F043
:10271000A5FB001040096FF01801484307EB80004B
:1027200006EB0010A5FB0010400900F0F007FEF7D3
:10273000F3F900EBC00101EB001061688900B0FB08
:10274000F1F0A5FB0010400907EB0017FEF7E4F9D4
:1027500000EBC00101EB001061688900B0FBF1F8EB
:10276000FEF7DAF900EBC00101EB001061688900A7
:10277000B0FBF1F0A5FB001040096FF018014843D1
:1027800008EB800006EB0010A5FB00102168C0F3E9
:10279000431038448860BDE8F081FEF7CDF900EBC6
:1027A000C00101EB001061688900B0FBF1F7FEF792
:1027B000C3F900EBC00101EB001061688900B0FBB8
:1027C000F1F0A5FB001040096FF01801484307EB3A
:1027D000800006EB0010A5FB0010400900F0F00798
:1027E000FEF7AAF900EBC00101EB00106168890057
:1027F000B0FBF1F0A5FB0010400907EB0017FEF756
:102800009BF900EBC00101EB001061688900B0FB8F
:10281000F1F8FEF791F900EBC00101EB00106168DF
:102820008900B0FBF1F0A5FB001040096FF0180122
:10283000484308EB800006EB0010A5FB0010216860
:10284000C0F3431038448860BDE8F0811F85EB5128
:102850002DE9F04104460068069E1F4600680D46BB
:1028600031EA000023D000BFB6F1FF3F1AD026B1F5
:10287000FDF790FEC01BB04214D92068C16821F456
:10288000D071C1602068416921F0010141612020BF
:1028900084F8390084F83A00002084F838000320D6
:1028A000BDE8F0812068006835EA0000DCD1002036
:1028B000BDE8F081FEE700000FB4054B10B503A999
:1028C000044A029800F018F810BC5DF814FB0000F0
:1028D0005D2D00089000002002E008C8121F08C10A
:1028E000002AFAD170477047002001E001C1121F91
:1028F000002AFBD1704700002DE9FF4F8DB00F4635
:102900000546002606E025280BD0DDE90F1290478A
:102910006D1C761C28780028F5D111B03046BDE832
:10292000F08F0024A246A1460122EC4900E00443B6
:1029300015F8013F203B02FA03F00842F7D128784E
:102940002A2810D06FF02F022878A0F13001092931
:1029500014D80AEB8A0102EB410144F0020400EBB7
:10296000010A6D1CF0E701CF5FEA000A03D544F4C9
:102970000054CAF1000A44F002046D1C28782E2885
:1029800017D115F8010F44F004042A280ED06FF077
:102990002F022878A0F1300109290AD809EB890112
:1029A00002EB410100EB01096D1CF2E757F8049BB3
:1029B0006D1C28786C280FD006DC4C2817D06828AE
:1029C0000DD06A2814D104E0742810D07A280FD1D1
:1029D0000DE044F400140AE044F4801401E044F4EF
:1029E00040146978814202D104F580146D1C6D1C7D
:1029F0002A786E2A1FD00CDC632A31D004DC002A2E
:102A00008BD0582A11D1A3E0642A68D0692A0CD14E
:102A100065E0732A2ED004DC6F2A73D0702A04D1AB
:102A20009BE0752A6FD0782A6ED01046DDE90F1230
:102A30009047761C50E1C4F30250022806D00328C8
:102A400009D0042801CF09D0066045E101CFF11774
:102A5000C0E9006140E101CF06803DE106703BE145
:102A600017F8040B8DF8000000208DF80100EB46EC
:102A7000012003E057F804BB4FF0FF3061074FF02F
:102A8000000102D40DE008F10101884649450FDA42
:102A90008045F8DB1BF808100029F4D108E008F1A4
:102AA000010188468142FADB1BF808100029F6D1A3
:102AB000DDE90F23AAEB08008146214600F036F934
:102AC000304400EB080604E0DDE90F121BF8010BAF
:102AD0009047B8F10108F7D221464846F7E00A21AD
:102AE000C4F302534FF0000B0891022B04D001CF26
:102AF000C117032B09D00AE0FF1D27F00707F7E8ED
:102B0000020108E032E01FE020E000B2C117042B10
:102B100001D140B2C117031E71F1000307DA4FF073
:102B2000000CD0EB0C006CEB01012D2302E023051F
:102B300004D52B238DF82430012303E0E30701D0D3
:102B40002023F7E7984658E00A2110E010210EE014
:102B500010204FF0000B08900CE010214FF0000BFC
:102B600044F004044FF00809089103E008214FF0F5
:102B7000000B0891C4F30253022B04D001CF0021B3
:102B8000032B06D006E0FF1D27F00707F7E8020138
:102B900003E080B2042B00D1C0B24FF0000823073D
:102BA0002BD5702A07D0DDF820C08CF0100C5CEA21
:102BB0000B0C05D00EE040238DF82430012308E0F3
:102BC00050EA010306D030238DF824308DF82520FB
:102BD00002239846DDF820C08CF0080C5CEA0B0C50
:102BE0000BD150EA010301D1630706D530238DF8DC
:102BF00024304FF00108A9F10109582A04D038A265
:102C00000B9208AA0A920BE03AA2F9E75B46089AEF
:102C1000FDF708FB0B9B9B5C0A9A521E0A921370ED
:102C200050EA0102F2D10A98ADEB000000F1200B4E
:102C3000600702D524F4803401E04FF00109D94542
:102C400002DDA9EB0B0000E0002000EB0B0141448A
:102C50000890AAEB010AE00306D4DDE90F23214620
:102C6000504600F063F806444FF0000908E009A957
:102C700011F80900DDE90F12904709F10109761CEE
:102C8000C145F4DBE0030CD5DDE90F2321465046B6
:102C900000F04CF8064404E0DDE90F1230209047C4
:102CA000761C0899481E08900029F5DC08E00A986F
:102CB0000A990078491C0A91DDE90F129047761CA9
:102CC000BBF10001ABF1010BF1DC21465046DDE91F
:102CD0000F2300F019F806446D1C1BE609280100BB
:102CE0003031323334353637383961626364656682
:102CF0000000000030313233343536373839414244
:102D000043444546000000002DE9F04104460025FB
:102D10001E461746880404D405E039462020B047F3
:102D20006D1C641EF9D52846BDE8F0812DE9F041FF
:102D3000044600251E469046C80301D5302700E012
:102D40002027880404D505E041463846B0476D1C6D
:102D5000641EF9D52846BDE8F081704713B5FF23FE
:102D6000012269460248FEF773FE009802B010BDCA
:102D7000C00100200020704790B0FDF7F5FC002452
:102D80000120059406940A940B9401040E94039474
:102D9000CDE9000104900D944FF4E010CDE9081046
:102DA00002940C94022507956846FDF71FFF0F203B
:102DB000CDE90A056802CDE90C4002210AA80E946B
:102DC000FDF794FDFDF782FEFEF722FFFEF77EFF82
:102DD000FEF79CFFFEF7BEFFFFF79CF8FEF7CEFE66
:102DE000FFF762F8002205211E20FDF739FD1E20A5
:102DF000FDF72AFDFEF7D4FE00F009F8FEE710B556
:102E0000002808BF012000F0F5FA002010BD10B521
:102E100000F0D4FB002010BD012000F039BD0000FF
:102E200038B584464FF000004FF000040090EFF3F7
:102E3000058090B16946604601F06AF801281CBF20
:102E4000FF2038BD009888B109494FF080500860D4
:102E5000BFF34F8FBFF36F8F08E000231A46194668
:102E6000604600F0C9FE012818BFFF24204638BD87
:102E700004ED00E008B500220092002804BF802085
:102E800008BD00224B1C002B08BF4FF0FF3203D0BF
:102E9000002918BFB1F10002EFF3058131B16A4694
:102EA000002101F084F8012808D005E0002319462C
:102EB00000F028FD01280BD0FF2008BD009838B194
:102EC00004494FF080500860BFF34F8FBFF36F8FFE
:102ED000002008BD04ED00E000B50B46B0F9082065
:102EE000002183B0842A18BFD11C02AACDE90012A8
:102EF000018A8AB2D0E9001001F0EAF8012814BF73
:102F00000020029803B000BD10B5EFF3058121B198
:102F100001F08EFB012803D00AE000F0F7FA07E089
:102F200004494FF080500860BFF34F8FBFF36F8F9D
:102F3000002010BD04ED00E010B500F079FB00208A
:102F400010BD00002DE9F041194C0F460546E6681A
:102F50002068001D00F052F948B92068012190F85E
:102F60002C0001FA00F0216921EA00002061B5F18E
:102F7000FF3F07D137B12068BDE8F041011D0D4882
:102F800000F079B920683544B5424560206800F109
:102F9000040104D2206CBDE8F04100F04FB9E06BB1
:102FA00000F04CF9A06AA84288BFA562BDE8F08194
:102FB000280000201C030020134E144C60680028D9
:102FC000FCD0206B401C20633068D0B101F050FA77
:102FD00000F05EF9F068C568281D00F00FF9A068E0
:102FE000401EA0606068401E606000F071F9286BB0
:102FF00000F084F9284600F081F960680028E0D1EB
:10300000DCE701F035FAF8E708030020280000208B
:1030100009484068B0F1FF3F4FF0500080F311883D
:1030200004D0BFF34F8FBFF36F8FFEE7BFF34F8F17
:10303000BFF36F8FFEE70000840000202DE9F05FF2
:103040000646002400F08EFBDFF868C100250CF175
:103050001002DCF8000008BB57494FF4406011F043
:10306000070F06D0C81D20F007015348081AC0F505
:10307000406008440838C2E9001520F00700CCF889
:1030800000004560431A0560C1E90003CCF8083030
:103090004FF00040CCF80430CCF80C00DCF80C7099
:1030A0003E4277D1002E75D006F1080313F0070FCA
:1030B0000FD003F00700C0F10800034413F0070F1E
:1030C00007D0502080F31188BFF34F8FBFF36F8F6D
:1030D000FEE7002B5ED0DCF80460B3429CBF3749AA
:1030E000126857D85068984205D2106800281CBF53
:1030F00011460246F6D1DCF8008042454AD0086805
:1031000000F10804106808605068C01A102833D90C
:10311000D11811F0070F07D0502080F31188BFF3AA
:103120004F8FBFF36F8FFEE748605360234B1868E3
:10313000884238BF0346FAD3D3F8049009EB030A58
:103140008A4503D14968494459601946D1F8049029
:1031500009EB010A824518BF08600AD1404508BF43
:10316000C1F8008005D0406848444860186800688D
:1031700008608B4218BF19605168701ACCF80400BF
:10318000DCF80830834288BFCCF8080041EA070029
:10319000C2E9005001F06CF914F0070F04BF20469B
:1031A000BDE8F09F502080F31188BFF34F8FBFF32D
:1031B0006F8FFEE76C000020300300207C000020B1
:1031C0000449086818B10868026D521C0265086855
:1031D00070470000280000204FF0807C40F804CCAD
:1031E00021F0010140F8081C034B40F80C3C40F86A
:1031F000202C40387047000011300008D0E901321F
:1032000001699A60D0E901235A604A68824204BF8A
:1032100082684A60002202610868401E08607047A8
:1032200000F108014FF0FF32C0E90112C1600161F5
:1032300000210160704700210161704710B40B68E4
:10324000B3F1FF3F0CBF026900F1080208D000BFD4
:10325000D2F804C0DCF800409C4298BF6246F7D91F
:1032600053684B6099608A60516008610168491C2D
:10327000016010BC704742684A6093688B60936835
:103280005960916008610168491C01607047000045
:10329000502080F31188BFF34F8FBFF36F8F0A491F
:1032A0004868401C4860012818BF704707480068FC
:1032B00010F0FF0F08BF7047502080F31188BFF354
:1032C0004F8FBFF36F8FFEE78400002004ED00E016
:1032D0000948416839B1491E416018BF7047002054
:1032E00080F311887047502080F31188BFF34F8F0F
:1032F000BFF36F8FFEE7000084000020002808BFA6
:10330000704770B5244EA0F1080550F8041CF06811
:10331000014207D1502080F31188BFF34F8FBFF3D4
:103320006F8FFEE72A683AB1502080F31188BFF30F
:103330004F8FBFF36F8FFEE721EA0000686000F057
:1033400011FA68687168154C084470602068A842DA
:1033500038BF0446FAD361680A19AA4203D16A68E1
:1033600025461144616069684A19824218BF286085
:103370000AD13268904208BF2A6005D040680844EC
:103380006860206800682860AC4218BF2560BDE80E
:10339000704001F06DB800006C0000207C0000203F
:1033A00010B5FCF7F5FE114910280ED300F1E0200E
:1033B00090F8F0030A78824207D9502080F31188F0
:1033C000BFF34F8FBFF36F8FFEE70948006889682E
:1033D00000F4E060884298BF10BD502080F311884F
:1033E000BFF34F8FBFF36F8FFEE700008400002014
:1033F0000CED00E010B5A8B10F490A6B3AB15020AE
:1034000080F31188BFF34F8FBFF36F8FFEE70A6B16
:10341000521C0A630021FFF795FD01F029F80028EE
:1034200018BF10BD4FF0805004490860BFF34F8FA4
:10343000BFF36F8F10BD00002800002004ED00E0F6
:1034400001490120C86170472800002010B50C46D2
:1034500058B10A4A126802F11801FFF7EFFE204640
:10346000BDE810400121FFF76DBD502080F31188A9
:10347000BFF34F8FBFF36F8FFEE7000028000020DF
:1034800070B5040008BF70BD1E4DE06A2968C96AA6
:10349000814298BF70BDA06910F0004F04D1286828
:1034A000C06AC0F10700A061E16A174E01EB81011B
:1034B000606906EB8101884220D1201DFFF79EFE46
:1034C000012158B9E06A00EB800256F822202AB99F
:1034D0002A6901FA00F022EA000028612868C06A1F
:1034E000E0622A6981401143296100EB800006EB0C
:1034F0008000211DBDE87040FFF7BDBE2868C06A8E
:10350000E06270BD280000204002002070B5040079
:1035100010D01D4D2868844208BF70BDFFF7B8FE6B
:103520001A49606988422BD1A06A2839884227D07D
:1035300040B125E0502080F31188BFF34F8FBFF3D7
:103540006F8FFEE7201DFFF759FEE06A01212A690F
:103550008140114329610E4900EB800001EB80009E
:10356000211DFFF788FEE06A2968C96A884207D3EF
:1035700008494FF080500860BFF34F8FBFF36F8F43
:10358000BDE87040FFF7A4BE280000201C03002007
:103590004002002004ED00E028B107490A6A0260F9
:1035A000C96841607047502080F31188BFF34F8F86
:1035B000BFF36F8FFEE700002800002010B582B037
:1035C00016480024CDE900402346402214A11648A5
:1035D00000F07EFD01280CD0B0F1FF3F1CBF02B00F
:1035E00010BD502080F31188BFF34F8FBFF36F8F52
:1035F000FEE7502080F31188BFF34F8FBFF36F8F2A
:103600000A484FF0FF31816201214161C460FFF738
:10361000A4FB02B0BDE8104000F0E8B85400002060
:1036200049444C4500000000B92F00082800002044
:103630002DE9F0410546FFF72BFE464C002D08BF53
:103640002568281DFFF7DAFD434E012758B9E86ABF
:1036500000EB800156F8211029B9216907FA00F022
:1036600021EA00002061A86A00281CBF05F11800AB
:10367000FFF7C4FD291D3948FFF7FDFDFFF728FEC0
:10368000606978B1FFF704FEE06B006800280FBFA7
:103690004FF0FF30E06BC068C06818BF4068A062A0
:1036A000FFF716FE2068854218BFBDE8F08160690B
:1036B00098B1206B38B1502080F31188BFF34F8F41
:1036C000BFF36F8FFEE726494FF080500860BFF3CD
:1036D0004F8FBFF36F8FBDE8F0812048A26801686B
:1036E0000020914204BF2060BDE8F081216B0029D9
:1036F0001CBFE761BDE8F081E061FFF73BFBA06321
:10370000626B904204D92168821A4B6D1A444A6553
:1037100060632069B0FA80F0C0F11F0000EB800008
:1037200056F8201071B106EB800000F108024168E4
:1037300049684160914204BF49684160C86820609F
:10374000BDE8F081502080F31188BFF34F8FBFF3A5
:103750006F8FFEE728000020400200201C0300209D
:1037600004ED00E00248016B491C01637047000052
:103770002800002010B51B4C206B00281EBF012024
:10378000E06110BD0020E061FFF7F4FAA063626B16
:10379000904204D92168821A4B6D1A444A656063CD
:1037A0002069B0FA80F0C0F11F0000EB80010E48E4
:1037B00050F821206AB100EB810000F10802416855
:1037C00049684160914204BF49684160C86820600F
:1037D00010BD502080F31188BFF34F8FBFF36F8F60
:1037E000FEE700002800002040020020244B00B526
:1037F000187883B00190FF20187018788DF80000B9
:103800009DF800001F4A00F050004FF0070C1070A8
:10381000C2F808C09DF80010604611F0800F0BD070
:103820009DF8001049008DF800109DF80010401E12
:1038300011F0800FF4D19060107A000200F4E06083
:103840009060019818701048016841F4700101609F
:10385000016841F0704101600C484FF47A710068D2
:10386000B0FBF1F0411E4FF0E0204161C0F810C004
:1038700000205060FCF756FC03B0002000BD0000A3
:1038800000E400E08400002020ED00E0240000209F
:103890002DE9F0410546012700265020FFF7CEFB19
:1038A00004002BD02460C4E90F76FFF7F1FCD4E9C3
:1038B0000F122068A66301FB020060602068491EA9
:1038C000A06001FB0200E060701E84F8440084F8F0
:1038D000450004F11000FFF7A3FC04F12400FFF7FA
:1038E0009FFCFFF7F5FC84F84C50666000232660CF
:1038F00020461A461946E66000F07EF92046BDE8EB
:10390000F08100002DE9FF4F83B00E464FF0000913
:10391000040001D046B111E0502080F31188BFF3BC
:103920004F8FBFF36F8FFEE7206C38B1502080F3CC
:103930001188BFF34F8FBFF36F8FFEE700F08AFC53
:10394000DFF8B0824FF0000B4FF080574FF0FF359B
:1039500048B9059838B1502080F31188BFF34F8FD4
:10396000BFF36F8FFEE7FFF793FCD4F838A0BAF1EE
:10397000000F35D0E568226C304642B1A918E160ED
:103980006368994224BF2168E160FCF727FC069830
:10399000A0B1E560606A58B104F1240000F02CFD8C
:1039A00030B100BFC8F80070BFF34F8FBFF36F8F07
:1039B000FFF78EFC07B00120BDE8F08FAAF10100EF
:1039C000A063206810B9FFF7FBFB60602069002846
:1039D000EED004F1100000F00FFD0028E8D0E1E780
:1039E0000598002800F0FF80B9F1000F04D1684667
:1039F000FFF7D2FD4FF00109FFF76AFCFFF7B2FEB7
:103A0000FFF746FC94F94400B0F1FF3F08BF84F88B
:103A100044B094F94500B0F1FF3F08BF84F845B0C9
:103A2000FFF756FC05A9684600F018FBF0B3FFF756
:103A30002FFC94F945A0BAF1000F10DD606A70B157
:103A400004F1240000F0D8FC002818BFFFF7F8FCB0
:103A5000AAF101004FFA80FABAF1000FEEDC84F807
:103A60004550FFF735FCFFF713FC94F944A0BAF179
:103A7000000F10DD206970B104F1100000F0BCFCF3
:103A8000002818BFFFF7DCFCAAF101004FFA80FA0A
:103A9000BAF1000FEEDC84F84450FFF719FC00F097
:103AA000E7FCFFF7F5FBA06B002800E003E07CD00B
:103AB000FFF70EFC57E7FFF7EBFBA06B48B1FFF7F2
:103AC00007FCFFF7E5FB94F945A0BAF1000F65DDAF
:103AD00053E0FFF7FDFB206830B9FFF7D9FB6068C2
:103AE000FFF7CEFCFFF7F4FB04F124000599FFF784
:103AF000ADFCFFF7CDFB94F945A0BAF1000F10DD46
:103B0000606A70B104F1240000F076FC002818BF50
:103B1000FFF796FCAAF101004FFA80FABAF1000F04
:103B2000EEDC84F84550FFF7D3FBFFF7B1FB94F9C7
:103B300044A0BAF1000F10DD206970B104F110004B
:103B400000F05AFC002818BFFFF77AFCAAF1010028
:103B50004FFA80FABAF1000FEEDC84F84450FFF718
:103B6000B7FB00F085FC00287FF4FDAEC8F80070BC
:103B7000BFF34F8FBFF36F8FF5E6606A70B104F14A
:103B8000240000F039FC002818BFFFF759FCAAF107
:103B900001004FFA80FABAF1000FEEDC84F84550CC
:103BA000FFF796FBFFF774FB00E01CE094F944A0DC
:103BB000BAF1000F10DD206970B104F1100000F0BF
:103BC0001BFC002818BFFFF73BFCAAF101004FFACD
:103BD00080FABAF1000FEEDC84F84450FFF778FB6E
:103BE00000F046FCBFE6FFF773FB07B00020BDE81E
:103BF000F08F000004ED00E02DE9FF4F83B01D467B
:103C00000E464FF00009040001D046B111E05020EB
:103C100080F31188BFF34F8FBFF36F8FFEE7206CE7
:103C200038B1502080F31188BFF34F8FBFF36F8FEF
:103C3000FEE7022D0AD1E06B012807D0502080F367
:103C40001188BFF34F8FBFF36F8FFEE700F002FBC9
:103C5000DFF8B8824FF0000B4FF0805748B9059855
:103C600038B1502080F31188BFF34F8FBFF36F8FAF
:103C7000FEE7FFF70DFBA06BE16B884208D3022D36
:103C800006D00598002851D0B9F1000F51D055E069
:103C9000AA46D4F8389031460025226C9AB1BAF180
:103CA000000F19D0E068FCF799FAE168206C091A56
:103CB000E1602268914202D26168081AE060BAF1BC
:103CC000020F1BD115E02068C0B9606800F046FB08
:103CD0000546C4F804B011E0A068FCF77FFA216C37
:103CE000A0680844A0606168884224BF2068A06082
:103CF00004E0B9F1000F18BFA9F1010909F10100B1
:103D0000A063606A28B104F1240000F075FB38B1AB
:103D100000E02DB1C8F80070BFF34F8FBFF36F8F75
:103D2000FFF7D6FA07B00120BDE8F08FFFF7D0FA11
:103D300053E06846FFF730FC4FF00109FFF7C8FA7F
:103D4000FFF710FDFFF7A4FA94F94400B0F1FF3F2C
:103D500008BF84F844B094F94500B0F1FF3F08BFB4
:103D600084F845B0FFF7B4FA05A9684600F076F983
:103D7000B8B3FFF78DFA94F94550002D0DDD606A58
:103D800058B104F1240000F037FB002818BFFFF7FA
:103D900057FB681E45B2002DF1DC4FF0FF3684F86A
:103DA0004560FFF795FAFFF773FA94F94450002D38
:103DB0000DDD206958B104F1100000F01DFB002852
:103DC00018BFFFF73DFB681E45B2002DF1DC84F8FB
:103DD0004460FFF77DFA00F04BFB07B00020BDE820
:103DE000F08FFFE7FFF754FAA06BE16B88420ED12A
:103DF000FFF76EFA04F110000599FFF727FBFFF7B4
:103E000047FA94F945A0BAF1000F1BDD09E0FFF76E
:103E10005FFAFFF73DFA94F945A0BAF1000F50DDC3
:103E20003EE0606A70B104F1240000F0E5FA002879
:103E300018BFFFF705FBAAF101004FFA80FABAF1AB
:103E4000000FEEDCFF2184F84510FFF741FAFFF781
:103E50001FFA94F944A0BAF1000F10DD206970B187
:103E600004F1100000F0C8FA002818BFFFF7E8FAC4
:103E7000AAF101004FFA80FABAF1000FEEDCFF2040
:103E800084F84400FFF724FA00F0F2FA00287FF4E7
:103E9000F0AEC8F80070BFF34F8FBFF36F8FE8E646
:103EA000606A70B104F1240000F0A6FA002818BF7F
:103EB000FFF7C6FAAAF101004FFA80FABAF1000F33
:103EC000EEDCFF2184F84510FFF702FAFFF7E0F976
:103ED00094F944A0BAF1000F10DD206970B104F12B
:103EE000100000F089FA002818BFFFF7A9FAAAF11C
:103EF00001004FFA80FABAF1000FEEDCFF2084F8DF
:103F00004400FFF7E5F900F0B3FAB2E604ED00E093
:103F100070B50E46040009D0206C78B1502080F3B3
:103F20001188BFF34F8FBFF36F8FFEE7502080F3F0
:103F30001188BFF34F8FBFF36F8FFEE7206848B93A
:103F4000606838B1502080F31188BFF34F8FBFF302
:103F50006F8FFEE7FFF724FA5020EFF3118580F30F
:103F60001188BFF34F8FBFF36F8FA16BE06B884257
:103F700098BF00200BD994F94500491CA163B0F10A
:103F8000FF3F1CBF401C84F8450003D0012085F38F
:103F9000118870BD606A0028F8D004F1240000F098
:103FA0002BFA00281EBF002E01203060EEE72DE91D
:103FB000F04717460E46040001D046B111E05020EC
:103FC00080F31188BFF34F8FBFF36F8FFEE7206C34
:103FD00038B1502080F31188BFF34F8FBFF36F8F3C
:103FE000FEE7FFF7DDF95020EFF3118580F311882C
:103FF000BFF34F8FBFF36F8FD4F83890B9F1000F34
:1040000008BF002019D094F94480216C304651B18A
:10401000E2681144E1606268914224BF2168E16076
:10402000226CFCF7DBF8A9F10100A06318F1010094
:1040300018BF84F8440004D0012085F31188BDE83E
:10404000F08720690028F7D004F1100000F0D4F9BF
:1040500000281EBF002F01203860EDE770B50D4627
:1040600004001ED02DB3FFF713F91848C268296861
:10407000B1F1FF3F08BF002424D02368D0F820C04E
:10408000634502D0636893421BD96368D21A914298
:1040900017D9891A2960016A2160C068606000240C
:1040A00010E0502080F31188BFF34F8FBFF36F8F64
:1040B000FEE7502080F31188BFF34F8FBFF36F8F5F
:1040C000FEE70124FFF704F9204670BD2800002018
:1040D0002DE9F84F8346DDE90A5990009A4690464B
:1040E0000E460090FEF7AAFF070050D05820FEF7BA
:1040F000A5FF040048D02763A52238460099FCF7A5
:104100007FF86FF0030101EB8801206B4FF000088E
:10411000084420F0070740462118325C81F834201B
:10412000315C00291CBF401C1028F5D384F8438063
:10413000072D28BF0625201DE562C4E91358FFF7A7
:104140007AF804F11800FFF776F82461C5F1070149
:104150006462A161524659463846C4F85480FFF75C
:104160003BF82060B9F1000F18BFC9F800402546A0
:10417000FFF78EF82F4EB068401CB06030682E4FAD
:1041800048B1706958B330E03846FFF7B7F84FF0E0
:10419000FF30BDE8F88F3560B068012808BF002403
:1041A00023D100BF04EB840007EB8000FFF738F851
:1041B000641C072CF6D32148FFF732F82048FFF79C
:1041C0002FF82048FFF72CF81F48FFF729F81F4861
:1041D000FFF726F81948F0631430306405E03068C2
:1041E000E96AC06A884298BF3560706A0121401C44
:1041F00070626864E86A326981401143316100EBA2
:10420000800007EB8000291DFFF735F8FFF760F805
:10421000706960B13068E96AC06A884207D20C49A7
:104220004FF080500860BFF34F8FBFF36F8F0120B6
:10423000BDE8F88F2800002040020020CC020020BA
:10424000E0020020F4020020080300201C030020EC
:1042500004ED00E005484169002904BF01207047D2
:10426000006B00280CBF02200020704728000020AF
:104270002DE9F047374D0027286B48B1A869401C4D
:10428000A861E869002818BF01273846BDE8F08713
:10429000E868461CEE604FF0FF391DD1E86B0068FE
:1042A00038B1502080F31188BFF34F8FBFF36F8F69
:1042B000FEE7E86B296CE9632864286A401C2862E1
:1042C000E86B0068002808BFC5F8289004D0E86BA8
:1042D000C068C0684068A862A86ADFF87C80B04205
:1042E00098BF4FF0010A0CD8E86B006838B1E86B52
:1042F000C068C468606886420DD2A86201E0C5F853
:1043000028902868C06A00EB800058F82000012837
:1043100088BF0127B5E7201DFEF770FFA06A0028BF
:104320001CBF04F11800FEF769FFE06A2A690AFA67
:1043300000F11143296100EB800008EB8000211D92
:10434000FEF799FFE06A2968C96A884228BF0127F9
:10435000CAE70000280000204002002070B50400D9
:104360004FF0000141D0224D2868844207D05020F0
:1043700080F31188BFF34F8FBFF36F8FFEE7206D7F
:1043800038B1401E2065E36CE26A9A422DD040B1FC
:104390002BE0502080F31188BFF34F8FBFF36F8F56
:1043A000FEE7201DFEF72AFF1249012258B9E06AF4
:1043B00000EB800351F823302BB92B6902FA00F08F
:1043C00023EA00002861E06CE062C0F10700A06110
:1043D000E06A2B6982401A432A6100EB800001EBFE
:1043E0008000211DFEF747FF0121084670BD000037
:1043F000280000204002002070B5C068C468C4B125
:1044000004F11800FEF7FAFE164D286B012600286D
:104410001CBF04F11801144813D000BFFEF72BFF96
:10442000E06A2968C96A884286BF0120EE610020DF
:1044300070BD502080F31188BFF34F8FBFF36F8F93
:10444000FEE7201DFEF7DAFEE06A2A6906FA00F1AF
:1044500011432961054900EB800001EB8000211D1B
:10446000DCE7000028000020F402002040020020C9
:104470002DE9F84F6B4E00200090306B38B1FEF7FD
:1044800007FF306B401E3063306B40B166E0502058
:1044900080F31188BFF34F8FBFF36F8FFEE7B068D3
:1044A00000285BD0604D4FF0FF37A5F1B4082868B5
:1044B0004FF0010B60B3E868C46804F11800FEF720
:1044C0009DFE201DFEF79AFEE06A32690BFA00F1AC
:1044D0001143316100EB800008EB8000211DFEF7E5
:1044E000CAFEE06A3168C96A884228BFC6F81CB0B3
:1044F00028680028DFD15CB1F16B304609680029DB
:1045000008BF876204D0C16BC968C9684968816205
:10451000D6F81890B9F1000F15D000BF306B4FF0EE
:10452000000A00B3B069401CB061F069002808BF00
:10453000BAF1000F02D000BFC6F81CB0B9F10109F2
:10454000ECD10020B061F06940B101203749009002
:1045500000070860BFF34F8FBFF36F8FFEF7B8FE01
:104560000098BDE8F88FF0683546471CF7600DD01D
:10457000A86AB8422CD8E86B006830B3E86BC06812
:10458000C468606887422ED2A86221E0E86B0068A8
:1045900038B1502080F31188BFF34F8FBFF36F8F76
:1045A000FEE7E86B296CE9632864286A401C2862EE
:1045B000E86B006800281FBFE86BC068C0684068EF
:1045C00008BF4FF0FF30A862D2E74FF0FF30A8627B
:1045D0002868C06A00EB800058F82000012888BFD6
:1045E000E869A9D8A1E7201DFEF708FEA06A002807
:1045F0001CBF04F11800FEF701FEE06A2A690BFAFD
:1046000000F11143296100EB800008EB8000211DBF
:10461000FEF731FEE06A2968C96A884228BF4FF078
:10462000010AA8E728000020F402002004ED00E0C1
:104630002DE9F0410027040014D0FEF7B1FE502010
:10464000EFF3118580F31188BFF34F8FBFF36F8FA6
:104650001A49606988422CD1A06A2839884228D03A
:1046600040B126E0502080F31188BFF34F8FBFF395
:104670006F8FFEE7124E306B00281CBF04F118014B
:10468000104814D1E06A3168C96A884228BF0127FE
:10469000201DFEF7B3FDE06A01213269814011431C
:1046A0003161094900EB800001EB8000211DFEF71C
:1046B000E2FD85F311883846BDE8F0811C03002037
:1046C00028000020F402002040020020B043101017
:1046D00001B04310100100002C47000869230008B6
:1046E0000000000000000000400000003847000803
:1046F00095230008020000000000000000010000F7
:1047000044470008452400080200000000000000A3
:10471000000100000000000000000000010203048E
:1047200006070809000000000102030444656661F1
:10473000756C745461736B004E52465F52785461CD
:10474000736B00004E52465F54785461736B0000E7
:10475000704700080000002094000000D8280008DE
:1047600004480008940000209C140000E828000879
:104770000000000000000000000000000000000039
:104780000000000000000000010000001000000018
:104790000000000000A24A04000000000000000029
:1047A0000000000000000000000000000000000009
:1047B00000000000000000000000000000000000F9
:1047C00000000000000000000000000000000000E9
:1047D00000000000000000000000000000000000D9
:1047E00000000000000000000000000000000000C9
:1047F0000000000000000000AAAAAAAA0000000011
:0448000000000000B4
:04000005080000ED02
:00000001FF
