:020000040800F2
:10000000F0040020010100081B1500082B0E000859
:10001000171500086D010008211C000800000000F1
:10002000000000000000000000000000C3150008F0
:1000300071010008000000005915000819010008AE
:100040001B0100081B0100081B0100081B01000820
:100050001B0100081B0100081B0100081B01000810
:100060001B0100081B0100081B0100081B01000800
:100070001B0100081B0100081B0100081B010008F0
:100080001B0100081B0100081B0100081B010008E0
:100090001B0100081B0100081B0100081B010008D0
:1000A0001B0100081B0100081B0100081B010008C0
:1000B0001B0100081B0100081B0100081B010008B0
:1000C0001B0100081B0100081B0100081B010008A0
:1000D0001B0100081B0100081B0100081B01000890
:1000E0001B0100081B0100081B010008DFF80CD0F1
:1000F00000F02AF800480047431C0008F0040020E4
:100100000648804706480047FEE7FEE7FEE7FEE7B1
:10011000FEE7FEE7FEE7FEE7FEE7FEE71F17000843
:10012000ED000008D2B201E000F8012B491EFBD21D
:1001300070470022F6E710B513460A4604461946F2
:10014000FFF7F0FF204610BD064C074D06E0E068C3
:1001500040F0010394E8070098471034AC42F6D30E
:10016000FFF7C8FFA01C0008C01C000800BFFEE786
:100170007047704710B504460CB9012010BD607976
:1001800020B900202071204600F004F801206071A1
:100190000020F3E708B54FF44052C4F202020168B0
:1001A000914213D100BF4FF48051C4F2020149695A
:1001B00041F040014FF48052C4F2020251611146F5
:1001C000496901F04001009100BF00BF08BD2DE961
:1001D000F84703460024002000258446002700221B
:1001E00084E14FF0010808FA02F4D1F8008008EA2F
:1001F0000400A0426FD14FF0000AC1F2110AD1F8F9
:100200000480A8EB0A09D0453AD014DCB8F1030FFA
:1002100050D009DCB8F1000F31D0B8F1010F1CD07B
:10022000B8F1020F49D120E0B8F1110F18D0B8F1A0
:10023000120F42D11EE0B9F5881F25D006DCB9F5B2
:10024000803F20D0B9F5801F37D11AE0B9F5001FE3
:1002500018D0B9F5041F30D117E0D1F80CC02DE04B
:10026000D1F80C8008F1040C28E0D1F80C8008F1DA
:10027000080C23E0D1F80C8008F10C0C1EE000BF44
:1002800000BF00BF00BF00BF00BFD1F80880B8F1B9
:10029000000F02D14FF0040C0BE0D1F80880B8F148
:1002A000010F03D14FF0080C1C6102E04FF0080C65
:1002B0005C6103E04FF0000C00E000BF00BFFF28CE
:1002C00001D8984601E003F104084646FF2803D808
:1002D0004FEA820804E08DE0A2F108084FEA88089E
:1002E0004746D6F800804FF00F0909FA07F928EAC7
:1002F00009080CFA07F948EA0908C6F80080D1F89D
:10030000048008F08058B8F1805F73D100BF4FF4CB
:100310008058C4F20208D8F8188048F001084FF459
:100320008059C4F20209C9F81880C846D8F8188064
:1003300008F00108CDF8008000BF00BF4FEAB938CF
:100340004FEA920958F829504FEA82784FEA187913
:100350004FF00F0808FA09F825EA08054FF400687D
:10036000C4F20108434502D14FF000081CE04FF4ED
:100370004068C4F20108434502D14FF0010813E080
:100380004FF48058C4F20108434502D14FF00208EF
:100390000AE04FF4A058C4F20108434502D14FF0DF
:1003A000030801E04FF004084FEA82794FEA197917
:1003B00008FA09F848EA05054FF00808C4F20108F0
:1003C0004FEA920948F82950D1F8048008F480389F
:1003D000B8F5803F0FD14FF48068C4F20108D8F817
:1003E000008048EA00084FF48069C4F20109C9F8A6
:1003F00000800EE079E04FF48068C4F20108D8F87C
:10040000008028EA00084FF48069C4F20109C9F8A5
:100410000080D1F8048008F40038B8F5003F0ED110
:1004200040F20448C4F20108D8F8008048EA000805
:1004300040F20449C4F20109C9F800800DE040F21D
:100440000448C4F20108D8F8008028EA000840F205
:100450000449C4F20109C9F80080D1F8048008F405
:100460008018B8F5801F0ED14FF48168C4F20108DE
:10047000D8F8008048EA00084FF48169C4F2010905
:10048000C9F800800DE04FF48168C4F20108D8F883
:10049000008028EA00084FF48169C4F20109C9F814
:1004A0000080D1F8048008F40018B8F5001F0ED1C0
:1004B00040F20C48C4F20108D8F8008048EA00086D
:1004C00040F20C49C4F20109C9F800800DE040F285
:1004D0000C48C4F20108D8F8008028EA000840F26D
:1004E0000C49C4F20109C9F80080521C102AFFF41B
:1004F00078AEBDE8F88770B50446002600250CB933
:10050000012070BD94F83D0028B9002084F83C001B
:10051000204600F0B7F8242084F83D0020680068E9
:1005200020F001002168086000F0BDF9054648F29E
:10053000A061C0F201016068884209D848F2804099
:10054000C0F21E00854201D201200AE0002008E02E
:100550004FF41060C0F23D00854201D2012000E05E
:100560000020012800D1CCE744F24020C0F20F0067
:10057000B5FBF0F62068466048F2A061C0F20101C8
:100580006068884201D8701C07E04FF49670704391
:100590004FF47A71B0FBF1F0401C2168086248F218
:1005A000A061C0F201016068884214D8681E6168C9
:1005B0004900B0FBF1F0401CC0F30B00042801D24D
:1005C00004203DE0681E61684900B0FBF1F0401C6A
:1005D000C0F30B0034E0A06838B9681E616801EB15
:1005E0004101B0FBF1F0401C0AE0681E616801EBBC
:1005F000C10202EB0111B0FBF1F0401C40F480405D
:10060000C0F30B0008B901201AE0A06848B9681EC1
:10061000616801EB4101B0FBF1F0401CC0F30B003D
:100620000CE0681E616801EBC10202EB0111B0FB36
:10063000F1F0401CC0F30B0040F4804040F4004057
:100640002168C861D4E90701084321680860D4E93A
:100650000310084321688860D4E905010843216834
:10066000C8602068006840F0010021680860002030
:100670002064202084F83D000020206384F83E00A0
:1006800000BF3EE710B586B00446002002900390FC
:10069000049005904FF4B041C4F2000120688842F4
:1006A00035D100BF4FF48050C4F20200806940F0A1
:1006B00008004FF48051C4F2020188610846806945
:1006C00000F00800019000BF00BF4FF440600290AE
:1006D000122003900320059002A94FF44060C4F259
:1006E0000100FFF774FD00BF4FF48050C4F2020018
:1006F000C06940F480004FF48051C4F20201C86127
:100700000846C06900F48000019000BF00BF06B039
:1007100010BD10B54FF40050C4F20200006840F064
:1007200010004FF40051C4F202010860032000F0F1
:100730009CF8002000F004F800F02BF8002010BD19
:1007400070B5044640F21000C2F2000000784FF489
:100750007A71B1FBF0F040F21401C2F200010968B5
:10076000B1FBF0F5284600F0C0F808B1012070BDDB
:10077000102C0AD200222146501E00F038F840F218
:100780000C00C2F20000046001E00120EFE700204D
:10079000EDE708B500BF4FF48050C4F20200806955
:1007A00040F001004FF48051C4F202018861084614
:1007B000806900F00100009000BF00BF00BF084644
:1007C000C06940F08050C8610846C06900F08050A0
:1007D000009000BF00BF00BF0021C4F201014868C3
:1007E00020F0E06040F00070486000BF08BD2DE9D7
:1007F000F05F80460D461646002700F08FFE074644
:1008000039462A46334601F00700C0F1070ABAF11B
:10081000040F02D94FF0040A01E0C0F1070AD146E3
:1008200000F1040ABAF1070F02D24FF0000A01E00A
:10083000A0F1030AD4464FF0010A0AFA09FAAAF114
:10084000010A0AEA020A0AFA0CFA4FF0010B0BFA43
:100850000CFBABF1010B0BEA030B4AEA0B0421463C
:10086000404600F063FEBDE8F09F00BF00F00702C5
:100870004EF60C53CEF2000319684FF6FF031940F1
:1008800041F0FD7343F0806343EA02214EF60C53BE
:10089000CEF20003196000BF704740F21400C2F2AC
:1008A00000000068704700B5FFF7F7FF4FF4805174
:1008B000C4F202014968C1F3022141F69642C0F632
:1008C0000002515CC84000BD00B5FFF7E6FF4FF4E1
:1008D0008051C4F202014968C1F3C22141F6964237
:1008E000C0F60002515CC84000BD70B50446254604
:1008F000681EB0F1807F01D301200FE0681E4FF029
:10090000E02148610F214FF0FF3000F00FFE002082
:100910004FF0E021886107200861002070BD024689
:1009200000BF92F83C00012801D10220704701204D
:1009300082F83C0000BF022082F83D001068406849
:1009400020F0700013685860106840680B68184306
:10095000136858601068806820F080001368986001
:10096000106880684B68184313689860012082F80B
:100970003D0000BF002082F83C0000BF00BFD5E76B
:1009800010B504460CB9012010BD94F83D0028B9FB
:10099000002084F83C00204600F00CF8022084F887
:1009A0003D00211D206800F0ECFE012084F83D0090
:1009B0000020E9E708B54FF48062C4F20002016844
:1009C000914213D100BF4FF48051C4F20201C969B2
:1009D00041F002014FF48052C4F20202D16111468B
:1009E000C96901F00201009100BF00BF08BD0146C6
:1009F000022081F83D000868006840F001000A68A4
:100A00001060012081F83D00002070472DE9F04181
:100A100004460D46002600BF94F83C00012802D190
:100A20000220BDE8F081012084F83C0000BF0220D4
:100A300084F83D002068866826F0770626F47F4615
:100A400020688660286850283BD00CDC202860D0C5
:100A500004DC002853D0102865D155E030285DD043
:100A6000402860D141E0602835D070280DD0B0F525
:100A7000805F03D0B0F5005F55D115E02068806835
:100A800020F00700216888604EE0D5E902136A680B
:100A9000206800F0CCFE2068866826F0770646F0D5
:100AA0007706206886603FE0D5E902136A6820680F
:100AB00000F0BDFE2068806840F4804021688860B6
:100AC00032E0EA686968206800F09AFF50212068E7
:100AD00000F0B9FE28E0EA686968206800F0A5FF28
:100AE0006021206800F0AFFE1EE0EA6869682068B7
:100AF00000F086FF4021206800F0A5FE14E00021F0
:100B0000206800F0A0FE0FE01021206800F09BFE9E
:100B10000AE02021206800F096FE05E030212068E0
:100B200000F091FE00E000BF00BF012084F83D000E
:100B300000BF002084F83C0000BF00BF71E710B583
:100B400086B00446002002900390049005904FF474
:100B50008061C4F20001206888421FD100BF4FF4B9
:100B60008050C4F20200806940F004004FF48051CC
:100B7000C4F2020188610846806900F00400019017
:100B800000BF00BF8020029002200390059002A9C0
:100B90004FF40060C4F20100FFF719FB06B010BD6E
:100BA00070B504460D46164600BF94F83C00012877
:100BB00001D1022070BD012084F83C0000BF02205A
:100BC00084F83D0036B1042E1BD0082E31D00C2EF7
:100BD0005ED145E02946206800F03FFE206880692C
:100BE00040F00800216888612068806920F00400D6
:100BF00021688861206880692969084321688861C3
:100C000047E02946206800F05EFE2068806940F4D5
:100C10000060216888612068806920F48060216814
:100C2000886120688069296940EA0120216888611B
:100C30002FE02946206800F081FE2068C06940F05E
:100C400008002168C8612068C06920F0040021689C
:100C5000C8612068C069296908432168C86118E033
:100C60002946206800F0A4FE2068C06940F40060B6
:100C70002168C8612068C06920F480602168C8616B
:100C80002068C069296940EA01202168C86100E044
:100C900000BF00BF012084F83D0000BF002084F8A1
:100CA0003C0000BF00BF85E710B504460CB9012029
:100CB00010BD94F83D0028B9002084F83C0020467F
:100CC00000F00CF8022084F83D00211D206800F09F
:100CD00058FD012084F83D000020E9E7704730B559
:100CE00004460D4601222946206800F092FD4FF48B
:100CF0003051C4F201012068884201D1012000E096
:100D0000002028B12068406C40F40040216848640D
:100D10002068006840F0010021680860002030BDB4
:100D200010B504460CB9012010BDA06900B100E067
:100D300000BF94F8390028B9002084F83800204614
:100D400000F027F8242084F839002068C06820F4D7
:100D500000502168C860204600F07DFE20680069D0
:100D600020F49040216808612068406920F02A0042
:100D7000216848612068C06840F400502168C8605C
:100D80000020E063202084F8390084F83A00002035
:100D9000CAE710B586B00446002002900390049084
:100DA00005904FF46051C4F20101206888423AD1A5
:100DB00000BF4FF48050C4F20200806940F48040CC
:100DC0004FF48051C4F2020188610846806900F442
:100DD0008040019000BF00BF00BF0846806940F01E
:100DE000040088610846806900F00400019000BF9B
:100DF00000BF48150290022003900320059002A92D
:100E00004FF40060C4F20100FFF7E1F94FF4806095
:100E1000029000200390049002A94FF40060C4F2F5
:100E20000100FFF7D4F906B010BD00BFFEE770B5B2
:100E300006469F237F220021084600F042FA2C201C
:100E400000F04CF9002408E0002503E0304600F0F3
:100E500002F96D1CA02DF9D3641C802CF4D370BD55
:100E600010B54021C0F240414FF44060C4F201008F
:100E700000F0F7F9642000F010FA4021C0F2404180
:100E80004FF44060C4F2010000F0EFF9322000F0AE
:100E900004FA112000F022F9782000F0FEF9B120C8
:100EA00000F01CF9052000F0F9F83C2000F0F6F8FD
:100EB0003C2000F0F3F8B22000F010F9052000F01B
:100EC000EDF83C2000F0EAF83C2000F0E7F8B32011
:100ED00000F004F9052000F0E1F83C2000F0DEF815
:100EE0003C2000F0DBF8052000F0D8F83C2000F0B2
:100EF000D5F83C2000F0D2F8B42000F0EFF8032041
:100F000000F0CCF8C02000F0E9F8282000F0C6F886
:100F1000082000F0C3F8042000F0C0F8C12000F061
:100F2000DDF8C02000F0BAF8C22000F0D7F80D209C
:100F300000F0B4F8002000F0B1F8C32000F0CEF8C3
:100F40008D2000F0ABF82A2000F0A8F8C42000F0B3
:100F5000C5F88D2000F0A2F8EE2000F09FF8C52023
:100F600000F0BCF81A2000F099F8362000F0B6F82E
:100F7000C02000F093F8E02000F0B0F8042000F06A
:100F80008DF8222000F08AF8072000F087F80A2068
:100F900000F084F82E2000F081F8302000F07EF878
:100FA000252000F07BF82A2000F078F8282000F0B7
:100FB00075F8262000F072F82E2000F06FF83A2025
:100FC00000F06CF8002000F069F8012000F066F8ED
:100FD000032000F063F8132000F060F8E12000F037
:100FE0007DF8042000F05AF8162000F057F806208B
:100FF00000F054F80D2000F051F82D2000F04EF8CC
:10100000262000F04BF8232000F048F8272000F0BD
:1010100045F8272000F042F8252000F03FF82D2069
:1010200000F03CF83B2000F039F8002000F036F8E2
:10103000012000F033F8042000F030F8132000F015
:101040002DF83A2000F04AF8052000F027F8292072
:1010500000F044F810BD10B504461021C0F2104154
:101060004FF44060C4F2010000F0FBF840F20221AE
:101070004FF44060C4F2010000F0F7F8201200F0D5
:101080006CFAE0B200F069FA1021C0F210414FF49E
:101090004060C4F2010000F0E8F810BD10B504464D
:1010A0001021C0F210414FF44060C4F2010000F082
:1010B000D8F840F202214FF44060C4F2010000F081
:1010C000D4F8204600F049FA1021C0F210414FF444
:1010D0004060C4F2010000F0C8F810BD10B504462D
:1010E0001021C0F210414FF44060C4F2010000F042
:1010F000B8F840F202214FF44060C4F2010000F061
:10110000B0F8204600F029FA1021C0F210414FF447
:101110004060C4F2010000F0A8F810BD08B54FF41B
:101120008051C4F20201896901434FF48052C4F234
:1011300002029161114689690140009100BF08BD1A
:101140002DE9F04102460B461868C0F30F2595FAC9
:10115000A5F0B0FA80F47CE00120A04028400028EF
:1011600076D0082C04D240F2011000FA04F106E017
:10117000A4F108004FF00116864046F080615868DF
:1011800002EB116691FAA1FCBCFA8CFC4FEA8C08C8
:101190004FF00F0C0CFA08FC376827EA0C0791FA9D
:1011A000A1FCBCFA8CFC4FEA8C0C00FA0CFC47EA60
:1011B0000C07376000BF1869D66826EA11260F0AA7
:1011C00097FAA7F7B7FA87F700FA07F73E43D66012
:1011D00000BF5868012802D05868092838D198689B
:1011E00002EB116691FAA1FCBCFA8CFC4FEA8C0868
:1011F0004FF0030C0CFA08FC376827EA0C0791FA49
:10120000A1FCBCFA8CFC4FEA8C0C00FA0CFC47EAFF
:101210000C07376000BFD86802EB116691FAA1FC99
:10122000BCFA8CFC4FEA8C084FF0040C0CFA08FC5A
:10123000376827EA0C0791FAA1FCBCFA8CFC4FEA4C
:101240008C0C00FA0CFC47EA0C07376000BF00BFAB
:10125000641C25FA04F000287FF47EAF0120BDE86D
:10126000F081C1F30F2242617047C1F30F22026186
:1012700070474FF47A71B0FBF1F2521E4FF0E02349
:101280005A6100229A6105221A6100BF704740F23C
:101290001401C2F200010860704708B54FF0E02168
:1012A0000969009100BF411C01B1401C06E04FF0EC
:1012B000E021096901F4803101B1401E0028F6D116
:1012C00008BD2DE9F04104460D4616461F462A206A
:1012D000FFF704FF0020FFF7E1FEE0B2FFF7DEFEBC
:1012E0000020FFF7DBFEF0B2FFF7D8FE2B20FFF760
:1012F000F5FE0020FFF7D2FEE8B2FFF7CFFE002098
:10130000FFF7CCFEF8B2FFF7C9FE2C20FFF7E6FE90
:10131000BDE8F08110B54FF44050C4F2020040F235
:101320000001C2F2000108600846FEF723FF08B181
:10133000FEF71FFF10BD00B585B014216846FEF70B
:10134000F8FE2020FFF7EAFE0420FFF7E7FE082062
:10135000FFF7E4FE40F2F220C0F2F040C0F30F21AC
:101360004FF44062C4F20102516100BF4CF2C3006D
:10137000C0F20340C0F30F21116100BF46F27900B3
:10138000C0F21940009008200190002004906946A6
:101390004FF40060C4F20100FFF7D2FE4CF2F320DC
:1013A000C0F2F34000900120019003200290002041
:1013B000039069464FF44060C4F20100FFF7C0FE9D
:1013C00005B000BD10B54FF4B040C4F2000040F2CB
:1013D0001801C2F2000108604FF4D450C0F20600B8
:1013E0004860002140F21800C2F200008160C16034
:1013F0004FF480410161002141618161C16101625D
:10140000FFF779F808B1FEF7B4FE10BD00B58DB056
:10141000002009900A900B900C90079008901C21D6
:101420006846FEF786FE4FF48060C4F2000040F28A
:101430006C01C2F20001086047204860002140F2C0
:101440006C00C2F2000081600B21C16000210161CB
:101450008161FFF795FA08B1FEF78BFE4FF48050DB
:10146000099009A940F26C00C2F20000FFF7CEFA21
:1014700008B1FEF77EFE40F26C00C2F20000FFF7FA
:1014800013FC08B1FEF775FE00200790089007A92D
:1014900040F26C00C2F20000FFF741FA08B1FEF71B
:1014A00068FE602000900B200190002002900490C4
:1014B0000422694640F26C00C2F20000FFF770FBA4
:1014C00008B1FEF756FE40F26C00C2F20000FFF7D2
:1014D00036FB0DB000BD10B54FF46050C4F20100F2
:1014E00040F2AC01C2F2000108604FF4E130486004
:1014F000002140F2AC00C2F200008160C1600161D5
:101500000C21416100218161C161FFF709FC08B133
:10151000FEF72FFE10BD00BFFEE770474EF60C50E1
:10152000CEF200000068C0F30220704710B500281A
:101530000ADA0A07140E4EF61852CEF2000200F034
:101540000F031B1FD45406E00A07130E4FF4644226
:10155000CEF20002135410BD704770B5044600254A
:1015600008252BE004F0800048B18021C0F28041C2
:101570004FF44060C4F20100FFF777FE08E08021DD
:10158000C0F280414FF44060C4F20100FFF769FEF1
:101590002021C0F220414FF44060C4F20100FFF767
:1015A00060FE2021C0F220414FF44060C4F20100EF
:1015B000FFF75BFE6006040E681EC5B2002DD1DC8D
:1015C00070BD704710B502204FF40051C4F2020103
:1015D000096821F0070101434FF40052C4F20202EE
:1015E000116000BF00BF1046006800F0070002282D
:1015F00001D0FEF7BEFD00BF4FF48050C4F20200E0
:10160000006840F480304FF48051C4F20201086059
:1016100000BF00BF00BF4FF48050C4F2020000685A
:10162000C0F340400028F5D04FF4803001014FF462
:101630008052C4F20202526822F47C1200F4403359
:101640000B431A434FF48053C4F202035A6000BFA5
:1016500000BF1846006840F080701946086000BF5F
:1016600000BF00BF4FF48050C4F202000068C0F316
:1016700040600028F5D000204FF48051C4F20201F0
:10168000496821F0F00101434FF48052C4F2020294
:10169000516000BF10151146496821F4E061014313
:1016A000516000BF00201146496821F46051014398
:1016B000516000BF02201146496821F00301014337
:1016C000516000BF00BF00BF4FF48050C4F2020061
:1016D000406800F00C000828F5D14FF42240C0F219
:1016E0004A40FFF7C6FD0420042808D14FF0E0214E
:1016F000096941F004014FF0E022116107E04FF069
:10170000E021096921F004014FF0E022116100BFDE
:101710004FF42240C0F24A40FFF7B9FD10BD4FF42C
:101720008050C4F20200006840F001004FF4805184
:10173000C4F202010860084640680021CFF6FF01AC
:1017400008404FF48051C4F2020148600846006826
:1017500020F4102020F0807008600846006820F413
:10176000802008600846406820F4FE0048604FF47E
:101770001F008860C8034EF60851CEF200010860D1
:101780007047002202684FF43053C4F201039842BC
:101790000ED0B0F1804F0BD04FF48063C4F2000341
:1017A000984205D04FF40063C4F20003984203D17D
:1017B00022F070024B681A434FF43053C4F2010315
:1017C00098420ED0B0F1804F0BD04FF48063C4F23A
:1017D0000003984205D04FF40063C4F2000398421E
:1017E00003D122F44072CB681A4322F080024B6985
:1017F0001A4302608B68C3620B6883624FF43053F4
:10180000C4F20103984201D10B69036301234361D0
:10181000704730B50023012404FA01F3046A9C43A5
:101820000462046A02FA01F52C43046230BD30B54B
:101830000C460021816821F47F4142EA03252543BB
:101840002943816030BD0A460021816821F0700182
:1018500042F0070319438160704730B5002400222D
:101860000023056A25F001050562026A4368846960
:1018700024F0700424F003040D682C4322F00202CB
:101880008D682A434FF43055C4F20105A84206D1B1
:1018900000BF22F00802CD682A4322F004024FF470
:1018A0003055C4F20105A84207D123F4807323F414
:1018B00000734D692B438D692B43436084614D68F0
:1018C0004563026230BD30B5002400220023056A62
:1018D00025F010050562026A4368846924F4E04437
:1018E00024F440740D6844EA052422F020028D6837
:1018F00042EA05124FF43055C4F20105A84207D15F
:1019000000BF22F08002CD6842EA051222F04002B8
:101910004FF43055C4F20105A84209D123F4806385
:1019200023F400634D6943EA85038D6943EA850327
:10193000436084614D688563026230BD30B5002428
:1019400000220023056A25F480750562026A436857
:10195000C46924F0700424F003040D682C4322F4BD
:1019600000728D6842EA05224FF43055C4F2010539
:10197000A84207D100BF22F40062CD6842EA0522E6
:1019800022F480624FF43055C4F20105A84209D117
:1019900023F4805323F400534D6943EA05138D6902
:1019A00043EA05134360C4614D68C563026230BDFC
:1019B00030B5002200230024056A25F48055056215
:1019C000036A4468C26922F4E04222F440720D685E
:1019D00042EA052223F400538D6843EA05334FF4AD
:1019E0003055C4F20105A84204D124F480444D6965
:1019F00044EA85144460C2614D680564036230BDE9
:101A000030B50B46144600210022026A056A25F013
:101A100001050562816921F0F00141EA041122F01B
:101A20000A021A438161026230BD30B50B4614468A
:101A300000210022056A25F0100505628169026A0D
:101A400021F4704141EA043122F0A00242EA03127B
:101A50008161026230BD2DE9F04104460025206815
:101A6000006920F44050E168084321680861216959
:101A7000A06808436169084305432068C06820F4F2
:101A8000037020F4A05028432168C8602068406992
:101A900020F44070A1690843216848614FF4605107
:101AA000C4F20101206888425CD1FEF70DFF00EB13
:101AB000C00101EB001061688900B0FBF1F6FEF790
:101AC00003FF00EBC00101EB001061688900B0FB6F
:101AD000F1F06421B0FBF1F000EBC00101EB00106C
:101AE000A6EB8000322101EB00106421B0FBF1F085
:101AF00000F0F006FEF7E8FE00EBC00101EB00107D
:101B000061688900B0FBF1F06421B0FBF1F006EBF5
:101B10000016FEF7D9FE00EBC00101EB0010616872
:101B20008900B0FBF1F7FEF7CFFE00EBC00101EB3F
:101B3000001061688900B0FBF1F06421B0FBF1F0A6
:101B400000EBC00101EB0010A7EB8000322101EB9C
:101B500000106421B0FBF1F000F00F003044216868
:101B600088605BE0FEF79FFE00EBC00101EB001018
:101B700061688900B0FBF1F6FEF795FE00EBC0014D
:101B800001EB001061688900B0FBF1F06421B0FB4B
:101B9000F1F000EBC00101EB0010A6EB8000322158
:101BA00001EB00106421B0FBF1F000F0F006FEF74D
:101BB0007AFE00EBC00101EB001061688900B0FB08
:101BC000F1F06421B0FBF1F006EB0016FEF76BFEBE
:101BD00000EBC00101EB001061688900B0FBF1F778
:101BE000FEF761FE00EBC00101EB001061688900A7
:101BF000B0FBF1F06421B0FBF1F000EBC00101EBB0
:101C00000010A7EB8000322101EB00106421B0FB33
:101C1000F1F000F00F00304421688860BDE8F081E9
:101C200000BFFEE702E008C8121F08C1002AFAD16F
:101C300070477047002001E001C1121F002AFBD14C
:101C40007047FEF766FDFFF7BDFCFFF774FBFFF77B
:101C5000B9FBFFF7DBFBFFF75DFBFFF73CFC40F256
:101C60006C00C2F20000FEF7C2FE042140F26C00DC
:101C7000C2F20000FFF733F8FFF7F2F80020FFF799
:101C8000D6F800BFFEE700000000000000000102DF
:101C90000304060708090000000001020304000015
:101CA000C01C00080000002018000000241C0008D0
:101CB000D81C000818000020D8040000341C0008BC
:101CC0000000000000000000000000001000000004
:081CD0000100000000A24A041B
:04000005080000ED02
:00000001FF
